{
  "contractName": "CertificateNetwork",
  "abi": [
    {
      "anonymous": false,
      "inputs": [
        {
          "indexed": false,
          "internalType": "address",
          "name": "newAddress",
          "type": "address"
        },
        {
          "indexed": false,
          "internalType": "string",
          "name": "role",
          "type": "string"
        }
      ],
      "name": "Register",
      "type": "event"
    },
    {
      "anonymous": false,
      "inputs": [
        {
          "indexed": false,
          "internalType": "address",
          "name": "addr",
          "type": "address"
        },
        {
          "indexed": false,
          "internalType": "string",
          "name": "role",
          "type": "string"
        }
      ],
      "name": "RoleRemoved",
      "type": "event"
    },
    {
      "constant": false,
      "inputs": [
        {
          "internalType": "address",
          "name": "newUserAddress",
          "type": "address"
        },
        {
          "internalType": "string",
          "name": "newRole",
          "type": "string"
        }
      ],
      "name": "register",
      "outputs": [],
      "payable": false,
      "stateMutability": "nonpayable",
      "type": "function"
    },
    {
      "constant": true,
      "inputs": [
        {
          "internalType": "address",
          "name": "checkAddress",
          "type": "address"
        },
        {
          "internalType": "string",
          "name": "userRole",
          "type": "string"
        }
      ],
      "name": "checkUserExist",
      "outputs": [
        {
          "internalType": "bool",
          "name": "",
          "type": "bool"
        }
      ],
      "payable": false,
      "stateMutability": "view",
      "type": "function"
    },
    {
      "constant": true,
      "inputs": [
        {
          "internalType": "address",
          "name": "checkAddress",
          "type": "address"
        }
      ],
      "name": "getUserRole",
      "outputs": [
        {
          "internalType": "string",
          "name": "",
          "type": "string"
        }
      ],
      "payable": false,
      "stateMutability": "view",
      "type": "function"
    }
  ],
  "bytecode": "0x608060405234801561001057600080fd5b50610f6f806100206000396000f3fe608060405234801561001057600080fd5b50600436106100415760003560e01c8063278208511461004657806332434a2e14610103578063ffb28d9c146101de575b600080fd5b6100886004803603602081101561005c57600080fd5b81019080803573ffffffffffffffffffffffffffffffffffffffff1690602001909291905050506102d1565b6040518080602001828103825283818151815260200191508051906020019080838360005b838110156100c85780820151818401526020810190506100ad565b50505050905090810190601f1680156100f55780820380516001836020036101000a031916815260200191505b509250505060405180910390f35b6101dc6004803603604081101561011957600080fd5b81019080803573ffffffffffffffffffffffffffffffffffffffff1690602001909291908035906020019064010000000081111561015657600080fd5b82018360208201111561016857600080fd5b8035906020019184600183028401116401000000008311171561018a57600080fd5b91908080601f016020809104026020016040519081016040528093929190818152602001838380828437600081840152601f19601f820116905080830192505050505050509192919290505050610474565b005b6102b7600480360360408110156101f457600080fd5b81019080803573ffffffffffffffffffffffffffffffffffffffff1690602001909291908035906020019064010000000081111561023157600080fd5b82018360208201111561024357600080fd5b8035906020019184600183028401116401000000008311171561026557600080fd5b91908080601f016020809104026020016040519081016040528093929190818152602001838380828437600081840152601f19601f820116905080830192505050505050509192919290505050610c58565b604051808215151515815260200191505060405180910390f35b6060600260008373ffffffffffffffffffffffffffffffffffffffff1673ffffffffffffffffffffffffffffffffffffffff16815260200190815260200160002060009054906101000a900460ff16610392576040517f08c379a000000000000000000000000000000000000000000000000000000000815260040180806020018281038252601e8152602001807f55736572206e6f74207265676973746572656420696e2073797374656d2e000081525060200191505060405180910390fd5b600160008373ffffffffffffffffffffffffffffffffffffffff1673ffffffffffffffffffffffffffffffffffffffff1681526020019081526020016000206000018054600181600116156101000203166002900480601f0160208091040260200160405190810160405280929190818152602001828054600181600116156101000203166002900480156104685780601f1061043d57610100808354040283529160200191610468565b820191906000526020600020905b81548152906001019060200180831161044b57829003601f168201915b50505050509050919050565b600260008373ffffffffffffffffffffffffffffffffffffffff1673ffffffffffffffffffffffffffffffffffffffff16815260200190815260200160002060009054906101000a900460ff1615610517576040517f08c379a0000000000000000000000000000000000000000000000000000000008152600401808060200182810382526022815260200180610f196022913960400191505060405180910390fd5b61051f610e60565b6040518060200160405280604051806020016040528060008152508152509050606060405160200180807f4973737565720000000000000000000000000000000000000000000000000000815250600601905060405160208183030381529060405280519060200120836040516020018082805190602001908083835b602083106105bf578051825260208201915060208101905060208303925061059c565b6001836020036101000a0380198251168184511680821785525050505050509050019150506040516020818303038152906040528051906020012014156106f4576040518060400160405280600681526020017f497373756572000000000000000000000000000000000000000000000000000081525082600001819052506040518060400160405280600681526020017f497373756572000000000000000000000000000000000000000000000000000081525090506003836040518082805190602001908083835b602083106106ac5780518252602082019150602081019050602083039250610689565b6001836020036101000a038019825116818451168082178552505050505050905001915050908152602001604051809103902060008154809291906001019190505550610aca565b60405160200180807f5375626a65637400000000000000000000000000000000000000000000000000815250600701905060405160208183030381529060405280519060200120836040516020018082805190602001908083835b60208310610772578051825260208201915060208101905060208303925061074f565b6001836020036101000a0380198251168184511680821785525050505050509050019150506040516020818303038152906040528051906020012014156108a7576040518060400160405280600781526020017f5375626a6563740000000000000000000000000000000000000000000000000081525082600001819052506040518060400160405280600781526020017f5375626a6563740000000000000000000000000000000000000000000000000081525090506003836040518082805190602001908083835b6020831061085f578051825260208201915060208101905060208303925061083c565b6001836020036101000a038019825116818451168082178552505050505050905001915050908152602001604051809103902060008154809291906001019190505550610ac9565b60405160200180807f5665726966696572000000000000000000000000000000000000000000000000815250600801905060405160208183030381529060405280519060200120836040516020018082805190602001908083835b602083106109255780518252602082019150602081019050602083039250610902565b6001836020036101000a038019825116818451168082178552505050505050905001915050604051602081830303815290604052805190602001201415610a5a576040518060400160405280600881526020017f566572696669657200000000000000000000000000000000000000000000000081525082600001819052506040518060400160405280600881526020017f566572696669657200000000000000000000000000000000000000000000000081525090506003836040518082805190602001908083835b60208310610a1257805182526020820191506020810190506020830392506109ef565b6001836020036101000a038019825116818451168082178552505050505050905001915050908152602001604051809103902060008154809291906001019190505550610ac8565b6040517f08c379a00000000000000000000000000000000000000000000000000000000081526004018080602001828103825260138152602001807f526f6c6520646f6573206e6f742065786973740000000000000000000000000081525060200191505060405180910390fd5b5b5b6001600260008673ffffffffffffffffffffffffffffffffffffffff1673ffffffffffffffffffffffffffffffffffffffff16815260200190815260200160002060006101000a81548160ff02191690831515021790555081600160008673ffffffffffffffffffffffffffffffffffffffff1673ffffffffffffffffffffffffffffffffffffffff1681526020019081526020016000206000820151816000019080519060200190610b7e929190610e73565b509050507f6ba0831d2f62ae5cbf7214bcc1d79c5da1d705f12811efda0beaa840006f874e8482604051808373ffffffffffffffffffffffffffffffffffffffff1673ffffffffffffffffffffffffffffffffffffffff16815260200180602001828103825283818151815260200191508051906020019080838360005b83811015610c17578082015181840152602081019050610bfc565b50505050905090810190601f168015610c445780820380516001836020036101000a031916815260200191505b50935050505060405180910390a150505050565b6000600260008473ffffffffffffffffffffffffffffffffffffffff1673ffffffffffffffffffffffffffffffffffffffff16815260200190815260200160002060009054906101000a900460ff16610d19576040517f08c379a000000000000000000000000000000000000000000000000000000000815260040180806020018281038252601e8152602001807f55736572206e6f74207265676973746572656420696e2073797374656d2e000081525060200191505060405180910390fd5b816040516020018082805190602001908083835b60208310610d505780518252602082019150602081019050602083039250610d2d565b6001836020036101000a03801982511681845116808217855250505050505090500191505060405160208183030381529060405280519060200120600160008573ffffffffffffffffffffffffffffffffffffffff1673ffffffffffffffffffffffffffffffffffffffff1681526020019081526020016000206000016040516020018082805460018160011615610100020316600290048015610e2b5780601f10610e09576101008083540402835291820191610e2b565b820191906000526020600020905b815481529060010190602001808311610e17575b5050915050604051602081830303815290604052805190602001201415610e555760019050610e5a565b600090505b92915050565b6040518060200160405280606081525090565b828054600181600116156101000203166002900490600052602060002090601f016020900481019282601f10610eb457805160ff1916838001178555610ee2565b82800160010185558215610ee2579182015b82811115610ee1578251825591602001919060010190610ec6565b5b509050610eef9190610ef3565b5090565b610f1591905b80821115610f11576000816000905550600101610ef9565b5090565b9056fe5573657220616c7265616479207265676973746572656420696e2073797374656d2ea265627a7a7231582024a46662560a2414c42b67c7da3dc314ceaa2d0d26b35fd66357e2cdf9c0c63064736f6c63430005100032",
  "source": "pragma solidity >=0.5.0;\n\n// Ref: https://github.com/TruSet/bitmask-rbac\n\ncontract CertificateNetwork {\n    address deployerAddress;\n\n    struct user {\n        string role;\n        // can add more variables\n        // name\n    }\n\n    mapping(address => user) private userMap;\n    mapping(address => bool) private userExistMap;\n    mapping(string => uint256) userCountsByRole;\n\n    event Register(address newAddress, string role);\n    event RoleRemoved(address addr, string role);\n\n    // constructor(address deployer_Address) public {\n    //     deployerAddress = deployer_Address;\n    // }\n\n    // modifier onlyAdmin() {\n    //     // Assuming got new stakeholder join, we manually add them in.\n    //     require(\n    //         msg.sender == deployerAddress,\n    //         \"Only deployer of this contract can perform the action.\"\n    //     );\n    //     _;\n    // }\n\n    function register(address newUserAddress, string memory newRole)\n        public\n    {\n        require(\n            !userExistMap[newUserAddress],\n            \"User already registered in system.\"\n        );\n        user memory newUser = user(\"\");\n        string memory role;\n        if (\n            keccak256(abi.encodePacked((newRole))) ==\n            keccak256(abi.encodePacked((\"Issuer\")))\n        ) {\n            newUser.role = \"Issuer\";\n            role = \"Issuer\";\n            userCountsByRole[newRole]++;\n        } else if (\n            keccak256(abi.encodePacked((newRole))) ==\n            keccak256(abi.encodePacked((\"Subject\")))\n        ) {\n            newUser.role = \"Subject\";\n            role = \"Subject\";\n            userCountsByRole[newRole]++;\n        } else if (\n            keccak256(abi.encodePacked((newRole))) ==\n            keccak256(abi.encodePacked((\"Verifier\")))\n        ) {\n            newUser.role = \"Verifier\";\n            role = \"Verifier\";\n            userCountsByRole[newRole]++;\n        } else {\n            revert(\"Role does not exist\");\n        }\n        userExistMap[newUserAddress] = true;\n        userMap[newUserAddress] = newUser;\n        emit Register(newUserAddress, role);\n    }\n\n    function checkUserExist(address checkAddress, string memory userRole)\n        public\n        view\n        returns (bool)\n    {\n        require(userExistMap[checkAddress], \"User not registered in system.\");\n        if (\n            keccak256(abi.encodePacked((userMap[checkAddress].role))) ==\n            keccak256(abi.encodePacked((userRole)))\n        ) {\n            return true;\n        } else {\n            return false;\n        }\n    }\n\n    function getUserRole(address checkAddress)\n        public\n        view\n        returns (string memory)\n    {\n        require(userExistMap[checkAddress], \"User not registered in system.\");\n        return userMap[checkAddress].role;\n    }\n}\n",
  "sourcePath": "/Users/yeerouhew/Downloads/IS4302/IS4302_GrpProject/contracts/CertificateNetwork.sol",
  "compiler": {
    "name": "solc",
    "version": "0.5.16+commit.9c3226ce.Emscripten.clang"
  },
  "schemaVersion": "3.4.4",
  "updatedAt": "2022-04-01T11:28:55.841Z",
  "networkType": "ethereum",
  "devdoc": {
    "methods": {}
  },
  "userdoc": {
    "methods": {}
  }
}