{
  "contractName": "CertificateStore",
  "abi": [
    {
      "inputs": [
        {
          "internalType": "contract CertificateNetwork",
          "name": "cn",
          "type": "address"
        }
      ],
      "payable": false,
      "stateMutability": "nonpayable",
      "type": "constructor"
    },
    {
      "anonymous": false,
      "inputs": [
        {
          "indexed": false,
          "internalType": "address",
          "name": "issuerAddr",
          "type": "address"
        },
        {
          "indexed": false,
          "internalType": "address",
          "name": "subjectAddr",
          "type": "address"
        }
      ],
      "name": "AcceptSubjectRequest",
      "type": "event"
    },
    {
      "anonymous": false,
      "inputs": [
        {
          "indexed": false,
          "internalType": "uint256",
          "name": "certId",
          "type": "uint256"
        },
        {
          "indexed": false,
          "internalType": "address",
          "name": "issuerAddr",
          "type": "address"
        },
        {
          "indexed": false,
          "internalType": "address",
          "name": "subjectAddr",
          "type": "address"
        }
      ],
      "name": "IssuedCertificate",
      "type": "event"
    },
    {
      "anonymous": false,
      "inputs": [
        {
          "indexed": false,
          "internalType": "address",
          "name": "issuerAddr",
          "type": "address"
        },
        {
          "indexed": false,
          "internalType": "address",
          "name": "subjectAddr",
          "type": "address"
        }
      ],
      "name": "RejectSubjectRequest",
      "type": "event"
    },
    {
      "anonymous": false,
      "inputs": [
        {
          "indexed": false,
          "internalType": "address",
          "name": "subjectAddr",
          "type": "address"
        },
        {
          "indexed": false,
          "internalType": "address",
          "name": "issuerAddr",
          "type": "address"
        }
      ],
      "name": "RequestCertificate",
      "type": "event"
    },
    {
      "anonymous": false,
      "inputs": [
        {
          "indexed": false,
          "internalType": "address",
          "name": "issuer",
          "type": "address"
        },
        {
          "indexed": false,
          "internalType": "uint256",
          "name": "certId",
          "type": "uint256"
        }
      ],
      "name": "RevokeCertificate",
      "type": "event"
    },
    {
      "anonymous": false,
      "inputs": [
        {
          "indexed": false,
          "internalType": "address",
          "name": "subjectAddr",
          "type": "address"
        },
        {
          "indexed": false,
          "internalType": "address",
          "name": "verifierAddr",
          "type": "address"
        }
      ],
      "name": "VerifierDenied",
      "type": "event"
    },
    {
      "anonymous": false,
      "inputs": [
        {
          "indexed": false,
          "internalType": "address",
          "name": "subjectAddr",
          "type": "address"
        },
        {
          "indexed": false,
          "internalType": "address",
          "name": "verifierAddr",
          "type": "address"
        }
      ],
      "name": "VerifierGranted",
      "type": "event"
    },
    {
      "constant": false,
      "inputs": [
        {
          "internalType": "address",
          "name": "issuerAddr",
          "type": "address"
        }
      ],
      "name": "requestCert",
      "outputs": [],
      "payable": false,
      "stateMutability": "nonpayable",
      "type": "function"
    },
    {
      "constant": false,
      "inputs": [
        {
          "internalType": "address",
          "name": "subjectAddr",
          "type": "address"
        }
      ],
      "name": "rejectRequest",
      "outputs": [],
      "payable": false,
      "stateMutability": "nonpayable",
      "type": "function"
    },
    {
      "constant": true,
      "inputs": [],
      "name": "getApprovedReqList",
      "outputs": [
        {
          "internalType": "address[]",
          "name": "",
          "type": "address[]"
        }
      ],
      "payable": false,
      "stateMutability": "view",
      "type": "function"
    },
    {
      "constant": true,
      "inputs": [],
      "name": "getRejectedReqList",
      "outputs": [
        {
          "internalType": "address[]",
          "name": "",
          "type": "address[]"
        }
      ],
      "payable": false,
      "stateMutability": "view",
      "type": "function"
    },
    {
      "constant": true,
      "inputs": [],
      "name": "getReqHist",
      "outputs": [
        {
          "internalType": "address[]",
          "name": "",
          "type": "address[]"
        }
      ],
      "payable": false,
      "stateMutability": "view",
      "type": "function"
    },
    {
      "constant": true,
      "inputs": [
        {
          "internalType": "address",
          "name": "addr",
          "type": "address"
        }
      ],
      "name": "checkRequest",
      "outputs": [
        {
          "internalType": "bool",
          "name": "",
          "type": "bool"
        }
      ],
      "payable": false,
      "stateMutability": "view",
      "type": "function"
    },
    {
      "constant": true,
      "inputs": [
        {
          "internalType": "address",
          "name": "issuerAddr",
          "type": "address"
        },
        {
          "internalType": "address",
          "name": "subjectAddr",
          "type": "address"
        }
      ],
      "name": "getRequestStatus",
      "outputs": [
        {
          "internalType": "bool",
          "name": "",
          "type": "bool"
        }
      ],
      "payable": false,
      "stateMutability": "view",
      "type": "function"
    },
    {
      "constant": true,
      "inputs": [
        {
          "internalType": "address",
          "name": "issuerAddr",
          "type": "address"
        },
        {
          "internalType": "address",
          "name": "subjectAddr",
          "type": "address"
        }
      ],
      "name": "getIssueStatus",
      "outputs": [
        {
          "internalType": "bool",
          "name": "",
          "type": "bool"
        }
      ],
      "payable": false,
      "stateMutability": "view",
      "type": "function"
    },
    {
      "constant": true,
      "inputs": [
        {
          "internalType": "address",
          "name": "verifierAddr",
          "type": "address"
        },
        {
          "internalType": "address",
          "name": "subjectAddr",
          "type": "address"
        }
      ],
      "name": "getAccessStatus",
      "outputs": [
        {
          "internalType": "bool",
          "name": "",
          "type": "bool"
        }
      ],
      "payable": false,
      "stateMutability": "view",
      "type": "function"
    },
    {
      "constant": false,
      "inputs": [
        {
          "internalType": "address",
          "name": "verifierAddr",
          "type": "address"
        }
      ],
      "name": "grantVerifier",
      "outputs": [],
      "payable": false,
      "stateMutability": "nonpayable",
      "type": "function"
    },
    {
      "constant": false,
      "inputs": [
        {
          "internalType": "address",
          "name": "verifierAddr",
          "type": "address"
        }
      ],
      "name": "denyVerifier",
      "outputs": [],
      "payable": false,
      "stateMutability": "nonpayable",
      "type": "function"
    },
    {
      "constant": true,
      "inputs": [
        {
          "internalType": "address",
          "name": "verifier",
          "type": "address"
        }
      ],
      "name": "checkVerifier",
      "outputs": [
        {
          "internalType": "bool",
          "name": "",
          "type": "bool"
        }
      ],
      "payable": false,
      "stateMutability": "view",
      "type": "function"
    },
    {
      "constant": true,
      "inputs": [
        {
          "internalType": "address",
          "name": "subject",
          "type": "address"
        }
      ],
      "name": "checkSubject",
      "outputs": [
        {
          "internalType": "bool",
          "name": "",
          "type": "bool"
        }
      ],
      "payable": false,
      "stateMutability": "view",
      "type": "function"
    },
    {
      "constant": true,
      "inputs": [],
      "name": "getGrantList",
      "outputs": [
        {
          "internalType": "address[]",
          "name": "",
          "type": "address[]"
        }
      ],
      "payable": false,
      "stateMutability": "view",
      "type": "function"
    },
    {
      "constant": true,
      "inputs": [],
      "name": "getDenyList",
      "outputs": [
        {
          "internalType": "address[]",
          "name": "",
          "type": "address[]"
        }
      ],
      "payable": false,
      "stateMutability": "view",
      "type": "function"
    }
  ],
  "bytecode": "0x60806040523480156200001157600080fd5b50604051620053e4380380620053e4833981810160405262000037919081019062000095565b806000806101000a81548173ffffffffffffffffffffffffffffffffffffffff021916908373ffffffffffffffffffffffffffffffffffffffff1602179055505062000123565b6000815190506200008f8162000109565b92915050565b600060208284031215620000a857600080fd5b6000620000b8848285016200007e565b91505092915050565b6000620000ce82620000e9565b9050919050565b6000620000e282620000c1565b9050919050565b600073ffffffffffffffffffffffffffffffffffffffff82169050919050565b6200011481620000d5565b81146200012057600080fd5b50565b6152b180620001336000396000f3fe608060405234801561001057600080fd5b50600436106100f55760003560e01c8063c601cd1211610097578063f30b8fce11610066578063f30b8fce14610284578063f777d0ac146102a2578063f855b366146102c0578063fdc704d7146102f0576100f5565b8063c601cd12146101fc578063ca07b4b41461021a578063d0ae435614610236578063d1329f0e14610266576100f5565b8063749b26d5116100d3578063749b26d514610164578063951535991461018057806395716f30146101b05780639cb596e5146101cc576100f5565b806307e75d66146100fa57806314e5735f1461012a5780635f889fe914610148575b600080fd5b610114600480360361010f91908101906146e0565b610320565b6040516101219190614f74565b60405180910390f35b6101326105f9565b60405161013f9190614f52565b60405180910390f35b610162600480360361015d91908101906146e0565b610bb4565b005b61017e600480360361017991908101906146e0565b611294565b005b61019a60048036036101959190810190614709565b611974565b6040516101a79190614f74565b60405180910390f35b6101ca60048036036101c591908101906146e0565b611c50565b005b6101e660048036036101e19190810190614709565b6120c5565b6040516101f39190614f74565b60405180910390f35b6102046123a1565b6040516102119190614f52565b60405180910390f35b610234600480360361022f91908101906146e0565b6128ba565b005b610250600480360361024b9190810190614709565b612df8565b60405161025d9190614f74565b60405180910390f35b61026e6130d4565b60405161027b9190614f52565b60405180910390f35b61028c61368e565b6040516102999190614f52565b60405180910390f35b6102aa6138f3565b6040516102b79190614f52565b60405180910390f35b6102da60048036036102d591908101906146e0565b613e0e565b6040516102e79190614f74565b60405180910390f35b61030a600480360361030591908101906146e0565b614389565b6040516103179190614f74565b60405180910390f35b60006040518060400160405280600881526020017f56657269666965720000000000000000000000000000000000000000000000008152506000809054906101000a900473ffffffffffffffffffffffffffffffffffffffff1673ffffffffffffffffffffffffffffffffffffffff1663ffb28d9c33836040518363ffffffff1660e01b81526004016103b4929190614e96565b60206040518083038186803b1580156103cc57600080fd5b505afa1580156103e0573d6000803e3d6000fd5b505050506040513d601f19601f820116820180604052506104049190810190614745565b610443576040517f08c379a000000000000000000000000000000000000000000000000000000000815260040161043a9061504f565b60405180910390fd5b826040518060400160405280600781526020017f5375626a656374000000000000000000000000000000000000000000000000008152506000809054906101000a900473ffffffffffffffffffffffffffffffffffffffff1673ffffffffffffffffffffffffffffffffffffffff1663ffb28d9c83836040518363ffffffff1660e01b81526004016104d6929190614f22565b60206040518083038186803b1580156104ee57600080fd5b505afa158015610502573d6000803e3d6000fd5b505050506040513d601f19601f820116820180604052506105269190810190614745565b610565576040517f08c379a000000000000000000000000000000000000000000000000000000000815260040161055c9061500f565b60405180910390fd5b600560008673ffffffffffffffffffffffffffffffffffffffff1673ffffffffffffffffffffffffffffffffffffffff16815260200190815260200160002060003373ffffffffffffffffffffffffffffffffffffffff1673ffffffffffffffffffffffffffffffffffffffff16815260200190815260200160002060009054906101000a900460ff169350505050919050565b606060405160200161060a90614e0d565b604051602081830303815290604052805190602001206000809054906101000a900473ffffffffffffffffffffffffffffffffffffffff1673ffffffffffffffffffffffffffffffffffffffff166327820851336040518263ffffffff1660e01b815260040161067a9190614e52565b60006040518083038186803b15801561069257600080fd5b505afa1580156106a6573d6000803e3d6000fd5b505050506040513d6000823e3d601f19601f820116820180604052506106cf919081019061476e565b6040516020016106df9190614de1565b6040516020818303038152906040528051906020012014806107f8575060405160200161070b90614df8565b604051602081830303815290604052805190602001206000809054906101000a900473ffffffffffffffffffffffffffffffffffffffff1673ffffffffffffffffffffffffffffffffffffffff166327820851336040518263ffffffff1660e01b815260040161077b9190614e52565b60006040518083038186803b15801561079357600080fd5b505afa1580156107a7573d6000803e3d6000fd5b505050506040513d6000823e3d601f19601f820116820180604052506107d0919081019061476e565b6040516020016107e09190614de1565b60405160208183030381529060405280519060200120145b610837576040517f08c379a000000000000000000000000000000000000000000000000000000000815260040161082e9061502f565b60405180910390fd5b6060600460003373ffffffffffffffffffffffffffffffffffffffff1673ffffffffffffffffffffffffffffffffffffffff1681526020019081526020016000208054806020026020016040519081016040528092919081815260200182805480156108f857602002820191906000526020600020905b8160009054906101000a900473ffffffffffffffffffffffffffffffffffffffff1673ffffffffffffffffffffffffffffffffffffffff16815260200190600101908083116108ae575b50505050509050606081516040519080825280602002602001820160405280156109315781602001602082028038833980820191505090505b509050600080905060008090505b8351811015610aff57600560003373ffffffffffffffffffffffffffffffffffffffff1673ffffffffffffffffffffffffffffffffffffffff168152602001908152602001600020600085838151811061099557fe5b602002602001015173ffffffffffffffffffffffffffffffffffffffff1673ffffffffffffffffffffffffffffffffffffffff16815260200190815260200160002060009054906101000a900460ff168015610a8a5750600560008583815181106109fc57fe5b602002602001015173ffffffffffffffffffffffffffffffffffffffff1673ffffffffffffffffffffffffffffffffffffffff16815260200190815260200160002060003373ffffffffffffffffffffffffffffffffffffffff1673ffffffffffffffffffffffffffffffffffffffff16815260200190815260200160002060009054906101000a900460ff165b15610af257838181518110610a9b57fe5b6020026020010151838381518110610aaf57fe5b602002602001019073ffffffffffffffffffffffffffffffffffffffff16908173ffffffffffffffffffffffffffffffffffffffff168152505081806001019250505b808060010191505061093f565b50606081604051908082528060200260200182016040528015610b315781602001602082028038833980820191505090505b50905060008090505b82811015610ba957838181518110610b4e57fe5b6020026020010151828281518110610b6257fe5b602002602001019073ffffffffffffffffffffffffffffffffffffffff16908173ffffffffffffffffffffffffffffffffffffffff16815250508080600101915050610b3a565b508094505050505090565b6040518060400160405280600781526020017f5375626a656374000000000000000000000000000000000000000000000000008152506000809054906101000a900473ffffffffffffffffffffffffffffffffffffffff1673ffffffffffffffffffffffffffffffffffffffff1663ffb28d9c33836040518363ffffffff1660e01b8152600401610c46929190614e96565b60206040518083038186803b158015610c5e57600080fd5b505afa158015610c72573d6000803e3d6000fd5b505050506040513d601f19601f82011682018060405250610c969190810190614745565b610cd5576040517f08c379a0000000000000000000000000000000000000000000000000000000008152600401610ccc9061504f565b60405180910390fd5b816040518060400160405280600681526020017f49737375657200000000000000000000000000000000000000000000000000008152506000809054906101000a900473ffffffffffffffffffffffffffffffffffffffff1673ffffffffffffffffffffffffffffffffffffffff1663ffb28d9c83836040518363ffffffff1660e01b8152600401610d68929190614f22565b60206040518083038186803b158015610d8057600080fd5b505afa158015610d94573d6000803e3d6000fd5b505050506040513d601f19601f82011682018060405250610db89190810190614745565b610df7576040517f08c379a0000000000000000000000000000000000000000000000000000000008152600401610dee9061500f565b60405180910390fd5b600260003373ffffffffffffffffffffffffffffffffffffffff1673ffffffffffffffffffffffffffffffffffffffff16815260200190815260200160002060008573ffffffffffffffffffffffffffffffffffffffff1673ffffffffffffffffffffffffffffffffffffffff16815260200190815260200160002060009054906101000a900460ff1615610ec1576040517f08c379a0000000000000000000000000000000000000000000000000000000008152600401610eb890614faf565b60405180910390fd5b6001600260003373ffffffffffffffffffffffffffffffffffffffff1673ffffffffffffffffffffffffffffffffffffffff16815260200190815260200160002060008673ffffffffffffffffffffffffffffffffffffffff1673ffffffffffffffffffffffffffffffffffffffff16815260200190815260200160002060006101000a81548160ff0219169083151502179055506001600260008673ffffffffffffffffffffffffffffffffffffffff1673ffffffffffffffffffffffffffffffffffffffff16815260200190815260200160002060003373ffffffffffffffffffffffffffffffffffffffff1673ffffffffffffffffffffffffffffffffffffffff16815260200190815260200160002060006101000a81548160ff021916908315150217905550600360003373ffffffffffffffffffffffffffffffffffffffff1673ffffffffffffffffffffffffffffffffffffffff16815260200190815260200160002060008573ffffffffffffffffffffffffffffffffffffffff1673ffffffffffffffffffffffffffffffffffffffff16815260200190815260200160002060009054906101000a900460ff166111c057600160003373ffffffffffffffffffffffffffffffffffffffff1673ffffffffffffffffffffffffffffffffffffffff1681526020019081526020016000208490806001815401808255809150509060018203906000526020600020016000909192909190916101000a81548173ffffffffffffffffffffffffffffffffffffffff021916908373ffffffffffffffffffffffffffffffffffffffff16021790555050600160008573ffffffffffffffffffffffffffffffffffffffff1673ffffffffffffffffffffffffffffffffffffffff1681526020019081526020016000203390806001815401808255809150509060018203906000526020600020016000909192909190916101000a81548173ffffffffffffffffffffffffffffffffffffffff021916908373ffffffffffffffffffffffffffffffffffffffff160217905550505b6001600360003373ffffffffffffffffffffffffffffffffffffffff1673ffffffffffffffffffffffffffffffffffffffff16815260200190815260200160002060008673ffffffffffffffffffffffffffffffffffffffff1673ffffffffffffffffffffffffffffffffffffffff16815260200190815260200160002060006101000a81548160ff0219169083151502179055507f96dc08c3299c77635bd20fc8e5b7a7459559a916cac4e43146327f032258ce7f3385604051611286929190614e6d565b60405180910390a150505050565b6040518060400160405280600781526020017f5375626a656374000000000000000000000000000000000000000000000000008152506000809054906101000a900473ffffffffffffffffffffffffffffffffffffffff1673ffffffffffffffffffffffffffffffffffffffff1663ffb28d9c33836040518363ffffffff1660e01b8152600401611326929190614e96565b60206040518083038186803b15801561133e57600080fd5b505afa158015611352573d6000803e3d6000fd5b505050506040513d601f19601f820116820180604052506113769190810190614745565b6113b5576040517f08c379a00000000000000000000000000000000000000000000000000000000081526004016113ac9061504f565b60405180910390fd5b816040518060400160405280600881526020017f56657269666965720000000000000000000000000000000000000000000000008152506000809054906101000a900473ffffffffffffffffffffffffffffffffffffffff1673ffffffffffffffffffffffffffffffffffffffff1663ffb28d9c83836040518363ffffffff1660e01b8152600401611448929190614f22565b60206040518083038186803b15801561146057600080fd5b505afa158015611474573d6000803e3d6000fd5b505050506040513d601f19601f820116820180604052506114989190810190614745565b6114d7576040517f08c379a00000000000000000000000000000000000000000000000000000000081526004016114ce9061500f565b60405180910390fd5b600560003373ffffffffffffffffffffffffffffffffffffffff1673ffffffffffffffffffffffffffffffffffffffff16815260200190815260200160002060008573ffffffffffffffffffffffffffffffffffffffff1673ffffffffffffffffffffffffffffffffffffffff16815260200190815260200160002060009054906101000a900460ff16156115a1576040517f08c379a000000000000000000000000000000000000000000000000000000000815260040161159890614fcf565b60405180910390fd5b6001600560003373ffffffffffffffffffffffffffffffffffffffff1673ffffffffffffffffffffffffffffffffffffffff16815260200190815260200160002060008673ffffffffffffffffffffffffffffffffffffffff1673ffffffffffffffffffffffffffffffffffffffff16815260200190815260200160002060006101000a81548160ff0219169083151502179055506001600560008673ffffffffffffffffffffffffffffffffffffffff1673ffffffffffffffffffffffffffffffffffffffff16815260200190815260200160002060003373ffffffffffffffffffffffffffffffffffffffff1673ffffffffffffffffffffffffffffffffffffffff16815260200190815260200160002060006101000a81548160ff021916908315150217905550600660003373ffffffffffffffffffffffffffffffffffffffff1673ffffffffffffffffffffffffffffffffffffffff16815260200190815260200160002060008573ffffffffffffffffffffffffffffffffffffffff1673ffffffffffffffffffffffffffffffffffffffff16815260200190815260200160002060009054906101000a900460ff166118a057600460003373ffffffffffffffffffffffffffffffffffffffff1673ffffffffffffffffffffffffffffffffffffffff1681526020019081526020016000208490806001815401808255809150509060018203906000526020600020016000909192909190916101000a81548173ffffffffffffffffffffffffffffffffffffffff021916908373ffffffffffffffffffffffffffffffffffffffff16021790555050600460008573ffffffffffffffffffffffffffffffffffffffff1673ffffffffffffffffffffffffffffffffffffffff1681526020019081526020016000203390806001815401808255809150509060018203906000526020600020016000909192909190916101000a81548173ffffffffffffffffffffffffffffffffffffffff021916908373ffffffffffffffffffffffffffffffffffffffff160217905550505b6001600660003373ffffffffffffffffffffffffffffffffffffffff1673ffffffffffffffffffffffffffffffffffffffff16815260200190815260200160002060008673ffffffffffffffffffffffffffffffffffffffff1673ffffffffffffffffffffffffffffffffffffffff16815260200190815260200160002060006101000a81548160ff0219169083151502179055507f8a0c75501cc08717088881dbadc4eac47b178e3a240aa7ec195c0f61bc31868e3385604051611966929190614e6d565b60405180910390a150505050565b6000826040518060400160405280600881526020017f56657269666965720000000000000000000000000000000000000000000000008152506000809054906101000a900473ffffffffffffffffffffffffffffffffffffffff1673ffffffffffffffffffffffffffffffffffffffff1663ffb28d9c83836040518363ffffffff1660e01b8152600401611a09929190614f22565b60206040518083038186803b158015611a2157600080fd5b505afa158015611a35573d6000803e3d6000fd5b505050506040513d601f19601f82011682018060405250611a599190810190614745565b611a98576040517f08c379a0000000000000000000000000000000000000000000000000000000008152600401611a8f9061500f565b60405180910390fd5b836040518060400160405280600781526020017f5375626a656374000000000000000000000000000000000000000000000000008152506000809054906101000a900473ffffffffffffffffffffffffffffffffffffffff1673ffffffffffffffffffffffffffffffffffffffff1663ffb28d9c83836040518363ffffffff1660e01b8152600401611b2b929190614f22565b60206040518083038186803b158015611b4357600080fd5b505afa158015611b57573d6000803e3d6000fd5b505050506040513d601f19601f82011682018060405250611b7b9190810190614745565b611bba576040517f08c379a0000000000000000000000000000000000000000000000000000000008152600401611bb19061500f565b60405180910390fd5b600560008773ffffffffffffffffffffffffffffffffffffffff1673ffffffffffffffffffffffffffffffffffffffff16815260200190815260200160002060008873ffffffffffffffffffffffffffffffffffffffff1673ffffffffffffffffffffffffffffffffffffffff16815260200190815260200160002060009054906101000a900460ff1694505050505092915050565b6040518060400160405280600781526020017f5375626a656374000000000000000000000000000000000000000000000000008152506000809054906101000a900473ffffffffffffffffffffffffffffffffffffffff1673ffffffffffffffffffffffffffffffffffffffff1663ffb28d9c33836040518363ffffffff1660e01b8152600401611ce2929190614e96565b60206040518083038186803b158015611cfa57600080fd5b505afa158015611d0e573d6000803e3d6000fd5b505050506040513d601f19601f82011682018060405250611d329190810190614745565b611d71576040517f08c379a0000000000000000000000000000000000000000000000000000000008152600401611d689061504f565b60405180910390fd5b816040518060400160405280600881526020017f56657269666965720000000000000000000000000000000000000000000000008152506000809054906101000a900473ffffffffffffffffffffffffffffffffffffffff1673ffffffffffffffffffffffffffffffffffffffff1663ffb28d9c83836040518363ffffffff1660e01b8152600401611e04929190614f22565b60206040518083038186803b158015611e1c57600080fd5b505afa158015611e30573d6000803e3d6000fd5b505050506040513d601f19601f82011682018060405250611e549190810190614745565b611e93576040517f08c379a0000000000000000000000000000000000000000000000000000000008152600401611e8a9061500f565b60405180910390fd5b600560003373ffffffffffffffffffffffffffffffffffffffff1673ffffffffffffffffffffffffffffffffffffffff16815260200190815260200160002060008573ffffffffffffffffffffffffffffffffffffffff1673ffffffffffffffffffffffffffffffffffffffff16815260200190815260200160002060009054906101000a900460ff16611f5c576040517f08c379a0000000000000000000000000000000000000000000000000000000008152600401611f539061508f565b60405180910390fd5b6000600560008673ffffffffffffffffffffffffffffffffffffffff1673ffffffffffffffffffffffffffffffffffffffff16815260200190815260200160002060003373ffffffffffffffffffffffffffffffffffffffff1673ffffffffffffffffffffffffffffffffffffffff16815260200190815260200160002060006101000a81548160ff0219169083151502179055506000600560003373ffffffffffffffffffffffffffffffffffffffff1673ffffffffffffffffffffffffffffffffffffffff16815260200190815260200160002060008673ffffffffffffffffffffffffffffffffffffffff1673ffffffffffffffffffffffffffffffffffffffff16815260200190815260200160002060006101000a81548160ff0219169083151502179055507f20fb312ef4e635871e9228308c7d9119e618c46d2912d356d19296bd765751b133856040516120b7929190614e6d565b60405180910390a150505050565b6000826040518060400160405280600681526020017f49737375657200000000000000000000000000000000000000000000000000008152506000809054906101000a900473ffffffffffffffffffffffffffffffffffffffff1673ffffffffffffffffffffffffffffffffffffffff1663ffb28d9c83836040518363ffffffff1660e01b815260040161215a929190614f22565b60206040518083038186803b15801561217257600080fd5b505afa158015612186573d6000803e3d6000fd5b505050506040513d601f19601f820116820180604052506121aa9190810190614745565b6121e9576040517f08c379a00000000000000000000000000000000000000000000000000000000081526004016121e09061500f565b60405180910390fd5b836040518060400160405280600781526020017f5375626a656374000000000000000000000000000000000000000000000000008152506000809054906101000a900473ffffffffffffffffffffffffffffffffffffffff1673ffffffffffffffffffffffffffffffffffffffff1663ffb28d9c83836040518363ffffffff1660e01b815260040161227c929190614f22565b60206040518083038186803b15801561229457600080fd5b505afa1580156122a8573d6000803e3d6000fd5b505050506040513d601f19601f820116820180604052506122cc9190810190614745565b61230b576040517f08c379a00000000000000000000000000000000000000000000000000000000081526004016123029061500f565b60405180910390fd5b600260008873ffffffffffffffffffffffffffffffffffffffff1673ffffffffffffffffffffffffffffffffffffffff16815260200190815260200160002060008773ffffffffffffffffffffffffffffffffffffffff1673ffffffffffffffffffffffffffffffffffffffff16815260200190815260200160002060009054906101000a900460ff1694505050505092915050565b60606000809054906101000a900473ffffffffffffffffffffffffffffffffffffffff1673ffffffffffffffffffffffffffffffffffffffff1663ffb28d9c336040518263ffffffff1660e01b81526004016123fd9190614ec6565b60206040518083038186803b15801561241557600080fd5b505afa158015612429573d6000803e3d6000fd5b505050506040513d601f19601f8201168201806040525061244d9190810190614745565b806124fe57506000809054906101000a900473ffffffffffffffffffffffffffffffffffffffff1673ffffffffffffffffffffffffffffffffffffffff1663ffb28d9c336040518263ffffffff1660e01b81526004016124ad9190614ef4565b60206040518083038186803b1580156124c557600080fd5b505afa1580156124d9573d6000803e3d6000fd5b505050506040513d601f19601f820116820180604052506124fd9190810190614745565b5b61253d576040517f08c379a00000000000000000000000000000000000000000000000000000000081526004016125349061504f565b60405180910390fd5b6060600160003373ffffffffffffffffffffffffffffffffffffffff1673ffffffffffffffffffffffffffffffffffffffff1681526020019081526020016000208054806020026020016040519081016040528092919081815260200182805480156125fe57602002820191906000526020600020905b8160009054906101000a900473ffffffffffffffffffffffffffffffffffffffff1673ffffffffffffffffffffffffffffffffffffffff16815260200190600101908083116125b4575b50505050509050606081516040519080825280602002602001820160405280156126375781602001602082028038833980820191505090505b509050600080905060008090505b835181101561280557600260003373ffffffffffffffffffffffffffffffffffffffff1673ffffffffffffffffffffffffffffffffffffffff168152602001908152602001600020600085838151811061269b57fe5b602002602001015173ffffffffffffffffffffffffffffffffffffffff1673ffffffffffffffffffffffffffffffffffffffff16815260200190815260200160002060009054906101000a900460ff16801561279057506002600085838151811061270257fe5b602002602001015173ffffffffffffffffffffffffffffffffffffffff1673ffffffffffffffffffffffffffffffffffffffff16815260200190815260200160002060003373ffffffffffffffffffffffffffffffffffffffff1673ffffffffffffffffffffffffffffffffffffffff16815260200190815260200160002060009054906101000a900460ff165b156127f8578381815181106127a157fe5b60200260200101518383815181106127b557fe5b602002602001019073ffffffffffffffffffffffffffffffffffffffff16908173ffffffffffffffffffffffffffffffffffffffff168152505081806001019250505b8080600101915050612645565b506060816040519080825280602002602001820160405280156128375781602001602082028038833980820191505090505b50905060008090505b828110156128af5783818151811061285457fe5b602002602001015182828151811061286857fe5b602002602001019073ffffffffffffffffffffffffffffffffffffffff16908173ffffffffffffffffffffffffffffffffffffffff16815250508080600101915050612840565b508094505050505090565b6040518060400160405280600681526020017f49737375657200000000000000000000000000000000000000000000000000008152506000809054906101000a900473ffffffffffffffffffffffffffffffffffffffff1673ffffffffffffffffffffffffffffffffffffffff1663ffb28d9c33836040518363ffffffff1660e01b815260040161294c929190614e96565b60206040518083038186803b15801561296457600080fd5b505afa158015612978573d6000803e3d6000fd5b505050506040513d601f19601f8201168201806040525061299c9190810190614745565b6129db576040517f08c379a00000000000000000000000000000000000000000000000000000000081526004016129d29061504f565b60405180910390fd5b816040518060400160405280600781526020017f5375626a656374000000000000000000000000000000000000000000000000008152506000809054906101000a900473ffffffffffffffffffffffffffffffffffffffff1673ffffffffffffffffffffffffffffffffffffffff1663ffb28d9c83836040518363ffffffff1660e01b8152600401612a6e929190614f22565b60206040518083038186803b158015612a8657600080fd5b505afa158015612a9a573d6000803e3d6000fd5b505050506040513d601f19601f82011682018060405250612abe9190810190614745565b612afd576040517f08c379a0000000000000000000000000000000000000000000000000000000008152600401612af49061500f565b60405180910390fd5b600260008573ffffffffffffffffffffffffffffffffffffffff1673ffffffffffffffffffffffffffffffffffffffff16815260200190815260200160002060003373ffffffffffffffffffffffffffffffffffffffff1673ffffffffffffffffffffffffffffffffffffffff16815260200190815260200160002060009054906101000a900460ff16612bc6576040517f08c379a0000000000000000000000000000000000000000000000000000000008152600401612bbd906150af565b60405180910390fd5b600260003373ffffffffffffffffffffffffffffffffffffffff1673ffffffffffffffffffffffffffffffffffffffff16815260200190815260200160002060008573ffffffffffffffffffffffffffffffffffffffff1673ffffffffffffffffffffffffffffffffffffffff16815260200190815260200160002060009054906101000a900460ff16612c8f576040517f08c379a0000000000000000000000000000000000000000000000000000000008152600401612c869061506f565b60405180910390fd5b6000600260003373ffffffffffffffffffffffffffffffffffffffff1673ffffffffffffffffffffffffffffffffffffffff16815260200190815260200160002060008673ffffffffffffffffffffffffffffffffffffffff1673ffffffffffffffffffffffffffffffffffffffff16815260200190815260200160002060006101000a81548160ff0219169083151502179055506000600260008673ffffffffffffffffffffffffffffffffffffffff1673ffffffffffffffffffffffffffffffffffffffff16815260200190815260200160002060003373ffffffffffffffffffffffffffffffffffffffff1673ffffffffffffffffffffffffffffffffffffffff16815260200190815260200160002060006101000a81548160ff0219169083151502179055507f3c44ce647de06c73eb5744c9395edea226f4b767db4b643bd11b5e632e3300923385604051612dea929190614e6d565b60405180910390a150505050565b6000826040518060400160405280600681526020017f49737375657200000000000000000000000000000000000000000000000000008152506000809054906101000a900473ffffffffffffffffffffffffffffffffffffffff1673ffffffffffffffffffffffffffffffffffffffff1663ffb28d9c83836040518363ffffffff1660e01b8152600401612e8d929190614f22565b60206040518083038186803b158015612ea557600080fd5b505afa158015612eb9573d6000803e3d6000fd5b505050506040513d601f19601f82011682018060405250612edd9190810190614745565b612f1c576040517f08c379a0000000000000000000000000000000000000000000000000000000008152600401612f139061500f565b60405180910390fd5b836040518060400160405280600781526020017f5375626a656374000000000000000000000000000000000000000000000000008152506000809054906101000a900473ffffffffffffffffffffffffffffffffffffffff1673ffffffffffffffffffffffffffffffffffffffff1663ffb28d9c83836040518363ffffffff1660e01b8152600401612faf929190614f22565b60206040518083038186803b158015612fc757600080fd5b505afa158015612fdb573d6000803e3d6000fd5b505050506040513d601f19601f82011682018060405250612fff9190810190614745565b61303e576040517f08c379a00000000000000000000000000000000000000000000000000000000081526004016130359061500f565b60405180910390fd5b600260008773ffffffffffffffffffffffffffffffffffffffff1673ffffffffffffffffffffffffffffffffffffffff16815260200190815260200160002060008873ffffffffffffffffffffffffffffffffffffffff1673ffffffffffffffffffffffffffffffffffffffff16815260200190815260200160002060009054906101000a900460ff1694505050505092915050565b60606040516020016130e590614e0d565b604051602081830303815290604052805190602001206000809054906101000a900473ffffffffffffffffffffffffffffffffffffffff1673ffffffffffffffffffffffffffffffffffffffff166327820851336040518263ffffffff1660e01b81526004016131559190614e52565b60006040518083038186803b15801561316d57600080fd5b505afa158015613181573d6000803e3d6000fd5b505050506040513d6000823e3d601f19601f820116820180604052506131aa919081019061476e565b6040516020016131ba9190614de1565b6040516020818303038152906040528051906020012014806132d357506040516020016131e690614df8565b604051602081830303815290604052805190602001206000809054906101000a900473ffffffffffffffffffffffffffffffffffffffff1673ffffffffffffffffffffffffffffffffffffffff166327820851336040518263ffffffff1660e01b81526004016132569190614e52565b60006040518083038186803b15801561326e57600080fd5b505afa158015613282573d6000803e3d6000fd5b505050506040513d6000823e3d601f19601f820116820180604052506132ab919081019061476e565b6040516020016132bb9190614de1565b60405160208183030381529060405280519060200120145b613312576040517f08c379a00000000000000000000000000000000000000000000000000000000081526004016133099061502f565b60405180910390fd5b6060600460003373ffffffffffffffffffffffffffffffffffffffff1673ffffffffffffffffffffffffffffffffffffffff1681526020019081526020016000208054806020026020016040519081016040528092919081815260200182805480156133d357602002820191906000526020600020905b8160009054906101000a900473ffffffffffffffffffffffffffffffffffffffff1673ffffffffffffffffffffffffffffffffffffffff1681526020019060010190808311613389575b505050505090506060815160405190808252806020026020018201604052801561340c5781602001602082028038833980820191505090505b509050600080905060008090505b83518110156135d957600560003373ffffffffffffffffffffffffffffffffffffffff1673ffffffffffffffffffffffffffffffffffffffff168152602001908152602001600020600085838151811061347057fe5b602002602001015173ffffffffffffffffffffffffffffffffffffffff1673ffffffffffffffffffffffffffffffffffffffff16815260200190815260200160002060009054906101000a900460ff1680156135655750600560008583815181106134d757fe5b602002602001015173ffffffffffffffffffffffffffffffffffffffff1673ffffffffffffffffffffffffffffffffffffffff16815260200190815260200160002060003373ffffffffffffffffffffffffffffffffffffffff1673ffffffffffffffffffffffffffffffffffffffff16815260200190815260200160002060009054906101000a900460ff165b6135cc5783818151811061357557fe5b602002602001015183838151811061358957fe5b602002602001019073ffffffffffffffffffffffffffffffffffffffff16908173ffffffffffffffffffffffffffffffffffffffff168152505081806001019250505b808060010191505061341a565b5060608160405190808252806020026020018201604052801561360b5781602001602082028038833980820191505090505b50905060008090505b828110156136835783818151811061362857fe5b602002602001015182828151811061363c57fe5b602002602001019073ffffffffffffffffffffffffffffffffffffffff16908173ffffffffffffffffffffffffffffffffffffffff16815250508080600101915050613614565b508094505050505090565b60606000809054906101000a900473ffffffffffffffffffffffffffffffffffffffff1673ffffffffffffffffffffffffffffffffffffffff1663ffb28d9c336040518263ffffffff1660e01b81526004016136ea9190614ec6565b60206040518083038186803b15801561370257600080fd5b505afa158015613716573d6000803e3d6000fd5b505050506040513d601f19601f8201168201806040525061373a9190810190614745565b806137eb57506000809054906101000a900473ffffffffffffffffffffffffffffffffffffffff1673ffffffffffffffffffffffffffffffffffffffff1663ffb28d9c336040518263ffffffff1660e01b815260040161379a9190614ef4565b60206040518083038186803b1580156137b257600080fd5b505afa1580156137c6573d6000803e3d6000fd5b505050506040513d601f19601f820116820180604052506137ea9190810190614745565b5b61382a576040517f08c379a00000000000000000000000000000000000000000000000000000000081526004016138219061504f565b60405180910390fd5b600160003373ffffffffffffffffffffffffffffffffffffffff1673ffffffffffffffffffffffffffffffffffffffff1681526020019081526020016000208054806020026020016040519081016040528092919081815260200182805480156138e957602002820191906000526020600020905b8160009054906101000a900473ffffffffffffffffffffffffffffffffffffffff1673ffffffffffffffffffffffffffffffffffffffff168152602001906001019080831161389f575b5050505050905090565b60606000809054906101000a900473ffffffffffffffffffffffffffffffffffffffff1673ffffffffffffffffffffffffffffffffffffffff1663ffb28d9c336040518263ffffffff1660e01b815260040161394f9190614ec6565b60206040518083038186803b15801561396757600080fd5b505afa15801561397b573d6000803e3d6000fd5b505050506040513d601f19601f8201168201806040525061399f9190810190614745565b80613a5057506000809054906101000a900473ffffffffffffffffffffffffffffffffffffffff1673ffffffffffffffffffffffffffffffffffffffff1663ffb28d9c336040518263ffffffff1660e01b81526004016139ff9190614ef4565b60206040518083038186803b158015613a1757600080fd5b505afa158015613a2b573d6000803e3d6000fd5b505050506040513d601f19601f82011682018060405250613a4f9190810190614745565b5b613a8f576040517f08c379a0000000000000000000000000000000000000000000000000000000008152600401613a869061504f565b60405180910390fd5b6060600160003373ffffffffffffffffffffffffffffffffffffffff1673ffffffffffffffffffffffffffffffffffffffff168152602001908152602001600020805480602002602001604051908101604052809291908181526020018280548015613b5057602002820191906000526020600020905b8160009054906101000a900473ffffffffffffffffffffffffffffffffffffffff1673ffffffffffffffffffffffffffffffffffffffff1681526020019060010190808311613b06575b5050505050905060608151604051908082528060200260200182016040528015613b895781602001602082028038833980820191505090505b509050600080905060008090505b8351811015613d5957600260003373ffffffffffffffffffffffffffffffffffffffff1673ffffffffffffffffffffffffffffffffffffffff1681526020019081526020016000206000858381518110613bed57fe5b602002602001015173ffffffffffffffffffffffffffffffffffffffff1673ffffffffffffffffffffffffffffffffffffffff16815260200190815260200160002060009054906101000a900460ff16158015613ce4575060026000858381518110613c5557fe5b602002602001015173ffffffffffffffffffffffffffffffffffffffff1673ffffffffffffffffffffffffffffffffffffffff16815260200190815260200160002060003373ffffffffffffffffffffffffffffffffffffffff1673ffffffffffffffffffffffffffffffffffffffff16815260200190815260200160002060009054906101000a900460ff16155b15613d4c57838181518110613cf557fe5b6020026020010151838381518110613d0957fe5b602002602001019073ffffffffffffffffffffffffffffffffffffffff16908173ffffffffffffffffffffffffffffffffffffffff168152505081806001019250505b8080600101915050613b97565b50606081604051908082528060200260200182016040528015613d8b5781602001602082028038833980820191505090505b50905060008090505b82811015613e0357838181518110613da857fe5b6020026020010151828281518110613dbc57fe5b602002602001019073ffffffffffffffffffffffffffffffffffffffff16908173ffffffffffffffffffffffffffffffffffffffff16815250508080600101915050613d94565b508094505050505090565b60008060009054906101000a900473ffffffffffffffffffffffffffffffffffffffff1673ffffffffffffffffffffffffffffffffffffffff1663ffb28d9c336040518263ffffffff1660e01b8152600401613e6a9190614ec6565b60206040518083038186803b158015613e8257600080fd5b505afa158015613e96573d6000803e3d6000fd5b505050506040513d601f19601f82011682018060405250613eba9190810190614745565b80613f6b57506000809054906101000a900473ffffffffffffffffffffffffffffffffffffffff1673ffffffffffffffffffffffffffffffffffffffff1663ffb28d9c336040518263ffffffff1660e01b8152600401613f1a9190614ef4565b60206040518083038186803b158015613f3257600080fd5b505afa158015613f46573d6000803e3d6000fd5b505050506040513d601f19601f82011682018060405250613f6a9190810190614745565b5b613faa576040517f08c379a0000000000000000000000000000000000000000000000000000000008152600401613fa19061504f565b60405180910390fd5b604051602001613fb990614e0d565b604051602081830303815290604052805190602001206000809054906101000a900473ffffffffffffffffffffffffffffffffffffffff1673ffffffffffffffffffffffffffffffffffffffff166327820851846040518263ffffffff1660e01b81526004016140299190614e37565b60006040518083038186803b15801561404157600080fd5b505afa158015614055573d6000803e3d6000fd5b505050506040513d6000823e3d601f19601f8201168201806040525061407e919081019061476e565b60405160200161408e9190614de1565b6040516020818303038152906040528051906020012014806141a757506040516020016140ba90614e22565b604051602081830303815290604052805190602001206000809054906101000a900473ffffffffffffffffffffffffffffffffffffffff1673ffffffffffffffffffffffffffffffffffffffff166327820851846040518263ffffffff1660e01b815260040161412a9190614e37565b60006040518083038186803b15801561414257600080fd5b505afa158015614156573d6000803e3d6000fd5b505050506040513d6000823e3d601f19601f8201168201806040525061417f919081019061476e565b60405160200161418f9190614de1565b60405160208183030381529060405280519060200120145b6141e6576040517f08c379a00000000000000000000000000000000000000000000000000000000081526004016141dd90614f8f565b60405180910390fd5b8173ffffffffffffffffffffffffffffffffffffffff163373ffffffffffffffffffffffffffffffffffffffff161415614255576040517f08c379a000000000000000000000000000000000000000000000000000000000815260040161424c90614fef565b60405180910390fd5b600260008373ffffffffffffffffffffffffffffffffffffffff1673ffffffffffffffffffffffffffffffffffffffff16815260200190815260200160002060003373ffffffffffffffffffffffffffffffffffffffff1673ffffffffffffffffffffffffffffffffffffffff16815260200190815260200160002060009054906101000a900460ff1680156143715750600260003373ffffffffffffffffffffffffffffffffffffffff1673ffffffffffffffffffffffffffffffffffffffff16815260200190815260200160002060008373ffffffffffffffffffffffffffffffffffffffff1673ffffffffffffffffffffffffffffffffffffffff16815260200190815260200160002060009054906101000a900460ff165b1561437f5760019050614384565b600090505b919050565b60006040518060400160405280600781526020017f5375626a656374000000000000000000000000000000000000000000000000008152506000809054906101000a900473ffffffffffffffffffffffffffffffffffffffff1673ffffffffffffffffffffffffffffffffffffffff1663ffb28d9c33836040518363ffffffff1660e01b815260040161441d929190614e96565b60206040518083038186803b15801561443557600080fd5b505afa158015614449573d6000803e3d6000fd5b505050506040513d601f19601f8201168201806040525061446d9190810190614745565b6144ac576040517f08c379a00000000000000000000000000000000000000000000000000000000081526004016144a39061504f565b60405180910390fd5b826040518060400160405280600881526020017f56657269666965720000000000000000000000000000000000000000000000008152506000809054906101000a900473ffffffffffffffffffffffffffffffffffffffff1673ffffffffffffffffffffffffffffffffffffffff1663ffb28d9c83836040518363ffffffff1660e01b815260040161453f929190614f22565b60206040518083038186803b15801561455757600080fd5b505afa15801561456b573d6000803e3d6000fd5b505050506040513d601f19601f8201168201806040525061458f9190810190614745565b6145ce576040517f08c379a00000000000000000000000000000000000000000000000000000000081526004016145c59061500f565b60405180910390fd5b600560003373ffffffffffffffffffffffffffffffffffffffff1673ffffffffffffffffffffffffffffffffffffffff16815260200190815260200160002060008673ffffffffffffffffffffffffffffffffffffffff1673ffffffffffffffffffffffffffffffffffffffff16815260200190815260200160002060009054906101000a900460ff169350505050919050565b60008135905061467181615240565b92915050565b60008151905061468681615257565b92915050565b600082601f83011261469d57600080fd5b81516146b06146ab826150fc565b6150cf565b915080825260208301602083018583830111156146cc57600080fd5b6146d78382846151fc565b50505092915050565b6000602082840312156146f257600080fd5b600061470084828501614662565b91505092915050565b6000806040838503121561471c57600080fd5b600061472a85828601614662565b925050602061473b85828601614662565b9150509250929050565b60006020828403121561475757600080fd5b600061476584828501614677565b91505092915050565b60006020828403121561478057600080fd5b600082015167ffffffffffffffff81111561479a57600080fd5b6147a68482850161468c565b91505092915050565b60006147bb83836147d6565b60208301905092915050565b6147d0816151c6565b82525050565b6147df81615188565b82525050565b6147ee81615188565b82525050565b60006147ff82615138565b614809818561515b565b935061481483615128565b8060005b8381101561484557815161482c88826147af565b97506148378361514e565b925050600181019050614818565b5085935050505092915050565b61485b8161519a565b82525050565b600061486c82615143565b614876818561516c565b93506148868185602086016151fc565b61488f8161522f565b840191505092915050565b60006148a582615143565b6148af818561517d565b93506148bf8185602086016151fc565b80840191505092915050565b60006148d860088361517d565b91507f56657269666965720000000000000000000000000000000000000000000000006000830152600882019050919050565b600061491860308361516c565b91507f55736572206164647265737320776974682073706563696669656420726f6c6560008301527f20646f6573206e6f742065786973742e000000000000000000000000000000006020830152604082019050919050565b600061497e60268361516c565b91507f596f75206861766520616c72656164792072657175657374656420666f72206160008301527f20636572742e00000000000000000000000000000000000000000000000000006020830152604082019050919050565b60006149e460278361516c565b91507f56657269666965722068617320616c7265616479206265656e20676976656e2060008301527f6163636573732e000000000000000000000000000000000000000000000000006020830152604082019050919050565b6000614a4a60078361516c565b91507f5375626a656374000000000000000000000000000000000000000000000000006000830152602082019050919050565b6000614a8a60078361517d565b91507f5375626a656374000000000000000000000000000000000000000000000000006000830152600782019050919050565b6000614aca602f8361516c565b91507f416374696f6e2063616e6e6f7420626520706572666f726d6564206f6e20746860008301527f652073616d6520616464726573732e00000000000000000000000000000000006020830152604082019050919050565b6000614b3060308361516c565b91507f54686520616374696f6e2063616e206f6e6c7920626520706572666f726d656460008301527f206f6e2076616c69642075736572732e000000000000000000000000000000006020830152604082019050919050565b6000614b9660068361516c565b91507f49737375657200000000000000000000000000000000000000000000000000006000830152602082019050919050565b6000614bd660068361517d565b91507f49737375657200000000000000000000000000000000000000000000000000006000830152600682019050919050565b6000614c16602e8361516c565b91507f4f6e6c7920617574686f72697a656420726f6c65732063616e20706572666f7260008301527f6d207468697320616374696f6e2e0000000000000000000000000000000000006020830152604082019050919050565b6000614c7c60368361516c565b91507f5468697320616374696f6e2063616e206f6e6c7920626520706572666f726d6560008301527f6420627920617574686f72697a656420726f6c65732e000000000000000000006020830152604082019050919050565b6000614ce260268361516c565b91507f54686520616374696f6e2068617320616c7265616479206265656e207065726660008301527f6f726d65642e00000000000000000000000000000000000000000000000000006020830152604082019050919050565b6000614d48601f8361516c565b91507f566572696669657220616c726561647920686173206e6f206163636573732e006000830152602082019050919050565b6000614d8860218361516c565b91507f5375626a65637420686173206e6f74206d61646520616e79207265717565737460008301527f2e000000000000000000000000000000000000000000000000000000000000006020830152604082019050919050565b6000614ded828461489a565b915081905092915050565b6000614e03826148cb565b9150819050919050565b6000614e1882614a7d565b9150819050919050565b6000614e2d82614bc9565b9150819050919050565b6000602082019050614e4c60008301846147e5565b92915050565b6000602082019050614e6760008301846147c7565b92915050565b6000604082019050614e8260008301856147c7565b614e8f60208301846147e5565b9392505050565b6000604082019050614eab60008301856147c7565b8181036020830152614ebd8184614861565b90509392505050565b6000604082019050614edb60008301846147c7565b8181036020830152614eec81614a3d565b905092915050565b6000604082019050614f0960008301846147c7565b8181036020830152614f1a81614b89565b905092915050565b6000604082019050614f3760008301856147e5565b8181036020830152614f498184614861565b90509392505050565b60006020820190508181036000830152614f6c81846147f4565b905092915050565b6000602082019050614f896000830184614852565b92915050565b60006020820190508181036000830152614fa88161490b565b9050919050565b60006020820190508181036000830152614fc881614971565b9050919050565b60006020820190508181036000830152614fe8816149d7565b9050919050565b6000602082019050818103600083015261500881614abd565b9050919050565b6000602082019050818103600083015261502881614b23565b9050919050565b6000602082019050818103600083015261504881614c09565b9050919050565b6000602082019050818103600083015261506881614c6f565b9050919050565b6000602082019050818103600083015261508881614cd5565b9050919050565b600060208201905081810360008301526150a881614d3b565b9050919050565b600060208201905081810360008301526150c881614d7b565b9050919050565b6000604051905081810181811067ffffffffffffffff821117156150f257600080fd5b8060405250919050565b600067ffffffffffffffff82111561511357600080fd5b601f19601f8301169050602081019050919050565b6000819050602082019050919050565b600081519050919050565b600081519050919050565b6000602082019050919050565b600082825260208201905092915050565b600082825260208201905092915050565b600081905092915050565b6000615193826151a6565b9050919050565b60008115159050919050565b600073ffffffffffffffffffffffffffffffffffffffff82169050919050565b60006151d1826151d8565b9050919050565b60006151e3826151ea565b9050919050565b60006151f5826151a6565b9050919050565b60005b8381101561521a5780820151818401526020810190506151ff565b83811115615229576000848401525b50505050565b6000601f19601f8301169050919050565b61524981615188565b811461525457600080fd5b50565b6152608161519a565b811461526b57600080fd5b5056fea365627a7a7231582006f3d58914cb095ec932f9c522a78a42858aaccb810ffd7fc9dab73b777a367d6c6578706572696d656e74616cf564736f6c63430005100040",
  "source": "pragma solidity >=0.5.0;\npragma experimental ABIEncoderV2;\n\nimport \"./CertificateNetwork.sol\";\n\ncontract CertificateStore {\n    CertificateNetwork certNetwork;\n\n    // S>I: Student can make many request\n    // I>S: Issuer can receive many request\n    mapping(address => address[]) private reqHistMap; // History of Unique Requests\n\n    // Request map for S <=> I.T > Issue Pass F > Wont issue\n    mapping(address => mapping(address => bool)) private requestMap;\n\n    // Check if S request to I before (S>I)\n    mapping(address => mapping(address => bool)) private requestExistMap;\n\n    // S>V: Student can grant multiple Verifier to view their cert.\n    // V>S: Verifier can view multiple subject Cert\n    mapping(address => address[]) private grantHistMap; // History of Unique Grants\n\n    // Grant map for S <=> V.\n    mapping(address => mapping(address => bool)) private grantMap;\n\n    // Check if S has granted V before (S>V)\n    mapping(address => mapping(address => bool)) private grantExistMap;\n\n    // REMOVED mappings:\n    // Replaced with certHistMap\n    // mapping(address => uint256[]) private subjectToCertListMap; // map subject to issued certs(by certId) by issuers\n    // mapping(address => uint256[]) private issuerToCertListMap; // map issuer to issued certs(by certId)\n\n    // Replaced with addrToCertMap\n    // mapping(address => mapping(uint256 => bool)) private subjectToCertMap;\n    // mapping(address => mapping(uint256 => bool)) private issuerToCertMap;\n    // mapping(address => mapping(address => bool)) private requestMap;\n\n    // Replaced with grantMap\n    // mapping(address => mapping(address => bool)) private subjectToVerifierMap; // S>(V>bool), map subject to all approved verifiers to view all certs\n\n    // Events\n    event IssuedCertificate(\n        uint256 certId,\n        address issuerAddr,\n        address subjectAddr\n    );\n    event RevokeCertificate(address issuer, uint256 certId);\n    event RequestCertificate(address subjectAddr, address issuerAddr);\n    event AcceptSubjectRequest(address issuerAddr, address subjectAddr);\n    event RejectSubjectRequest(address issuerAddr, address subjectAddr);\n\n    event VerifierGranted(address subjectAddr, address verifierAddr);\n    event VerifierDenied(address subjectAddr, address verifierAddr);\n    //event ViewVerifierStatus(address subjectAddr, bool status);\n    //event ViewSubjectStatus(address verifierAddr, bool status);\n\n    constructor(CertificateNetwork cn) public {\n        certNetwork = cn;\n    }\n\n    // Modifiers\n    modifier onlyValidRoles(string memory role) {\n        require(\n            certNetwork.checkUserExist(msg.sender, role),\n            \"This action can only be performed by authorized roles.\"\n        );\n        _;\n    }\n\n    // Used to check if a user exist, i.e. issue cert to subject, check if that subject exist in our system.\n    modifier userExist(address addr, string memory role) {\n        require(\n            certNetwork.checkUserExist(addr, role),\n            \"The action can only be performed on valid users.\"\n        );\n        _;\n    }\n    modifier onlyIssuerSubject() {\n        require(\n            certNetwork.checkUserExist(msg.sender, \"Subject\") ||\n                certNetwork.checkUserExist(msg.sender, \"Issuer\"),\n            \"This action can only be performed by authorized roles.\"\n        );\n        _;\n    }\n\n    // Request cert from issuer. (SUBJECT -> ISSUER)\n    // Issue: subject can spam request for each issuer without being a subject\n    // Assumptions:\n    // 1. Subject know school block addr\n    // 2. Subject belongs to the school and is legitamite.\n    // 3. Subject only needs to request from the sch once for a sch to send all the subjects cert.\n    function requestCert(address issuerAddr)\n        public\n        onlyValidRoles(\"Subject\")\n        userExist(issuerAddr, \"Issuer\")\n    {\n        require(\n            !requestMap[msg.sender][issuerAddr],\n            \"You have already requested for a cert.\"\n        );\n\n        requestMap[msg.sender][issuerAddr] = true; // subject request\n        requestMap[issuerAddr][msg.sender] = true; // issuer to approve\n\n        // add only new unique request\n        if (!requestExistMap[msg.sender][issuerAddr]) {\n            reqHistMap[msg.sender].push(issuerAddr);\n            reqHistMap[issuerAddr].push(msg.sender);\n        }\n\n        // Record user requested before\n        requestExistMap[msg.sender][issuerAddr] = true;\n        emit RequestCertificate(msg.sender, issuerAddr);\n    }\n\n    function rejectRequest(address subjectAddr)\n        public\n        onlyValidRoles(\"Issuer\")\n        userExist(subjectAddr, \"Subject\")\n    {\n        require(\n            requestMap[subjectAddr][msg.sender],\n            \"Subject has not made any request.\"\n        ); // S>I\n        require(\n            requestMap[msg.sender][subjectAddr],\n            \"The action has already been performed.\"\n        ); // I>S\n\n        requestMap[msg.sender][subjectAddr] = false;\n        requestMap[subjectAddr][msg.sender] = false;\n        emit RejectSubjectRequest(msg.sender, subjectAddr);\n    }\n\n    function getApprovedReqList()\n        public\n        view\n        onlyIssuerSubject\n        returns (address[] memory)\n    {\n        address[] memory reqHist = reqHistMap[msg.sender];\n        address[] memory tempList = new address[](reqHist.length);\n        uint256 y = 0;\n        for (uint256 i = 0; i < reqHist.length; i++) {\n            // check if issuer approve subject and student make req to issuer\n            if (\n                requestMap[msg.sender][reqHist[i]] &&\n                requestMap[reqHist[i]][msg.sender]\n            ) {\n                // Get all valid request\n                tempList[y] = reqHist[i];\n                y++;\n            }\n        }\n        address[] memory newList = new address[](y);\n        for (uint256 i = 0; i < y; i++) {\n            newList[i] = tempList[i];\n        }\n        return newList;\n    }\n\n    function getRejectedReqList()\n        public\n        view\n        onlyIssuerSubject\n        returns (address[] memory)\n    {\n        address[] memory reqHist = reqHistMap[msg.sender];\n        address[] memory tempList = new address[](reqHist.length);\n        uint256 y = 0;\n        for (uint256 i = 0; i < reqHist.length; i++) {\n            // check if issuer approve subject and student make req to issuer\n            if (\n                !requestMap[msg.sender][reqHist[i]] &&\n                !requestMap[reqHist[i]][msg.sender]\n            ) {\n                // Get all valid request\n                tempList[y] = reqHist[i];\n                y++;\n            }\n        }\n        address[] memory newList = new address[](y);\n        for (uint256 i = 0; i < y; i++) {\n            newList[i] = tempList[i];\n        }\n        return newList;\n    }\n\n    // Get all unique request history regardless of approve/deny\n    function getReqHist()\n        public\n        view\n        onlyIssuerSubject\n        returns (address[] memory)\n    {\n        return reqHistMap[msg.sender];\n    }\n\n    function checkRequest(address addr)\n        public\n        view\n        onlyIssuerSubject\n        returns (bool)\n    {\n        require(\n            keccak256(abi.encodePacked(certNetwork.getUserRole(addr))) ==\n                keccak256(abi.encodePacked(\"Subject\")) ||\n                keccak256(abi.encodePacked(certNetwork.getUserRole(addr))) ==\n                keccak256(abi.encodePacked(\"Issuer\")),\n            \"User address with specified role does not exist.\"\n        );\n        require(\n            !(msg.sender == addr),\n            \"Action cannot be performed on the same address.\"\n        );\n        if (requestMap[addr][msg.sender] && requestMap[msg.sender][addr]) {\n            return true;\n        }\n        return false;\n    }\n\n    // for I>S, check user requested\n    function getRequestStatus(address issuerAddr, address subjectAddr)\n        public\n        view\n        userExist(issuerAddr, \"Issuer\")\n        userExist(subjectAddr, \"Subject\")\n        returns (bool)\n    {\n        return requestMap[subjectAddr][issuerAddr];\n    }\n\n    // for I>S, check if issuer have deny before\n    function getIssueStatus(address issuerAddr, address subjectAddr)\n        public\n        view\n        userExist(issuerAddr, \"Issuer\")\n        userExist(subjectAddr, \"Subject\")\n        returns (bool)\n    {\n        return requestMap[issuerAddr][subjectAddr];\n    }\n\n\n\n\n    //Between Subjects and Verifiers\n\n    // for V>S, check grant list\n    function getAccessStatus(address verifierAddr, address subjectAddr)\n        public\n        view\n        userExist(verifierAddr, \"Verifier\")\n        userExist(subjectAddr, \"Subject\")\n        returns (bool)\n    {\n        return grantMap[subjectAddr][verifierAddr];\n    }\n\n    // Grant access to a verifier to viewing all subject certs.(SUBJECT -> VERIFIER)\n    function grantVerifier(address verifierAddr)\n        public\n        onlyValidRoles(\"Subject\")\n        userExist(verifierAddr, \"Verifier\")\n    {\n        require(\n            !grantMap[msg.sender][verifierAddr],\n            \"Verifier has already been given access.\"\n        );\n\n        // record grant: S<=>V\n        grantMap[msg.sender][verifierAddr] = true;\n        grantMap[verifierAddr][msg.sender] = true;\n\n        // record uniqiue grant history\n        if (!grantExistMap[msg.sender][verifierAddr]) {\n            grantHistMap[msg.sender].push(verifierAddr);\n            grantHistMap[verifierAddr].push(msg.sender);\n        }\n        grantExistMap[msg.sender][verifierAddr] = true;\n        emit VerifierGranted(msg.sender, verifierAddr);\n    }\n\n    // Deny access to a verifier to viewing all subject certs.(SUBJECT -> VERIFIER)\n    function denyVerifier(address verifierAddr)\n        public\n        onlyValidRoles(\"Subject\")\n        userExist(verifierAddr, \"Verifier\")\n    {\n        require(\n            grantMap[msg.sender][verifierAddr],\n            \"Verifier already has no access.\"\n        );\n\n        grantMap[verifierAddr][msg.sender] = false; // remove access for verifier\n        grantMap[msg.sender][verifierAddr] = false; // remove access given by S>V\n\n        emit VerifierDenied(msg.sender, verifierAddr);\n    }\n\n    // Getters and Setters\n    // S>V, check Subject approved verifier\n    //Frontend[subject]: loop thr all verifier addresses to display the list of verifiers approved by the subject.\n    function checkVerifier(address verifier)\n        public\n        view\n        onlyValidRoles(\"Subject\")\n        userExist(verifier, \"Verifier\")\n        returns (bool)\n    {\n\n        return grantMap[msg.sender][verifier];\n    }\n\n    // V>S, check if verifier is approved by subject\n    //Frontend[verifier]: loop thr all subject addresses to display the list of subjects viewable by the verifier.\n    function checkSubject(address subject)\n        public\n        view\n        onlyValidRoles(\"Verifier\")\n        userExist(subject, \"Subject\")\n        returns (bool)\n    {\n        return grantMap[subject][msg.sender];\n    }\n\n    // S>V: Subject can view verifier they given access to.\n    // V>S: Verifier can view subject they given access from.\n    function getGrantList() public view returns (address[] memory) {\n        require(\n            keccak256(abi.encodePacked(certNetwork.getUserRole(msg.sender))) ==\n                keccak256(abi.encodePacked(\"Subject\")) ||\n                keccak256(\n                    abi.encodePacked(certNetwork.getUserRole(msg.sender))\n                ) ==\n                keccak256(abi.encodePacked(\"Verifier\")),\n            \"Only authorized roles can perform this action.\"\n        );\n        address[] memory grantList = grantHistMap[msg.sender];\n        address[] memory tempList = new address[](grantList.length);\n        uint256 y = 0;\n        for (uint256 i = 0; i < grantList.length; i++) {\n            if (\n                grantMap[msg.sender][grantList[i]] &&\n                grantMap[grantList[i]][msg.sender]\n            ) {\n                tempList[y] = grantList[i];\n                y++;\n            }\n        }\n        address[] memory newList = new address[](y);\n        for (uint256 i = 0; i < y; i++) {\n            newList[i] = tempList[i];\n        }\n        return newList;\n    }\n\n    // S>V: Subject can view verifier they have denied access to.\n    // V>S: Verifier can view subject they have been denied access to.\n    function getDenyList() public view returns (address[] memory) {\n        require(\n            keccak256(abi.encodePacked(certNetwork.getUserRole(msg.sender))) ==\n                keccak256(abi.encodePacked(\"Subject\")) ||\n                keccak256(\n                    abi.encodePacked(certNetwork.getUserRole(msg.sender))\n                ) ==\n                keccak256(abi.encodePacked(\"Verifier\")),\n            \"Only authorized roles can perform this action.\"\n        );\n        address[] memory grantList = grantHistMap[msg.sender];\n        address[] memory tempList = new address[](grantList.length);\n        uint256 y = 0;\n        for (uint256 i = 0; i < grantList.length; i++) {\n            if (\n                !(grantMap[msg.sender][grantList[i]] &&\n                    grantMap[grantList[i]][msg.sender])\n            ) {\n                tempList[y] = grantList[i];\n                y++;\n            }\n        }\n        address[] memory newList = new address[](y);\n        for (uint256 i = 0; i < y; i++) {\n            newList[i] = tempList[i];\n        }\n        return newList;\n    }\n}\n",
  "sourcePath": "/Users/xieran/Documents/GitHub/IS4302_Project/contracts/CertificateStore.sol",
  "compiler": {
    "name": "solc",
    "version": "0.5.16+commit.9c3226ce.Emscripten.clang"
  },
  "schemaVersion": "3.3.3",
  "updatedAt": "2022-04-08T06:21:23.546Z",
  "devdoc": {
    "methods": {}
  },
  "userdoc": {
    "methods": {}
  }
}