{
  "contractName": "Certificate",
  "abi": [
    {
      "inputs": [
        {
          "internalType": "contract CertificateNetwork",
          "name": "cn",
          "type": "address"
        },
        {
          "internalType": "contract CertificateStore",
          "name": "cs",
          "type": "address"
        }
      ],
      "payable": false,
      "stateMutability": "nonpayable",
      "type": "constructor"
    },
    {
      "anonymous": false,
      "inputs": [
        {
          "indexed": false,
          "internalType": "uint256",
          "name": "certId",
          "type": "uint256"
        },
        {
          "indexed": false,
          "internalType": "address",
          "name": "issuerAddr",
          "type": "address"
        },
        {
          "indexed": false,
          "internalType": "address",
          "name": "subjectAddr",
          "type": "address"
        }
      ],
      "name": "IssuedCertificate",
      "type": "event"
    },
    {
      "anonymous": false,
      "inputs": [
        {
          "indexed": false,
          "internalType": "address",
          "name": "issuer",
          "type": "address"
        },
        {
          "indexed": false,
          "internalType": "uint256",
          "name": "certId",
          "type": "uint256"
        }
      ],
      "name": "RevokeCertificate",
      "type": "event"
    },
    {
      "constant": false,
      "inputs": [
        {
          "internalType": "address",
          "name": "subjectAddr",
          "type": "address"
        },
        {
          "internalType": "string",
          "name": "_issuerName",
          "type": "string"
        },
        {
          "internalType": "string",
          "name": "_nric",
          "type": "string"
        },
        {
          "internalType": "string",
          "name": "_serialNo",
          "type": "string"
        },
        {
          "internalType": "string",
          "name": "_title",
          "type": "string"
        },
        {
          "internalType": "string",
          "name": "_completionDate",
          "type": "string"
        }
      ],
      "name": "issueCertificate",
      "outputs": [
        {
          "internalType": "uint256",
          "name": "",
          "type": "uint256"
        }
      ],
      "payable": false,
      "stateMutability": "nonpayable",
      "type": "function"
    },
    {
      "constant": false,
      "inputs": [
        {
          "internalType": "uint256",
          "name": "certId",
          "type": "uint256"
        }
      ],
      "name": "revokeCert",
      "outputs": [],
      "payable": false,
      "stateMutability": "nonpayable",
      "type": "function"
    },
    {
      "constant": true,
      "inputs": [],
      "name": "getCertListById",
      "outputs": [
        {
          "internalType": "uint256[]",
          "name": "",
          "type": "uint256[]"
        }
      ],
      "payable": false,
      "stateMutability": "view",
      "type": "function"
    },
    {
      "constant": true,
      "inputs": [],
      "name": "getCerts",
      "outputs": [
        {
          "components": [
            {
              "internalType": "uint256",
              "name": "certId",
              "type": "uint256"
            },
            {
              "internalType": "address",
              "name": "owner",
              "type": "address"
            },
            {
              "internalType": "address",
              "name": "issuerAddr",
              "type": "address"
            },
            {
              "internalType": "string",
              "name": "issuerName",
              "type": "string"
            },
            {
              "internalType": "uint256",
              "name": "creationDate",
              "type": "uint256"
            },
            {
              "internalType": "string",
              "name": "nric",
              "type": "string"
            },
            {
              "internalType": "string",
              "name": "serialNo",
              "type": "string"
            },
            {
              "internalType": "string",
              "name": "title",
              "type": "string"
            },
            {
              "internalType": "string",
              "name": "completionDate",
              "type": "string"
            }
          ],
          "internalType": "struct Certificate.Cert[]",
          "name": "",
          "type": "tuple[]"
        }
      ],
      "payable": false,
      "stateMutability": "view",
      "type": "function"
    },
    {
      "constant": true,
      "inputs": [],
      "name": "getCertsRevokedList",
      "outputs": [
        {
          "components": [
            {
              "internalType": "uint256",
              "name": "certId",
              "type": "uint256"
            },
            {
              "internalType": "address",
              "name": "owner",
              "type": "address"
            },
            {
              "internalType": "address",
              "name": "issuerAddr",
              "type": "address"
            },
            {
              "internalType": "string",
              "name": "issuerName",
              "type": "string"
            },
            {
              "internalType": "uint256",
              "name": "creationDate",
              "type": "uint256"
            },
            {
              "internalType": "string",
              "name": "nric",
              "type": "string"
            },
            {
              "internalType": "string",
              "name": "serialNo",
              "type": "string"
            },
            {
              "internalType": "string",
              "name": "title",
              "type": "string"
            },
            {
              "internalType": "string",
              "name": "completionDate",
              "type": "string"
            }
          ],
          "internalType": "struct Certificate.Cert[]",
          "name": "",
          "type": "tuple[]"
        }
      ],
      "payable": false,
      "stateMutability": "view",
      "type": "function"
    },
    {
      "constant": true,
      "inputs": [
        {
          "internalType": "address",
          "name": "subjectAddr",
          "type": "address"
        }
      ],
      "name": "getCertListVerifiers",
      "outputs": [
        {
          "components": [
            {
              "internalType": "uint256",
              "name": "certId",
              "type": "uint256"
            },
            {
              "internalType": "address",
              "name": "owner",
              "type": "address"
            },
            {
              "internalType": "address",
              "name": "issuerAddr",
              "type": "address"
            },
            {
              "internalType": "string",
              "name": "issuerName",
              "type": "string"
            },
            {
              "internalType": "uint256",
              "name": "creationDate",
              "type": "uint256"
            },
            {
              "internalType": "string",
              "name": "nric",
              "type": "string"
            },
            {
              "internalType": "string",
              "name": "serialNo",
              "type": "string"
            },
            {
              "internalType": "string",
              "name": "title",
              "type": "string"
            },
            {
              "internalType": "string",
              "name": "completionDate",
              "type": "string"
            }
          ],
          "internalType": "struct Certificate.Cert[]",
          "name": "",
          "type": "tuple[]"
        }
      ],
      "payable": false,
      "stateMutability": "view",
      "type": "function"
    },
    {
      "constant": true,
      "inputs": [
        {
          "internalType": "uint256",
          "name": "certId",
          "type": "uint256"
        }
      ],
      "name": "checkCertExist",
      "outputs": [
        {
          "internalType": "bool",
          "name": "",
          "type": "bool"
        }
      ],
      "payable": false,
      "stateMutability": "view",
      "type": "function"
    }
  ],
  "bytecode": "0x60806040523480156200001157600080fd5b5060405162003d8e38038062003d8e8339818101604052620000379190810190620000f6565b816000806101000a81548173ffffffffffffffffffffffffffffffffffffffff021916908373ffffffffffffffffffffffffffffffffffffffff16021790555080600160006101000a81548173ffffffffffffffffffffffffffffffffffffffff021916908373ffffffffffffffffffffffffffffffffffffffff16021790555060016002819055505050620001c7565b600081519050620000d98162000193565b92915050565b600081519050620000f081620001ad565b92915050565b600080604083850312156200010a57600080fd5b60006200011a85828601620000c8565b92505060206200012d85828601620000df565b9150509250929050565b6000620001448262000173565b9050919050565b6000620001588262000137565b9050919050565b60006200016c8262000137565b9050919050565b600073ffffffffffffffffffffffffffffffffffffffff82169050919050565b6200019e816200014b565b8114620001aa57600080fd5b50565b620001b8816200015f565b8114620001c457600080fd5b50565b613bb780620001d76000396000f3fe608060405234801561001057600080fd5b506004361061007d5760003560e01c80637af261cc1161005b5780637af261cc146100dc57806393d843551461010c578063dbcbc2721461013c578063de8c98fd146101585761007d565b80630975ee6f14610082578063403afe2d146100a057806357e995bb146100be575b600080fd5b61008a610188565b60405161009791906137bf565b60405180910390f35b6100a86109fc565b6040516100b591906137bf565b60405180910390f35b6100c661126f565b6040516100d391906137e1565b60405180910390f35b6100f660048036036100f19190810190612f19565b6116c7565b60405161010391906137bf565b60405180910390f35b610126600480360361012191908101906130ad565b612033565b6040516101339190613803565b60405180910390f35b610156600480360361015191908101906130ad565b6120d3565b005b610172600480360361016d9190810190612f42565b612487565b60405161017f91906138fe565b60405180910390f35b6060604051602001610199906136c8565b604051602081830303815290604052805190602001206000809054906101000a900473ffffffffffffffffffffffffffffffffffffffff1673ffffffffffffffffffffffffffffffffffffffff166327820851336040518263ffffffff1660e01b815260040161020991906136f2565b60006040518083038186803b15801561022157600080fd5b505afa158015610235573d6000803e3d6000fd5b505050506040513d6000823e3d601f19601f8201168201806040525061025e919081019061306c565b60405160200161026e91906136b1565b604051602081830303815290604052805190602001201480610387575060405160200161029a906136dd565b604051602081830303815290604052805190602001206000809054906101000a900473ffffffffffffffffffffffffffffffffffffffff1673ffffffffffffffffffffffffffffffffffffffff166327820851336040518263ffffffff1660e01b815260040161030a91906136f2565b60006040518083038186803b15801561032257600080fd5b505afa158015610336573d6000803e3d6000fd5b505050506040513d6000823e3d601f19601f8201168201806040525061035f919081019061306c565b60405160200161036f91906136b1565b60405160208183030381529060405280519060200120145b6103c6576040517f08c379a00000000000000000000000000000000000000000000000000000000081526004016103bd9061389e565b60405180910390fd5b6060600660003373ffffffffffffffffffffffffffffffffffffffff1673ffffffffffffffffffffffffffffffffffffffff16815260200190815260200160002080548060200260200160405190810160405280929190818152602001828054801561045157602002820191906000526020600020905b81548152602001906001019080831161043d575b505050505090506060815160405190808252806020026020018201604052801561049557816020015b610482612c9d565b81526020019060019003908161047a5790505b509050600080905060008090505b835181101561096b57600560003373ffffffffffffffffffffffffffffffffffffffff1673ffffffffffffffffffffffffffffffffffffffff16815260200190815260200160002060008583815181106104f957fe5b6020026020010151815260200190815260200160002060009054906101000a900460ff161561095e576003600085838151811061053257fe5b6020026020010151815260200190815260200160002060405180610120016040529081600082015481526020016001820160009054906101000a900473ffffffffffffffffffffffffffffffffffffffff1673ffffffffffffffffffffffffffffffffffffffff1673ffffffffffffffffffffffffffffffffffffffff1681526020016002820160009054906101000a900473ffffffffffffffffffffffffffffffffffffffff1673ffffffffffffffffffffffffffffffffffffffff1673ffffffffffffffffffffffffffffffffffffffff168152602001600382018054600181600116156101000203166002900480601f0160208091040260200160405190810160405280929190818152602001828054600181600116156101000203166002900480156106a35780601f10610678576101008083540402835291602001916106a3565b820191906000526020600020905b81548152906001019060200180831161068657829003601f168201915b5050505050815260200160048201548152602001600582018054600181600116156101000203166002900480601f01602080910402602001604051908101604052809291908181526020018280546001816001161561010002031660029004801561074f5780601f106107245761010080835404028352916020019161074f565b820191906000526020600020905b81548152906001019060200180831161073257829003601f168201915b50505050508152602001600682018054600181600116156101000203166002900480601f0160208091040260200160405190810160405280929190818152602001828054600181600116156101000203166002900480156107f15780601f106107c6576101008083540402835291602001916107f1565b820191906000526020600020905b8154815290600101906020018083116107d457829003601f168201915b50505050508152602001600782018054600181600116156101000203166002900480601f0160208091040260200160405190810160405280929190818152602001828054600181600116156101000203166002900480156108935780601f1061086857610100808354040283529160200191610893565b820191906000526020600020905b81548152906001019060200180831161087657829003601f168201915b50505050508152602001600882018054600181600116156101000203166002900480601f0160208091040260200160405190810160405280929190818152602001828054600181600116156101000203166002900480156109355780601f1061090a57610100808354040283529160200191610935565b820191906000526020600020905b81548152906001019060200180831161091857829003601f168201915b50505050508152505083838151811061094a57fe5b602002602001018190525081806001019250505b80806001019150506104a3565b506060816040519080825280602002602001820160405280156109a857816020015b610995612c9d565b81526020019060019003908161098d5790505b50905060008090505b828110156109f1578381815181106109c557fe5b60200260200101518282815181106109d957fe5b602002602001018190525080806001019150506109b1565b508094505050505090565b6060604051602001610a0d906136c8565b604051602081830303815290604052805190602001206000809054906101000a900473ffffffffffffffffffffffffffffffffffffffff1673ffffffffffffffffffffffffffffffffffffffff166327820851336040518263ffffffff1660e01b8152600401610a7d91906136f2565b60006040518083038186803b158015610a9557600080fd5b505afa158015610aa9573d6000803e3d6000fd5b505050506040513d6000823e3d601f19601f82011682018060405250610ad2919081019061306c565b604051602001610ae291906136b1565b604051602081830303815290604052805190602001201480610bfb5750604051602001610b0e906136dd565b604051602081830303815290604052805190602001206000809054906101000a900473ffffffffffffffffffffffffffffffffffffffff1673ffffffffffffffffffffffffffffffffffffffff166327820851336040518263ffffffff1660e01b8152600401610b7e91906136f2565b60006040518083038186803b158015610b9657600080fd5b505afa158015610baa573d6000803e3d6000fd5b505050506040513d6000823e3d601f19601f82011682018060405250610bd3919081019061306c565b604051602001610be391906136b1565b60405160208183030381529060405280519060200120145b610c3a576040517f08c379a0000000000000000000000000000000000000000000000000000000008152600401610c319061389e565b60405180910390fd5b6060600660003373ffffffffffffffffffffffffffffffffffffffff1673ffffffffffffffffffffffffffffffffffffffff168152602001908152602001600020805480602002602001604051908101604052809291908181526020018280548015610cc557602002820191906000526020600020905b815481526020019060010190808311610cb1575b5050505050905060608151604051908082528060200260200182016040528015610d0957816020015b610cf6612c9d565b815260200190600190039081610cee5790505b509050600080905060008090505b83518110156111de57600560003373ffffffffffffffffffffffffffffffffffffffff1673ffffffffffffffffffffffffffffffffffffffff1681526020019081526020016000206000858381518110610d6d57fe5b6020026020010151815260200190815260200160002060009054906101000a900460ff166111d15760036000858381518110610da557fe5b6020026020010151815260200190815260200160002060405180610120016040529081600082015481526020016001820160009054906101000a900473ffffffffffffffffffffffffffffffffffffffff1673ffffffffffffffffffffffffffffffffffffffff1673ffffffffffffffffffffffffffffffffffffffff1681526020016002820160009054906101000a900473ffffffffffffffffffffffffffffffffffffffff1673ffffffffffffffffffffffffffffffffffffffff1673ffffffffffffffffffffffffffffffffffffffff168152602001600382018054600181600116156101000203166002900480601f016020809104026020016040519081016040528092919081815260200182805460018160011615610100020316600290048015610f165780601f10610eeb57610100808354040283529160200191610f16565b820191906000526020600020905b815481529060010190602001808311610ef957829003601f168201915b5050505050815260200160048201548152602001600582018054600181600116156101000203166002900480601f016020809104026020016040519081016040528092919081815260200182805460018160011615610100020316600290048015610fc25780601f10610f9757610100808354040283529160200191610fc2565b820191906000526020600020905b815481529060010190602001808311610fa557829003601f168201915b50505050508152602001600682018054600181600116156101000203166002900480601f0160208091040260200160405190810160405280929190818152602001828054600181600116156101000203166002900480156110645780601f1061103957610100808354040283529160200191611064565b820191906000526020600020905b81548152906001019060200180831161104757829003601f168201915b50505050508152602001600782018054600181600116156101000203166002900480601f0160208091040260200160405190810160405280929190818152602001828054600181600116156101000203166002900480156111065780601f106110db57610100808354040283529160200191611106565b820191906000526020600020905b8154815290600101906020018083116110e957829003601f168201915b50505050508152602001600882018054600181600116156101000203166002900480601f0160208091040260200160405190810160405280929190818152602001828054600181600116156101000203166002900480156111a85780601f1061117d576101008083540402835291602001916111a8565b820191906000526020600020905b81548152906001019060200180831161118b57829003601f168201915b5050505050815250508383815181106111bd57fe5b602002602001018190525081806001019250505b8080600101915050610d17565b5060608160405190808252806020026020018201604052801561121b57816020015b611208612c9d565b8152602001906001900390816112005790505b50905060008090505b828110156112645783818151811061123857fe5b602002602001015182828151811061124c57fe5b60200260200101819052508080600101915050611224565b508094505050505090565b6060604051602001611280906136c8565b604051602081830303815290604052805190602001206000809054906101000a900473ffffffffffffffffffffffffffffffffffffffff1673ffffffffffffffffffffffffffffffffffffffff166327820851336040518263ffffffff1660e01b81526004016112f091906136f2565b60006040518083038186803b15801561130857600080fd5b505afa15801561131c573d6000803e3d6000fd5b505050506040513d6000823e3d601f19601f82011682018060405250611345919081019061306c565b60405160200161135591906136b1565b60405160208183030381529060405280519060200120148061146e5750604051602001611381906136dd565b604051602081830303815290604052805190602001206000809054906101000a900473ffffffffffffffffffffffffffffffffffffffff1673ffffffffffffffffffffffffffffffffffffffff166327820851336040518263ffffffff1660e01b81526004016113f191906136f2565b60006040518083038186803b15801561140957600080fd5b505afa15801561141d573d6000803e3d6000fd5b505050506040513d6000823e3d601f19601f82011682018060405250611446919081019061306c565b60405160200161145691906136b1565b60405160208183030381529060405280519060200120145b6114ad576040517f08c379a00000000000000000000000000000000000000000000000000000000081526004016114a49061389e565b60405180910390fd5b6060600660003373ffffffffffffffffffffffffffffffffffffffff1673ffffffffffffffffffffffffffffffffffffffff16815260200190815260200160002080548060200260200160405190810160405280929190818152602001828054801561153857602002820191906000526020600020905b815481526020019060010190808311611524575b50505050509050606081516040519080825280602002602001820160405280156115715781602001602082028038833980820191505090505b509050600080905060008090505b835181101561164057600560003373ffffffffffffffffffffffffffffffffffffffff1673ffffffffffffffffffffffffffffffffffffffff16815260200190815260200160002060008583815181106115d557fe5b6020026020010151815260200190815260200160002060009054906101000a900460ff16156116335783818151811061160a57fe5b602002602001015183838151811061161e57fe5b60200260200101818152505081806001019250505b808060010191505061157f565b506060816040519080825280602002602001820160405280156116725781602001602082028038833980820191505090505b50905060008090505b828110156116bc5783818151811061168f57fe5b60200260200101518282815181106116a357fe5b602002602001018181525050808060010191505061167b565b508094505050505090565b60606040518060400160405280600881526020017f56657269666965720000000000000000000000000000000000000000000000008152506000809054906101000a900473ffffffffffffffffffffffffffffffffffffffff1673ffffffffffffffffffffffffffffffffffffffff1663ffb28d9c33836040518363ffffffff1660e01b815260040161175b929190613736565b60206040518083038186803b15801561177357600080fd5b505afa158015611787573d6000803e3d6000fd5b505050506040513d601f19601f820116820180604052506117ab9190810190613043565b6117ea576040517f08c379a00000000000000000000000000000000000000000000000000000000081526004016117e19061389e565b60405180910390fd5b826040518060400160405280600781526020017f5375626a656374000000000000000000000000000000000000000000000000008152506000809054906101000a900473ffffffffffffffffffffffffffffffffffffffff1673ffffffffffffffffffffffffffffffffffffffff1663ffb28d9c83836040518363ffffffff1660e01b815260040161187d92919061378f565b60206040518083038186803b15801561189557600080fd5b505afa1580156118a9573d6000803e3d6000fd5b505050506040513d601f19601f820116820180604052506118cd9190810190613043565b61190c576040517f08c379a00000000000000000000000000000000000000000000000000000000081526004016119039061381e565b60405180910390fd5b600160009054906101000a900473ffffffffffffffffffffffffffffffffffffffff1673ffffffffffffffffffffffffffffffffffffffff16639515359933876040518363ffffffff1660e01b815260040161196992919061370d565b60206040518083038186803b15801561198157600080fd5b505afa158015611995573d6000803e3d6000fd5b505050506040513d601f19601f820116820180604052506119b99190810190613043565b6119f8576040517f08c379a00000000000000000000000000000000000000000000000000000000081526004016119ef9061387e565b60405180910390fd5b6060600660008773ffffffffffffffffffffffffffffffffffffffff1673ffffffffffffffffffffffffffffffffffffffff168152602001908152602001600020805480602002602001604051908101604052809291908181526020018280548015611a8357602002820191906000526020600020905b815481526020019060010190808311611a6f575b5050505050905060608151604051908082528060200260200182016040528015611ac757816020015b611ab4612c9d565b815260200190600190039081611aac5790505b509050600080905060008090505b8351811015611f9d57600560008a73ffffffffffffffffffffffffffffffffffffffff1673ffffffffffffffffffffffffffffffffffffffff1681526020019081526020016000206000858381518110611b2b57fe5b6020026020010151815260200190815260200160002060009054906101000a900460ff1615611f905760036000858381518110611b6457fe5b6020026020010151815260200190815260200160002060405180610120016040529081600082015481526020016001820160009054906101000a900473ffffffffffffffffffffffffffffffffffffffff1673ffffffffffffffffffffffffffffffffffffffff1673ffffffffffffffffffffffffffffffffffffffff1681526020016002820160009054906101000a900473ffffffffffffffffffffffffffffffffffffffff1673ffffffffffffffffffffffffffffffffffffffff1673ffffffffffffffffffffffffffffffffffffffff168152602001600382018054600181600116156101000203166002900480601f016020809104026020016040519081016040528092919081815260200182805460018160011615610100020316600290048015611cd55780601f10611caa57610100808354040283529160200191611cd5565b820191906000526020600020905b815481529060010190602001808311611cb857829003601f168201915b5050505050815260200160048201548152602001600582018054600181600116156101000203166002900480601f016020809104026020016040519081016040528092919081815260200182805460018160011615610100020316600290048015611d815780601f10611d5657610100808354040283529160200191611d81565b820191906000526020600020905b815481529060010190602001808311611d6457829003601f168201915b50505050508152602001600682018054600181600116156101000203166002900480601f016020809104026020016040519081016040528092919081815260200182805460018160011615610100020316600290048015611e235780601f10611df857610100808354040283529160200191611e23565b820191906000526020600020905b815481529060010190602001808311611e0657829003601f168201915b50505050508152602001600782018054600181600116156101000203166002900480601f016020809104026020016040519081016040528092919081815260200182805460018160011615610100020316600290048015611ec55780601f10611e9a57610100808354040283529160200191611ec5565b820191906000526020600020905b815481529060010190602001808311611ea857829003601f168201915b50505050508152602001600882018054600181600116156101000203166002900480601f016020809104026020016040519081016040528092919081815260200182805460018160011615610100020316600290048015611f675780601f10611f3c57610100808354040283529160200191611f67565b820191906000526020600020905b815481529060010190602001808311611f4a57829003601f168201915b505050505081525050838381518110611f7c57fe5b602002602001018190525081806001019250505b8080600101915050611ad5565b50606081604051908082528060200260200182016040528015611fda57816020015b611fc7612c9d565b815260200190600190039081611fbf5790505b50905060008090505b8281101561202357838181518110611ff757fe5b602002602001015182828151811061200b57fe5b60200260200101819052508080600101915050611fe3565b5080975050505050505050919050565b6000816002548110801561206b5750600115156004600083815260200190815260200160002060009054906101000a900460ff161515145b6120aa576040517f08c379a00000000000000000000000000000000000000000000000000000000081526004016120a1906138de565b60405180910390fd5b6004600084815260200190815260200160002060009054906101000a900460ff16915050919050565b6040518060400160405280600681526020017f49737375657200000000000000000000000000000000000000000000000000008152506000809054906101000a900473ffffffffffffffffffffffffffffffffffffffff1673ffffffffffffffffffffffffffffffffffffffff1663ffb28d9c33836040518363ffffffff1660e01b8152600401612165929190613736565b60206040518083038186803b15801561217d57600080fd5b505afa158015612191573d6000803e3d6000fd5b505050506040513d601f19601f820116820180604052506121b59190810190613043565b6121f4576040517f08c379a00000000000000000000000000000000000000000000000000000000081526004016121eb9061389e565b60405180910390fd5b813373ffffffffffffffffffffffffffffffffffffffff166003600083815260200190815260200160002060020160009054906101000a900473ffffffffffffffffffffffffffffffffffffffff1673ffffffffffffffffffffffffffffffffffffffff1614612299576040517f08c379a00000000000000000000000000000000000000000000000000000000081526004016122909061385e565b60405180910390fd5b82600254811080156122cf5750600115156004600083815260200190815260200160002060009054906101000a900460ff161515145b61230e576040517f08c379a0000000000000000000000000000000000000000000000000000000008152600401612305906138de565b60405180910390fd5b60006003600086815260200190815260200160002060010160009054906101000a900473ffffffffffffffffffffffffffffffffffffffff16905060006004600087815260200190815260200160002060006101000a81548160ff0219169083151502179055506000600560008373ffffffffffffffffffffffffffffffffffffffff1673ffffffffffffffffffffffffffffffffffffffff168152602001908152602001600020600087815260200190815260200160002060006101000a81548160ff0219169083151502179055506000600560003373ffffffffffffffffffffffffffffffffffffffff1673ffffffffffffffffffffffffffffffffffffffff168152602001908152602001600020600087815260200190815260200160002060006101000a81548160ff0219169083151502179055507fe72d680134b83b91d9f2abafcc3c5b2dfdf12328c4d679e62001676c04a866cb3386604051612478929190613766565b60405180910390a15050505050565b60006040518060400160405280600681526020017f49737375657200000000000000000000000000000000000000000000000000008152506000809054906101000a900473ffffffffffffffffffffffffffffffffffffffff1673ffffffffffffffffffffffffffffffffffffffff1663ffb28d9c33836040518363ffffffff1660e01b815260040161251b929190613736565b60206040518083038186803b15801561253357600080fd5b505afa158015612547573d6000803e3d6000fd5b505050506040513d601f19601f8201168201806040525061256b9190810190613043565b6125aa576040517f08c379a00000000000000000000000000000000000000000000000000000000081526004016125a19061389e565b60405180910390fd5b876040518060400160405280600781526020017f5375626a656374000000000000000000000000000000000000000000000000008152506000809054906101000a900473ffffffffffffffffffffffffffffffffffffffff1673ffffffffffffffffffffffffffffffffffffffff1663ffb28d9c83836040518363ffffffff1660e01b815260040161263d92919061378f565b60206040518083038186803b15801561265557600080fd5b505afa158015612669573d6000803e3d6000fd5b505050506040513d601f19601f8201168201806040525061268d9190810190613043565b6126cc576040517f08c379a00000000000000000000000000000000000000000000000000000000081526004016126c39061381e565b60405180910390fd5b600160009054906101000a900473ffffffffffffffffffffffffffffffffffffffff1673ffffffffffffffffffffffffffffffffffffffff1663d0ae4356338c6040518363ffffffff1660e01b815260040161272992919061370d565b60206040518083038186803b15801561274157600080fd5b505afa158015612755573d6000803e3d6000fd5b505050506040513d601f19601f820116820180604052506127799190810190613043565b6127b8576040517f08c379a00000000000000000000000000000000000000000000000000000000081526004016127af906138be565b60405180910390fd5b600160009054906101000a900473ffffffffffffffffffffffffffffffffffffffff1673ffffffffffffffffffffffffffffffffffffffff16639cb596e5338c6040518363ffffffff1660e01b815260040161281592919061370d565b60206040518083038186803b15801561282d57600080fd5b505afa158015612841573d6000803e3d6000fd5b505050506040513d601f19601f820116820180604052506128659190810190613043565b6128a4576040517f08c379a000000000000000000000000000000000000000000000000000000000815260040161289b9061383e565b60405180910390fd5b60006002600081548092919060010191905055905060004290506128c6612d15565b6040518061012001604052808481526020018e73ffffffffffffffffffffffffffffffffffffffff1681526020013373ffffffffffffffffffffffffffffffffffffffff1681526020018d81526020018381526020018c81526020018b81526020018a815260200189815250905080600360008581526020019081526020016000206000820151816000015560208201518160010160006101000a81548173ffffffffffffffffffffffffffffffffffffffff021916908373ffffffffffffffffffffffffffffffffffffffff16021790555060408201518160020160006101000a81548173ffffffffffffffffffffffffffffffffffffffff021916908373ffffffffffffffffffffffffffffffffffffffff16021790555060608201518160030190805190602001906129fc929190612d8d565b506080820151816004015560a0820151816005019080519060200190612a23929190612d8d565b5060c0820151816006019080519060200190612a40929190612d8d565b5060e0820151816007019080519060200190612a5d929190612d8d565b50610100820151816008019080519060200190612a7b929190612d8d565b5090505060016004600085815260200190815260200160002060006101000a81548160ff021916908315150217905550600660008e73ffffffffffffffffffffffffffffffffffffffff1673ffffffffffffffffffffffffffffffffffffffff1681526020019081526020016000208390806001815401808255809150509060018203906000526020600020016000909192909190915055506001600560008f73ffffffffffffffffffffffffffffffffffffffff1673ffffffffffffffffffffffffffffffffffffffff168152602001908152602001600020600085815260200190815260200160002060006101000a81548160ff021916908315150217905550600660003373ffffffffffffffffffffffffffffffffffffffff1673ffffffffffffffffffffffffffffffffffffffff1681526020019081526020016000208390806001815401808255809150509060018203906000526020600020016000909192909190915055506001600560003373ffffffffffffffffffffffffffffffffffffffff1673ffffffffffffffffffffffffffffffffffffffff168152602001908152602001600020600085815260200190815260200160002060006101000a81548160ff0219169083151502179055507f52775ded20614b213cad95910a18378999957eaf600abebde11f2a055710a62683338f604051612c8293929190613919565b60405180910390a18296505050505050509695505050505050565b60405180610120016040528060008152602001600073ffffffffffffffffffffffffffffffffffffffff168152602001600073ffffffffffffffffffffffffffffffffffffffff1681526020016060815260200160008152602001606081526020016060815260200160608152602001606081525090565b60405180610120016040528060008152602001600073ffffffffffffffffffffffffffffffffffffffff168152602001600073ffffffffffffffffffffffffffffffffffffffff1681526020016060815260200160008152602001606081526020016060815260200160608152602001606081525090565b828054600181600116156101000203166002900490600052602060002090601f016020900481019282601f10612dce57805160ff1916838001178555612dfc565b82800160010185558215612dfc579182015b82811115612dfb578251825591602001919060010190612de0565b5b509050612e099190612e0d565b5090565b612e2f91905b80821115612e2b576000816000905550600101612e13565b5090565b90565b600081359050612e4181613b2f565b92915050565b600081519050612e5681613b46565b92915050565b600082601f830112612e6d57600080fd5b8135612e80612e7b8261397d565b613950565b91508082526020830160208301858383011115612e9c57600080fd5b612ea7838284613adc565b50505092915050565b600082601f830112612ec157600080fd5b8151612ed4612ecf8261397d565b613950565b91508082526020830160208301858383011115612ef057600080fd5b612efb838284613aeb565b50505092915050565b600081359050612f1381613b5d565b92915050565b600060208284031215612f2b57600080fd5b6000612f3984828501612e32565b91505092915050565b60008060008060008060c08789031215612f5b57600080fd5b6000612f6989828a01612e32565b965050602087013567ffffffffffffffff811115612f8657600080fd5b612f9289828a01612e5c565b955050604087013567ffffffffffffffff811115612faf57600080fd5b612fbb89828a01612e5c565b945050606087013567ffffffffffffffff811115612fd857600080fd5b612fe489828a01612e5c565b935050608087013567ffffffffffffffff81111561300157600080fd5b61300d89828a01612e5c565b92505060a087013567ffffffffffffffff81111561302a57600080fd5b61303689828a01612e5c565b9150509295509295509295565b60006020828403121561305557600080fd5b600061306384828501612e47565b91505092915050565b60006020828403121561307e57600080fd5b600082015167ffffffffffffffff81111561309857600080fd5b6130a484828501612eb0565b91505092915050565b6000602082840312156130bf57600080fd5b60006130cd84828501612f04565b91505092915050565b60006130e283836135b2565b905092915050565b60006130f68383613693565b60208301905092915050565b61310b81613aa6565b82525050565b61311a81613a5e565b82525050565b61312981613a5e565b82525050565b600061313a826139c9565b6131448185613a0f565b935083602082028501613156856139a9565b8060005b85811015613192578484038952815161317385826130d6565b945061317e836139f5565b925060208a0199505060018101905061315a565b50829750879550505050505092915050565b60006131af826139d4565b6131b98185613a20565b93506131c4836139b9565b8060005b838110156131f55781516131dc88826130ea565b97506131e783613a02565b9250506001810190506131c8565b5085935050505092915050565b61320b81613a70565b82525050565b600061321c826139ea565b6132268185613a42565b9350613236818560208601613aeb565b61323f81613b1e565b840191505092915050565b6000613255826139ea565b61325f8185613a53565b935061326f818560208601613aeb565b80840191505092915050565b6000613286826139df565b6132908185613a31565b93506132a0818560208601613aeb565b6132a981613b1e565b840191505092915050565b60006132c1603983613a42565b91507f5468697320616374696f6e2063616e206f6e6c7920626520706572666f726d6560008301527f64206279207573657220696e206f7572206e6574776f726b2e000000000000006020830152604082019050919050565b6000613327601a83613a42565b91507f5375626a656374206973206e6f7420617574686f72697a65642e0000000000006000830152602082019050919050565b6000613367603c83613a42565b91507f5468697320616374696f6e2063616e206f6e6c7920626520706572666f726d6560008301527f6420627920746865206365727469666963617465206973737565722e000000006020830152604082019050919050565b60006133cd600783613a53565b91507f5375626a656374000000000000000000000000000000000000000000000000006000830152600782019050919050565b600061340d603883613a42565b91507f596f752068617665206e6f2076696577696e672061636365737320666f72207460008301527f6865207375626a656374206365727469666963617465732e00000000000000006020830152604082019050919050565b6000613473600683613a53565b91507f49737375657200000000000000000000000000000000000000000000000000006000830152600682019050919050565b60006134b3603683613a42565b91507f5468697320616374696f6e2063616e206f6e6c7920626520706572666f726d6560008301527f6420627920617574686f72697a656420726f6c65732e000000000000000000006020830152604082019050919050565b6000613519602183613a42565b91507f5375626a65637420686173206e6f74206d61646520616e79207265717565737460008301527f2e000000000000000000000000000000000000000000000000000000000000006020830152604082019050919050565b600061357f601a83613a42565b91507f546865206365727469666963617465206e6f742076616c69642e0000000000006000830152602082019050919050565b6000610120830160008301516135cb6000860182613693565b5060208301516135de6020860182613111565b5060408301516135f16040860182613111565b5060608301518482036060860152613609828261327b565b915050608083015161361e6080860182613693565b5060a083015184820360a0860152613636828261327b565b91505060c083015184820360c0860152613650828261327b565b91505060e083015184820360e086015261366a828261327b565b915050610100830151848203610100860152613686828261327b565b9150508091505092915050565b61369c81613a9c565b82525050565b6136ab81613a9c565b82525050565b60006136bd828461324a565b915081905092915050565b60006136d3826133c0565b9150819050919050565b60006136e882613466565b9150819050919050565b60006020820190506137076000830184613102565b92915050565b60006040820190506137226000830185613102565b61372f6020830184613120565b9392505050565b600060408201905061374b6000830185613102565b818103602083015261375d8184613211565b90509392505050565b600060408201905061377b6000830185613102565b61378860208301846136a2565b9392505050565b60006040820190506137a46000830185613120565b81810360208301526137b68184613211565b90509392505050565b600060208201905081810360008301526137d9818461312f565b905092915050565b600060208201905081810360008301526137fb81846131a4565b905092915050565b60006020820190506138186000830184613202565b92915050565b60006020820190508181036000830152613837816132b4565b9050919050565b600060208201905081810360008301526138578161331a565b9050919050565b600060208201905081810360008301526138778161335a565b9050919050565b6000602082019050818103600083015261389781613400565b9050919050565b600060208201905081810360008301526138b7816134a6565b9050919050565b600060208201905081810360008301526138d78161350c565b9050919050565b600060208201905081810360008301526138f781613572565b9050919050565b600060208201905061391360008301846136a2565b92915050565b600060608201905061392e60008301866136a2565b61393b6020830185613102565b6139486040830184613120565b949350505050565b6000604051905081810181811067ffffffffffffffff8211171561397357600080fd5b8060405250919050565b600067ffffffffffffffff82111561399457600080fd5b601f19601f8301169050602081019050919050565b6000819050602082019050919050565b6000819050602082019050919050565b600081519050919050565b600081519050919050565b600081519050919050565b600081519050919050565b6000602082019050919050565b6000602082019050919050565b600082825260208201905092915050565b600082825260208201905092915050565b600082825260208201905092915050565b600082825260208201905092915050565b600081905092915050565b6000613a6982613a7c565b9050919050565b60008115159050919050565b600073ffffffffffffffffffffffffffffffffffffffff82169050919050565b6000819050919050565b6000613ab182613ab8565b9050919050565b6000613ac382613aca565b9050919050565b6000613ad582613a7c565b9050919050565b82818337600083830152505050565b60005b83811015613b09578082015181840152602081019050613aee565b83811115613b18576000848401525b50505050565b6000601f19601f8301169050919050565b613b3881613a5e565b8114613b4357600080fd5b50565b613b4f81613a70565b8114613b5a57600080fd5b50565b613b6681613a9c565b8114613b7157600080fd5b5056fea365627a7a7231582082cc098df6d5cd063d55f674e289f4342bc1bd7ba160e149a21ebe8bbbbc9a7d6c6578706572696d656e74616cf564736f6c63430005100040",
  "source": "pragma solidity >=0.5.0;\npragma experimental ABIEncoderV2;\n\nimport \"./CertificateNetwork.sol\";\nimport \"./CertificateStore.sol\";\n\ncontract Certificate {\n    CertificateNetwork certNetwork;\n    CertificateStore certStore;\n\n    uint256 internal totalCert;\n\n    // Mapping to all created certificates\n    mapping(uint256 => Cert) private certsMap;\n    mapping(uint256 => bool) private certExistMap;\n\n    // S>C: Valid certs, all issued officially and after denys\n    // I>C: Valid certs, all issued officially and after denys\n    mapping(address => mapping(uint256 => bool)) private addrToCertMap;\n\n    // S>C: Map subject to all issued certs(by certId) received by issuers\n    // I>C: Map issuer to all issued certs(by certId)\n    mapping(address => uint256[]) private certHistMap;\n\n    // Events\n    event IssuedCertificate(\n        uint256 certId,\n        address issuerAddr,\n        address subjectAddr\n    );\n    event RevokeCertificate(address issuer, uint256 certId);\n\n    // Structs\n    struct Cert {\n        uint256 certId; //Get CertId\n        address owner; // Subject address\n        address issuerAddr; // Issuer address\n        string issuerName; // (NUS,NTU,Coursera,LinkedIn)\n        uint256 creationDate; // cert creation date\n        string nric; // s9673333A\n        string serialNo; //https://www.ibm.com/docs/en/ibm-mq/7.5?topic=certificates-what-is-in-digital-certificate\n        string title; // cert title\n        string completionDate; // date which subject completed the cert requirements\n    }\n\n    constructor(CertificateNetwork cn, CertificateStore cs) public {\n        certNetwork = cn;\n        certStore = cs;\n        totalCert = 1;\n    }\n\n    // Modifiers\n    modifier validCertId(uint256 certId) {\n        require(\n            certId < totalCert && certExistMap[certId] == true,\n            \"The certificate not valid.\"\n        );\n        _;\n    }\n    modifier onlyCertOwner(uint256 certId) {\n        require(\n            certsMap[certId].owner == msg.sender,\n            \"This action can only be performed by the certificate owner.\"\n        );\n        _;\n    }\n    modifier onlyCertIssuer(uint256 certId) {\n        require(\n            certsMap[certId].issuerAddr == msg.sender,\n            \"This action can only be performed by the certificate issuer.\"\n        );\n        _;\n    }\n    // Modifiers\n    modifier onlyValidRoles(string memory role) {\n        require(\n            certNetwork.checkUserExist(msg.sender, role),\n            \"This action can only be performed by authorized roles.\"\n        );\n        _;\n    }\n    // Used to check if a user exist, i.e. issue cert to subject, check if that subject exist in our system.\n    modifier userExist(address addr, string memory role) {\n        require(\n            certNetwork.checkUserExist(addr, role),\n            \"This action can only be performed by user in our network.\"\n        );\n        _;\n    }\n    modifier onlyIssuerSubject() {\n        require(\n            keccak256(abi.encodePacked(certNetwork.getUserRole(msg.sender))) ==\n                keccak256(abi.encodePacked(\"Subject\")) ||\n                keccak256(\n                    abi.encodePacked(certNetwork.getUserRole(msg.sender))\n                ) ==\n                keccak256(abi.encodePacked(\"Issuer\")),\n            \"This action can only be performed by authorized roles.\"\n        );\n        _;\n    }\n\n    function issueCertificate(\n        address subjectAddr,\n        string memory _issuerName,\n        string memory _nric,\n        string memory _serialNo,\n        string memory _title,\n        string memory _completionDate\n    )\n        public\n        onlyValidRoles(\"Issuer\")\n        userExist(subjectAddr, \"Subject\")\n        returns (uint256)\n    {\n        require(\n            certStore.getRequestStatus(msg.sender, subjectAddr),\n            \"Subject has not made any request.\"\n        );\n        require(\n            certStore.getIssueStatus(msg.sender, subjectAddr),\n            \"Subject is not authorized.\"\n        );\n\n        uint256 newCertId = totalCert++;\n        uint256 _creationDate = block.timestamp;\n\n        Cert memory newCert = Cert(\n            newCertId,\n            subjectAddr,\n            msg.sender,\n            _issuerName,\n            _creationDate,\n            _nric,\n            _serialNo,\n            _title,\n            _completionDate\n        );\n        // add to cert mapping\n        certsMap[newCertId] = newCert;\n        certExistMap[newCertId] = true;\n\n        // record subject received cert\n        certHistMap[subjectAddr].push(newCertId);\n        addrToCertMap[subjectAddr][newCertId] = true;\n\n        // record issuer issued cert\n        certHistMap[msg.sender].push(newCertId);\n        addrToCertMap[msg.sender][newCertId] = true;\n\n        // REMOVED: similar data structure thus use one mapping overall.\n        // certExistMap[newCertId] = true; // for cert exist modifier\n        // addrToCertMap[subjectAddr].push(newCertId); // add to subject list of certs\n        // addrToCertMap[subjectAddr][newCertId] = true;\n        // addrToCertMap[msg.sender].push(newCertId); // add to issuer list of certs\n        // addrToCertMap[msg.sender][newCertId] = true;\n\n        emit IssuedCertificate(newCertId, msg.sender, subjectAddr); // Log event\n\n        return newCertId;\n    }\n\n    // Delete cert in case of wrong issue or revoked.\n    // Assumption:\n    // 1. we do not delete the cert block, but set the existence to false to indicate it was deleted\n    function revokeCert(uint256 certId)\n        public\n        onlyValidRoles(\"Issuer\")\n        onlyCertIssuer(certId)\n        validCertId(certId)\n    {\n        address subjectAddr = certsMap[certId].owner; // get owner of cert\n        //delete certsMap[certId];\n        certExistMap[certId] = false;\n        addrToCertMap[subjectAddr][certId] = false; // remove cert for subject\n        addrToCertMap[msg.sender][certId] = false; // remove cert for issuer\n\n        // REMOVED:\n        // certExistMap[certId] = false; // for cert exist modifier\n        // addrToCertMap[subjectAddr][certId] = false; // remove mapping\n        // addrToCertMap[msg.sender][certId] = false; // remove mapping\n        emit RevokeCertificate(msg.sender, certId);\n    }\n\n    function getCertListById()\n        public\n        view\n        onlyIssuerSubject\n        returns (uint256[] memory)\n    {\n        uint256[] memory certList = certHistMap[msg.sender];\n        uint256[] memory tempList = new uint256[](certList.length);\n        uint256 y = 0;\n        for (uint256 i = 0; i < certList.length; i++) {\n            if (addrToCertMap[msg.sender][certList[i]]) {\n                tempList[y] = certList[i]; // Get all viewable certs\n                // tempList[y] = certsMap[certList[i]];// Push entire cert struct\n                y++;\n            }\n        }\n        uint256[] memory newList = new uint256[](y);\n        for (uint256 i = 0; i < y; i++) {\n            newList[i] = tempList[i];\n        }\n        return newList;\n    }\n\n    function getCerts() public view onlyIssuerSubject returns (Cert[] memory) {\n        uint256[] memory certList = certHistMap[msg.sender];\n        Cert[] memory tempList = new Cert[](certList.length);\n        uint256 y = 0;\n        for (uint256 i = 0; i < certList.length; i++) {\n            if (addrToCertMap[msg.sender][certList[i]]) {\n                // tempList[i] = certList[i]; // Get all viewable certs\n                tempList[y] = certsMap[certList[i]];\n                y++;\n            }\n        }\n        Cert[] memory newList = new Cert[](y);\n        for (uint256 i = 0; i < y; i++) {\n            newList[i] = tempList[i];\n        }\n        return newList;\n    }\n\n    function getCertsRevokedList()\n        public\n        view\n        onlyIssuerSubject\n        returns (Cert[] memory)\n    {\n        uint256[] memory certList = certHistMap[msg.sender];\n        Cert[] memory tempList = new Cert[](certList.length);\n        uint256 y = 0;\n        for (uint256 i = 0; i < certList.length; i++) {\n            if (!addrToCertMap[msg.sender][certList[i]]) {\n                //tempList[y] = certList[i]; // Get all viewable certs\n                tempList[y] = certsMap[certList[i]]; // Push entire cert struct\n                y++;\n            }\n        }\n        Cert[] memory newList = new Cert[](y);\n        for (uint256 i = 0; i < y; i++) {\n            newList[i] = tempList[i];\n        }\n        return newList;\n    }\n\n    function getCertListVerifiers(address subjectAddr)\n        public\n        view\n        onlyValidRoles(\"Verifier\")\n        userExist(subjectAddr, \"Subject\")\n        returns (Cert[] memory)\n    {\n        require(\n            certStore.getAccessStatus(msg.sender, subjectAddr),\n            \"You have no viewing access for the subject certificates.\"\n        );\n        uint256[] memory certList = certHistMap[subjectAddr];\n        Cert[] memory tempList = new Cert[](certList.length);\n        uint256 y = 0;\n        for (uint256 i = 0; i < certList.length; i++) {\n            if (addrToCertMap[subjectAddr][certList[i]]) {\n                tempList[y] = certsMap[certList[i]];\n                y++;\n            }\n        }\n        Cert[] memory newList = new Cert[](y);\n        for (uint256 i = 0; i < y; i++) {\n            newList[i] = tempList[i];\n        }\n        return newList;\n    }\n\n    function checkCertExist(uint256 certId)\n        public\n        view\n        validCertId(certId)\n        returns (bool)\n    {\n        return certExistMap[certId];\n    }\n}\n",
  "sourcePath": "/Users/xieran/Documents/GitHub/IS4302_Project/contracts/Certificate.sol",
  "compiler": {
    "name": "solc",
    "version": "0.5.16+commit.9c3226ce.Emscripten.clang"
  },
  "schemaVersion": "3.3.3",
  "updatedAt": "2022-04-11T11:37:36.712Z",
  "networkType": "ethereum",
  "devdoc": {
    "methods": {}
  },
  "userdoc": {
    "methods": {}
  }
}