{
  "contractName": "CertificateStore",
  "abi": [
    {
      "inputs": [
        {
          "internalType": "contract CertificateNetwork",
          "name": "cn",
          "type": "address"
        }
      ],
      "payable": false,
      "stateMutability": "nonpayable",
      "type": "constructor"
    },
    {
      "anonymous": false,
      "inputs": [
        {
          "indexed": false,
          "internalType": "address",
          "name": "issuerAddr",
          "type": "address"
        },
        {
          "indexed": false,
          "internalType": "address",
          "name": "subjectAddr",
          "type": "address"
        }
      ],
      "name": "AcceptSubjectRequest",
      "type": "event"
    },
    {
      "anonymous": false,
      "inputs": [
        {
          "indexed": false,
          "internalType": "uint256",
          "name": "certId",
          "type": "uint256"
        },
        {
          "indexed": false,
          "internalType": "address",
          "name": "issuerAddr",
          "type": "address"
        },
        {
          "indexed": false,
          "internalType": "address",
          "name": "subjectAddr",
          "type": "address"
        }
      ],
      "name": "IssuedCertificate",
      "type": "event"
    },
    {
      "anonymous": false,
      "inputs": [
        {
          "indexed": false,
          "internalType": "address",
          "name": "issuerAddr",
          "type": "address"
        },
        {
          "indexed": false,
          "internalType": "address",
          "name": "subjectAddr",
          "type": "address"
        }
      ],
      "name": "RejectSubjectRequest",
      "type": "event"
    },
    {
      "anonymous": false,
      "inputs": [
        {
          "indexed": false,
          "internalType": "address",
          "name": "subjectAddr",
          "type": "address"
        },
        {
          "indexed": false,
          "internalType": "address",
          "name": "issuerAddr",
          "type": "address"
        }
      ],
      "name": "RequestCertificate",
      "type": "event"
    },
    {
      "anonymous": false,
      "inputs": [
        {
          "indexed": false,
          "internalType": "address",
          "name": "issuer",
          "type": "address"
        },
        {
          "indexed": false,
          "internalType": "uint256",
          "name": "certId",
          "type": "uint256"
        }
      ],
      "name": "RevokeCertificate",
      "type": "event"
    },
    {
      "anonymous": false,
      "inputs": [
        {
          "indexed": false,
          "internalType": "address",
          "name": "subjectAddr",
          "type": "address"
        },
        {
          "indexed": false,
          "internalType": "address",
          "name": "verifierAddr",
          "type": "address"
        }
      ],
      "name": "VerifierDenied",
      "type": "event"
    },
    {
      "anonymous": false,
      "inputs": [
        {
          "indexed": false,
          "internalType": "address",
          "name": "subjectAddr",
          "type": "address"
        },
        {
          "indexed": false,
          "internalType": "address",
          "name": "verifierAddr",
          "type": "address"
        }
      ],
      "name": "VerifierGranted",
      "type": "event"
    },
    {
      "constant": false,
      "inputs": [
        {
          "internalType": "address",
          "name": "issuerAddr",
          "type": "address"
        }
      ],
      "name": "requestCert",
      "outputs": [],
      "payable": false,
      "stateMutability": "nonpayable",
      "type": "function"
    },
    {
      "constant": false,
      "inputs": [
        {
          "internalType": "address",
          "name": "subjectAddr",
          "type": "address"
        }
      ],
      "name": "rejectRequest",
      "outputs": [],
      "payable": false,
      "stateMutability": "nonpayable",
      "type": "function"
    },
    {
      "constant": true,
      "inputs": [],
      "name": "getApprovedReqList",
      "outputs": [
        {
          "internalType": "address[]",
          "name": "",
          "type": "address[]"
        }
      ],
      "payable": false,
      "stateMutability": "view",
      "type": "function"
    },
    {
      "constant": true,
      "inputs": [],
      "name": "getRejectedReqList",
      "outputs": [
        {
          "internalType": "address[]",
          "name": "",
          "type": "address[]"
        }
      ],
      "payable": false,
      "stateMutability": "view",
      "type": "function"
    },
    {
      "constant": true,
      "inputs": [],
      "name": "getReqHist",
      "outputs": [
        {
          "internalType": "address[]",
          "name": "",
          "type": "address[]"
        }
      ],
      "payable": false,
      "stateMutability": "view",
      "type": "function"
    },
    {
      "constant": true,
      "inputs": [
        {
          "internalType": "address",
          "name": "addr",
          "type": "address"
        }
      ],
      "name": "checkRequest",
      "outputs": [
        {
          "internalType": "bool",
          "name": "",
          "type": "bool"
        }
      ],
      "payable": false,
      "stateMutability": "view",
      "type": "function"
    },
    {
      "constant": true,
      "inputs": [
        {
          "internalType": "address",
          "name": "issuerAddr",
          "type": "address"
        },
        {
          "internalType": "address",
          "name": "subjectAddr",
          "type": "address"
        }
      ],
      "name": "getRequestStatus",
      "outputs": [
        {
          "internalType": "bool",
          "name": "",
          "type": "bool"
        }
      ],
      "payable": false,
      "stateMutability": "view",
      "type": "function"
    },
    {
      "constant": true,
      "inputs": [
        {
          "internalType": "address",
          "name": "issuerAddr",
          "type": "address"
        },
        {
          "internalType": "address",
          "name": "subjectAddr",
          "type": "address"
        }
      ],
      "name": "getIssueStatus",
      "outputs": [
        {
          "internalType": "bool",
          "name": "",
          "type": "bool"
        }
      ],
      "payable": false,
      "stateMutability": "view",
      "type": "function"
    },
    {
      "constant": true,
      "inputs": [
        {
          "internalType": "address",
          "name": "verifierAddr",
          "type": "address"
        },
        {
          "internalType": "address",
          "name": "subjectAddr",
          "type": "address"
        }
      ],
      "name": "getAccessStatus",
      "outputs": [
        {
          "internalType": "bool",
          "name": "",
          "type": "bool"
        }
      ],
      "payable": false,
      "stateMutability": "view",
      "type": "function"
    },
    {
      "constant": false,
      "inputs": [
        {
          "internalType": "address",
          "name": "verifierAddr",
          "type": "address"
        }
      ],
      "name": "grantVerifier",
      "outputs": [],
      "payable": false,
      "stateMutability": "nonpayable",
      "type": "function"
    },
    {
      "constant": false,
      "inputs": [
        {
          "internalType": "address",
          "name": "verifierAddr",
          "type": "address"
        }
      ],
      "name": "denyVerifier",
      "outputs": [],
      "payable": false,
      "stateMutability": "nonpayable",
      "type": "function"
    },
    {
      "constant": true,
      "inputs": [
        {
          "internalType": "address",
          "name": "add",
          "type": "address"
        }
      ],
      "name": "checkGrantStatus",
      "outputs": [
        {
          "internalType": "bool",
          "name": "",
          "type": "bool"
        }
      ],
      "payable": false,
      "stateMutability": "view",
      "type": "function"
    },
    {
      "constant": true,
      "inputs": [],
      "name": "getGrantList",
      "outputs": [
        {
          "internalType": "address[]",
          "name": "",
          "type": "address[]"
        }
      ],
      "payable": false,
      "stateMutability": "view",
      "type": "function"
    },
    {
      "constant": true,
      "inputs": [],
      "name": "getDenyList",
      "outputs": [
        {
          "internalType": "address[]",
          "name": "",
          "type": "address[]"
        }
      ],
      "payable": false,
      "stateMutability": "view",
      "type": "function"
    }
  ],
  "bytecode": "0x60806040523480156200001157600080fd5b5060405162004efb38038062004efb833981810160405262000037919081019062000095565b806000806101000a81548173ffffffffffffffffffffffffffffffffffffffff021916908373ffffffffffffffffffffffffffffffffffffffff1602179055505062000123565b6000815190506200008f8162000109565b92915050565b600060208284031215620000a857600080fd5b6000620000b8848285016200007e565b91505092915050565b6000620000ce82620000e9565b9050919050565b6000620000e282620000c1565b9050919050565b600073ffffffffffffffffffffffffffffffffffffffff82169050919050565b6200011481620000d5565b81146200012057600080fd5b50565b614dc880620001336000396000f3fe608060405234801561001057600080fd5b50600436106100ea5760003560e01c8063c601cd121161008c578063d1329f0e11610066578063d1329f0e1461025b578063f30b8fce14610279578063f777d0ac14610297578063f855b366146102b5576100ea565b8063c601cd12146101f1578063ca07b4b41461020f578063d0ae43561461022b576100ea565b8063749b26d5116100c8578063749b26d514610159578063951535991461017557806395716f30146101a55780639cb596e5146101c1576100ea565b806314e5735f146100ef5780632137d2401461010d5780635f889fe91461013d575b600080fd5b6100f76102e5565b6040516101049190614a89565b60405180910390f35b6101276004803603610122919081019061427f565b6107fe565b6040516101349190614aab565b60405180910390f35b6101576004803603610152919081019061427f565b610ace565b005b610173600480360361016e919081019061427f565b6111ae565b005b61018f600480360361018a91908101906142a8565b61188e565b60405161019c9190614aab565b60405180910390f35b6101bf60048036036101ba919081019061427f565b611b6a565b005b6101db60048036036101d691908101906142a8565b611fdf565b6040516101e89190614aab565b60405180910390f35b6101f96122bb565b6040516102069190614a89565b60405180910390f35b6102296004803603610224919081019061427f565b6127d4565b005b610245600480360361024091908101906142a8565b612d12565b6040516102529190614aab565b60405180910390f35b610263612fee565b6040516102709190614a89565b60405180910390f35b610281613506565b60405161028e9190614a89565b60405180910390f35b61029f61376b565b6040516102ac9190614a89565b60405180910390f35b6102cf60048036036102ca919081019061427f565b613c86565b6040516102dc9190614aab565b60405180910390f35b60606000809054906101000a900473ffffffffffffffffffffffffffffffffffffffff1673ffffffffffffffffffffffffffffffffffffffff1663ffb28d9c336040518263ffffffff1660e01b815260040161034191906149fd565b60206040518083038186803b15801561035957600080fd5b505afa15801561036d573d6000803e3d6000fd5b505050506040513d601f19601f8201168201806040525061039191908101906142e4565b8061044257506000809054906101000a900473ffffffffffffffffffffffffffffffffffffffff1673ffffffffffffffffffffffffffffffffffffffff1663ffb28d9c336040518263ffffffff1660e01b81526004016103f191906149cf565b60206040518083038186803b15801561040957600080fd5b505afa15801561041d573d6000803e3d6000fd5b505050506040513d601f19601f8201168201806040525061044191908101906142e4565b5b610481576040517f08c379a000000000000000000000000000000000000000000000000000000000815260040161047890614b66565b60405180910390fd5b6060600460003373ffffffffffffffffffffffffffffffffffffffff1673ffffffffffffffffffffffffffffffffffffffff16815260200190815260200160002080548060200260200160405190810160405280929190818152602001828054801561054257602002820191906000526020600020905b8160009054906101000a900473ffffffffffffffffffffffffffffffffffffffff1673ffffffffffffffffffffffffffffffffffffffff16815260200190600101908083116104f8575b505050505090506060815160405190808252806020026020018201604052801561057b5781602001602082028038833980820191505090505b509050600080905060008090505b835181101561074957600560003373ffffffffffffffffffffffffffffffffffffffff1673ffffffffffffffffffffffffffffffffffffffff16815260200190815260200160002060008583815181106105df57fe5b602002602001015173ffffffffffffffffffffffffffffffffffffffff1673ffffffffffffffffffffffffffffffffffffffff16815260200190815260200160002060009054906101000a900460ff1680156106d457506005600085838151811061064657fe5b602002602001015173ffffffffffffffffffffffffffffffffffffffff1673ffffffffffffffffffffffffffffffffffffffff16815260200190815260200160002060003373ffffffffffffffffffffffffffffffffffffffff1673ffffffffffffffffffffffffffffffffffffffff16815260200190815260200160002060009054906101000a900460ff165b1561073c578381815181106106e557fe5b60200260200101518383815181106106f957fe5b602002602001019073ffffffffffffffffffffffffffffffffffffffff16908173ffffffffffffffffffffffffffffffffffffffff168152505081806001019250505b8080600101915050610589565b5060608160405190808252806020026020018201604052801561077b5781602001602082028038833980820191505090505b50905060008090505b828110156107f35783818151811061079857fe5b60200260200101518282815181106107ac57fe5b602002602001019073ffffffffffffffffffffffffffffffffffffffff16908173ffffffffffffffffffffffffffffffffffffffff16815250508080600101915050610784565b508094505050505090565b60008060009054906101000a900473ffffffffffffffffffffffffffffffffffffffff1673ffffffffffffffffffffffffffffffffffffffff1663ffb28d9c336040518263ffffffff1660e01b815260040161085a91906149fd565b60206040518083038186803b15801561087257600080fd5b505afa158015610886573d6000803e3d6000fd5b505050506040513d601f19601f820116820180604052506108aa91908101906142e4565b8061095b57506000809054906101000a900473ffffffffffffffffffffffffffffffffffffffff1673ffffffffffffffffffffffffffffffffffffffff1663ffb28d9c336040518263ffffffff1660e01b815260040161090a91906149cf565b60206040518083038186803b15801561092257600080fd5b505afa158015610936573d6000803e3d6000fd5b505050506040513d601f19601f8201168201806040525061095a91908101906142e4565b5b61099a576040517f08c379a000000000000000000000000000000000000000000000000000000000815260040161099190614b66565b60405180910390fd5b600560003373ffffffffffffffffffffffffffffffffffffffff1673ffffffffffffffffffffffffffffffffffffffff16815260200190815260200160002060008373ffffffffffffffffffffffffffffffffffffffff1673ffffffffffffffffffffffffffffffffffffffff16815260200190815260200160002060009054906101000a900460ff168015610ab65750600560008373ffffffffffffffffffffffffffffffffffffffff1673ffffffffffffffffffffffffffffffffffffffff16815260200190815260200160002060003373ffffffffffffffffffffffffffffffffffffffff1673ffffffffffffffffffffffffffffffffffffffff16815260200190815260200160002060009054906101000a900460ff165b15610ac45760019050610ac9565b600090505b919050565b6040518060400160405280600781526020017f5375626a656374000000000000000000000000000000000000000000000000008152506000809054906101000a900473ffffffffffffffffffffffffffffffffffffffff1673ffffffffffffffffffffffffffffffffffffffff1663ffb28d9c33836040518363ffffffff1660e01b8152600401610b6092919061499f565b60206040518083038186803b158015610b7857600080fd5b505afa158015610b8c573d6000803e3d6000fd5b505050506040513d601f19601f82011682018060405250610bb091908101906142e4565b610bef576040517f08c379a0000000000000000000000000000000000000000000000000000000008152600401610be690614b66565b60405180910390fd5b816040518060400160405280600681526020017f49737375657200000000000000000000000000000000000000000000000000008152506000809054906101000a900473ffffffffffffffffffffffffffffffffffffffff1673ffffffffffffffffffffffffffffffffffffffff1663ffb28d9c83836040518363ffffffff1660e01b8152600401610c82929190614a59565b60206040518083038186803b158015610c9a57600080fd5b505afa158015610cae573d6000803e3d6000fd5b505050506040513d601f19601f82011682018060405250610cd291908101906142e4565b610d11576040517f08c379a0000000000000000000000000000000000000000000000000000000008152600401610d0890614b46565b60405180910390fd5b600260003373ffffffffffffffffffffffffffffffffffffffff1673ffffffffffffffffffffffffffffffffffffffff16815260200190815260200160002060008573ffffffffffffffffffffffffffffffffffffffff1673ffffffffffffffffffffffffffffffffffffffff16815260200190815260200160002060009054906101000a900460ff1615610ddb576040517f08c379a0000000000000000000000000000000000000000000000000000000008152600401610dd290614ae6565b60405180910390fd5b6001600260003373ffffffffffffffffffffffffffffffffffffffff1673ffffffffffffffffffffffffffffffffffffffff16815260200190815260200160002060008673ffffffffffffffffffffffffffffffffffffffff1673ffffffffffffffffffffffffffffffffffffffff16815260200190815260200160002060006101000a81548160ff0219169083151502179055506001600260008673ffffffffffffffffffffffffffffffffffffffff1673ffffffffffffffffffffffffffffffffffffffff16815260200190815260200160002060003373ffffffffffffffffffffffffffffffffffffffff1673ffffffffffffffffffffffffffffffffffffffff16815260200190815260200160002060006101000a81548160ff021916908315150217905550600360003373ffffffffffffffffffffffffffffffffffffffff1673ffffffffffffffffffffffffffffffffffffffff16815260200190815260200160002060008573ffffffffffffffffffffffffffffffffffffffff1673ffffffffffffffffffffffffffffffffffffffff16815260200190815260200160002060009054906101000a900460ff166110da57600160003373ffffffffffffffffffffffffffffffffffffffff1673ffffffffffffffffffffffffffffffffffffffff1681526020019081526020016000208490806001815401808255809150509060018203906000526020600020016000909192909190916101000a81548173ffffffffffffffffffffffffffffffffffffffff021916908373ffffffffffffffffffffffffffffffffffffffff16021790555050600160008573ffffffffffffffffffffffffffffffffffffffff1673ffffffffffffffffffffffffffffffffffffffff1681526020019081526020016000203390806001815401808255809150509060018203906000526020600020016000909192909190916101000a81548173ffffffffffffffffffffffffffffffffffffffff021916908373ffffffffffffffffffffffffffffffffffffffff160217905550505b6001600360003373ffffffffffffffffffffffffffffffffffffffff1673ffffffffffffffffffffffffffffffffffffffff16815260200190815260200160002060008673ffffffffffffffffffffffffffffffffffffffff1673ffffffffffffffffffffffffffffffffffffffff16815260200190815260200160002060006101000a81548160ff0219169083151502179055507f96dc08c3299c77635bd20fc8e5b7a7459559a916cac4e43146327f032258ce7f33856040516111a0929190614976565b60405180910390a150505050565b6040518060400160405280600781526020017f5375626a656374000000000000000000000000000000000000000000000000008152506000809054906101000a900473ffffffffffffffffffffffffffffffffffffffff1673ffffffffffffffffffffffffffffffffffffffff1663ffb28d9c33836040518363ffffffff1660e01b815260040161124092919061499f565b60206040518083038186803b15801561125857600080fd5b505afa15801561126c573d6000803e3d6000fd5b505050506040513d601f19601f8201168201806040525061129091908101906142e4565b6112cf576040517f08c379a00000000000000000000000000000000000000000000000000000000081526004016112c690614b66565b60405180910390fd5b816040518060400160405280600881526020017f56657269666965720000000000000000000000000000000000000000000000008152506000809054906101000a900473ffffffffffffffffffffffffffffffffffffffff1673ffffffffffffffffffffffffffffffffffffffff1663ffb28d9c83836040518363ffffffff1660e01b8152600401611362929190614a59565b60206040518083038186803b15801561137a57600080fd5b505afa15801561138e573d6000803e3d6000fd5b505050506040513d601f19601f820116820180604052506113b291908101906142e4565b6113f1576040517f08c379a00000000000000000000000000000000000000000000000000000000081526004016113e890614b46565b60405180910390fd5b600560003373ffffffffffffffffffffffffffffffffffffffff1673ffffffffffffffffffffffffffffffffffffffff16815260200190815260200160002060008573ffffffffffffffffffffffffffffffffffffffff1673ffffffffffffffffffffffffffffffffffffffff16815260200190815260200160002060009054906101000a900460ff16156114bb576040517f08c379a00000000000000000000000000000000000000000000000000000000081526004016114b290614b06565b60405180910390fd5b6001600560003373ffffffffffffffffffffffffffffffffffffffff1673ffffffffffffffffffffffffffffffffffffffff16815260200190815260200160002060008673ffffffffffffffffffffffffffffffffffffffff1673ffffffffffffffffffffffffffffffffffffffff16815260200190815260200160002060006101000a81548160ff0219169083151502179055506001600560008673ffffffffffffffffffffffffffffffffffffffff1673ffffffffffffffffffffffffffffffffffffffff16815260200190815260200160002060003373ffffffffffffffffffffffffffffffffffffffff1673ffffffffffffffffffffffffffffffffffffffff16815260200190815260200160002060006101000a81548160ff021916908315150217905550600660003373ffffffffffffffffffffffffffffffffffffffff1673ffffffffffffffffffffffffffffffffffffffff16815260200190815260200160002060008573ffffffffffffffffffffffffffffffffffffffff1673ffffffffffffffffffffffffffffffffffffffff16815260200190815260200160002060009054906101000a900460ff166117ba57600460003373ffffffffffffffffffffffffffffffffffffffff1673ffffffffffffffffffffffffffffffffffffffff1681526020019081526020016000208490806001815401808255809150509060018203906000526020600020016000909192909190916101000a81548173ffffffffffffffffffffffffffffffffffffffff021916908373ffffffffffffffffffffffffffffffffffffffff16021790555050600460008573ffffffffffffffffffffffffffffffffffffffff1673ffffffffffffffffffffffffffffffffffffffff1681526020019081526020016000203390806001815401808255809150509060018203906000526020600020016000909192909190916101000a81548173ffffffffffffffffffffffffffffffffffffffff021916908373ffffffffffffffffffffffffffffffffffffffff160217905550505b6001600660003373ffffffffffffffffffffffffffffffffffffffff1673ffffffffffffffffffffffffffffffffffffffff16815260200190815260200160002060008673ffffffffffffffffffffffffffffffffffffffff1673ffffffffffffffffffffffffffffffffffffffff16815260200190815260200160002060006101000a81548160ff0219169083151502179055507f8a0c75501cc08717088881dbadc4eac47b178e3a240aa7ec195c0f61bc31868e3385604051611880929190614976565b60405180910390a150505050565b6000826040518060400160405280600881526020017f56657269666965720000000000000000000000000000000000000000000000008152506000809054906101000a900473ffffffffffffffffffffffffffffffffffffffff1673ffffffffffffffffffffffffffffffffffffffff1663ffb28d9c83836040518363ffffffff1660e01b8152600401611923929190614a59565b60206040518083038186803b15801561193b57600080fd5b505afa15801561194f573d6000803e3d6000fd5b505050506040513d601f19601f8201168201806040525061197391908101906142e4565b6119b2576040517f08c379a00000000000000000000000000000000000000000000000000000000081526004016119a990614b46565b60405180910390fd5b836040518060400160405280600781526020017f5375626a656374000000000000000000000000000000000000000000000000008152506000809054906101000a900473ffffffffffffffffffffffffffffffffffffffff1673ffffffffffffffffffffffffffffffffffffffff1663ffb28d9c83836040518363ffffffff1660e01b8152600401611a45929190614a59565b60206040518083038186803b158015611a5d57600080fd5b505afa158015611a71573d6000803e3d6000fd5b505050506040513d601f19601f82011682018060405250611a9591908101906142e4565b611ad4576040517f08c379a0000000000000000000000000000000000000000000000000000000008152600401611acb90614b46565b60405180910390fd5b600560008773ffffffffffffffffffffffffffffffffffffffff1673ffffffffffffffffffffffffffffffffffffffff16815260200190815260200160002060008873ffffffffffffffffffffffffffffffffffffffff1673ffffffffffffffffffffffffffffffffffffffff16815260200190815260200160002060009054906101000a900460ff1694505050505092915050565b6040518060400160405280600781526020017f5375626a656374000000000000000000000000000000000000000000000000008152506000809054906101000a900473ffffffffffffffffffffffffffffffffffffffff1673ffffffffffffffffffffffffffffffffffffffff1663ffb28d9c33836040518363ffffffff1660e01b8152600401611bfc92919061499f565b60206040518083038186803b158015611c1457600080fd5b505afa158015611c28573d6000803e3d6000fd5b505050506040513d601f19601f82011682018060405250611c4c91908101906142e4565b611c8b576040517f08c379a0000000000000000000000000000000000000000000000000000000008152600401611c8290614b66565b60405180910390fd5b816040518060400160405280600881526020017f56657269666965720000000000000000000000000000000000000000000000008152506000809054906101000a900473ffffffffffffffffffffffffffffffffffffffff1673ffffffffffffffffffffffffffffffffffffffff1663ffb28d9c83836040518363ffffffff1660e01b8152600401611d1e929190614a59565b60206040518083038186803b158015611d3657600080fd5b505afa158015611d4a573d6000803e3d6000fd5b505050506040513d601f19601f82011682018060405250611d6e91908101906142e4565b611dad576040517f08c379a0000000000000000000000000000000000000000000000000000000008152600401611da490614b46565b60405180910390fd5b600560003373ffffffffffffffffffffffffffffffffffffffff1673ffffffffffffffffffffffffffffffffffffffff16815260200190815260200160002060008573ffffffffffffffffffffffffffffffffffffffff1673ffffffffffffffffffffffffffffffffffffffff16815260200190815260200160002060009054906101000a900460ff16611e76576040517f08c379a0000000000000000000000000000000000000000000000000000000008152600401611e6d90614ba6565b60405180910390fd5b6000600560008673ffffffffffffffffffffffffffffffffffffffff1673ffffffffffffffffffffffffffffffffffffffff16815260200190815260200160002060003373ffffffffffffffffffffffffffffffffffffffff1673ffffffffffffffffffffffffffffffffffffffff16815260200190815260200160002060006101000a81548160ff0219169083151502179055506000600560003373ffffffffffffffffffffffffffffffffffffffff1673ffffffffffffffffffffffffffffffffffffffff16815260200190815260200160002060008673ffffffffffffffffffffffffffffffffffffffff1673ffffffffffffffffffffffffffffffffffffffff16815260200190815260200160002060006101000a81548160ff0219169083151502179055507f20fb312ef4e635871e9228308c7d9119e618c46d2912d356d19296bd765751b13385604051611fd1929190614976565b60405180910390a150505050565b6000826040518060400160405280600681526020017f49737375657200000000000000000000000000000000000000000000000000008152506000809054906101000a900473ffffffffffffffffffffffffffffffffffffffff1673ffffffffffffffffffffffffffffffffffffffff1663ffb28d9c83836040518363ffffffff1660e01b8152600401612074929190614a59565b60206040518083038186803b15801561208c57600080fd5b505afa1580156120a0573d6000803e3d6000fd5b505050506040513d601f19601f820116820180604052506120c491908101906142e4565b612103576040517f08c379a00000000000000000000000000000000000000000000000000000000081526004016120fa90614b46565b60405180910390fd5b836040518060400160405280600781526020017f5375626a656374000000000000000000000000000000000000000000000000008152506000809054906101000a900473ffffffffffffffffffffffffffffffffffffffff1673ffffffffffffffffffffffffffffffffffffffff1663ffb28d9c83836040518363ffffffff1660e01b8152600401612196929190614a59565b60206040518083038186803b1580156121ae57600080fd5b505afa1580156121c2573d6000803e3d6000fd5b505050506040513d601f19601f820116820180604052506121e691908101906142e4565b612225576040517f08c379a000000000000000000000000000000000000000000000000000000000815260040161221c90614b46565b60405180910390fd5b600260008873ffffffffffffffffffffffffffffffffffffffff1673ffffffffffffffffffffffffffffffffffffffff16815260200190815260200160002060008773ffffffffffffffffffffffffffffffffffffffff1673ffffffffffffffffffffffffffffffffffffffff16815260200190815260200160002060009054906101000a900460ff1694505050505092915050565b60606000809054906101000a900473ffffffffffffffffffffffffffffffffffffffff1673ffffffffffffffffffffffffffffffffffffffff1663ffb28d9c336040518263ffffffff1660e01b815260040161231791906149fd565b60206040518083038186803b15801561232f57600080fd5b505afa158015612343573d6000803e3d6000fd5b505050506040513d601f19601f8201168201806040525061236791908101906142e4565b8061241857506000809054906101000a900473ffffffffffffffffffffffffffffffffffffffff1673ffffffffffffffffffffffffffffffffffffffff1663ffb28d9c336040518263ffffffff1660e01b81526004016123c79190614a2b565b60206040518083038186803b1580156123df57600080fd5b505afa1580156123f3573d6000803e3d6000fd5b505050506040513d601f19601f8201168201806040525061241791908101906142e4565b5b612457576040517f08c379a000000000000000000000000000000000000000000000000000000000815260040161244e90614b66565b60405180910390fd5b6060600160003373ffffffffffffffffffffffffffffffffffffffff1673ffffffffffffffffffffffffffffffffffffffff16815260200190815260200160002080548060200260200160405190810160405280929190818152602001828054801561251857602002820191906000526020600020905b8160009054906101000a900473ffffffffffffffffffffffffffffffffffffffff1673ffffffffffffffffffffffffffffffffffffffff16815260200190600101908083116124ce575b50505050509050606081516040519080825280602002602001820160405280156125515781602001602082028038833980820191505090505b509050600080905060008090505b835181101561271f57600260003373ffffffffffffffffffffffffffffffffffffffff1673ffffffffffffffffffffffffffffffffffffffff16815260200190815260200160002060008583815181106125b557fe5b602002602001015173ffffffffffffffffffffffffffffffffffffffff1673ffffffffffffffffffffffffffffffffffffffff16815260200190815260200160002060009054906101000a900460ff1680156126aa57506002600085838151811061261c57fe5b602002602001015173ffffffffffffffffffffffffffffffffffffffff1673ffffffffffffffffffffffffffffffffffffffff16815260200190815260200160002060003373ffffffffffffffffffffffffffffffffffffffff1673ffffffffffffffffffffffffffffffffffffffff16815260200190815260200160002060009054906101000a900460ff165b15612712578381815181106126bb57fe5b60200260200101518383815181106126cf57fe5b602002602001019073ffffffffffffffffffffffffffffffffffffffff16908173ffffffffffffffffffffffffffffffffffffffff168152505081806001019250505b808060010191505061255f565b506060816040519080825280602002602001820160405280156127515781602001602082028038833980820191505090505b50905060008090505b828110156127c95783818151811061276e57fe5b602002602001015182828151811061278257fe5b602002602001019073ffffffffffffffffffffffffffffffffffffffff16908173ffffffffffffffffffffffffffffffffffffffff1681525050808060010191505061275a565b508094505050505090565b6040518060400160405280600681526020017f49737375657200000000000000000000000000000000000000000000000000008152506000809054906101000a900473ffffffffffffffffffffffffffffffffffffffff1673ffffffffffffffffffffffffffffffffffffffff1663ffb28d9c33836040518363ffffffff1660e01b815260040161286692919061499f565b60206040518083038186803b15801561287e57600080fd5b505afa158015612892573d6000803e3d6000fd5b505050506040513d601f19601f820116820180604052506128b691908101906142e4565b6128f5576040517f08c379a00000000000000000000000000000000000000000000000000000000081526004016128ec90614b66565b60405180910390fd5b816040518060400160405280600781526020017f5375626a656374000000000000000000000000000000000000000000000000008152506000809054906101000a900473ffffffffffffffffffffffffffffffffffffffff1673ffffffffffffffffffffffffffffffffffffffff1663ffb28d9c83836040518363ffffffff1660e01b8152600401612988929190614a59565b60206040518083038186803b1580156129a057600080fd5b505afa1580156129b4573d6000803e3d6000fd5b505050506040513d601f19601f820116820180604052506129d891908101906142e4565b612a17576040517f08c379a0000000000000000000000000000000000000000000000000000000008152600401612a0e90614b46565b60405180910390fd5b600260008573ffffffffffffffffffffffffffffffffffffffff1673ffffffffffffffffffffffffffffffffffffffff16815260200190815260200160002060003373ffffffffffffffffffffffffffffffffffffffff1673ffffffffffffffffffffffffffffffffffffffff16815260200190815260200160002060009054906101000a900460ff16612ae0576040517f08c379a0000000000000000000000000000000000000000000000000000000008152600401612ad790614bc6565b60405180910390fd5b600260003373ffffffffffffffffffffffffffffffffffffffff1673ffffffffffffffffffffffffffffffffffffffff16815260200190815260200160002060008573ffffffffffffffffffffffffffffffffffffffff1673ffffffffffffffffffffffffffffffffffffffff16815260200190815260200160002060009054906101000a900460ff16612ba9576040517f08c379a0000000000000000000000000000000000000000000000000000000008152600401612ba090614b86565b60405180910390fd5b6000600260003373ffffffffffffffffffffffffffffffffffffffff1673ffffffffffffffffffffffffffffffffffffffff16815260200190815260200160002060008673ffffffffffffffffffffffffffffffffffffffff1673ffffffffffffffffffffffffffffffffffffffff16815260200190815260200160002060006101000a81548160ff0219169083151502179055506000600260008673ffffffffffffffffffffffffffffffffffffffff1673ffffffffffffffffffffffffffffffffffffffff16815260200190815260200160002060003373ffffffffffffffffffffffffffffffffffffffff1673ffffffffffffffffffffffffffffffffffffffff16815260200190815260200160002060006101000a81548160ff0219169083151502179055507f3c44ce647de06c73eb5744c9395edea226f4b767db4b643bd11b5e632e3300923385604051612d04929190614976565b60405180910390a150505050565b6000826040518060400160405280600681526020017f49737375657200000000000000000000000000000000000000000000000000008152506000809054906101000a900473ffffffffffffffffffffffffffffffffffffffff1673ffffffffffffffffffffffffffffffffffffffff1663ffb28d9c83836040518363ffffffff1660e01b8152600401612da7929190614a59565b60206040518083038186803b158015612dbf57600080fd5b505afa158015612dd3573d6000803e3d6000fd5b505050506040513d601f19601f82011682018060405250612df791908101906142e4565b612e36576040517f08c379a0000000000000000000000000000000000000000000000000000000008152600401612e2d90614b46565b60405180910390fd5b836040518060400160405280600781526020017f5375626a656374000000000000000000000000000000000000000000000000008152506000809054906101000a900473ffffffffffffffffffffffffffffffffffffffff1673ffffffffffffffffffffffffffffffffffffffff1663ffb28d9c83836040518363ffffffff1660e01b8152600401612ec9929190614a59565b60206040518083038186803b158015612ee157600080fd5b505afa158015612ef5573d6000803e3d6000fd5b505050506040513d601f19601f82011682018060405250612f1991908101906142e4565b612f58576040517f08c379a0000000000000000000000000000000000000000000000000000000008152600401612f4f90614b46565b60405180910390fd5b600260008773ffffffffffffffffffffffffffffffffffffffff1673ffffffffffffffffffffffffffffffffffffffff16815260200190815260200160002060008873ffffffffffffffffffffffffffffffffffffffff1673ffffffffffffffffffffffffffffffffffffffff16815260200190815260200160002060009054906101000a900460ff1694505050505092915050565b60606000809054906101000a900473ffffffffffffffffffffffffffffffffffffffff1673ffffffffffffffffffffffffffffffffffffffff1663ffb28d9c336040518263ffffffff1660e01b815260040161304a91906149fd565b60206040518083038186803b15801561306257600080fd5b505afa158015613076573d6000803e3d6000fd5b505050506040513d601f19601f8201168201806040525061309a91908101906142e4565b8061314b57506000809054906101000a900473ffffffffffffffffffffffffffffffffffffffff1673ffffffffffffffffffffffffffffffffffffffff1663ffb28d9c336040518263ffffffff1660e01b81526004016130fa91906149cf565b60206040518083038186803b15801561311257600080fd5b505afa158015613126573d6000803e3d6000fd5b505050506040513d601f19601f8201168201806040525061314a91908101906142e4565b5b61318a576040517f08c379a000000000000000000000000000000000000000000000000000000000815260040161318190614b66565b60405180910390fd5b6060600460003373ffffffffffffffffffffffffffffffffffffffff1673ffffffffffffffffffffffffffffffffffffffff16815260200190815260200160002080548060200260200160405190810160405280929190818152602001828054801561324b57602002820191906000526020600020905b8160009054906101000a900473ffffffffffffffffffffffffffffffffffffffff1673ffffffffffffffffffffffffffffffffffffffff1681526020019060010190808311613201575b50505050509050606081516040519080825280602002602001820160405280156132845781602001602082028038833980820191505090505b509050600080905060008090505b835181101561345157600560003373ffffffffffffffffffffffffffffffffffffffff1673ffffffffffffffffffffffffffffffffffffffff16815260200190815260200160002060008583815181106132e857fe5b602002602001015173ffffffffffffffffffffffffffffffffffffffff1673ffffffffffffffffffffffffffffffffffffffff16815260200190815260200160002060009054906101000a900460ff1680156133dd57506005600085838151811061334f57fe5b602002602001015173ffffffffffffffffffffffffffffffffffffffff1673ffffffffffffffffffffffffffffffffffffffff16815260200190815260200160002060003373ffffffffffffffffffffffffffffffffffffffff1673ffffffffffffffffffffffffffffffffffffffff16815260200190815260200160002060009054906101000a900460ff165b613444578381815181106133ed57fe5b602002602001015183838151811061340157fe5b602002602001019073ffffffffffffffffffffffffffffffffffffffff16908173ffffffffffffffffffffffffffffffffffffffff168152505081806001019250505b8080600101915050613292565b506060816040519080825280602002602001820160405280156134835781602001602082028038833980820191505090505b50905060008090505b828110156134fb578381815181106134a057fe5b60200260200101518282815181106134b457fe5b602002602001019073ffffffffffffffffffffffffffffffffffffffff16908173ffffffffffffffffffffffffffffffffffffffff1681525050808060010191505061348c565b508094505050505090565b60606000809054906101000a900473ffffffffffffffffffffffffffffffffffffffff1673ffffffffffffffffffffffffffffffffffffffff1663ffb28d9c336040518263ffffffff1660e01b815260040161356291906149fd565b60206040518083038186803b15801561357a57600080fd5b505afa15801561358e573d6000803e3d6000fd5b505050506040513d601f19601f820116820180604052506135b291908101906142e4565b8061366357506000809054906101000a900473ffffffffffffffffffffffffffffffffffffffff1673ffffffffffffffffffffffffffffffffffffffff1663ffb28d9c336040518263ffffffff1660e01b81526004016136129190614a2b565b60206040518083038186803b15801561362a57600080fd5b505afa15801561363e573d6000803e3d6000fd5b505050506040513d601f19601f8201168201806040525061366291908101906142e4565b5b6136a2576040517f08c379a000000000000000000000000000000000000000000000000000000000815260040161369990614b66565b60405180910390fd5b600160003373ffffffffffffffffffffffffffffffffffffffff1673ffffffffffffffffffffffffffffffffffffffff16815260200190815260200160002080548060200260200160405190810160405280929190818152602001828054801561376157602002820191906000526020600020905b8160009054906101000a900473ffffffffffffffffffffffffffffffffffffffff1673ffffffffffffffffffffffffffffffffffffffff1681526020019060010190808311613717575b5050505050905090565b60606000809054906101000a900473ffffffffffffffffffffffffffffffffffffffff1673ffffffffffffffffffffffffffffffffffffffff1663ffb28d9c336040518263ffffffff1660e01b81526004016137c791906149fd565b60206040518083038186803b1580156137df57600080fd5b505afa1580156137f3573d6000803e3d6000fd5b505050506040513d601f19601f8201168201806040525061381791908101906142e4565b806138c857506000809054906101000a900473ffffffffffffffffffffffffffffffffffffffff1673ffffffffffffffffffffffffffffffffffffffff1663ffb28d9c336040518263ffffffff1660e01b81526004016138779190614a2b565b60206040518083038186803b15801561388f57600080fd5b505afa1580156138a3573d6000803e3d6000fd5b505050506040513d601f19601f820116820180604052506138c791908101906142e4565b5b613907576040517f08c379a00000000000000000000000000000000000000000000000000000000081526004016138fe90614b66565b60405180910390fd5b6060600160003373ffffffffffffffffffffffffffffffffffffffff1673ffffffffffffffffffffffffffffffffffffffff1681526020019081526020016000208054806020026020016040519081016040528092919081815260200182805480156139c857602002820191906000526020600020905b8160009054906101000a900473ffffffffffffffffffffffffffffffffffffffff1673ffffffffffffffffffffffffffffffffffffffff168152602001906001019080831161397e575b5050505050905060608151604051908082528060200260200182016040528015613a015781602001602082028038833980820191505090505b509050600080905060008090505b8351811015613bd157600260003373ffffffffffffffffffffffffffffffffffffffff1673ffffffffffffffffffffffffffffffffffffffff1681526020019081526020016000206000858381518110613a6557fe5b602002602001015173ffffffffffffffffffffffffffffffffffffffff1673ffffffffffffffffffffffffffffffffffffffff16815260200190815260200160002060009054906101000a900460ff16158015613b5c575060026000858381518110613acd57fe5b602002602001015173ffffffffffffffffffffffffffffffffffffffff1673ffffffffffffffffffffffffffffffffffffffff16815260200190815260200160002060003373ffffffffffffffffffffffffffffffffffffffff1673ffffffffffffffffffffffffffffffffffffffff16815260200190815260200160002060009054906101000a900460ff16155b15613bc457838181518110613b6d57fe5b6020026020010151838381518110613b8157fe5b602002602001019073ffffffffffffffffffffffffffffffffffffffff16908173ffffffffffffffffffffffffffffffffffffffff168152505081806001019250505b8080600101915050613a0f565b50606081604051908082528060200260200182016040528015613c035781602001602082028038833980820191505090505b50905060008090505b82811015613c7b57838181518110613c2057fe5b6020026020010151828281518110613c3457fe5b602002602001019073ffffffffffffffffffffffffffffffffffffffff16908173ffffffffffffffffffffffffffffffffffffffff16815250508080600101915050613c0c565b508094505050505090565b60008060009054906101000a900473ffffffffffffffffffffffffffffffffffffffff1673ffffffffffffffffffffffffffffffffffffffff1663ffb28d9c336040518263ffffffff1660e01b8152600401613ce291906149fd565b60206040518083038186803b158015613cfa57600080fd5b505afa158015613d0e573d6000803e3d6000fd5b505050506040513d601f19601f82011682018060405250613d3291908101906142e4565b80613de357506000809054906101000a900473ffffffffffffffffffffffffffffffffffffffff1673ffffffffffffffffffffffffffffffffffffffff1663ffb28d9c336040518263ffffffff1660e01b8152600401613d929190614a2b565b60206040518083038186803b158015613daa57600080fd5b505afa158015613dbe573d6000803e3d6000fd5b505050506040513d601f19601f82011682018060405250613de291908101906142e4565b5b613e22576040517f08c379a0000000000000000000000000000000000000000000000000000000008152600401613e1990614b66565b60405180910390fd5b604051602001613e3190614931565b604051602081830303815290604052805190602001206000809054906101000a900473ffffffffffffffffffffffffffffffffffffffff1673ffffffffffffffffffffffffffffffffffffffff166327820851846040518263ffffffff1660e01b8152600401613ea1919061495b565b60006040518083038186803b158015613eb957600080fd5b505afa158015613ecd573d6000803e3d6000fd5b505050506040513d6000823e3d601f19601f82011682018060405250613ef6919081019061430d565b604051602001613f06919061491a565b60405160208183030381529060405280519060200120148061401f5750604051602001613f3290614946565b604051602081830303815290604052805190602001206000809054906101000a900473ffffffffffffffffffffffffffffffffffffffff1673ffffffffffffffffffffffffffffffffffffffff166327820851846040518263ffffffff1660e01b8152600401613fa2919061495b565b60006040518083038186803b158015613fba57600080fd5b505afa158015613fce573d6000803e3d6000fd5b505050506040513d6000823e3d601f19601f82011682018060405250613ff7919081019061430d565b604051602001614007919061491a565b60405160208183030381529060405280519060200120145b61405e576040517f08c379a000000000000000000000000000000000000000000000000000000000815260040161405590614ac6565b60405180910390fd5b8173ffffffffffffffffffffffffffffffffffffffff163373ffffffffffffffffffffffffffffffffffffffff1614156140cd576040517f08c379a00000000000000000000000000000000000000000000000000000000081526004016140c490614b26565b60405180910390fd5b600260008373ffffffffffffffffffffffffffffffffffffffff1673ffffffffffffffffffffffffffffffffffffffff16815260200190815260200160002060003373ffffffffffffffffffffffffffffffffffffffff1673ffffffffffffffffffffffffffffffffffffffff16815260200190815260200160002060009054906101000a900460ff1680156141e95750600260003373ffffffffffffffffffffffffffffffffffffffff1673ffffffffffffffffffffffffffffffffffffffff16815260200190815260200160002060008373ffffffffffffffffffffffffffffffffffffffff1673ffffffffffffffffffffffffffffffffffffffff16815260200190815260200160002060009054906101000a900460ff165b156141f757600190506141fc565b600090505b919050565b60008135905061421081614d57565b92915050565b60008151905061422581614d6e565b92915050565b600082601f83011261423c57600080fd5b815161424f61424a82614c13565b614be6565b9150808252602083016020830185838301111561426b57600080fd5b614276838284614d13565b50505092915050565b60006020828403121561429157600080fd5b600061429f84828501614201565b91505092915050565b600080604083850312156142bb57600080fd5b60006142c985828601614201565b92505060206142da85828601614201565b9150509250929050565b6000602082840312156142f657600080fd5b600061430484828501614216565b91505092915050565b60006020828403121561431f57600080fd5b600082015167ffffffffffffffff81111561433957600080fd5b6143458482850161422b565b91505092915050565b600061435a8383614375565b60208301905092915050565b61436f81614cdd565b82525050565b61437e81614c9f565b82525050565b61438d81614c9f565b82525050565b600061439e82614c4f565b6143a88185614c72565b93506143b383614c3f565b8060005b838110156143e45781516143cb888261434e565b97506143d683614c65565b9250506001810190506143b7565b5085935050505092915050565b6143fa81614cb1565b82525050565b600061440b82614c5a565b6144158185614c83565b9350614425818560208601614d13565b61442e81614d46565b840191505092915050565b600061444482614c5a565b61444e8185614c94565b935061445e818560208601614d13565b80840191505092915050565b6000614477600883614c83565b91507f56657269666965720000000000000000000000000000000000000000000000006000830152602082019050919050565b60006144b7603083614c83565b91507f55736572206164647265737320776974682073706563696669656420726f6c6560008301527f20646f6573206e6f742065786973742e000000000000000000000000000000006020830152604082019050919050565b600061451d602683614c83565b91507f596f75206861766520616c72656164792072657175657374656420666f72206160008301527f20636572742e00000000000000000000000000000000000000000000000000006020830152604082019050919050565b6000614583602783614c83565b91507f56657269666965722068617320616c7265616479206265656e20676976656e2060008301527f6163636573732e000000000000000000000000000000000000000000000000006020830152604082019050919050565b60006145e9600783614c83565b91507f5375626a656374000000000000000000000000000000000000000000000000006000830152602082019050919050565b6000614629600783614c94565b91507f5375626a656374000000000000000000000000000000000000000000000000006000830152600782019050919050565b6000614669602f83614c83565b91507f416374696f6e2063616e6e6f7420626520706572666f726d6564206f6e20746860008301527f652073616d6520616464726573732e00000000000000000000000000000000006020830152604082019050919050565b60006146cf603083614c83565b91507f54686520616374696f6e2063616e206f6e6c7920626520706572666f726d656460008301527f206f6e2076616c69642075736572732e000000000000000000000000000000006020830152604082019050919050565b6000614735600683614c83565b91507f49737375657200000000000000000000000000000000000000000000000000006000830152602082019050919050565b6000614775600683614c94565b91507f49737375657200000000000000000000000000000000000000000000000000006000830152600682019050919050565b60006147b5603683614c83565b91507f5468697320616374696f6e2063616e206f6e6c7920626520706572666f726d6560008301527f6420627920617574686f72697a656420726f6c65732e000000000000000000006020830152604082019050919050565b600061481b602683614c83565b91507f54686520616374696f6e2068617320616c7265616479206265656e207065726660008301527f6f726d65642e00000000000000000000000000000000000000000000000000006020830152604082019050919050565b6000614881601f83614c83565b91507f566572696669657220616c726561647920686173206e6f206163636573732e006000830152602082019050919050565b60006148c1602183614c83565b91507f5375626a65637420686173206e6f74206d61646520616e79207265717565737460008301527f2e000000000000000000000000000000000000000000000000000000000000006020830152604082019050919050565b60006149268284614439565b915081905092915050565b600061493c8261461c565b9150819050919050565b600061495182614768565b9150819050919050565b60006020820190506149706000830184614384565b92915050565b600060408201905061498b6000830185614366565b6149986020830184614384565b9392505050565b60006040820190506149b46000830185614366565b81810360208301526149c68184614400565b90509392505050565b60006040820190506149e46000830184614366565b81810360208301526149f58161446a565b905092915050565b6000604082019050614a126000830184614366565b8181036020830152614a23816145dc565b905092915050565b6000604082019050614a406000830184614366565b8181036020830152614a5181614728565b905092915050565b6000604082019050614a6e6000830185614384565b8181036020830152614a808184614400565b90509392505050565b60006020820190508181036000830152614aa38184614393565b905092915050565b6000602082019050614ac060008301846143f1565b92915050565b60006020820190508181036000830152614adf816144aa565b9050919050565b60006020820190508181036000830152614aff81614510565b9050919050565b60006020820190508181036000830152614b1f81614576565b9050919050565b60006020820190508181036000830152614b3f8161465c565b9050919050565b60006020820190508181036000830152614b5f816146c2565b9050919050565b60006020820190508181036000830152614b7f816147a8565b9050919050565b60006020820190508181036000830152614b9f8161480e565b9050919050565b60006020820190508181036000830152614bbf81614874565b9050919050565b60006020820190508181036000830152614bdf816148b4565b9050919050565b6000604051905081810181811067ffffffffffffffff82111715614c0957600080fd5b8060405250919050565b600067ffffffffffffffff821115614c2a57600080fd5b601f19601f8301169050602081019050919050565b6000819050602082019050919050565b600081519050919050565b600081519050919050565b6000602082019050919050565b600082825260208201905092915050565b600082825260208201905092915050565b600081905092915050565b6000614caa82614cbd565b9050919050565b60008115159050919050565b600073ffffffffffffffffffffffffffffffffffffffff82169050919050565b6000614ce882614cef565b9050919050565b6000614cfa82614d01565b9050919050565b6000614d0c82614cbd565b9050919050565b60005b83811015614d31578082015181840152602081019050614d16565b83811115614d40576000848401525b50505050565b6000601f19601f8301169050919050565b614d6081614c9f565b8114614d6b57600080fd5b50565b614d7781614cb1565b8114614d8257600080fd5b5056fea365627a7a7231582000a8b3e1f7aee3f9d32a0d980fb391af403f5f1d087ecf05fb5d51f45ed0dc236c6578706572696d656e74616cf564736f6c63430005100040",
  "source": "pragma solidity >=0.5.0;\npragma experimental ABIEncoderV2;\n\nimport \"./CertificateNetwork.sol\";\n\ncontract CertificateStore {\n    CertificateNetwork certNetwork;\n\n    // S>I: Student can make many request\n    // I>S: Issuer can receive many request\n    mapping(address => address[]) private reqHistMap; // History of Unique Requests\n\n    // Request map for S <=> I.T > Issue Pass F > Wont issue\n    mapping(address => mapping(address => bool)) private requestMap;\n\n    // Check if S request to I before (S>I)\n    mapping(address => mapping(address => bool)) private requestExistMap;\n\n    // S>V: Student can grant multiple Verifier to view their cert.\n    // V>S: Verifier can view multiple subject Cert\n    mapping(address => address[]) private grantHistMap; // History of Unique Grants\n\n    // Grant map for S <=> V.\n    mapping(address => mapping(address => bool)) private grantMap;\n\n    // Check if S has granted V before (S>V)\n    mapping(address => mapping(address => bool)) private grantExistMap;\n\n    // REMOVED mappings:\n    // Replaced with certHistMap\n    // mapping(address => uint256[]) private subjectToCertListMap; // map subject to issued certs(by certId) by issuers\n    // mapping(address => uint256[]) private issuerToCertListMap; // map issuer to issued certs(by certId)\n\n    // Replaced with addrToCertMap\n    // mapping(address => mapping(uint256 => bool)) private subjectToCertMap;\n    // mapping(address => mapping(uint256 => bool)) private issuerToCertMap;\n    // mapping(address => mapping(address => bool)) private requestMap;\n\n    // Replaced with grantMap\n    // mapping(address => mapping(address => bool)) private subjectToVerifierMap; // S>(V>bool), map subject to all approved verifiers to view all certs\n\n    // Events\n    event IssuedCertificate(\n        uint256 certId,\n        address issuerAddr,\n        address subjectAddr\n    );\n    event RevokeCertificate(address issuer, uint256 certId);\n    event RequestCertificate(address subjectAddr, address issuerAddr);\n    event AcceptSubjectRequest(address issuerAddr, address subjectAddr);\n    event RejectSubjectRequest(address issuerAddr, address subjectAddr);\n\n    event VerifierGranted(address subjectAddr, address verifierAddr);\n    event VerifierDenied(address subjectAddr, address verifierAddr);\n\n    //event ViewVerifierStatus(address subjectAddr, bool status);\n    //event ViewSubjectStatus(address verifierAddr, bool status);\n\n    constructor(CertificateNetwork cn) public {\n        certNetwork = cn;\n    }\n\n    // Modifiers\n    modifier onlyValidRoles(string memory role) {\n        require(\n            certNetwork.checkUserExist(msg.sender, role),\n            \"This action can only be performed by authorized roles.\"\n        );\n        _;\n    }\n\n    // Used to check if a user exist, i.e. issue cert to subject, check if that subject exist in our system.\n    modifier userExist(address addr, string memory role) {\n        require(\n            certNetwork.checkUserExist(addr, role),\n            \"The action can only be performed on valid users.\"\n        );\n        _;\n    }\n    modifier onlyIssuerSubject() {\n        require(\n            certNetwork.checkUserExist(msg.sender, \"Subject\") ||\n                certNetwork.checkUserExist(msg.sender, \"Issuer\"),\n            \"This action can only be performed by authorized roles.\"\n        );\n        _;\n    }\n\n    //test later\n    modifier onlyVerifierSubject() {\n        require(\n            certNetwork.checkUserExist(msg.sender, \"Subject\") ||\n                certNetwork.checkUserExist(msg.sender, \"Verifier\"),\n            \"This action can only be performed by authorized roles.\"\n        );\n        _;\n    }\n\n    // Request cert from issuer. (SUBJECT -> ISSUER)\n    // Issue: subject can spam request for each issuer without being a subject\n    // Assumptions:\n    // 1. Subject know school block addr\n    // 2. Subject belongs to the school and is legitamite.\n    // 3. Subject only needs to request from the sch once for a sch to send all the subjects cert.\n    function requestCert(address issuerAddr)\n        public\n        onlyValidRoles(\"Subject\")\n        userExist(issuerAddr, \"Issuer\")\n    {\n        require(\n            !requestMap[msg.sender][issuerAddr],\n            \"You have already requested for a cert.\"\n        );\n\n        requestMap[msg.sender][issuerAddr] = true; // subject request\n        requestMap[issuerAddr][msg.sender] = true; // issuer to approve\n\n        // add only new unique request\n        if (!requestExistMap[msg.sender][issuerAddr]) {\n            reqHistMap[msg.sender].push(issuerAddr);\n            reqHistMap[issuerAddr].push(msg.sender);\n        }\n\n        // Record user requested before\n        requestExistMap[msg.sender][issuerAddr] = true;\n        emit RequestCertificate(msg.sender, issuerAddr);\n    }\n\n    function rejectRequest(address subjectAddr)\n        public\n        onlyValidRoles(\"Issuer\")\n        userExist(subjectAddr, \"Subject\")\n    {\n        require(\n            requestMap[subjectAddr][msg.sender],\n            \"Subject has not made any request.\"\n        ); // S>I\n        require(\n            requestMap[msg.sender][subjectAddr],\n            \"The action has already been performed.\"\n        ); // I>S\n\n        requestMap[msg.sender][subjectAddr] = false;\n        requestMap[subjectAddr][msg.sender] = false;\n        emit RejectSubjectRequest(msg.sender, subjectAddr);\n    }\n\n    function getApprovedReqList()\n        public\n        view\n        onlyIssuerSubject\n        returns (address[] memory)\n    {\n        address[] memory reqHist = reqHistMap[msg.sender];\n        address[] memory tempList = new address[](reqHist.length);\n        uint256 y = 0;\n        for (uint256 i = 0; i < reqHist.length; i++) {\n            // check if issuer approve subject and student make req to issuer\n            if (\n                requestMap[msg.sender][reqHist[i]] &&\n                requestMap[reqHist[i]][msg.sender]\n            ) {\n                // Get all valid request\n                tempList[y] = reqHist[i];\n                y++;\n            }\n        }\n        address[] memory newList = new address[](y);\n        for (uint256 i = 0; i < y; i++) {\n            newList[i] = tempList[i];\n        }\n        return newList;\n    }\n\n    function getRejectedReqList()\n        public\n        view\n        onlyIssuerSubject\n        returns (address[] memory)\n    {\n        address[] memory reqHist = reqHistMap[msg.sender];\n        address[] memory tempList = new address[](reqHist.length);\n        uint256 y = 0;\n        for (uint256 i = 0; i < reqHist.length; i++) {\n            // check if issuer approve subject and student make req to issuer\n            if (\n                !requestMap[msg.sender][reqHist[i]] &&\n                !requestMap[reqHist[i]][msg.sender]\n            ) {\n                // Get all valid request\n                tempList[y] = reqHist[i];\n                y++;\n            }\n        }\n        address[] memory newList = new address[](y);\n        for (uint256 i = 0; i < y; i++) {\n            newList[i] = tempList[i];\n        }\n        return newList;\n    }\n\n    // Get all unique request history regardless of approve/deny\n    function getReqHist()\n        public\n        view\n        onlyIssuerSubject\n        returns (address[] memory)\n    {\n        return reqHistMap[msg.sender];\n    }\n\n    function checkRequest(address addr)\n        public\n        view\n        onlyIssuerSubject\n        returns (bool)\n    {\n        require(\n            keccak256(abi.encodePacked(certNetwork.getUserRole(addr))) ==\n                keccak256(abi.encodePacked(\"Subject\")) ||\n                keccak256(abi.encodePacked(certNetwork.getUserRole(addr))) ==\n                keccak256(abi.encodePacked(\"Issuer\")),\n            \"User address with specified role does not exist.\"\n        );\n        require(\n            !(msg.sender == addr),\n            \"Action cannot be performed on the same address.\"\n        );\n        if (requestMap[addr][msg.sender] && requestMap[msg.sender][addr]) {\n            return true;\n        }\n        return false;\n    }\n\n    // for I>S, check user requested\n    function getRequestStatus(address issuerAddr, address subjectAddr)\n        public\n        view\n        userExist(issuerAddr, \"Issuer\")\n        userExist(subjectAddr, \"Subject\")\n        returns (bool)\n    {\n        return requestMap[subjectAddr][issuerAddr];\n    }\n\n    // for I>S, check if issuer have deny before\n    function getIssueStatus(address issuerAddr, address subjectAddr)\n        public\n        view\n        userExist(issuerAddr, \"Issuer\")\n        userExist(subjectAddr, \"Subject\")\n        returns (bool)\n    {\n        return requestMap[issuerAddr][subjectAddr];\n    }\n\n    //Xie Ran's tests covering the following methods\n    //Between Subjects and Verifiers\n\n    // for V>S, check grant list\n    function getAccessStatus(address verifierAddr, address subjectAddr)\n        public\n        view\n        userExist(verifierAddr, \"Verifier\")\n        userExist(subjectAddr, \"Subject\")\n        returns (bool)\n    {\n        return grantMap[subjectAddr][verifierAddr];\n    }\n\n    // Grant access to a verifier to viewing all subject certs.(SUBJECT -> VERIFIER)\n    function grantVerifier(address verifierAddr)\n        public\n        onlyValidRoles(\"Subject\")\n        userExist(verifierAddr, \"Verifier\")\n    {\n        require(\n            !grantMap[msg.sender][verifierAddr],\n            \"Verifier has already been given access.\"\n        );\n\n        // record grant: S<=>V\n        grantMap[msg.sender][verifierAddr] = true;\n        grantMap[verifierAddr][msg.sender] = true;\n\n        // record uniqiue grant history\n        if (!grantExistMap[msg.sender][verifierAddr]) {\n            grantHistMap[msg.sender].push(verifierAddr);\n            grantHistMap[verifierAddr].push(msg.sender);\n        }\n        grantExistMap[msg.sender][verifierAddr] = true;\n        emit VerifierGranted(msg.sender, verifierAddr);\n    }\n\n    // Deny access to a verifier to viewing all subject certs.(SUBJECT -> VERIFIER)\n    function denyVerifier(address verifierAddr)\n        public\n        onlyValidRoles(\"Subject\")\n        userExist(verifierAddr, \"Verifier\")\n    {\n        require(\n            grantMap[msg.sender][verifierAddr],\n            \"Verifier already has no access.\"\n        );\n\n        grantMap[verifierAddr][msg.sender] = false; // remove access for verifier\n        grantMap[msg.sender][verifierAddr] = false; // remove access given by S>V\n\n        emit VerifierDenied(msg.sender, verifierAddr);\n    }\n\n    // S>V: Subject can view the status of a verifier\n    // V>S: Verifier can view the status of a subject\n    function checkGrantStatus(address add)\n        public\n        view\n        onlyVerifierSubject\n        returns (bool)\n    {\n        if (grantMap[msg.sender][add] && grantMap[add][msg.sender]) {\n            return true;\n        }\n        return false;\n    }\n\n    // S>V: Subject can view verifier they given access to.\n    // V>S: Verifier can view subject they given access from.\n    // this list updates automatically\n    function getGrantList()\n        public\n        view\n        onlyVerifierSubject\n        returns (address[] memory)\n    {\n        address[] memory grantList = grantHistMap[msg.sender];\n        address[] memory tempList = new address[](grantList.length);\n        uint256 y = 0;\n        for (uint256 i = 0; i < grantList.length; i++) {\n            if (\n                grantMap[msg.sender][grantList[i]] &&\n                grantMap[grantList[i]][msg.sender]\n            ) {\n                tempList[y] = grantList[i];\n                y++;\n            }\n        }\n        address[] memory newList = new address[](y);\n        for (uint256 i = 0; i < y; i++) {\n            newList[i] = tempList[i];\n        }\n        return newList;\n    }\n\n    // S>V: Subject can view verifier they have denied access to.\n    // V>S: Verifier can view subject they have been denied access to.\n    // this list updates automatically\n    function getDenyList()\n        public\n        view\n        onlyVerifierSubject\n        returns (address[] memory)\n    {\n        address[] memory grantList = grantHistMap[msg.sender];\n        address[] memory tempList = new address[](grantList.length);\n        uint256 y = 0;\n        for (uint256 i = 0; i < grantList.length; i++) {\n            if (\n                !(grantMap[msg.sender][grantList[i]] &&\n                    grantMap[grantList[i]][msg.sender])\n            ) {\n                tempList[y] = grantList[i];\n                y++;\n            }\n        }\n        address[] memory newList = new address[](y);\n        for (uint256 i = 0; i < y; i++) {\n            newList[i] = tempList[i];\n        }\n        return newList;\n    }\n}\n",
  "sourcePath": "/Users/yeerouhew/Downloads/IS4302/IS4302_GrpProject/contracts/CertificateStore.sol",
  "compiler": {
    "name": "solc",
    "version": "0.5.16+commit.9c3226ce.Emscripten.clang"
  },
  "schemaVersion": "3.4.4",
  "updatedAt": "2022-04-10T07:35:12.647Z",
  "networkType": "ethereum",
  "devdoc": {
    "methods": {}
  },
  "userdoc": {
    "methods": {}
  }
}