{
  "contractName": "Certificate",
  "abi": [
    {
      "inputs": [
        {
          "internalType": "contract CertificateNetwork",
          "name": "cn",
          "type": "address"
        },
        {
          "internalType": "contract CertificateStore",
          "name": "cs",
          "type": "address"
        }
      ],
      "payable": false,
      "stateMutability": "nonpayable",
      "type": "constructor"
    },
    {
      "anonymous": false,
      "inputs": [
        {
          "indexed": false,
          "internalType": "uint256",
          "name": "certId",
          "type": "uint256"
        },
        {
          "indexed": false,
          "internalType": "address",
          "name": "issuerAddr",
          "type": "address"
        },
        {
          "indexed": false,
          "internalType": "address",
          "name": "subjectAddr",
          "type": "address"
        }
      ],
      "name": "IssuedCertificate",
      "type": "event"
    },
    {
      "anonymous": false,
      "inputs": [
        {
          "indexed": false,
          "internalType": "address",
          "name": "issuer",
          "type": "address"
        },
        {
          "indexed": false,
          "internalType": "uint256",
          "name": "certId",
          "type": "uint256"
        }
      ],
      "name": "RevokeCertificate",
      "type": "event"
    },
    {
      "constant": false,
      "inputs": [
        {
          "internalType": "address",
          "name": "subjectAddr",
          "type": "address"
        },
        {
          "internalType": "string",
          "name": "_issuerName",
          "type": "string"
        },
        {
          "internalType": "string",
          "name": "_nric",
          "type": "string"
        },
        {
          "internalType": "string",
          "name": "_serialNo",
          "type": "string"
        },
        {
          "internalType": "string",
          "name": "_title",
          "type": "string"
        },
        {
          "internalType": "string",
          "name": "_completionDate",
          "type": "string"
        }
      ],
      "name": "issueCertificate",
      "outputs": [
        {
          "internalType": "uint256",
          "name": "",
          "type": "uint256"
        }
      ],
      "payable": false,
      "stateMutability": "nonpayable",
      "type": "function"
    },
    {
      "constant": false,
      "inputs": [
        {
          "internalType": "uint256",
          "name": "certId",
          "type": "uint256"
        }
      ],
      "name": "revokeCert",
      "outputs": [],
      "payable": false,
      "stateMutability": "nonpayable",
      "type": "function"
    },
    {
      "constant": true,
      "inputs": [],
      "name": "getCertListById",
      "outputs": [
        {
          "internalType": "uint256[]",
          "name": "",
          "type": "uint256[]"
        }
      ],
      "payable": false,
      "stateMutability": "view",
      "type": "function"
    },
    {
      "constant": true,
      "inputs": [],
      "name": "getCerts",
      "outputs": [
        {
          "components": [
            {
              "internalType": "uint256",
              "name": "certId",
              "type": "uint256"
            },
            {
              "internalType": "address",
              "name": "owner",
              "type": "address"
            },
            {
              "internalType": "address",
              "name": "issuerAddr",
              "type": "address"
            },
            {
              "internalType": "string",
              "name": "issuerName",
              "type": "string"
            },
            {
              "internalType": "uint256",
              "name": "creationDate",
              "type": "uint256"
            },
            {
              "internalType": "string",
              "name": "nric",
              "type": "string"
            },
            {
              "internalType": "string",
              "name": "serialNo",
              "type": "string"
            },
            {
              "internalType": "string",
              "name": "title",
              "type": "string"
            },
            {
              "internalType": "string",
              "name": "completionDate",
              "type": "string"
            }
          ],
          "internalType": "struct Certificate.Cert[]",
          "name": "",
          "type": "tuple[]"
        }
      ],
      "payable": false,
      "stateMutability": "view",
      "type": "function"
    },
    {
      "constant": true,
      "inputs": [],
      "name": "getCertsRevokedList",
      "outputs": [
        {
          "internalType": "uint256[]",
          "name": "",
          "type": "uint256[]"
        }
      ],
      "payable": false,
      "stateMutability": "view",
      "type": "function"
    },
    {
      "constant": true,
      "inputs": [
        {
          "internalType": "address",
          "name": "subjectAddr",
          "type": "address"
        }
      ],
      "name": "getCertListVerifiers",
      "outputs": [
        {
          "components": [
            {
              "internalType": "uint256",
              "name": "certId",
              "type": "uint256"
            },
            {
              "internalType": "address",
              "name": "owner",
              "type": "address"
            },
            {
              "internalType": "address",
              "name": "issuerAddr",
              "type": "address"
            },
            {
              "internalType": "string",
              "name": "issuerName",
              "type": "string"
            },
            {
              "internalType": "uint256",
              "name": "creationDate",
              "type": "uint256"
            },
            {
              "internalType": "string",
              "name": "nric",
              "type": "string"
            },
            {
              "internalType": "string",
              "name": "serialNo",
              "type": "string"
            },
            {
              "internalType": "string",
              "name": "title",
              "type": "string"
            },
            {
              "internalType": "string",
              "name": "completionDate",
              "type": "string"
            }
          ],
          "internalType": "struct Certificate.Cert[]",
          "name": "",
          "type": "tuple[]"
        }
      ],
      "payable": false,
      "stateMutability": "view",
      "type": "function"
    },
    {
      "constant": true,
      "inputs": [
        {
          "internalType": "uint256",
          "name": "certId",
          "type": "uint256"
        }
      ],
      "name": "checkCertExist",
      "outputs": [
        {
          "internalType": "bool",
          "name": "",
          "type": "bool"
        }
      ],
      "payable": false,
      "stateMutability": "view",
      "type": "function"
    }
  ],
  "bytecode": "0x60806040523480156200001157600080fd5b5060405162003a4038038062003a408339818101604052620000379190810190620000f6565b816000806101000a81548173ffffffffffffffffffffffffffffffffffffffff021916908373ffffffffffffffffffffffffffffffffffffffff16021790555080600160006101000a81548173ffffffffffffffffffffffffffffffffffffffff021916908373ffffffffffffffffffffffffffffffffffffffff16021790555060016002819055505050620001c7565b600081519050620000d98162000193565b92915050565b600081519050620000f081620001ad565b92915050565b600080604083850312156200010a57600080fd5b60006200011a85828601620000c8565b92505060206200012d85828601620000df565b9150509250929050565b6000620001448262000173565b9050919050565b6000620001588262000137565b9050919050565b60006200016c8262000137565b9050919050565b600073ffffffffffffffffffffffffffffffffffffffff82169050919050565b6200019e816200014b565b8114620001aa57600080fd5b50565b620001b8816200015f565b8114620001c457600080fd5b50565b61386980620001d76000396000f3fe608060405234801561001057600080fd5b506004361061007d5760003560e01c80637af261cc1161005b5780637af261cc146100dc57806393d843551461010c578063dbcbc2721461013c578063de8c98fd146101585761007d565b80630975ee6f14610082578063403afe2d146100a057806357e995bb146100be575b600080fd5b61008a610188565b6040516100979190613471565b60405180910390f35b6100a86109fc565b6040516100b59190613493565b60405180910390f35b6100c6610e53565b6040516100d39190613493565b60405180910390f35b6100f660048036036100f19190810190612bcb565b6112ab565b6040516101039190613471565b60405180910390f35b61012660048036036101219190810190612d5f565b611c17565b60405161013391906134b5565b60405180910390f35b61015660048036036101519190810190612d5f565b611cb7565b005b610172600480360361016d9190810190612bf4565b6120f1565b60405161017f91906135b0565b60405180910390f35b60606040516020016101999061337a565b604051602081830303815290604052805190602001206000809054906101000a900473ffffffffffffffffffffffffffffffffffffffff1673ffffffffffffffffffffffffffffffffffffffff166327820851336040518263ffffffff1660e01b815260040161020991906133a4565b60006040518083038186803b15801561022157600080fd5b505afa158015610235573d6000803e3d6000fd5b505050506040513d6000823e3d601f19601f8201168201806040525061025e9190810190612d1e565b60405160200161026e9190613363565b604051602081830303815290604052805190602001201480610387575060405160200161029a9061338f565b604051602081830303815290604052805190602001206000809054906101000a900473ffffffffffffffffffffffffffffffffffffffff1673ffffffffffffffffffffffffffffffffffffffff166327820851336040518263ffffffff1660e01b815260040161030a91906133a4565b60006040518083038186803b15801561032257600080fd5b505afa158015610336573d6000803e3d6000fd5b505050506040513d6000823e3d601f19601f8201168201806040525061035f9190810190612d1e565b60405160200161036f9190613363565b60405160208183030381529060405280519060200120145b6103c6576040517f08c379a00000000000000000000000000000000000000000000000000000000081526004016103bd90613550565b60405180910390fd5b6060600660003373ffffffffffffffffffffffffffffffffffffffff1673ffffffffffffffffffffffffffffffffffffffff16815260200190815260200160002080548060200260200160405190810160405280929190818152602001828054801561045157602002820191906000526020600020905b81548152602001906001019080831161043d575b505050505090506060815160405190808252806020026020018201604052801561049557816020015b610482612907565b81526020019060019003908161047a5790505b509050600080905060008090505b835181101561096b57600560003373ffffffffffffffffffffffffffffffffffffffff1673ffffffffffffffffffffffffffffffffffffffff16815260200190815260200160002060008583815181106104f957fe5b6020026020010151815260200190815260200160002060009054906101000a900460ff161561095e576003600085838151811061053257fe5b6020026020010151815260200190815260200160002060405180610120016040529081600082015481526020016001820160009054906101000a900473ffffffffffffffffffffffffffffffffffffffff1673ffffffffffffffffffffffffffffffffffffffff1673ffffffffffffffffffffffffffffffffffffffff1681526020016002820160009054906101000a900473ffffffffffffffffffffffffffffffffffffffff1673ffffffffffffffffffffffffffffffffffffffff1673ffffffffffffffffffffffffffffffffffffffff168152602001600382018054600181600116156101000203166002900480601f0160208091040260200160405190810160405280929190818152602001828054600181600116156101000203166002900480156106a35780601f10610678576101008083540402835291602001916106a3565b820191906000526020600020905b81548152906001019060200180831161068657829003601f168201915b5050505050815260200160048201548152602001600582018054600181600116156101000203166002900480601f01602080910402602001604051908101604052809291908181526020018280546001816001161561010002031660029004801561074f5780601f106107245761010080835404028352916020019161074f565b820191906000526020600020905b81548152906001019060200180831161073257829003601f168201915b50505050508152602001600682018054600181600116156101000203166002900480601f0160208091040260200160405190810160405280929190818152602001828054600181600116156101000203166002900480156107f15780601f106107c6576101008083540402835291602001916107f1565b820191906000526020600020905b8154815290600101906020018083116107d457829003601f168201915b50505050508152602001600782018054600181600116156101000203166002900480601f0160208091040260200160405190810160405280929190818152602001828054600181600116156101000203166002900480156108935780601f1061086857610100808354040283529160200191610893565b820191906000526020600020905b81548152906001019060200180831161087657829003601f168201915b50505050508152602001600882018054600181600116156101000203166002900480601f0160208091040260200160405190810160405280929190818152602001828054600181600116156101000203166002900480156109355780601f1061090a57610100808354040283529160200191610935565b820191906000526020600020905b81548152906001019060200180831161091857829003601f168201915b50505050508152505083838151811061094a57fe5b602002602001018190525081806001019250505b80806001019150506104a3565b506060816040519080825280602002602001820160405280156109a857816020015b610995612907565b81526020019060019003908161098d5790505b50905060008090505b828110156109f1578381815181106109c557fe5b60200260200101518282815181106109d957fe5b602002602001018190525080806001019150506109b1565b508094505050505090565b6060604051602001610a0d9061337a565b604051602081830303815290604052805190602001206000809054906101000a900473ffffffffffffffffffffffffffffffffffffffff1673ffffffffffffffffffffffffffffffffffffffff166327820851336040518263ffffffff1660e01b8152600401610a7d91906133a4565b60006040518083038186803b158015610a9557600080fd5b505afa158015610aa9573d6000803e3d6000fd5b505050506040513d6000823e3d601f19601f82011682018060405250610ad29190810190612d1e565b604051602001610ae29190613363565b604051602081830303815290604052805190602001201480610bfb5750604051602001610b0e9061338f565b604051602081830303815290604052805190602001206000809054906101000a900473ffffffffffffffffffffffffffffffffffffffff1673ffffffffffffffffffffffffffffffffffffffff166327820851336040518263ffffffff1660e01b8152600401610b7e91906133a4565b60006040518083038186803b158015610b9657600080fd5b505afa158015610baa573d6000803e3d6000fd5b505050506040513d6000823e3d601f19601f82011682018060405250610bd39190810190612d1e565b604051602001610be39190613363565b60405160208183030381529060405280519060200120145b610c3a576040517f08c379a0000000000000000000000000000000000000000000000000000000008152600401610c3190613550565b60405180910390fd5b6060600660003373ffffffffffffffffffffffffffffffffffffffff1673ffffffffffffffffffffffffffffffffffffffff168152602001908152602001600020805480602002602001604051908101604052809291908181526020018280548015610cc557602002820191906000526020600020905b815481526020019060010190808311610cb1575b5050505050905060608151604051908082528060200260200182016040528015610cfe5781602001602082028038833980820191505090505b509050600080905060008090505b8351811015610dcc57600560003373ffffffffffffffffffffffffffffffffffffffff1673ffffffffffffffffffffffffffffffffffffffff1681526020019081526020016000206000858381518110610d6257fe5b6020026020010151815260200190815260200160002060009054906101000a900460ff16610dbf57838181518110610d9657fe5b6020026020010151838381518110610daa57fe5b60200260200101818152505081806001019250505b8080600101915050610d0c565b50606081604051908082528060200260200182016040528015610dfe5781602001602082028038833980820191505090505b50905060008090505b82811015610e4857838181518110610e1b57fe5b6020026020010151828281518110610e2f57fe5b6020026020010181815250508080600101915050610e07565b508094505050505090565b6060604051602001610e649061337a565b604051602081830303815290604052805190602001206000809054906101000a900473ffffffffffffffffffffffffffffffffffffffff1673ffffffffffffffffffffffffffffffffffffffff166327820851336040518263ffffffff1660e01b8152600401610ed491906133a4565b60006040518083038186803b158015610eec57600080fd5b505afa158015610f00573d6000803e3d6000fd5b505050506040513d6000823e3d601f19601f82011682018060405250610f299190810190612d1e565b604051602001610f399190613363565b6040516020818303038152906040528051906020012014806110525750604051602001610f659061338f565b604051602081830303815290604052805190602001206000809054906101000a900473ffffffffffffffffffffffffffffffffffffffff1673ffffffffffffffffffffffffffffffffffffffff166327820851336040518263ffffffff1660e01b8152600401610fd591906133a4565b60006040518083038186803b158015610fed57600080fd5b505afa158015611001573d6000803e3d6000fd5b505050506040513d6000823e3d601f19601f8201168201806040525061102a9190810190612d1e565b60405160200161103a9190613363565b60405160208183030381529060405280519060200120145b611091576040517f08c379a000000000000000000000000000000000000000000000000000000000815260040161108890613550565b60405180910390fd5b6060600660003373ffffffffffffffffffffffffffffffffffffffff1673ffffffffffffffffffffffffffffffffffffffff16815260200190815260200160002080548060200260200160405190810160405280929190818152602001828054801561111c57602002820191906000526020600020905b815481526020019060010190808311611108575b50505050509050606081516040519080825280602002602001820160405280156111555781602001602082028038833980820191505090505b509050600080905060008090505b835181101561122457600560003373ffffffffffffffffffffffffffffffffffffffff1673ffffffffffffffffffffffffffffffffffffffff16815260200190815260200160002060008583815181106111b957fe5b6020026020010151815260200190815260200160002060009054906101000a900460ff1615611217578381815181106111ee57fe5b602002602001015183838151811061120257fe5b60200260200101818152505081806001019250505b8080600101915050611163565b506060816040519080825280602002602001820160405280156112565781602001602082028038833980820191505090505b50905060008090505b828110156112a05783818151811061127357fe5b602002602001015182828151811061128757fe5b602002602001018181525050808060010191505061125f565b508094505050505090565b60606040518060400160405280600881526020017f56657269666965720000000000000000000000000000000000000000000000008152506000809054906101000a900473ffffffffffffffffffffffffffffffffffffffff1673ffffffffffffffffffffffffffffffffffffffff1663ffb28d9c33836040518363ffffffff1660e01b815260040161133f9291906133e8565b60206040518083038186803b15801561135757600080fd5b505afa15801561136b573d6000803e3d6000fd5b505050506040513d601f19601f8201168201806040525061138f9190810190612cf5565b6113ce576040517f08c379a00000000000000000000000000000000000000000000000000000000081526004016113c590613550565b60405180910390fd5b826040518060400160405280600781526020017f5375626a656374000000000000000000000000000000000000000000000000008152506000809054906101000a900473ffffffffffffffffffffffffffffffffffffffff1673ffffffffffffffffffffffffffffffffffffffff1663ffb28d9c83836040518363ffffffff1660e01b8152600401611461929190613441565b60206040518083038186803b15801561147957600080fd5b505afa15801561148d573d6000803e3d6000fd5b505050506040513d601f19601f820116820180604052506114b19190810190612cf5565b6114f0576040517f08c379a00000000000000000000000000000000000000000000000000000000081526004016114e7906134d0565b60405180910390fd5b600160009054906101000a900473ffffffffffffffffffffffffffffffffffffffff1673ffffffffffffffffffffffffffffffffffffffff16639515359933876040518363ffffffff1660e01b815260040161154d9291906133bf565b60206040518083038186803b15801561156557600080fd5b505afa158015611579573d6000803e3d6000fd5b505050506040513d601f19601f8201168201806040525061159d9190810190612cf5565b6115dc576040517f08c379a00000000000000000000000000000000000000000000000000000000081526004016115d390613530565b60405180910390fd5b6060600660008773ffffffffffffffffffffffffffffffffffffffff1673ffffffffffffffffffffffffffffffffffffffff16815260200190815260200160002080548060200260200160405190810160405280929190818152602001828054801561166757602002820191906000526020600020905b815481526020019060010190808311611653575b50505050509050606081516040519080825280602002602001820160405280156116ab57816020015b611698612907565b8152602001906001900390816116905790505b509050600080905060008090505b8351811015611b8157600560008a73ffffffffffffffffffffffffffffffffffffffff1673ffffffffffffffffffffffffffffffffffffffff168152602001908152602001600020600085838151811061170f57fe5b6020026020010151815260200190815260200160002060009054906101000a900460ff1615611b74576003600085838151811061174857fe5b6020026020010151815260200190815260200160002060405180610120016040529081600082015481526020016001820160009054906101000a900473ffffffffffffffffffffffffffffffffffffffff1673ffffffffffffffffffffffffffffffffffffffff1673ffffffffffffffffffffffffffffffffffffffff1681526020016002820160009054906101000a900473ffffffffffffffffffffffffffffffffffffffff1673ffffffffffffffffffffffffffffffffffffffff1673ffffffffffffffffffffffffffffffffffffffff168152602001600382018054600181600116156101000203166002900480601f0160208091040260200160405190810160405280929190818152602001828054600181600116156101000203166002900480156118b95780601f1061188e576101008083540402835291602001916118b9565b820191906000526020600020905b81548152906001019060200180831161189c57829003601f168201915b5050505050815260200160048201548152602001600582018054600181600116156101000203166002900480601f0160208091040260200160405190810160405280929190818152602001828054600181600116156101000203166002900480156119655780601f1061193a57610100808354040283529160200191611965565b820191906000526020600020905b81548152906001019060200180831161194857829003601f168201915b50505050508152602001600682018054600181600116156101000203166002900480601f016020809104026020016040519081016040528092919081815260200182805460018160011615610100020316600290048015611a075780601f106119dc57610100808354040283529160200191611a07565b820191906000526020600020905b8154815290600101906020018083116119ea57829003601f168201915b50505050508152602001600782018054600181600116156101000203166002900480601f016020809104026020016040519081016040528092919081815260200182805460018160011615610100020316600290048015611aa95780601f10611a7e57610100808354040283529160200191611aa9565b820191906000526020600020905b815481529060010190602001808311611a8c57829003601f168201915b50505050508152602001600882018054600181600116156101000203166002900480601f016020809104026020016040519081016040528092919081815260200182805460018160011615610100020316600290048015611b4b5780601f10611b2057610100808354040283529160200191611b4b565b820191906000526020600020905b815481529060010190602001808311611b2e57829003601f168201915b505050505081525050838381518110611b6057fe5b602002602001018190525081806001019250505b80806001019150506116b9565b50606081604051908082528060200260200182016040528015611bbe57816020015b611bab612907565b815260200190600190039081611ba35790505b50905060008090505b82811015611c0757838181518110611bdb57fe5b6020026020010151828281518110611bef57fe5b60200260200101819052508080600101915050611bc7565b5080975050505050505050919050565b60008160025481108015611c4f5750600115156004600083815260200190815260200160002060009054906101000a900460ff161515145b611c8e576040517f08c379a0000000000000000000000000000000000000000000000000000000008152600401611c8590613590565b60405180910390fd5b6004600084815260200190815260200160002060009054906101000a900460ff16915050919050565b6040518060400160405280600681526020017f49737375657200000000000000000000000000000000000000000000000000008152506000809054906101000a900473ffffffffffffffffffffffffffffffffffffffff1673ffffffffffffffffffffffffffffffffffffffff1663ffb28d9c33836040518363ffffffff1660e01b8152600401611d499291906133e8565b60206040518083038186803b158015611d6157600080fd5b505afa158015611d75573d6000803e3d6000fd5b505050506040513d601f19601f82011682018060405250611d999190810190612cf5565b611dd8576040517f08c379a0000000000000000000000000000000000000000000000000000000008152600401611dcf90613550565b60405180910390fd5b813373ffffffffffffffffffffffffffffffffffffffff166003600083815260200190815260200160002060020160009054906101000a900473ffffffffffffffffffffffffffffffffffffffff1673ffffffffffffffffffffffffffffffffffffffff1614611e7d576040517f08c379a0000000000000000000000000000000000000000000000000000000008152600401611e7490613510565b60405180910390fd5b8260025481108015611eb35750600115156004600083815260200190815260200160002060009054906101000a900460ff161515145b611ef2576040517f08c379a0000000000000000000000000000000000000000000000000000000008152600401611ee990613590565b60405180910390fd5b60006003600086815260200190815260200160002060010160009054906101000a900473ffffffffffffffffffffffffffffffffffffffff169050600360008681526020019081526020016000206000808201600090556001820160006101000a81549073ffffffffffffffffffffffffffffffffffffffff02191690556002820160006101000a81549073ffffffffffffffffffffffffffffffffffffffff0219169055600382016000611fa7919061297f565b6004820160009055600582016000611fbf919061297f565b600682016000611fcf919061297f565b600782016000611fdf919061297f565b600882016000611fef919061297f565b5050600560008273ffffffffffffffffffffffffffffffffffffffff1673ffffffffffffffffffffffffffffffffffffffff168152602001908152602001600020600086815260200190815260200160002060006101000a81549060ff0219169055600560003373ffffffffffffffffffffffffffffffffffffffff1673ffffffffffffffffffffffffffffffffffffffff168152602001908152602001600020600086815260200190815260200160002060006101000a81549060ff02191690557fe72d680134b83b91d9f2abafcc3c5b2dfdf12328c4d679e62001676c04a866cb33866040516120e2929190613418565b60405180910390a15050505050565b60006040518060400160405280600681526020017f49737375657200000000000000000000000000000000000000000000000000008152506000809054906101000a900473ffffffffffffffffffffffffffffffffffffffff1673ffffffffffffffffffffffffffffffffffffffff1663ffb28d9c33836040518363ffffffff1660e01b81526004016121859291906133e8565b60206040518083038186803b15801561219d57600080fd5b505afa1580156121b1573d6000803e3d6000fd5b505050506040513d601f19601f820116820180604052506121d59190810190612cf5565b612214576040517f08c379a000000000000000000000000000000000000000000000000000000000815260040161220b90613550565b60405180910390fd5b876040518060400160405280600781526020017f5375626a656374000000000000000000000000000000000000000000000000008152506000809054906101000a900473ffffffffffffffffffffffffffffffffffffffff1673ffffffffffffffffffffffffffffffffffffffff1663ffb28d9c83836040518363ffffffff1660e01b81526004016122a7929190613441565b60206040518083038186803b1580156122bf57600080fd5b505afa1580156122d3573d6000803e3d6000fd5b505050506040513d601f19601f820116820180604052506122f79190810190612cf5565b612336576040517f08c379a000000000000000000000000000000000000000000000000000000000815260040161232d906134d0565b60405180910390fd5b600160009054906101000a900473ffffffffffffffffffffffffffffffffffffffff1673ffffffffffffffffffffffffffffffffffffffff1663d0ae4356338c6040518363ffffffff1660e01b81526004016123939291906133bf565b60206040518083038186803b1580156123ab57600080fd5b505afa1580156123bf573d6000803e3d6000fd5b505050506040513d601f19601f820116820180604052506123e39190810190612cf5565b612422576040517f08c379a000000000000000000000000000000000000000000000000000000000815260040161241990613570565b60405180910390fd5b600160009054906101000a900473ffffffffffffffffffffffffffffffffffffffff1673ffffffffffffffffffffffffffffffffffffffff16639cb596e5338c6040518363ffffffff1660e01b815260040161247f9291906133bf565b60206040518083038186803b15801561249757600080fd5b505afa1580156124ab573d6000803e3d6000fd5b505050506040513d601f19601f820116820180604052506124cf9190810190612cf5565b61250e576040517f08c379a0000000000000000000000000000000000000000000000000000000008152600401612505906134f0565b60405180910390fd5b60006002600081548092919060010191905055905060004290506125306129c7565b6040518061012001604052808481526020018e73ffffffffffffffffffffffffffffffffffffffff1681526020013373ffffffffffffffffffffffffffffffffffffffff1681526020018d81526020018381526020018c81526020018b81526020018a815260200189815250905080600360008581526020019081526020016000206000820151816000015560208201518160010160006101000a81548173ffffffffffffffffffffffffffffffffffffffff021916908373ffffffffffffffffffffffffffffffffffffffff16021790555060408201518160020160006101000a81548173ffffffffffffffffffffffffffffffffffffffff021916908373ffffffffffffffffffffffffffffffffffffffff1602179055506060820151816003019080519060200190612666929190612a3f565b506080820151816004015560a082015181600501908051906020019061268d929190612a3f565b5060c08201518160060190805190602001906126aa929190612a3f565b5060e08201518160070190805190602001906126c7929190612a3f565b506101008201518160080190805190602001906126e5929190612a3f565b5090505060016004600085815260200190815260200160002060006101000a81548160ff021916908315150217905550600660008e73ffffffffffffffffffffffffffffffffffffffff1673ffffffffffffffffffffffffffffffffffffffff1681526020019081526020016000208390806001815401808255809150509060018203906000526020600020016000909192909190915055506001600560008f73ffffffffffffffffffffffffffffffffffffffff1673ffffffffffffffffffffffffffffffffffffffff168152602001908152602001600020600085815260200190815260200160002060006101000a81548160ff021916908315150217905550600660003373ffffffffffffffffffffffffffffffffffffffff1673ffffffffffffffffffffffffffffffffffffffff1681526020019081526020016000208390806001815401808255809150509060018203906000526020600020016000909192909190915055506001600560003373ffffffffffffffffffffffffffffffffffffffff1673ffffffffffffffffffffffffffffffffffffffff168152602001908152602001600020600085815260200190815260200160002060006101000a81548160ff0219169083151502179055507f52775ded20614b213cad95910a18378999957eaf600abebde11f2a055710a62683338f6040516128ec939291906135cb565b60405180910390a18296505050505050509695505050505050565b60405180610120016040528060008152602001600073ffffffffffffffffffffffffffffffffffffffff168152602001600073ffffffffffffffffffffffffffffffffffffffff1681526020016060815260200160008152602001606081526020016060815260200160608152602001606081525090565b50805460018160011615610100020316600290046000825580601f106129a557506129c4565b601f0160209004906000526020600020908101906129c39190612abf565b5b50565b60405180610120016040528060008152602001600073ffffffffffffffffffffffffffffffffffffffff168152602001600073ffffffffffffffffffffffffffffffffffffffff1681526020016060815260200160008152602001606081526020016060815260200160608152602001606081525090565b828054600181600116156101000203166002900490600052602060002090601f016020900481019282601f10612a8057805160ff1916838001178555612aae565b82800160010185558215612aae579182015b82811115612aad578251825591602001919060010190612a92565b5b509050612abb9190612abf565b5090565b612ae191905b80821115612add576000816000905550600101612ac5565b5090565b90565b600081359050612af3816137e1565b92915050565b600081519050612b08816137f8565b92915050565b600082601f830112612b1f57600080fd5b8135612b32612b2d8261362f565b613602565b91508082526020830160208301858383011115612b4e57600080fd5b612b5983828461378e565b50505092915050565b600082601f830112612b7357600080fd5b8151612b86612b818261362f565b613602565b91508082526020830160208301858383011115612ba257600080fd5b612bad83828461379d565b50505092915050565b600081359050612bc58161380f565b92915050565b600060208284031215612bdd57600080fd5b6000612beb84828501612ae4565b91505092915050565b60008060008060008060c08789031215612c0d57600080fd5b6000612c1b89828a01612ae4565b965050602087013567ffffffffffffffff811115612c3857600080fd5b612c4489828a01612b0e565b955050604087013567ffffffffffffffff811115612c6157600080fd5b612c6d89828a01612b0e565b945050606087013567ffffffffffffffff811115612c8a57600080fd5b612c9689828a01612b0e565b935050608087013567ffffffffffffffff811115612cb357600080fd5b612cbf89828a01612b0e565b92505060a087013567ffffffffffffffff811115612cdc57600080fd5b612ce889828a01612b0e565b9150509295509295509295565b600060208284031215612d0757600080fd5b6000612d1584828501612af9565b91505092915050565b600060208284031215612d3057600080fd5b600082015167ffffffffffffffff811115612d4a57600080fd5b612d5684828501612b62565b91505092915050565b600060208284031215612d7157600080fd5b6000612d7f84828501612bb6565b91505092915050565b6000612d948383613264565b905092915050565b6000612da88383613345565b60208301905092915050565b612dbd81613758565b82525050565b612dcc81613710565b82525050565b612ddb81613710565b82525050565b6000612dec8261367b565b612df681856136c1565b935083602082028501612e088561365b565b8060005b85811015612e445784840389528151612e258582612d88565b9450612e30836136a7565b925060208a01995050600181019050612e0c565b50829750879550505050505092915050565b6000612e6182613686565b612e6b81856136d2565b9350612e768361366b565b8060005b83811015612ea7578151612e8e8882612d9c565b9750612e99836136b4565b925050600181019050612e7a565b5085935050505092915050565b612ebd81613722565b82525050565b6000612ece8261369c565b612ed881856136f4565b9350612ee881856020860161379d565b612ef1816137d0565b840191505092915050565b6000612f078261369c565b612f118185613705565b9350612f2181856020860161379d565b80840191505092915050565b6000612f3882613691565b612f4281856136e3565b9350612f5281856020860161379d565b612f5b816137d0565b840191505092915050565b6000612f736039836136f4565b91507f5468697320616374696f6e2063616e206f6e6c7920626520706572666f726d6560008301527f64206279207573657220696e206f7572206e6574776f726b2e000000000000006020830152604082019050919050565b6000612fd9601a836136f4565b91507f5375626a656374206973206e6f7420617574686f72697a65642e0000000000006000830152602082019050919050565b6000613019603c836136f4565b91507f5468697320616374696f6e2063616e206f6e6c7920626520706572666f726d6560008301527f6420627920746865206365727469666963617465206973737565722e000000006020830152604082019050919050565b600061307f600783613705565b91507f5375626a656374000000000000000000000000000000000000000000000000006000830152600782019050919050565b60006130bf6038836136f4565b91507f596f752068617665206e6f2076696577696e672061636365737320666f72207460008301527f6865207375626a656374206365727469666963617465732e00000000000000006020830152604082019050919050565b6000613125600683613705565b91507f49737375657200000000000000000000000000000000000000000000000000006000830152600682019050919050565b60006131656036836136f4565b91507f5468697320616374696f6e2063616e206f6e6c7920626520706572666f726d6560008301527f6420627920617574686f72697a656420726f6c65732e000000000000000000006020830152604082019050919050565b60006131cb6021836136f4565b91507f5375626a65637420686173206e6f74206d61646520616e79207265717565737460008301527f2e000000000000000000000000000000000000000000000000000000000000006020830152604082019050919050565b6000613231601a836136f4565b91507f546865206365727469666963617465206e6f742076616c69642e0000000000006000830152602082019050919050565b60006101208301600083015161327d6000860182613345565b5060208301516132906020860182612dc3565b5060408301516132a36040860182612dc3565b50606083015184820360608601526132bb8282612f2d565b91505060808301516132d06080860182613345565b5060a083015184820360a08601526132e88282612f2d565b91505060c083015184820360c08601526133028282612f2d565b91505060e083015184820360e086015261331c8282612f2d565b9150506101008301518482036101008601526133388282612f2d565b9150508091505092915050565b61334e8161374e565b82525050565b61335d8161374e565b82525050565b600061336f8284612efc565b915081905092915050565b600061338582613072565b9150819050919050565b600061339a82613118565b9150819050919050565b60006020820190506133b96000830184612db4565b92915050565b60006040820190506133d46000830185612db4565b6133e16020830184612dd2565b9392505050565b60006040820190506133fd6000830185612db4565b818103602083015261340f8184612ec3565b90509392505050565b600060408201905061342d6000830185612db4565b61343a6020830184613354565b9392505050565b60006040820190506134566000830185612dd2565b81810360208301526134688184612ec3565b90509392505050565b6000602082019050818103600083015261348b8184612de1565b905092915050565b600060208201905081810360008301526134ad8184612e56565b905092915050565b60006020820190506134ca6000830184612eb4565b92915050565b600060208201905081810360008301526134e981612f66565b9050919050565b6000602082019050818103600083015261350981612fcc565b9050919050565b600060208201905081810360008301526135298161300c565b9050919050565b60006020820190508181036000830152613549816130b2565b9050919050565b6000602082019050818103600083015261356981613158565b9050919050565b60006020820190508181036000830152613589816131be565b9050919050565b600060208201905081810360008301526135a981613224565b9050919050565b60006020820190506135c56000830184613354565b92915050565b60006060820190506135e06000830186613354565b6135ed6020830185612db4565b6135fa6040830184612dd2565b949350505050565b6000604051905081810181811067ffffffffffffffff8211171561362557600080fd5b8060405250919050565b600067ffffffffffffffff82111561364657600080fd5b601f19601f8301169050602081019050919050565b6000819050602082019050919050565b6000819050602082019050919050565b600081519050919050565b600081519050919050565b600081519050919050565b600081519050919050565b6000602082019050919050565b6000602082019050919050565b600082825260208201905092915050565b600082825260208201905092915050565b600082825260208201905092915050565b600082825260208201905092915050565b600081905092915050565b600061371b8261372e565b9050919050565b60008115159050919050565b600073ffffffffffffffffffffffffffffffffffffffff82169050919050565b6000819050919050565b60006137638261376a565b9050919050565b60006137758261377c565b9050919050565b60006137878261372e565b9050919050565b82818337600083830152505050565b60005b838110156137bb5780820151818401526020810190506137a0565b838111156137ca576000848401525b50505050565b6000601f19601f8301169050919050565b6137ea81613710565b81146137f557600080fd5b50565b61380181613722565b811461380c57600080fd5b50565b6138188161374e565b811461382357600080fd5b5056fea365627a7a72315820687a9e09f1f11396adbba585a6f24e17d462d8c6dca5f40cbcea50924f412f226c6578706572696d656e74616cf564736f6c63430005100040",
  "source": "pragma solidity >=0.5.0;\npragma experimental ABIEncoderV2;\n\nimport \"./CertificateNetwork.sol\";\nimport \"./CertificateStore.sol\";\n\ncontract Certificate {\n    CertificateNetwork certNetwork;\n    CertificateStore certStore;\n\n    uint256 internal totalCert;\n\n    // Mapping to all created certificates\n    mapping(uint256 => Cert) private certsMap;\n    mapping(uint256 => bool) private certExistMap;\n\n    // S>C: Valid certs, all issued officially and after denys\n    // I>C: Valid certs, all issued officially and after denys\n    mapping(address => mapping(uint256 => bool)) private addrToCertMap;\n\n    // S>C: Map subject to all issued certs(by certId) received by issuers\n    // I>C: Map issuer to all issued certs(by certId)\n    mapping(address => uint256[]) private certHistMap;\n\n    // Events\n    event IssuedCertificate(\n        uint256 certId,\n        address issuerAddr,\n        address subjectAddr\n    );\n    event RevokeCertificate(address issuer, uint256 certId);\n\n    // Structs\n    struct Cert {\n        uint256 certId; //Get CertId\n        address owner; // Subject address\n        address issuerAddr; // Issuer address\n        string issuerName; // (NUS,NTU,Coursera,LinkedIn)\n        uint256 creationDate; // cert creation date\n        string nric; // s9673333A\n        string serialNo; //https://www.ibm.com/docs/en/ibm-mq/7.5?topic=certificates-what-is-in-digital-certificate\n        string title; // cert title\n        string completionDate; // date which subject completed the cert requirements\n    }\n\n    constructor(CertificateNetwork cn, CertificateStore cs) public {\n        certNetwork = cn;\n        certStore = cs;\n        totalCert = 1;\n    }\n\n    // Modifiers\n    modifier validCertId(uint256 certId) {\n        require(\n            certId < totalCert && certExistMap[certId] == true,\n            \"The certificate not valid.\"\n        );\n        _;\n    }\n    modifier onlyCertOwner(uint256 certId) {\n        require(\n            certsMap[certId].owner == msg.sender,\n            \"This action can only be performed by the certificate owner.\"\n        );\n        _;\n    }\n    modifier onlyCertIssuer(uint256 certId) {\n        require(\n            certsMap[certId].issuerAddr == msg.sender,\n            \"This action can only be performed by the certificate issuer.\"\n        );\n        _;\n    }\n    // Modifiers\n    modifier onlyValidRoles(string memory role) {\n        require(\n            certNetwork.checkUserExist(msg.sender, role),\n            \"This action can only be performed by authorized roles.\"\n        );\n        _;\n    }\n    // Used to check if a user exist, i.e. issue cert to subject, check if that subject exist in our system.\n    modifier userExist(address addr, string memory role) {\n        require(\n            certNetwork.checkUserExist(addr, role),\n            \"This action can only be performed by user in our network.\"\n        );\n        _;\n    }\n    modifier onlyIssuerSubject() {\n        require(\n            keccak256(abi.encodePacked(certNetwork.getUserRole(msg.sender))) ==\n                keccak256(abi.encodePacked(\"Subject\")) ||\n                keccak256(\n                    abi.encodePacked(certNetwork.getUserRole(msg.sender))\n                ) ==\n                keccak256(abi.encodePacked(\"Issuer\")),\n            \"This action can only be performed by authorized roles.\"\n        );\n        _;\n    }\n\n    function issueCertificate(\n        address subjectAddr,\n        string memory _issuerName,\n        string memory _nric,\n        string memory _serialNo,\n        string memory _title,\n        string memory _completionDate\n    )\n        public\n        onlyValidRoles(\"Issuer\")\n        userExist(subjectAddr, \"Subject\")\n        returns (uint256)\n    {\n        require(\n            certStore.getRequestStatus(msg.sender, subjectAddr),\n            \"Subject has not made any request.\"\n        );\n        require(\n            certStore.getIssueStatus(msg.sender, subjectAddr),\n            \"Subject is not authorized.\"\n        );\n\n        uint256 newCertId = totalCert++;\n        uint256 _creationDate = block.timestamp;\n\n        Cert memory newCert = Cert(\n            newCertId,\n            subjectAddr,\n            msg.sender,\n            _issuerName,\n            _creationDate,\n            _nric,\n            _serialNo,\n            _title,\n            _completionDate\n        );\n        // add to cert mapping\n        certsMap[newCertId] = newCert;\n        certExistMap[newCertId] = true;\n\n        // record subject received cert\n        certHistMap[subjectAddr].push(newCertId);\n        addrToCertMap[subjectAddr][newCertId] = true;\n\n        // record issuer issued cert\n        certHistMap[msg.sender].push(newCertId);\n        addrToCertMap[msg.sender][newCertId] = true;\n\n        // REMOVED: similar data structure thus use one mapping overall.\n        // certExistMap[newCertId] = true; // for cert exist modifier\n        // addrToCertMap[subjectAddr].push(newCertId); // add to subject list of certs\n        // addrToCertMap[subjectAddr][newCertId] = true;\n        // addrToCertMap[msg.sender].push(newCertId); // add to issuer list of certs\n        // addrToCertMap[msg.sender][newCertId] = true;\n\n        emit IssuedCertificate(newCertId, msg.sender, subjectAddr); // Log event\n\n        return newCertId;\n    }\n\n    // Delete cert in case of wrong issue or revoked.\n    // Assumption:\n    // 1. we do not delete the cert block, but set the existence to false to indicate it was deleted\n    function revokeCert(uint256 certId)\n        public\n        onlyValidRoles(\"Issuer\")\n        onlyCertIssuer(certId)\n        validCertId(certId)\n    {\n        address subjectAddr = certsMap[certId].owner; // get owner of cert\n        delete certsMap[certId];\n        delete addrToCertMap[subjectAddr][certId]; // remove cert for subject\n        delete addrToCertMap[msg.sender][certId]; // remove cert for issuer\n\n        // REMOVED:\n        // certExistMap[certId] = false; // for cert exist modifier\n        // addrToCertMap[subjectAddr][certId] = false; // remove mapping\n        // addrToCertMap[msg.sender][certId] = false; // remove mapping\n        emit RevokeCertificate(msg.sender, certId);\n    }\n\n    function getCertListById()\n        public\n        view\n        onlyIssuerSubject\n        returns (uint256[] memory)\n    {\n        uint256[] memory certList = certHistMap[msg.sender];\n        uint256[] memory tempList = new uint256[](certList.length);\n        uint256 y = 0;\n        for (uint256 i = 0; i < certList.length; i++) {\n            if (addrToCertMap[msg.sender][certList[i]]) {\n                tempList[y] = certList[i]; // Get all viewable certs\n                // tempList[y] = certsMap[certList[i]];// Push entire cert struct\n                y++;\n            }\n        }\n        uint256[] memory newList = new uint256[](y);\n        for (uint256 i = 0; i < y; i++) {\n            newList[i] = tempList[i];\n        }\n        return newList;\n    }\n\n    function getCerts() public view onlyIssuerSubject returns (Cert[] memory) {\n        uint256[] memory certList = certHistMap[msg.sender];\n        Cert[] memory tempList = new Cert[](certList.length);\n        uint256 y = 0;\n        for (uint256 i = 0; i < certList.length; i++) {\n            if (addrToCertMap[msg.sender][certList[i]]) {\n                // tempList[i] = certList[i]; // Get all viewable certs\n                tempList[y] = certsMap[certList[i]];\n                y++;\n            }\n        }\n        Cert[] memory newList = new Cert[](y);\n        for (uint256 i = 0; i < y; i++) {\n            newList[i] = tempList[i];\n        }\n        return newList;\n    }\n\n    function getCertsRevokedList()\n        public\n        view\n        onlyIssuerSubject\n        returns (uint256[] memory)\n    {\n        uint256[] memory certList = certHistMap[msg.sender];\n        uint256[] memory tempList = new uint256[](certList.length);\n        uint256 y = 0;\n        for (uint256 i = 0; i < certList.length; i++) {\n            if (!addrToCertMap[msg.sender][certList[i]]) {\n                tempList[y] = certList[i]; // Get all viewable certs\n                // tempList[y] = certsMap[certList[i]];// Push entire cert struct\n                y++;\n            }\n        }\n        uint256[] memory newList = new uint256[](y);\n        for (uint256 i = 0; i < y; i++) {\n            newList[i] = tempList[i];\n        }\n        return newList;\n    }\n\n    function getCertListVerifiers(address subjectAddr)\n        public\n        view\n        onlyValidRoles(\"Verifier\")\n        userExist(subjectAddr, \"Subject\")\n        returns (Cert[] memory)\n    {\n        require(\n            certStore.getAccessStatus(msg.sender, subjectAddr),\n            \"You have no viewing access for the subject certificates.\"\n        );\n        uint256[] memory certList = certHistMap[subjectAddr];\n        Cert[] memory tempList = new Cert[](certList.length);\n        uint256 y = 0;\n        for (uint256 i = 0; i < certList.length; i++) {\n            if (addrToCertMap[subjectAddr][certList[i]]) {\n                tempList[y] = certsMap[certList[i]];\n                y++;\n            }\n        }\n        Cert[] memory newList = new Cert[](y);\n        for (uint256 i = 0; i < y; i++) {\n            newList[i] = tempList[i];\n        }\n        return newList;\n    }\n\n    function checkCertExist(uint256 certId)\n        public\n        view\n        validCertId(certId)\n        returns (bool)\n    {\n        return certExistMap[certId];\n    }\n}\n",
  "sourcePath": "/Users/xieran/Documents/GitHub/IS4302_Project/contracts/Certificate.sol",
  "compiler": {
    "name": "solc",
    "version": "0.5.16+commit.9c3226ce.Emscripten.clang"
  },
  "schemaVersion": "3.3.3",
  "updatedAt": "2022-04-08T06:21:23.534Z",
  "devdoc": {
    "methods": {}
  },
  "userdoc": {
    "methods": {}
  }
}