{
  "contractName": "CertificateStore",
  "abi": [
    {
      "inputs": [
        {
          "internalType": "contract CertificateNetwork",
          "name": "cn",
          "type": "address"
        }
      ],
      "payable": false,
      "stateMutability": "nonpayable",
      "type": "constructor"
    },
    {
      "anonymous": false,
      "inputs": [
        {
          "indexed": false,
          "internalType": "address",
          "name": "issuerAddr",
          "type": "address"
        },
        {
          "indexed": false,
          "internalType": "address",
          "name": "subjectAddr",
          "type": "address"
        }
      ],
      "name": "AcceptSubjectRequest",
      "type": "event"
    },
    {
      "anonymous": false,
      "inputs": [
        {
          "indexed": false,
          "internalType": "address",
          "name": "subjectAddr",
          "type": "address"
        },
        {
          "indexed": false,
          "internalType": "address",
          "name": "verifierAddr",
          "type": "address"
        }
      ],
      "name": "DenyAccessViewing",
      "type": "event"
    },
    {
      "anonymous": false,
      "inputs": [
        {
          "indexed": false,
          "internalType": "address",
          "name": "subjectAddr",
          "type": "address"
        },
        {
          "indexed": false,
          "internalType": "address",
          "name": "verifierAddr",
          "type": "address"
        }
      ],
      "name": "GiveAccessViewing",
      "type": "event"
    },
    {
      "anonymous": false,
      "inputs": [
        {
          "indexed": false,
          "internalType": "uint256",
          "name": "certId",
          "type": "uint256"
        },
        {
          "indexed": false,
          "internalType": "address",
          "name": "issuerAddr",
          "type": "address"
        },
        {
          "indexed": false,
          "internalType": "address",
          "name": "subjectAddr",
          "type": "address"
        }
      ],
      "name": "IssuedCertificate",
      "type": "event"
    },
    {
      "anonymous": false,
      "inputs": [
        {
          "indexed": false,
          "internalType": "address",
          "name": "issuerAddr",
          "type": "address"
        },
        {
          "indexed": false,
          "internalType": "address",
          "name": "subjectAddr",
          "type": "address"
        }
      ],
      "name": "RejectSubjectRequest",
      "type": "event"
    },
    {
      "anonymous": false,
      "inputs": [
        {
          "indexed": false,
          "internalType": "address",
          "name": "subjectAddr",
          "type": "address"
        },
        {
          "indexed": false,
          "internalType": "address",
          "name": "issuerAddr",
          "type": "address"
        }
      ],
      "name": "RequestCertificate",
      "type": "event"
    },
    {
      "anonymous": false,
      "inputs": [
        {
          "indexed": false,
          "internalType": "address",
          "name": "issuer",
          "type": "address"
        },
        {
          "indexed": false,
          "internalType": "uint256",
          "name": "certId",
          "type": "uint256"
        }
      ],
      "name": "RevokeCertificate",
      "type": "event"
    },
    {
      "anonymous": false,
      "inputs": [
        {
          "indexed": false,
          "internalType": "address",
          "name": "verifierAddr",
          "type": "address"
        },
        {
          "indexed": false,
          "internalType": "address",
          "name": "subjectAddr",
          "type": "address"
        }
      ],
      "name": "ViewSubjectCerts",
      "type": "event"
    },
    {
      "anonymous": false,
      "inputs": [
        {
          "indexed": false,
          "internalType": "address",
          "name": "verifierAddr",
          "type": "address"
        },
        {
          "indexed": false,
          "internalType": "bool",
          "name": "status",
          "type": "bool"
        }
      ],
      "name": "ViewSubjectStatus",
      "type": "event"
    },
    {
      "anonymous": false,
      "inputs": [
        {
          "indexed": false,
          "internalType": "address",
          "name": "subjectAddr",
          "type": "address"
        },
        {
          "indexed": false,
          "internalType": "bool",
          "name": "status",
          "type": "bool"
        }
      ],
      "name": "ViewVerifierStatus",
      "type": "event"
    },
    {
      "constant": false,
      "inputs": [
        {
          "internalType": "address",
          "name": "issuerAddr",
          "type": "address"
        }
      ],
      "name": "requestCert",
      "outputs": [],
      "payable": false,
      "stateMutability": "nonpayable",
      "type": "function"
    },
    {
      "constant": false,
      "inputs": [
        {
          "internalType": "address",
          "name": "subjectAddr",
          "type": "address"
        }
      ],
      "name": "rejectRequest",
      "outputs": [],
      "payable": false,
      "stateMutability": "nonpayable",
      "type": "function"
    },
    {
      "constant": true,
      "inputs": [],
      "name": "getApprovedReqList",
      "outputs": [
        {
          "internalType": "address[]",
          "name": "",
          "type": "address[]"
        }
      ],
      "payable": false,
      "stateMutability": "view",
      "type": "function"
    },
    {
      "constant": true,
      "inputs": [],
      "name": "getRejectedReqList",
      "outputs": [
        {
          "internalType": "address[]",
          "name": "",
          "type": "address[]"
        }
      ],
      "payable": false,
      "stateMutability": "view",
      "type": "function"
    },
    {
      "constant": true,
      "inputs": [],
      "name": "getReqHist",
      "outputs": [
        {
          "internalType": "address[]",
          "name": "",
          "type": "address[]"
        }
      ],
      "payable": false,
      "stateMutability": "view",
      "type": "function"
    },
    {
      "constant": true,
      "inputs": [
        {
          "internalType": "address",
          "name": "addr",
          "type": "address"
        }
      ],
      "name": "checkRequest",
      "outputs": [
        {
          "internalType": "bool",
          "name": "",
          "type": "bool"
        }
      ],
      "payable": false,
      "stateMutability": "view",
      "type": "function"
    },
    {
      "constant": true,
      "inputs": [
        {
          "internalType": "address",
          "name": "issuerAddr",
          "type": "address"
        },
        {
          "internalType": "address",
          "name": "subjectAddr",
          "type": "address"
        }
      ],
      "name": "getRequestStatus",
      "outputs": [
        {
          "internalType": "bool",
          "name": "",
          "type": "bool"
        }
      ],
      "payable": false,
      "stateMutability": "view",
      "type": "function"
    },
    {
      "constant": true,
      "inputs": [
        {
          "internalType": "address",
          "name": "issuerAddr",
          "type": "address"
        },
        {
          "internalType": "address",
          "name": "subjectAddr",
          "type": "address"
        }
      ],
      "name": "getIssueStatus",
      "outputs": [
        {
          "internalType": "bool",
          "name": "",
          "type": "bool"
        }
      ],
      "payable": false,
      "stateMutability": "view",
      "type": "function"
    },
    {
      "constant": true,
      "inputs": [
        {
          "internalType": "address",
          "name": "verifierAddr",
          "type": "address"
        },
        {
          "internalType": "address",
          "name": "subjectAddr",
          "type": "address"
        }
      ],
      "name": "getAccessStatus",
      "outputs": [
        {
          "internalType": "bool",
          "name": "",
          "type": "bool"
        }
      ],
      "payable": false,
      "stateMutability": "view",
      "type": "function"
    },
    {
      "constant": false,
      "inputs": [
        {
          "internalType": "address",
          "name": "verifierAddr",
          "type": "address"
        }
      ],
      "name": "grantVerifier",
      "outputs": [],
      "payable": false,
      "stateMutability": "nonpayable",
      "type": "function"
    },
    {
      "constant": false,
      "inputs": [
        {
          "internalType": "address",
          "name": "verifierAddr",
          "type": "address"
        }
      ],
      "name": "denyVerifier",
      "outputs": [],
      "payable": false,
      "stateMutability": "nonpayable",
      "type": "function"
    },
    {
      "constant": true,
      "inputs": [
        {
          "internalType": "address",
          "name": "verifier",
          "type": "address"
        }
      ],
      "name": "checkVerifier",
      "outputs": [
        {
          "internalType": "bool",
          "name": "",
          "type": "bool"
        }
      ],
      "payable": false,
      "stateMutability": "view",
      "type": "function"
    },
    {
      "constant": true,
      "inputs": [
        {
          "internalType": "address",
          "name": "subject",
          "type": "address"
        }
      ],
      "name": "checkSubject",
      "outputs": [
        {
          "internalType": "bool",
          "name": "",
          "type": "bool"
        }
      ],
      "payable": false,
      "stateMutability": "view",
      "type": "function"
    },
    {
      "constant": true,
      "inputs": [],
      "name": "getGrantList",
      "outputs": [
        {
          "internalType": "address[]",
          "name": "",
          "type": "address[]"
        }
      ],
      "payable": false,
      "stateMutability": "view",
      "type": "function"
    },
    {
      "constant": true,
      "inputs": [],
      "name": "getDenyList",
      "outputs": [
        {
          "internalType": "address[]",
          "name": "",
          "type": "address[]"
        }
      ],
      "payable": false,
      "stateMutability": "view",
      "type": "function"
    }
  ],
  "bytecode": "0x60806040523480156200001157600080fd5b50604051620053e5380380620053e5833981810160405262000037919081019062000095565b806000806101000a81548173ffffffffffffffffffffffffffffffffffffffff021916908373ffffffffffffffffffffffffffffffffffffffff1602179055505062000123565b6000815190506200008f8162000109565b92915050565b600060208284031215620000a857600080fd5b6000620000b8848285016200007e565b91505092915050565b6000620000ce82620000e9565b9050919050565b6000620000e282620000c1565b9050919050565b600073ffffffffffffffffffffffffffffffffffffffff82169050919050565b6200011481620000d5565b81146200012057600080fd5b50565b6152b280620001336000396000f3fe608060405234801561001057600080fd5b50600436106100f55760003560e01c8063c601cd1211610097578063f30b8fce11610066578063f30b8fce14610284578063f777d0ac146102a2578063f855b366146102c0578063fdc704d7146102f0576100f5565b8063c601cd12146101fc578063ca07b4b41461021a578063d0ae435614610236578063d1329f0e14610266576100f5565b8063749b26d5116100d3578063749b26d514610164578063951535991461018057806395716f30146101b05780639cb596e5146101cc576100f5565b806307e75d66146100fa57806314e5735f1461012a5780635f889fe914610148575b600080fd5b610114600480360361010f91908101906146e1565b610320565b6040516101219190614f75565b60405180910390f35b6101326105f9565b60405161013f9190614f53565b60405180910390f35b610162600480360361015d91908101906146e1565b610bb4565b005b61017e600480360361017991908101906146e1565b611294565b005b61019a6004803603610195919081019061470a565b611974565b6040516101a79190614f75565b60405180910390f35b6101ca60048036036101c591908101906146e1565b611c50565b005b6101e660048036036101e1919081019061470a565b6120c5565b6040516101f39190614f75565b60405180910390f35b6102046123a1565b6040516102119190614f53565b60405180910390f35b610234600480360361022f91908101906146e1565b6128ba565b005b610250600480360361024b919081019061470a565b612df8565b60405161025d9190614f75565b60405180910390f35b61026e6130d4565b60405161027b9190614f53565b60405180910390f35b61028c61368f565b6040516102999190614f53565b60405180910390f35b6102aa6138f4565b6040516102b79190614f53565b60405180910390f35b6102da60048036036102d591908101906146e1565b613e0f565b6040516102e79190614f75565b60405180910390f35b61030a600480360361030591908101906146e1565b61438a565b6040516103179190614f75565b60405180910390f35b60006040518060400160405280600881526020017f56657269666965720000000000000000000000000000000000000000000000008152506000809054906101000a900473ffffffffffffffffffffffffffffffffffffffff1673ffffffffffffffffffffffffffffffffffffffff1663ffb28d9c33836040518363ffffffff1660e01b81526004016103b4929190614e97565b60206040518083038186803b1580156103cc57600080fd5b505afa1580156103e0573d6000803e3d6000fd5b505050506040513d601f19601f820116820180604052506104049190810190614746565b610443576040517f08c379a000000000000000000000000000000000000000000000000000000000815260040161043a90615050565b60405180910390fd5b826040518060400160405280600781526020017f5375626a656374000000000000000000000000000000000000000000000000008152506000809054906101000a900473ffffffffffffffffffffffffffffffffffffffff1673ffffffffffffffffffffffffffffffffffffffff1663ffb28d9c83836040518363ffffffff1660e01b81526004016104d6929190614f23565b60206040518083038186803b1580156104ee57600080fd5b505afa158015610502573d6000803e3d6000fd5b505050506040513d601f19601f820116820180604052506105269190810190614746565b610565576040517f08c379a000000000000000000000000000000000000000000000000000000000815260040161055c90615010565b60405180910390fd5b600560008673ffffffffffffffffffffffffffffffffffffffff1673ffffffffffffffffffffffffffffffffffffffff16815260200190815260200160002060003373ffffffffffffffffffffffffffffffffffffffff1673ffffffffffffffffffffffffffffffffffffffff16815260200190815260200160002060009054906101000a900460ff169350505050919050565b606060405160200161060a90614e0e565b604051602081830303815290604052805190602001206000809054906101000a900473ffffffffffffffffffffffffffffffffffffffff1673ffffffffffffffffffffffffffffffffffffffff166327820851336040518263ffffffff1660e01b815260040161067a9190614e53565b60006040518083038186803b15801561069257600080fd5b505afa1580156106a6573d6000803e3d6000fd5b505050506040513d6000823e3d601f19601f820116820180604052506106cf919081019061476f565b6040516020016106df9190614de2565b6040516020818303038152906040528051906020012014806107f8575060405160200161070b90614df9565b604051602081830303815290604052805190602001206000809054906101000a900473ffffffffffffffffffffffffffffffffffffffff1673ffffffffffffffffffffffffffffffffffffffff166327820851336040518263ffffffff1660e01b815260040161077b9190614e53565b60006040518083038186803b15801561079357600080fd5b505afa1580156107a7573d6000803e3d6000fd5b505050506040513d6000823e3d601f19601f820116820180604052506107d0919081019061476f565b6040516020016107e09190614de2565b60405160208183030381529060405280519060200120145b610837576040517f08c379a000000000000000000000000000000000000000000000000000000000815260040161082e90615030565b60405180910390fd5b6060600460003373ffffffffffffffffffffffffffffffffffffffff1673ffffffffffffffffffffffffffffffffffffffff1681526020019081526020016000208054806020026020016040519081016040528092919081815260200182805480156108f857602002820191906000526020600020905b8160009054906101000a900473ffffffffffffffffffffffffffffffffffffffff1673ffffffffffffffffffffffffffffffffffffffff16815260200190600101908083116108ae575b50505050509050606081516040519080825280602002602001820160405280156109315781602001602082028038833980820191505090505b509050600080905060008090505b8351811015610aff57600560003373ffffffffffffffffffffffffffffffffffffffff1673ffffffffffffffffffffffffffffffffffffffff168152602001908152602001600020600085838151811061099557fe5b602002602001015173ffffffffffffffffffffffffffffffffffffffff1673ffffffffffffffffffffffffffffffffffffffff16815260200190815260200160002060009054906101000a900460ff168015610a8a5750600560008583815181106109fc57fe5b602002602001015173ffffffffffffffffffffffffffffffffffffffff1673ffffffffffffffffffffffffffffffffffffffff16815260200190815260200160002060003373ffffffffffffffffffffffffffffffffffffffff1673ffffffffffffffffffffffffffffffffffffffff16815260200190815260200160002060009054906101000a900460ff165b15610af257838181518110610a9b57fe5b6020026020010151838381518110610aaf57fe5b602002602001019073ffffffffffffffffffffffffffffffffffffffff16908173ffffffffffffffffffffffffffffffffffffffff168152505081806001019250505b808060010191505061093f565b50606081604051908082528060200260200182016040528015610b315781602001602082028038833980820191505090505b50905060008090505b82811015610ba957838181518110610b4e57fe5b6020026020010151828281518110610b6257fe5b602002602001019073ffffffffffffffffffffffffffffffffffffffff16908173ffffffffffffffffffffffffffffffffffffffff16815250508080600101915050610b3a565b508094505050505090565b6040518060400160405280600781526020017f5375626a656374000000000000000000000000000000000000000000000000008152506000809054906101000a900473ffffffffffffffffffffffffffffffffffffffff1673ffffffffffffffffffffffffffffffffffffffff1663ffb28d9c33836040518363ffffffff1660e01b8152600401610c46929190614e97565b60206040518083038186803b158015610c5e57600080fd5b505afa158015610c72573d6000803e3d6000fd5b505050506040513d601f19601f82011682018060405250610c969190810190614746565b610cd5576040517f08c379a0000000000000000000000000000000000000000000000000000000008152600401610ccc90615050565b60405180910390fd5b816040518060400160405280600681526020017f49737375657200000000000000000000000000000000000000000000000000008152506000809054906101000a900473ffffffffffffffffffffffffffffffffffffffff1673ffffffffffffffffffffffffffffffffffffffff1663ffb28d9c83836040518363ffffffff1660e01b8152600401610d68929190614f23565b60206040518083038186803b158015610d8057600080fd5b505afa158015610d94573d6000803e3d6000fd5b505050506040513d601f19601f82011682018060405250610db89190810190614746565b610df7576040517f08c379a0000000000000000000000000000000000000000000000000000000008152600401610dee90615010565b60405180910390fd5b600260003373ffffffffffffffffffffffffffffffffffffffff1673ffffffffffffffffffffffffffffffffffffffff16815260200190815260200160002060008573ffffffffffffffffffffffffffffffffffffffff1673ffffffffffffffffffffffffffffffffffffffff16815260200190815260200160002060009054906101000a900460ff1615610ec1576040517f08c379a0000000000000000000000000000000000000000000000000000000008152600401610eb890614fb0565b60405180910390fd5b6001600260003373ffffffffffffffffffffffffffffffffffffffff1673ffffffffffffffffffffffffffffffffffffffff16815260200190815260200160002060008673ffffffffffffffffffffffffffffffffffffffff1673ffffffffffffffffffffffffffffffffffffffff16815260200190815260200160002060006101000a81548160ff0219169083151502179055506001600260008673ffffffffffffffffffffffffffffffffffffffff1673ffffffffffffffffffffffffffffffffffffffff16815260200190815260200160002060003373ffffffffffffffffffffffffffffffffffffffff1673ffffffffffffffffffffffffffffffffffffffff16815260200190815260200160002060006101000a81548160ff021916908315150217905550600360003373ffffffffffffffffffffffffffffffffffffffff1673ffffffffffffffffffffffffffffffffffffffff16815260200190815260200160002060008573ffffffffffffffffffffffffffffffffffffffff1673ffffffffffffffffffffffffffffffffffffffff16815260200190815260200160002060009054906101000a900460ff166111c057600160003373ffffffffffffffffffffffffffffffffffffffff1673ffffffffffffffffffffffffffffffffffffffff1681526020019081526020016000208490806001815401808255809150509060018203906000526020600020016000909192909190916101000a81548173ffffffffffffffffffffffffffffffffffffffff021916908373ffffffffffffffffffffffffffffffffffffffff16021790555050600160008573ffffffffffffffffffffffffffffffffffffffff1673ffffffffffffffffffffffffffffffffffffffff1681526020019081526020016000203390806001815401808255809150509060018203906000526020600020016000909192909190916101000a81548173ffffffffffffffffffffffffffffffffffffffff021916908373ffffffffffffffffffffffffffffffffffffffff160217905550505b6001600360003373ffffffffffffffffffffffffffffffffffffffff1673ffffffffffffffffffffffffffffffffffffffff16815260200190815260200160002060008673ffffffffffffffffffffffffffffffffffffffff1673ffffffffffffffffffffffffffffffffffffffff16815260200190815260200160002060006101000a81548160ff0219169083151502179055507f96dc08c3299c77635bd20fc8e5b7a7459559a916cac4e43146327f032258ce7f3385604051611286929190614e6e565b60405180910390a150505050565b6040518060400160405280600781526020017f5375626a656374000000000000000000000000000000000000000000000000008152506000809054906101000a900473ffffffffffffffffffffffffffffffffffffffff1673ffffffffffffffffffffffffffffffffffffffff1663ffb28d9c33836040518363ffffffff1660e01b8152600401611326929190614e97565b60206040518083038186803b15801561133e57600080fd5b505afa158015611352573d6000803e3d6000fd5b505050506040513d601f19601f820116820180604052506113769190810190614746565b6113b5576040517f08c379a00000000000000000000000000000000000000000000000000000000081526004016113ac90615050565b60405180910390fd5b816040518060400160405280600881526020017f56657269666965720000000000000000000000000000000000000000000000008152506000809054906101000a900473ffffffffffffffffffffffffffffffffffffffff1673ffffffffffffffffffffffffffffffffffffffff1663ffb28d9c83836040518363ffffffff1660e01b8152600401611448929190614f23565b60206040518083038186803b15801561146057600080fd5b505afa158015611474573d6000803e3d6000fd5b505050506040513d601f19601f820116820180604052506114989190810190614746565b6114d7576040517f08c379a00000000000000000000000000000000000000000000000000000000081526004016114ce90615010565b60405180910390fd5b600560003373ffffffffffffffffffffffffffffffffffffffff1673ffffffffffffffffffffffffffffffffffffffff16815260200190815260200160002060008573ffffffffffffffffffffffffffffffffffffffff1673ffffffffffffffffffffffffffffffffffffffff16815260200190815260200160002060009054906101000a900460ff16156115a1576040517f08c379a000000000000000000000000000000000000000000000000000000000815260040161159890614fd0565b60405180910390fd5b6001600560003373ffffffffffffffffffffffffffffffffffffffff1673ffffffffffffffffffffffffffffffffffffffff16815260200190815260200160002060008673ffffffffffffffffffffffffffffffffffffffff1673ffffffffffffffffffffffffffffffffffffffff16815260200190815260200160002060006101000a81548160ff0219169083151502179055506001600560008673ffffffffffffffffffffffffffffffffffffffff1673ffffffffffffffffffffffffffffffffffffffff16815260200190815260200160002060003373ffffffffffffffffffffffffffffffffffffffff1673ffffffffffffffffffffffffffffffffffffffff16815260200190815260200160002060006101000a81548160ff021916908315150217905550600660003373ffffffffffffffffffffffffffffffffffffffff1673ffffffffffffffffffffffffffffffffffffffff16815260200190815260200160002060008573ffffffffffffffffffffffffffffffffffffffff1673ffffffffffffffffffffffffffffffffffffffff16815260200190815260200160002060009054906101000a900460ff166118a057600460003373ffffffffffffffffffffffffffffffffffffffff1673ffffffffffffffffffffffffffffffffffffffff1681526020019081526020016000208490806001815401808255809150509060018203906000526020600020016000909192909190916101000a81548173ffffffffffffffffffffffffffffffffffffffff021916908373ffffffffffffffffffffffffffffffffffffffff16021790555050600460008573ffffffffffffffffffffffffffffffffffffffff1673ffffffffffffffffffffffffffffffffffffffff1681526020019081526020016000203390806001815401808255809150509060018203906000526020600020016000909192909190916101000a81548173ffffffffffffffffffffffffffffffffffffffff021916908373ffffffffffffffffffffffffffffffffffffffff160217905550505b6001600660003373ffffffffffffffffffffffffffffffffffffffff1673ffffffffffffffffffffffffffffffffffffffff16815260200190815260200160002060008673ffffffffffffffffffffffffffffffffffffffff1673ffffffffffffffffffffffffffffffffffffffff16815260200190815260200160002060006101000a81548160ff0219169083151502179055507f34f8ed94d18e0ecab9377b0c6d84904a7895036a4ea08efe5e18a0e63bc8df063385604051611966929190614e6e565b60405180910390a150505050565b6000826040518060400160405280600881526020017f56657269666965720000000000000000000000000000000000000000000000008152506000809054906101000a900473ffffffffffffffffffffffffffffffffffffffff1673ffffffffffffffffffffffffffffffffffffffff1663ffb28d9c83836040518363ffffffff1660e01b8152600401611a09929190614f23565b60206040518083038186803b158015611a2157600080fd5b505afa158015611a35573d6000803e3d6000fd5b505050506040513d601f19601f82011682018060405250611a599190810190614746565b611a98576040517f08c379a0000000000000000000000000000000000000000000000000000000008152600401611a8f90615010565b60405180910390fd5b836040518060400160405280600781526020017f5375626a656374000000000000000000000000000000000000000000000000008152506000809054906101000a900473ffffffffffffffffffffffffffffffffffffffff1673ffffffffffffffffffffffffffffffffffffffff1663ffb28d9c83836040518363ffffffff1660e01b8152600401611b2b929190614f23565b60206040518083038186803b158015611b4357600080fd5b505afa158015611b57573d6000803e3d6000fd5b505050506040513d601f19601f82011682018060405250611b7b9190810190614746565b611bba576040517f08c379a0000000000000000000000000000000000000000000000000000000008152600401611bb190615010565b60405180910390fd5b600560008773ffffffffffffffffffffffffffffffffffffffff1673ffffffffffffffffffffffffffffffffffffffff16815260200190815260200160002060008873ffffffffffffffffffffffffffffffffffffffff1673ffffffffffffffffffffffffffffffffffffffff16815260200190815260200160002060009054906101000a900460ff1694505050505092915050565b6040518060400160405280600781526020017f5375626a656374000000000000000000000000000000000000000000000000008152506000809054906101000a900473ffffffffffffffffffffffffffffffffffffffff1673ffffffffffffffffffffffffffffffffffffffff1663ffb28d9c33836040518363ffffffff1660e01b8152600401611ce2929190614e97565b60206040518083038186803b158015611cfa57600080fd5b505afa158015611d0e573d6000803e3d6000fd5b505050506040513d601f19601f82011682018060405250611d329190810190614746565b611d71576040517f08c379a0000000000000000000000000000000000000000000000000000000008152600401611d6890615050565b60405180910390fd5b816040518060400160405280600881526020017f56657269666965720000000000000000000000000000000000000000000000008152506000809054906101000a900473ffffffffffffffffffffffffffffffffffffffff1673ffffffffffffffffffffffffffffffffffffffff1663ffb28d9c83836040518363ffffffff1660e01b8152600401611e04929190614f23565b60206040518083038186803b158015611e1c57600080fd5b505afa158015611e30573d6000803e3d6000fd5b505050506040513d601f19601f82011682018060405250611e549190810190614746565b611e93576040517f08c379a0000000000000000000000000000000000000000000000000000000008152600401611e8a90615010565b60405180910390fd5b600560003373ffffffffffffffffffffffffffffffffffffffff1673ffffffffffffffffffffffffffffffffffffffff16815260200190815260200160002060008573ffffffffffffffffffffffffffffffffffffffff1673ffffffffffffffffffffffffffffffffffffffff16815260200190815260200160002060009054906101000a900460ff16611f5c576040517f08c379a0000000000000000000000000000000000000000000000000000000008152600401611f5390615090565b60405180910390fd5b6000600560008673ffffffffffffffffffffffffffffffffffffffff1673ffffffffffffffffffffffffffffffffffffffff16815260200190815260200160002060003373ffffffffffffffffffffffffffffffffffffffff1673ffffffffffffffffffffffffffffffffffffffff16815260200190815260200160002060006101000a81548160ff0219169083151502179055506000600560003373ffffffffffffffffffffffffffffffffffffffff1673ffffffffffffffffffffffffffffffffffffffff16815260200190815260200160002060008673ffffffffffffffffffffffffffffffffffffffff1673ffffffffffffffffffffffffffffffffffffffff16815260200190815260200160002060006101000a81548160ff0219169083151502179055507f289964cdef3f075e8131b06a8076db8ba749d4ee310ce86cc6da75ca465623c733856040516120b7929190614e6e565b60405180910390a150505050565b6000826040518060400160405280600681526020017f49737375657200000000000000000000000000000000000000000000000000008152506000809054906101000a900473ffffffffffffffffffffffffffffffffffffffff1673ffffffffffffffffffffffffffffffffffffffff1663ffb28d9c83836040518363ffffffff1660e01b815260040161215a929190614f23565b60206040518083038186803b15801561217257600080fd5b505afa158015612186573d6000803e3d6000fd5b505050506040513d601f19601f820116820180604052506121aa9190810190614746565b6121e9576040517f08c379a00000000000000000000000000000000000000000000000000000000081526004016121e090615010565b60405180910390fd5b836040518060400160405280600781526020017f5375626a656374000000000000000000000000000000000000000000000000008152506000809054906101000a900473ffffffffffffffffffffffffffffffffffffffff1673ffffffffffffffffffffffffffffffffffffffff1663ffb28d9c83836040518363ffffffff1660e01b815260040161227c929190614f23565b60206040518083038186803b15801561229457600080fd5b505afa1580156122a8573d6000803e3d6000fd5b505050506040513d601f19601f820116820180604052506122cc9190810190614746565b61230b576040517f08c379a000000000000000000000000000000000000000000000000000000000815260040161230290615010565b60405180910390fd5b600260008873ffffffffffffffffffffffffffffffffffffffff1673ffffffffffffffffffffffffffffffffffffffff16815260200190815260200160002060008773ffffffffffffffffffffffffffffffffffffffff1673ffffffffffffffffffffffffffffffffffffffff16815260200190815260200160002060009054906101000a900460ff1694505050505092915050565b60606000809054906101000a900473ffffffffffffffffffffffffffffffffffffffff1673ffffffffffffffffffffffffffffffffffffffff1663ffb28d9c336040518263ffffffff1660e01b81526004016123fd9190614ec7565b60206040518083038186803b15801561241557600080fd5b505afa158015612429573d6000803e3d6000fd5b505050506040513d601f19601f8201168201806040525061244d9190810190614746565b806124fe57506000809054906101000a900473ffffffffffffffffffffffffffffffffffffffff1673ffffffffffffffffffffffffffffffffffffffff1663ffb28d9c336040518263ffffffff1660e01b81526004016124ad9190614ef5565b60206040518083038186803b1580156124c557600080fd5b505afa1580156124d9573d6000803e3d6000fd5b505050506040513d601f19601f820116820180604052506124fd9190810190614746565b5b61253d576040517f08c379a000000000000000000000000000000000000000000000000000000000815260040161253490615050565b60405180910390fd5b6060600160003373ffffffffffffffffffffffffffffffffffffffff1673ffffffffffffffffffffffffffffffffffffffff1681526020019081526020016000208054806020026020016040519081016040528092919081815260200182805480156125fe57602002820191906000526020600020905b8160009054906101000a900473ffffffffffffffffffffffffffffffffffffffff1673ffffffffffffffffffffffffffffffffffffffff16815260200190600101908083116125b4575b50505050509050606081516040519080825280602002602001820160405280156126375781602001602082028038833980820191505090505b509050600080905060008090505b835181101561280557600260003373ffffffffffffffffffffffffffffffffffffffff1673ffffffffffffffffffffffffffffffffffffffff168152602001908152602001600020600085838151811061269b57fe5b602002602001015173ffffffffffffffffffffffffffffffffffffffff1673ffffffffffffffffffffffffffffffffffffffff16815260200190815260200160002060009054906101000a900460ff16801561279057506002600085838151811061270257fe5b602002602001015173ffffffffffffffffffffffffffffffffffffffff1673ffffffffffffffffffffffffffffffffffffffff16815260200190815260200160002060003373ffffffffffffffffffffffffffffffffffffffff1673ffffffffffffffffffffffffffffffffffffffff16815260200190815260200160002060009054906101000a900460ff165b156127f8578381815181106127a157fe5b60200260200101518383815181106127b557fe5b602002602001019073ffffffffffffffffffffffffffffffffffffffff16908173ffffffffffffffffffffffffffffffffffffffff168152505081806001019250505b8080600101915050612645565b506060816040519080825280602002602001820160405280156128375781602001602082028038833980820191505090505b50905060008090505b828110156128af5783818151811061285457fe5b602002602001015182828151811061286857fe5b602002602001019073ffffffffffffffffffffffffffffffffffffffff16908173ffffffffffffffffffffffffffffffffffffffff16815250508080600101915050612840565b508094505050505090565b6040518060400160405280600681526020017f49737375657200000000000000000000000000000000000000000000000000008152506000809054906101000a900473ffffffffffffffffffffffffffffffffffffffff1673ffffffffffffffffffffffffffffffffffffffff1663ffb28d9c33836040518363ffffffff1660e01b815260040161294c929190614e97565b60206040518083038186803b15801561296457600080fd5b505afa158015612978573d6000803e3d6000fd5b505050506040513d601f19601f8201168201806040525061299c9190810190614746565b6129db576040517f08c379a00000000000000000000000000000000000000000000000000000000081526004016129d290615050565b60405180910390fd5b816040518060400160405280600781526020017f5375626a656374000000000000000000000000000000000000000000000000008152506000809054906101000a900473ffffffffffffffffffffffffffffffffffffffff1673ffffffffffffffffffffffffffffffffffffffff1663ffb28d9c83836040518363ffffffff1660e01b8152600401612a6e929190614f23565b60206040518083038186803b158015612a8657600080fd5b505afa158015612a9a573d6000803e3d6000fd5b505050506040513d601f19601f82011682018060405250612abe9190810190614746565b612afd576040517f08c379a0000000000000000000000000000000000000000000000000000000008152600401612af490615010565b60405180910390fd5b600260008573ffffffffffffffffffffffffffffffffffffffff1673ffffffffffffffffffffffffffffffffffffffff16815260200190815260200160002060003373ffffffffffffffffffffffffffffffffffffffff1673ffffffffffffffffffffffffffffffffffffffff16815260200190815260200160002060009054906101000a900460ff16612bc6576040517f08c379a0000000000000000000000000000000000000000000000000000000008152600401612bbd906150b0565b60405180910390fd5b600260003373ffffffffffffffffffffffffffffffffffffffff1673ffffffffffffffffffffffffffffffffffffffff16815260200190815260200160002060008573ffffffffffffffffffffffffffffffffffffffff1673ffffffffffffffffffffffffffffffffffffffff16815260200190815260200160002060009054906101000a900460ff16612c8f576040517f08c379a0000000000000000000000000000000000000000000000000000000008152600401612c8690615070565b60405180910390fd5b6000600260003373ffffffffffffffffffffffffffffffffffffffff1673ffffffffffffffffffffffffffffffffffffffff16815260200190815260200160002060008673ffffffffffffffffffffffffffffffffffffffff1673ffffffffffffffffffffffffffffffffffffffff16815260200190815260200160002060006101000a81548160ff0219169083151502179055506000600260008673ffffffffffffffffffffffffffffffffffffffff1673ffffffffffffffffffffffffffffffffffffffff16815260200190815260200160002060003373ffffffffffffffffffffffffffffffffffffffff1673ffffffffffffffffffffffffffffffffffffffff16815260200190815260200160002060006101000a81548160ff0219169083151502179055507f3c44ce647de06c73eb5744c9395edea226f4b767db4b643bd11b5e632e3300923385604051612dea929190614e6e565b60405180910390a150505050565b6000826040518060400160405280600681526020017f49737375657200000000000000000000000000000000000000000000000000008152506000809054906101000a900473ffffffffffffffffffffffffffffffffffffffff1673ffffffffffffffffffffffffffffffffffffffff1663ffb28d9c83836040518363ffffffff1660e01b8152600401612e8d929190614f23565b60206040518083038186803b158015612ea557600080fd5b505afa158015612eb9573d6000803e3d6000fd5b505050506040513d601f19601f82011682018060405250612edd9190810190614746565b612f1c576040517f08c379a0000000000000000000000000000000000000000000000000000000008152600401612f1390615010565b60405180910390fd5b836040518060400160405280600781526020017f5375626a656374000000000000000000000000000000000000000000000000008152506000809054906101000a900473ffffffffffffffffffffffffffffffffffffffff1673ffffffffffffffffffffffffffffffffffffffff1663ffb28d9c83836040518363ffffffff1660e01b8152600401612faf929190614f23565b60206040518083038186803b158015612fc757600080fd5b505afa158015612fdb573d6000803e3d6000fd5b505050506040513d601f19601f82011682018060405250612fff9190810190614746565b61303e576040517f08c379a000000000000000000000000000000000000000000000000000000000815260040161303590615010565b60405180910390fd5b600260008773ffffffffffffffffffffffffffffffffffffffff1673ffffffffffffffffffffffffffffffffffffffff16815260200190815260200160002060008873ffffffffffffffffffffffffffffffffffffffff1673ffffffffffffffffffffffffffffffffffffffff16815260200190815260200160002060009054906101000a900460ff1694505050505092915050565b60606040516020016130e590614e0e565b604051602081830303815290604052805190602001206000809054906101000a900473ffffffffffffffffffffffffffffffffffffffff1673ffffffffffffffffffffffffffffffffffffffff166327820851336040518263ffffffff1660e01b81526004016131559190614e53565b60006040518083038186803b15801561316d57600080fd5b505afa158015613181573d6000803e3d6000fd5b505050506040513d6000823e3d601f19601f820116820180604052506131aa919081019061476f565b6040516020016131ba9190614de2565b6040516020818303038152906040528051906020012014806132d357506040516020016131e690614df9565b604051602081830303815290604052805190602001206000809054906101000a900473ffffffffffffffffffffffffffffffffffffffff1673ffffffffffffffffffffffffffffffffffffffff166327820851336040518263ffffffff1660e01b81526004016132569190614e53565b60006040518083038186803b15801561326e57600080fd5b505afa158015613282573d6000803e3d6000fd5b505050506040513d6000823e3d601f19601f820116820180604052506132ab919081019061476f565b6040516020016132bb9190614de2565b60405160208183030381529060405280519060200120145b613312576040517f08c379a000000000000000000000000000000000000000000000000000000000815260040161330990615030565b60405180910390fd5b6060600460003373ffffffffffffffffffffffffffffffffffffffff1673ffffffffffffffffffffffffffffffffffffffff1681526020019081526020016000208054806020026020016040519081016040528092919081815260200182805480156133d357602002820191906000526020600020905b8160009054906101000a900473ffffffffffffffffffffffffffffffffffffffff1673ffffffffffffffffffffffffffffffffffffffff1681526020019060010190808311613389575b505050505090506060815160405190808252806020026020018201604052801561340c5781602001602082028038833980820191505090505b509050600080905060008090505b83518110156135da57600560003373ffffffffffffffffffffffffffffffffffffffff1673ffffffffffffffffffffffffffffffffffffffff168152602001908152602001600020600085838151811061347057fe5b602002602001015173ffffffffffffffffffffffffffffffffffffffff1673ffffffffffffffffffffffffffffffffffffffff16815260200190815260200160002060009054906101000a900460ff1680156135665750600560008583815181106134d757fe5b602002602001015173ffffffffffffffffffffffffffffffffffffffff1673ffffffffffffffffffffffffffffffffffffffff16815260200190815260200160002060003373ffffffffffffffffffffffffffffffffffffffff1673ffffffffffffffffffffffffffffffffffffffff16815260200190815260200160002060009054906101000a900460ff16155b6135cd5783818151811061357657fe5b602002602001015183838151811061358a57fe5b602002602001019073ffffffffffffffffffffffffffffffffffffffff16908173ffffffffffffffffffffffffffffffffffffffff168152505081806001019250505b808060010191505061341a565b5060608160405190808252806020026020018201604052801561360c5781602001602082028038833980820191505090505b50905060008090505b828110156136845783818151811061362957fe5b602002602001015182828151811061363d57fe5b602002602001019073ffffffffffffffffffffffffffffffffffffffff16908173ffffffffffffffffffffffffffffffffffffffff16815250508080600101915050613615565b508094505050505090565b60606000809054906101000a900473ffffffffffffffffffffffffffffffffffffffff1673ffffffffffffffffffffffffffffffffffffffff1663ffb28d9c336040518263ffffffff1660e01b81526004016136eb9190614ec7565b60206040518083038186803b15801561370357600080fd5b505afa158015613717573d6000803e3d6000fd5b505050506040513d601f19601f8201168201806040525061373b9190810190614746565b806137ec57506000809054906101000a900473ffffffffffffffffffffffffffffffffffffffff1673ffffffffffffffffffffffffffffffffffffffff1663ffb28d9c336040518263ffffffff1660e01b815260040161379b9190614ef5565b60206040518083038186803b1580156137b357600080fd5b505afa1580156137c7573d6000803e3d6000fd5b505050506040513d601f19601f820116820180604052506137eb9190810190614746565b5b61382b576040517f08c379a000000000000000000000000000000000000000000000000000000000815260040161382290615050565b60405180910390fd5b600160003373ffffffffffffffffffffffffffffffffffffffff1673ffffffffffffffffffffffffffffffffffffffff1681526020019081526020016000208054806020026020016040519081016040528092919081815260200182805480156138ea57602002820191906000526020600020905b8160009054906101000a900473ffffffffffffffffffffffffffffffffffffffff1673ffffffffffffffffffffffffffffffffffffffff16815260200190600101908083116138a0575b5050505050905090565b60606000809054906101000a900473ffffffffffffffffffffffffffffffffffffffff1673ffffffffffffffffffffffffffffffffffffffff1663ffb28d9c336040518263ffffffff1660e01b81526004016139509190614ec7565b60206040518083038186803b15801561396857600080fd5b505afa15801561397c573d6000803e3d6000fd5b505050506040513d601f19601f820116820180604052506139a09190810190614746565b80613a5157506000809054906101000a900473ffffffffffffffffffffffffffffffffffffffff1673ffffffffffffffffffffffffffffffffffffffff1663ffb28d9c336040518263ffffffff1660e01b8152600401613a009190614ef5565b60206040518083038186803b158015613a1857600080fd5b505afa158015613a2c573d6000803e3d6000fd5b505050506040513d601f19601f82011682018060405250613a509190810190614746565b5b613a90576040517f08c379a0000000000000000000000000000000000000000000000000000000008152600401613a8790615050565b60405180910390fd5b6060600160003373ffffffffffffffffffffffffffffffffffffffff1673ffffffffffffffffffffffffffffffffffffffff168152602001908152602001600020805480602002602001604051908101604052809291908181526020018280548015613b5157602002820191906000526020600020905b8160009054906101000a900473ffffffffffffffffffffffffffffffffffffffff1673ffffffffffffffffffffffffffffffffffffffff1681526020019060010190808311613b07575b5050505050905060608151604051908082528060200260200182016040528015613b8a5781602001602082028038833980820191505090505b509050600080905060008090505b8351811015613d5a57600260003373ffffffffffffffffffffffffffffffffffffffff1673ffffffffffffffffffffffffffffffffffffffff1681526020019081526020016000206000858381518110613bee57fe5b602002602001015173ffffffffffffffffffffffffffffffffffffffff1673ffffffffffffffffffffffffffffffffffffffff16815260200190815260200160002060009054906101000a900460ff16158015613ce5575060026000858381518110613c5657fe5b602002602001015173ffffffffffffffffffffffffffffffffffffffff1673ffffffffffffffffffffffffffffffffffffffff16815260200190815260200160002060003373ffffffffffffffffffffffffffffffffffffffff1673ffffffffffffffffffffffffffffffffffffffff16815260200190815260200160002060009054906101000a900460ff16155b15613d4d57838181518110613cf657fe5b6020026020010151838381518110613d0a57fe5b602002602001019073ffffffffffffffffffffffffffffffffffffffff16908173ffffffffffffffffffffffffffffffffffffffff168152505081806001019250505b8080600101915050613b98565b50606081604051908082528060200260200182016040528015613d8c5781602001602082028038833980820191505090505b50905060008090505b82811015613e0457838181518110613da957fe5b6020026020010151828281518110613dbd57fe5b602002602001019073ffffffffffffffffffffffffffffffffffffffff16908173ffffffffffffffffffffffffffffffffffffffff16815250508080600101915050613d95565b508094505050505090565b60008060009054906101000a900473ffffffffffffffffffffffffffffffffffffffff1673ffffffffffffffffffffffffffffffffffffffff1663ffb28d9c336040518263ffffffff1660e01b8152600401613e6b9190614ec7565b60206040518083038186803b158015613e8357600080fd5b505afa158015613e97573d6000803e3d6000fd5b505050506040513d601f19601f82011682018060405250613ebb9190810190614746565b80613f6c57506000809054906101000a900473ffffffffffffffffffffffffffffffffffffffff1673ffffffffffffffffffffffffffffffffffffffff1663ffb28d9c336040518263ffffffff1660e01b8152600401613f1b9190614ef5565b60206040518083038186803b158015613f3357600080fd5b505afa158015613f47573d6000803e3d6000fd5b505050506040513d601f19601f82011682018060405250613f6b9190810190614746565b5b613fab576040517f08c379a0000000000000000000000000000000000000000000000000000000008152600401613fa290615050565b60405180910390fd5b604051602001613fba90614e0e565b604051602081830303815290604052805190602001206000809054906101000a900473ffffffffffffffffffffffffffffffffffffffff1673ffffffffffffffffffffffffffffffffffffffff166327820851846040518263ffffffff1660e01b815260040161402a9190614e38565b60006040518083038186803b15801561404257600080fd5b505afa158015614056573d6000803e3d6000fd5b505050506040513d6000823e3d601f19601f8201168201806040525061407f919081019061476f565b60405160200161408f9190614de2565b6040516020818303038152906040528051906020012014806141a857506040516020016140bb90614e23565b604051602081830303815290604052805190602001206000809054906101000a900473ffffffffffffffffffffffffffffffffffffffff1673ffffffffffffffffffffffffffffffffffffffff166327820851846040518263ffffffff1660e01b815260040161412b9190614e38565b60006040518083038186803b15801561414357600080fd5b505afa158015614157573d6000803e3d6000fd5b505050506040513d6000823e3d601f19601f82011682018060405250614180919081019061476f565b6040516020016141909190614de2565b60405160208183030381529060405280519060200120145b6141e7576040517f08c379a00000000000000000000000000000000000000000000000000000000081526004016141de90614f90565b60405180910390fd5b8173ffffffffffffffffffffffffffffffffffffffff163373ffffffffffffffffffffffffffffffffffffffff161415614256576040517f08c379a000000000000000000000000000000000000000000000000000000000815260040161424d90614ff0565b60405180910390fd5b600260008373ffffffffffffffffffffffffffffffffffffffff1673ffffffffffffffffffffffffffffffffffffffff16815260200190815260200160002060003373ffffffffffffffffffffffffffffffffffffffff1673ffffffffffffffffffffffffffffffffffffffff16815260200190815260200160002060009054906101000a900460ff1680156143725750600260003373ffffffffffffffffffffffffffffffffffffffff1673ffffffffffffffffffffffffffffffffffffffff16815260200190815260200160002060008373ffffffffffffffffffffffffffffffffffffffff1673ffffffffffffffffffffffffffffffffffffffff16815260200190815260200160002060009054906101000a900460ff165b156143805760019050614385565b600090505b919050565b60006040518060400160405280600781526020017f5375626a656374000000000000000000000000000000000000000000000000008152506000809054906101000a900473ffffffffffffffffffffffffffffffffffffffff1673ffffffffffffffffffffffffffffffffffffffff1663ffb28d9c33836040518363ffffffff1660e01b815260040161441e929190614e97565b60206040518083038186803b15801561443657600080fd5b505afa15801561444a573d6000803e3d6000fd5b505050506040513d601f19601f8201168201806040525061446e9190810190614746565b6144ad576040517f08c379a00000000000000000000000000000000000000000000000000000000081526004016144a490615050565b60405180910390fd5b826040518060400160405280600881526020017f56657269666965720000000000000000000000000000000000000000000000008152506000809054906101000a900473ffffffffffffffffffffffffffffffffffffffff1673ffffffffffffffffffffffffffffffffffffffff1663ffb28d9c83836040518363ffffffff1660e01b8152600401614540929190614f23565b60206040518083038186803b15801561455857600080fd5b505afa15801561456c573d6000803e3d6000fd5b505050506040513d601f19601f820116820180604052506145909190810190614746565b6145cf576040517f08c379a00000000000000000000000000000000000000000000000000000000081526004016145c690615010565b60405180910390fd5b600560003373ffffffffffffffffffffffffffffffffffffffff1673ffffffffffffffffffffffffffffffffffffffff16815260200190815260200160002060008673ffffffffffffffffffffffffffffffffffffffff1673ffffffffffffffffffffffffffffffffffffffff16815260200190815260200160002060009054906101000a900460ff169350505050919050565b60008135905061467281615241565b92915050565b60008151905061468781615258565b92915050565b600082601f83011261469e57600080fd5b81516146b16146ac826150fd565b6150d0565b915080825260208301602083018583830111156146cd57600080fd5b6146d88382846151fd565b50505092915050565b6000602082840312156146f357600080fd5b600061470184828501614663565b91505092915050565b6000806040838503121561471d57600080fd5b600061472b85828601614663565b925050602061473c85828601614663565b9150509250929050565b60006020828403121561475857600080fd5b600061476684828501614678565b91505092915050565b60006020828403121561478157600080fd5b600082015167ffffffffffffffff81111561479b57600080fd5b6147a78482850161468d565b91505092915050565b60006147bc83836147d7565b60208301905092915050565b6147d1816151c7565b82525050565b6147e081615189565b82525050565b6147ef81615189565b82525050565b600061480082615139565b61480a818561515c565b935061481583615129565b8060005b8381101561484657815161482d88826147b0565b97506148388361514f565b925050600181019050614819565b5085935050505092915050565b61485c8161519b565b82525050565b600061486d82615144565b614877818561516d565b93506148878185602086016151fd565b61489081615230565b840191505092915050565b60006148a682615144565b6148b0818561517e565b93506148c08185602086016151fd565b80840191505092915050565b60006148d960088361517e565b91507f56657269666965720000000000000000000000000000000000000000000000006000830152600882019050919050565b600061491960308361516d565b91507f55736572206164647265737320776974682073706563696669656420726f6c6560008301527f20646f6573206e6f742065786973742e000000000000000000000000000000006020830152604082019050919050565b600061497f60268361516d565b91507f596f75206861766520616c72656164792072657175657374656420666f72206160008301527f20636572742e00000000000000000000000000000000000000000000000000006020830152604082019050919050565b60006149e560278361516d565b91507f56657269666965722068617320616c7265616479206265656e20676976656e2060008301527f6163636573732e000000000000000000000000000000000000000000000000006020830152604082019050919050565b6000614a4b60078361516d565b91507f5375626a656374000000000000000000000000000000000000000000000000006000830152602082019050919050565b6000614a8b60078361517e565b91507f5375626a656374000000000000000000000000000000000000000000000000006000830152600782019050919050565b6000614acb602f8361516d565b91507f416374696f6e2063616e6e6f7420626520706572666f726d6564206f6e20746860008301527f652073616d6520616464726573732e00000000000000000000000000000000006020830152604082019050919050565b6000614b3160308361516d565b91507f54686520616374696f6e2063616e206f6e6c7920626520706572666f726d656460008301527f206f6e2076616c69642075736572732e000000000000000000000000000000006020830152604082019050919050565b6000614b9760068361516d565b91507f49737375657200000000000000000000000000000000000000000000000000006000830152602082019050919050565b6000614bd760068361517e565b91507f49737375657200000000000000000000000000000000000000000000000000006000830152600682019050919050565b6000614c17602e8361516d565b91507f4f6e6c7920617574686f72697a656420726f6c65732063616e20706572666f7260008301527f6d207468697320616374696f6e2e0000000000000000000000000000000000006020830152604082019050919050565b6000614c7d60368361516d565b91507f5468697320616374696f6e2063616e206f6e6c7920626520706572666f726d6560008301527f6420627920617574686f72697a656420726f6c65732e000000000000000000006020830152604082019050919050565b6000614ce360268361516d565b91507f54686520616374696f6e2068617320616c7265616479206265656e207065726660008301527f6f726d65642e00000000000000000000000000000000000000000000000000006020830152604082019050919050565b6000614d49601f8361516d565b91507f566572696669657220616c726561647920686173206e6f206163636573732e006000830152602082019050919050565b6000614d8960218361516d565b91507f5375626a65637420686173206e6f74206d61646520616e79207265717565737460008301527f2e000000000000000000000000000000000000000000000000000000000000006020830152604082019050919050565b6000614dee828461489b565b915081905092915050565b6000614e04826148cc565b9150819050919050565b6000614e1982614a7e565b9150819050919050565b6000614e2e82614bca565b9150819050919050565b6000602082019050614e4d60008301846147e6565b92915050565b6000602082019050614e6860008301846147c8565b92915050565b6000604082019050614e8360008301856147c8565b614e9060208301846147e6565b9392505050565b6000604082019050614eac60008301856147c8565b8181036020830152614ebe8184614862565b90509392505050565b6000604082019050614edc60008301846147c8565b8181036020830152614eed81614a3e565b905092915050565b6000604082019050614f0a60008301846147c8565b8181036020830152614f1b81614b8a565b905092915050565b6000604082019050614f3860008301856147e6565b8181036020830152614f4a8184614862565b90509392505050565b60006020820190508181036000830152614f6d81846147f5565b905092915050565b6000602082019050614f8a6000830184614853565b92915050565b60006020820190508181036000830152614fa98161490c565b9050919050565b60006020820190508181036000830152614fc981614972565b9050919050565b60006020820190508181036000830152614fe9816149d8565b9050919050565b6000602082019050818103600083015261500981614abe565b9050919050565b6000602082019050818103600083015261502981614b24565b9050919050565b6000602082019050818103600083015261504981614c0a565b9050919050565b6000602082019050818103600083015261506981614c70565b9050919050565b6000602082019050818103600083015261508981614cd6565b9050919050565b600060208201905081810360008301526150a981614d3c565b9050919050565b600060208201905081810360008301526150c981614d7c565b9050919050565b6000604051905081810181811067ffffffffffffffff821117156150f357600080fd5b8060405250919050565b600067ffffffffffffffff82111561511457600080fd5b601f19601f8301169050602081019050919050565b6000819050602082019050919050565b600081519050919050565b600081519050919050565b6000602082019050919050565b600082825260208201905092915050565b600082825260208201905092915050565b600081905092915050565b6000615194826151a7565b9050919050565b60008115159050919050565b600073ffffffffffffffffffffffffffffffffffffffff82169050919050565b60006151d2826151d9565b9050919050565b60006151e4826151eb565b9050919050565b60006151f6826151a7565b9050919050565b60005b8381101561521b578082015181840152602081019050615200565b8381111561522a576000848401525b50505050565b6000601f19601f8301169050919050565b61524a81615189565b811461525557600080fd5b50565b6152618161519b565b811461526c57600080fd5b5056fea365627a7a7231582098365bf4b72c7e08722f128bc49a7271413af7ff8dd310be00e364d03132a7086c6578706572696d656e74616cf564736f6c63430005100040",
  "source": "pragma solidity >=0.5.0;\r\npragma experimental ABIEncoderV2;\r\n\r\nimport \"./CertificateNetwork.sol\";\r\n\r\ncontract CertificateStore {\r\n    CertificateNetwork certNetwork;\r\n\r\n    // S>I: Student can make many request\r\n    // I>S: Issuer can receive many request\r\n    mapping(address => address[]) private reqHistMap; // History of Unique Requests\r\n\r\n    // Request map for S <=> I.T > Issue Pass F > Wont issue\r\n    mapping(address => mapping(address => bool)) private requestMap;\r\n\r\n    // Check if S request to I before (S>I)\r\n    mapping(address => mapping(address => bool)) private requestExistMap;\r\n\r\n    // S>V: Student can grant multiple Verifier to view their cert.\r\n    // V>S: Verifier can view multiple subject Cert\r\n    mapping(address => address[]) private grantHistMap; // History of Unique Grants\r\n\r\n    // Grant map for S <=> V.\r\n    mapping(address => mapping(address => bool)) private grantMap;\r\n\r\n    // Check if S has granted V before (S>V)\r\n    mapping(address => mapping(address => bool)) private grantExistMap;\r\n\r\n    // REMOVED mappings:\r\n    // Replaced with certHistMap\r\n    // mapping(address => uint256[]) private subjectToCertListMap; // map subject to issued certs(by certId) by issuers\r\n    // mapping(address => uint256[]) private issuerToCertListMap; // map issuer to issued certs(by certId)\r\n\r\n    // Replaced with addrToCertMap\r\n    // mapping(address => mapping(uint256 => bool)) private subjectToCertMap;\r\n    // mapping(address => mapping(uint256 => bool)) private issuerToCertMap;\r\n    // mapping(address => mapping(address => bool)) private requestMap;\r\n\r\n    // Replaced with grantMap\r\n    // mapping(address => mapping(address => bool)) private subjectToVerifierMap; // S>(V>bool), map subject to all approved verifiers to view all certs\r\n\r\n    // Events\r\n    event IssuedCertificate(\r\n        uint256 certId,\r\n        address issuerAddr,\r\n        address subjectAddr\r\n    );\r\n    event RevokeCertificate(address issuer, uint256 certId);\r\n    event RequestCertificate(address subjectAddr, address issuerAddr);\r\n    event AcceptSubjectRequest(address issuerAddr, address subjectAddr);\r\n    event RejectSubjectRequest(address issuerAddr, address subjectAddr);\r\n    event GiveAccessViewing(address subjectAddr, address verifierAddr);\r\n    event DenyAccessViewing(address subjectAddr, address verifierAddr);\r\n    event ViewSubjectCerts(address verifierAddr, address subjectAddr);\r\n    event ViewVerifierStatus(address subjectAddr, bool status);\r\n    event ViewSubjectStatus(address verifierAddr, bool status);\r\n\r\n    constructor(CertificateNetwork cn) public {\r\n        certNetwork = cn;\r\n    }\r\n\r\n    // Modifiers\r\n    modifier onlyValidRoles(string memory role) {\r\n        require(\r\n            certNetwork.checkUserExist(msg.sender, role),\r\n            \"This action can only be performed by authorized roles.\"\r\n        );\r\n        _;\r\n    }\r\n\r\n    // Used to check if a user exist, i.e. issue cert to subject, check if that subject exist in our system.\r\n    modifier userExist(address addr, string memory role) {\r\n        require(\r\n            certNetwork.checkUserExist(addr, role),\r\n            \"The action can only be performed on valid users.\"\r\n        );\r\n        _;\r\n    }\r\n    modifier onlyIssuerSubject() {\r\n        require(\r\n            certNetwork.checkUserExist(msg.sender, \"Subject\") ||\r\n                certNetwork.checkUserExist(msg.sender, \"Issuer\"),\r\n            \"This action can only be performed by authorized roles.\"\r\n        );\r\n        _;\r\n    }\r\n\r\n    // Request cert from issuer. (SUBJECT -> ISSUER)\r\n    // Issue: subject can spam request for each issuer without being a subject\r\n    // Assumptions:\r\n    // 1. Subject know school block addr\r\n    // 2. Subject belongs to the school and is legitamite.\r\n    // 3. Subject only needs to request from the sch once for a sch to send all the subjects cert.\r\n    function requestCert(address issuerAddr)\r\n        public\r\n        onlyValidRoles(\"Subject\")\r\n        userExist(issuerAddr, \"Issuer\")\r\n    {\r\n        require(\r\n            !requestMap[msg.sender][issuerAddr],\r\n            \"You have already requested for a cert.\"\r\n        );\r\n\r\n        requestMap[msg.sender][issuerAddr] = true; // subject request\r\n        requestMap[issuerAddr][msg.sender] = true; // issuer to approve\r\n\r\n        // add only new unique request\r\n        if (!requestExistMap[msg.sender][issuerAddr]) {\r\n            reqHistMap[msg.sender].push(issuerAddr);\r\n            reqHistMap[issuerAddr].push(msg.sender);\r\n        }\r\n\r\n        // Record user requested before\r\n        requestExistMap[msg.sender][issuerAddr] = true;\r\n        emit RequestCertificate(msg.sender, issuerAddr);\r\n    }\r\n\r\n    function rejectRequest(address subjectAddr)\r\n        public\r\n        onlyValidRoles(\"Issuer\")\r\n        userExist(subjectAddr, \"Subject\")\r\n    {\r\n        require(\r\n            requestMap[subjectAddr][msg.sender],\r\n            \"Subject has not made any request.\"\r\n        ); // S>I\r\n        require(\r\n            requestMap[msg.sender][subjectAddr],\r\n            \"The action has already been performed.\"\r\n        ); // I>S\r\n\r\n        requestMap[msg.sender][subjectAddr] = false;\r\n        requestMap[subjectAddr][msg.sender] = false;\r\n        emit RejectSubjectRequest(msg.sender, subjectAddr);\r\n    }\r\n\r\n    function getApprovedReqList()\r\n        public\r\n        view\r\n        onlyIssuerSubject\r\n        returns (address[] memory)\r\n    {\r\n        address[] memory reqHist = reqHistMap[msg.sender];\r\n        address[] memory tempList = new address[](reqHist.length);\r\n        uint256 y = 0;\r\n        for (uint256 i = 0; i < reqHist.length; i++) {\r\n            // check if issuer approve subject and student make req to issuer\r\n            if (\r\n                requestMap[msg.sender][reqHist[i]] &&\r\n                requestMap[reqHist[i]][msg.sender]\r\n            ) {\r\n                // Get all valid request\r\n                tempList[y] = reqHist[i];\r\n                y++;\r\n            }\r\n        }\r\n        address[] memory newList = new address[](y);\r\n        for (uint256 i = 0; i < y; i++) {\r\n            newList[i] = tempList[i];\r\n        }\r\n        return newList;\r\n    }\r\n\r\n    function getRejectedReqList()\r\n        public\r\n        view\r\n        onlyIssuerSubject\r\n        returns (address[] memory)\r\n    {\r\n        address[] memory reqHist = reqHistMap[msg.sender];\r\n        address[] memory tempList = new address[](reqHist.length);\r\n        uint256 y = 0;\r\n        for (uint256 i = 0; i < reqHist.length; i++) {\r\n            // check if issuer approve subject and student make req to issuer\r\n            if (\r\n                !requestMap[msg.sender][reqHist[i]] &&\r\n                !requestMap[reqHist[i]][msg.sender]\r\n            ) {\r\n                // Get all valid request\r\n                tempList[y] = reqHist[i];\r\n                y++;\r\n            }\r\n        }\r\n        address[] memory newList = new address[](y);\r\n        for (uint256 i = 0; i < y; i++) {\r\n            newList[i] = tempList[i];\r\n        }\r\n        return newList;\r\n    }\r\n\r\n    // Get all unique request history regardless of approve/deny\r\n    function getReqHist()\r\n        public\r\n        view\r\n        onlyIssuerSubject\r\n        returns (address[] memory)\r\n    {\r\n        return reqHistMap[msg.sender];\r\n    }\r\n\r\n    function checkRequest(address addr)\r\n        public\r\n        view\r\n        onlyIssuerSubject\r\n        returns (bool)\r\n    {\r\n        require(\r\n            keccak256(abi.encodePacked(certNetwork.getUserRole(addr))) ==\r\n                keccak256(abi.encodePacked(\"Subject\")) ||\r\n                keccak256(abi.encodePacked(certNetwork.getUserRole(addr))) ==\r\n                keccak256(abi.encodePacked(\"Issuer\")),\r\n            \"User address with specified role does not exist.\"\r\n        );\r\n        require(\r\n            !(msg.sender == addr),\r\n            \"Action cannot be performed on the same address.\"\r\n        );\r\n        if (requestMap[addr][msg.sender] && requestMap[msg.sender][addr]) {\r\n            return true;\r\n        }\r\n        return false;\r\n    }\r\n\r\n    // for I>S, check user requested\r\n    function getRequestStatus(address issuerAddr, address subjectAddr)\r\n        public\r\n        view\r\n        userExist(issuerAddr, \"Issuer\")\r\n        userExist(subjectAddr, \"Subject\")\r\n        returns (bool)\r\n    {\r\n        return requestMap[subjectAddr][issuerAddr];\r\n    }\r\n\r\n    // for I>S, check if issuer have deny before\r\n    function getIssueStatus(address issuerAddr, address subjectAddr)\r\n        public\r\n        view\r\n        userExist(issuerAddr, \"Issuer\")\r\n        userExist(subjectAddr, \"Subject\")\r\n        returns (bool)\r\n    {\r\n        return requestMap[issuerAddr][subjectAddr];\r\n    }\r\n\r\n    // for V>S, check grant list\r\n    function getAccessStatus(address verifierAddr, address subjectAddr)\r\n        public\r\n        view\r\n        userExist(verifierAddr, \"Verifier\")\r\n        userExist(subjectAddr, \"Subject\")\r\n        returns (bool)\r\n    {\r\n        return grantMap[subjectAddr][verifierAddr];\r\n    }\r\n\r\n    // Grant access to a verifier to viewing all subject certs.(SUBJECT -> VERIFIER)\r\n    function grantVerifier(address verifierAddr)\r\n        public\r\n        onlyValidRoles(\"Subject\")\r\n        userExist(verifierAddr, \"Verifier\")\r\n    {\r\n        require(\r\n            !grantMap[msg.sender][verifierAddr],\r\n            \"Verifier has already been given access.\"\r\n        );\r\n\r\n        // record grant: S<=>V\r\n        grantMap[msg.sender][verifierAddr] = true;\r\n        grantMap[verifierAddr][msg.sender] = true;\r\n\r\n        // record uniqiue grant history\r\n        if (!grantExistMap[msg.sender][verifierAddr]) {\r\n            grantHistMap[msg.sender].push(verifierAddr);\r\n            grantHistMap[verifierAddr].push(msg.sender);\r\n        }\r\n        grantExistMap[msg.sender][verifierAddr] = true;\r\n        emit GiveAccessViewing(msg.sender, verifierAddr);\r\n    }\r\n\r\n    // Deny access to a verifier to viewing all subject certs.(SUBJECT -> VERIFIER)\r\n    function denyVerifier(address verifierAddr)\r\n        public\r\n        onlyValidRoles(\"Subject\")\r\n        userExist(verifierAddr, \"Verifier\")\r\n    {\r\n        require(\r\n            grantMap[msg.sender][verifierAddr],\r\n            \"Verifier already has no access.\"\r\n        );\r\n\r\n        grantMap[verifierAddr][msg.sender] = false; // remove access for verifier\r\n        grantMap[msg.sender][verifierAddr] = false; // remove access given by S>V\r\n\r\n        emit DenyAccessViewing(msg.sender, verifierAddr);\r\n    }\r\n\r\n    // Getters and Setters\r\n    // S>V, check Subject approved verifier\r\n    //Frontend[subject]: loop thr all verifier addresses to display the list of verifiers approved by the subject.\r\n    function checkVerifier(address verifier)\r\n        public\r\n        view\r\n        onlyValidRoles(\"Subject\")\r\n        userExist(verifier, \"Verifier\")\r\n        returns (bool)\r\n    {\r\n        return grantMap[msg.sender][verifier];\r\n    }\r\n\r\n    // V>S, check if verifier is approved by subject\r\n    //Frontend[verifier]: loop thr all subject addresses to display the list of subjects viewable by the verifier.\r\n    function checkSubject(address subject)\r\n        public\r\n        view\r\n        onlyValidRoles(\"Verifier\")\r\n        userExist(subject, \"Subject\")\r\n        returns (bool)\r\n    {\r\n        return grantMap[subject][msg.sender];\r\n    }\r\n\r\n    // S>V: Subject can view verifier they given access to.\r\n    // V>S: Verifier can view subject they given access from.\r\n    function getGrantList() public view returns (address[] memory) {\r\n        require(\r\n            keccak256(abi.encodePacked(certNetwork.getUserRole(msg.sender))) ==\r\n                keccak256(abi.encodePacked(\"Subject\")) ||\r\n                keccak256(\r\n                    abi.encodePacked(certNetwork.getUserRole(msg.sender))\r\n                ) ==\r\n                keccak256(abi.encodePacked(\"Verifier\")),\r\n            \"Only authorized roles can perform this action.\"\r\n        );\r\n        address[] memory grantList = grantHistMap[msg.sender];\r\n        address[] memory tempList = new address[](grantList.length);\r\n        uint256 y = 0;\r\n        for (uint256 i = 0; i < grantList.length; i++) {\r\n            if (\r\n                grantMap[msg.sender][grantList[i]] &&\r\n                grantMap[grantList[i]][msg.sender]\r\n            ) {\r\n                tempList[y] = grantList[i];\r\n                y++;\r\n            }\r\n        }\r\n        address[] memory newList = new address[](y);\r\n        for (uint256 i = 0; i < y; i++) {\r\n            newList[i] = tempList[i];\r\n        }\r\n        return newList;\r\n    }\r\n\r\n    // S>V: Subject can view verifier they given access to.\r\n    // V>S: Verifier can view subject they given access from.\r\n    function getDenyList() public view returns (address[] memory) {\r\n        require(\r\n            keccak256(abi.encodePacked(certNetwork.getUserRole(msg.sender))) ==\r\n                keccak256(abi.encodePacked(\"Subject\")) ||\r\n                keccak256(\r\n                    abi.encodePacked(certNetwork.getUserRole(msg.sender))\r\n                ) ==\r\n                keccak256(abi.encodePacked(\"Verifier\")),\r\n            \"Only authorized roles can perform this action.\"\r\n        );\r\n        address[] memory grantList = grantHistMap[msg.sender];\r\n        address[] memory tempList = new address[](grantList.length);\r\n        uint256 y = 0;\r\n        for (uint256 i = 0; i < grantList.length; i++) {\r\n            if (\r\n                !(grantMap[msg.sender][grantList[i]] &&\r\n                    !grantMap[grantList[i]][msg.sender])\r\n            ) {\r\n                tempList[y] = grantList[i];\r\n                y++;\r\n            }\r\n        }\r\n        address[] memory newList = new address[](y);\r\n        for (uint256 i = 0; i < y; i++) {\r\n            newList[i] = tempList[i];\r\n        }\r\n        return newList;\r\n    }\r\n}\r\n",
  "sourcePath": "C:\\Users\\jiaqi\\Documents\\Y4S2\\project\\contracts\\CertificateStore.sol",
  "compiler": {
    "name": "solc",
    "version": "0.5.16+commit.9c3226ce.Emscripten.clang"
  },
  "schemaVersion": "3.4.4",
  "updatedAt": "2022-04-11T10:36:19.337Z",
  "networkType": "ethereum",
  "devdoc": {
    "methods": {}
  },
  "userdoc": {
    "methods": {}
  }
}