{
  "contractName": "Certificate",
  "abi": [
    {
      "inputs": [
        {
          "internalType": "contract CertificateNetwork",
          "name": "cn",
          "type": "address"
        }
      ],
      "payable": false,
      "stateMutability": "nonpayable",
      "type": "constructor"
    },
    {
      "anonymous": false,
      "inputs": [
        {
          "indexed": false,
          "internalType": "address",
          "name": "issuerAddr",
          "type": "address"
        },
        {
          "indexed": false,
          "internalType": "address",
          "name": "subjectAddr",
          "type": "address"
        }
      ],
      "name": "AcceptSubjectRequest",
      "type": "event"
    },
    {
      "anonymous": false,
      "inputs": [
        {
          "indexed": false,
          "internalType": "address",
          "name": "subjectAddr",
          "type": "address"
        },
        {
          "indexed": false,
          "internalType": "address",
          "name": "verifierAddr",
          "type": "address"
        }
      ],
      "name": "DenyAccessViewing",
      "type": "event"
    },
    {
      "anonymous": false,
      "inputs": [
        {
          "indexed": false,
          "internalType": "address",
          "name": "subjectAddr",
          "type": "address"
        },
        {
          "indexed": false,
          "internalType": "address",
          "name": "verifierAddr",
          "type": "address"
        }
      ],
      "name": "GiveAccessViewing",
      "type": "event"
    },
    {
      "anonymous": false,
      "inputs": [
        {
          "indexed": false,
          "internalType": "uint256",
          "name": "certId",
          "type": "uint256"
        },
        {
          "indexed": false,
          "internalType": "address",
          "name": "issuerAddr",
          "type": "address"
        },
        {
          "indexed": false,
          "internalType": "address",
          "name": "subjectAddr",
          "type": "address"
        }
      ],
      "name": "IssuedCertificate",
      "type": "event"
    },
    {
      "anonymous": false,
      "inputs": [
        {
          "indexed": false,
          "internalType": "address",
          "name": "issuerAddr",
          "type": "address"
        },
        {
          "indexed": false,
          "internalType": "address",
          "name": "subjectAddr",
          "type": "address"
        }
      ],
      "name": "RejectSubjectRequest",
      "type": "event"
    },
    {
      "anonymous": false,
      "inputs": [
        {
          "indexed": false,
          "internalType": "address",
          "name": "subjectAddr",
          "type": "address"
        },
        {
          "indexed": false,
          "internalType": "address",
          "name": "issuerAddr",
          "type": "address"
        }
      ],
      "name": "RequestCertificate",
      "type": "event"
    },
    {
      "anonymous": false,
      "inputs": [
        {
          "indexed": false,
          "internalType": "address",
          "name": "issuer",
          "type": "address"
        },
        {
          "indexed": false,
          "internalType": "uint256",
          "name": "certId",
          "type": "uint256"
        }
      ],
      "name": "RevokeCertificate",
      "type": "event"
    },
    {
      "anonymous": false,
      "inputs": [
        {
          "indexed": false,
          "internalType": "address",
          "name": "verifierAddr",
          "type": "address"
        },
        {
          "indexed": false,
          "internalType": "address",
          "name": "subjectAddr",
          "type": "address"
        }
      ],
      "name": "ViewSubjectCerts",
      "type": "event"
    },
    {
      "anonymous": false,
      "inputs": [
        {
          "indexed": false,
          "internalType": "address",
          "name": "verifierAddr",
          "type": "address"
        },
        {
          "indexed": false,
          "internalType": "bool",
          "name": "status",
          "type": "bool"
        }
      ],
      "name": "ViewSubjectStatus",
      "type": "event"
    },
    {
      "anonymous": false,
      "inputs": [
        {
          "indexed": false,
          "internalType": "address",
          "name": "subjectAddr",
          "type": "address"
        },
        {
          "indexed": false,
          "internalType": "bool",
          "name": "status",
          "type": "bool"
        }
      ],
      "name": "ViewVerifierStatus",
      "type": "event"
    },
    {
      "constant": false,
      "inputs": [
        {
          "internalType": "address",
          "name": "issuerAddr",
          "type": "address"
        }
      ],
      "name": "requestCert",
      "outputs": [],
      "payable": false,
      "stateMutability": "nonpayable",
      "type": "function"
    },
    {
      "constant": false,
      "inputs": [
        {
          "internalType": "address",
          "name": "subjectAddr",
          "type": "address"
        }
      ],
      "name": "acceptRequest",
      "outputs": [],
      "payable": false,
      "stateMutability": "nonpayable",
      "type": "function"
    },
    {
      "constant": false,
      "inputs": [
        {
          "internalType": "address",
          "name": "subjectAddr",
          "type": "address"
        }
      ],
      "name": "rejectRequest",
      "outputs": [],
      "payable": false,
      "stateMutability": "nonpayable",
      "type": "function"
    },
    {
      "constant": false,
      "inputs": [
        {
          "internalType": "address",
          "name": "verifierAddr",
          "type": "address"
        }
      ],
      "name": "grantVerifier",
      "outputs": [],
      "payable": false,
      "stateMutability": "nonpayable",
      "type": "function"
    },
    {
      "constant": false,
      "inputs": [
        {
          "internalType": "address",
          "name": "verifierAddr",
          "type": "address"
        }
      ],
      "name": "denyVerifier",
      "outputs": [],
      "payable": false,
      "stateMutability": "nonpayable",
      "type": "function"
    },
    {
      "constant": false,
      "inputs": [
        {
          "internalType": "address",
          "name": "subjectAddr",
          "type": "address"
        },
        {
          "internalType": "string",
          "name": "_issuerName",
          "type": "string"
        },
        {
          "internalType": "string",
          "name": "_nric",
          "type": "string"
        },
        {
          "internalType": "string",
          "name": "_serialNo",
          "type": "string"
        },
        {
          "internalType": "string",
          "name": "_title",
          "type": "string"
        },
        {
          "internalType": "string",
          "name": "_completionDate",
          "type": "string"
        }
      ],
      "name": "issueCertificate",
      "outputs": [
        {
          "internalType": "bool",
          "name": "Status",
          "type": "bool"
        }
      ],
      "payable": false,
      "stateMutability": "nonpayable",
      "type": "function"
    },
    {
      "constant": false,
      "inputs": [
        {
          "internalType": "uint256",
          "name": "certId",
          "type": "uint256"
        }
      ],
      "name": "revokeCert",
      "outputs": [],
      "payable": false,
      "stateMutability": "nonpayable",
      "type": "function"
    },
    {
      "constant": true,
      "inputs": [
        {
          "internalType": "address",
          "name": "subjectAddr",
          "type": "address"
        }
      ],
      "name": "getCertListVerifiers",
      "outputs": [
        {
          "components": [
            {
              "internalType": "uint256",
              "name": "certId",
              "type": "uint256"
            },
            {
              "internalType": "address",
              "name": "owner",
              "type": "address"
            },
            {
              "internalType": "address",
              "name": "issuerAddr",
              "type": "address"
            },
            {
              "internalType": "string",
              "name": "issuerName",
              "type": "string"
            },
            {
              "internalType": "uint256",
              "name": "creationDate",
              "type": "uint256"
            },
            {
              "internalType": "string",
              "name": "nric",
              "type": "string"
            },
            {
              "internalType": "string",
              "name": "serialNo",
              "type": "string"
            },
            {
              "internalType": "string",
              "name": "title",
              "type": "string"
            },
            {
              "internalType": "string",
              "name": "completionDate",
              "type": "string"
            }
          ],
          "internalType": "struct Certificate.Cert[]",
          "name": "",
          "type": "tuple[]"
        }
      ],
      "payable": false,
      "stateMutability": "view",
      "type": "function"
    },
    {
      "constant": true,
      "inputs": [],
      "name": "getCertListSubjects",
      "outputs": [
        {
          "internalType": "uint256[]",
          "name": "",
          "type": "uint256[]"
        }
      ],
      "payable": false,
      "stateMutability": "view",
      "type": "function"
    },
    {
      "constant": true,
      "inputs": [],
      "name": "getCertListIssuers",
      "outputs": [
        {
          "components": [
            {
              "internalType": "uint256",
              "name": "certId",
              "type": "uint256"
            },
            {
              "internalType": "address",
              "name": "owner",
              "type": "address"
            },
            {
              "internalType": "address",
              "name": "issuerAddr",
              "type": "address"
            },
            {
              "internalType": "string",
              "name": "issuerName",
              "type": "string"
            },
            {
              "internalType": "uint256",
              "name": "creationDate",
              "type": "uint256"
            },
            {
              "internalType": "string",
              "name": "nric",
              "type": "string"
            },
            {
              "internalType": "string",
              "name": "serialNo",
              "type": "string"
            },
            {
              "internalType": "string",
              "name": "title",
              "type": "string"
            },
            {
              "internalType": "string",
              "name": "completionDate",
              "type": "string"
            }
          ],
          "internalType": "struct Certificate.Cert[]",
          "name": "",
          "type": "tuple[]"
        }
      ],
      "payable": false,
      "stateMutability": "view",
      "type": "function"
    },
    {
      "constant": false,
      "inputs": [
        {
          "internalType": "address",
          "name": "verifier",
          "type": "address"
        }
      ],
      "name": "checkVerifier",
      "outputs": [
        {
          "internalType": "bool",
          "name": "",
          "type": "bool"
        }
      ],
      "payable": false,
      "stateMutability": "nonpayable",
      "type": "function"
    },
    {
      "constant": false,
      "inputs": [
        {
          "internalType": "address",
          "name": "subject",
          "type": "address"
        }
      ],
      "name": "checkSubject",
      "outputs": [
        {
          "internalType": "bool",
          "name": "",
          "type": "bool"
        }
      ],
      "payable": false,
      "stateMutability": "nonpayable",
      "type": "function"
    },
    {
      "constant": true,
      "inputs": [
        {
          "internalType": "address",
          "name": "issuerAddr",
          "type": "address"
        }
      ],
      "name": "checkRequest",
      "outputs": [
        {
          "internalType": "bool",
          "name": "",
          "type": "bool"
        }
      ],
      "payable": false,
      "stateMutability": "view",
      "type": "function"
    },
    {
      "constant": true,
      "inputs": [],
      "name": "getApprovedReqList",
      "outputs": [
        {
          "internalType": "address[]",
          "name": "",
          "type": "address[]"
        }
      ],
      "payable": false,
      "stateMutability": "view",
      "type": "function"
    },
    {
      "constant": true,
      "inputs": [],
      "name": "getReqList",
      "outputs": [
        {
          "internalType": "address[]",
          "name": "",
          "type": "address[]"
        }
      ],
      "payable": false,
      "stateMutability": "view",
      "type": "function"
    },
    {
      "constant": true,
      "inputs": [],
      "name": "getGrantList",
      "outputs": [
        {
          "internalType": "address[]",
          "name": "",
          "type": "address[]"
        }
      ],
      "payable": false,
      "stateMutability": "view",
      "type": "function"
    },
    {
      "constant": true,
      "inputs": [
        {
          "internalType": "uint256",
          "name": "certId",
          "type": "uint256"
        }
      ],
      "name": "checkCertExist",
      "outputs": [
        {
          "internalType": "bool",
          "name": "",
          "type": "bool"
        }
      ],
      "payable": false,
      "stateMutability": "view",
      "type": "function"
    }
  ],
  "bytecode": "0x60806040523480156200001157600080fd5b50604051620058b7380380620058b783398181016040526200003791908101906200009c565b806000806101000a81548173ffffffffffffffffffffffffffffffffffffffff021916908373ffffffffffffffffffffffffffffffffffffffff16021790555060018081905550506200012a565b600081519050620000968162000110565b92915050565b600060208284031215620000af57600080fd5b6000620000bf8482850162000085565b91505092915050565b6000620000d582620000f0565b9050919050565b6000620000e982620000c8565b9050919050565b600073ffffffffffffffffffffffffffffffffffffffff82169050919050565b6200011b81620000dc565b81146200012757600080fd5b50565b61577d806200013a6000396000f3fe608060405234801561001057600080fd5b506004361061010b5760003560e01c8063a3022797116100a2578063ca07b4b411610071578063ca07b4b4146102a6578063dbcbc272146102c2578063de8c98fd146102de578063f855b3661461030e578063fdc704d71461033e5761010b565b8063a30227971461022e578063a3fb15ee1461024c578063c41937fd1461026a578063c601cd12146102885761010b565b8063749b26d5116100de578063749b26d5146101965780637af261cc146101b257806393d84355146101e257806395716f30146102125761010b565b806307e75d661461011057806314e5735f146101405780632b8cc3461461015e5780635f889fe91461017a575b600080fd5b61012a600480360361012591908101906148bb565b61036e565b6040516101379190615316565b60405180910390f35b610148610686565b60405161015591906152b0565b60405180910390f35b610178600480360361017391908101906148bb565b610751565b005b610194600480360361018f91908101906148bb565b610bfb565b005b6101b060048036036101ab91908101906148bb565b6111b7565b005b6101cc60048036036101c791908101906148bb565b611773565b6040516101d991906152d2565b60405180910390f35b6101fc60048036036101f79190810190614a0e565b612035565b6040516102099190615316565b60405180910390f35b61022c600480360361022791908101906148bb565b61205f565b005b6102366124d4565b60405161024391906152b0565b60405180910390f35b61025461259f565b60405161026191906152f4565b60405180910390f35b610272612852565b60405161027f91906152d2565b60405180910390f35b610290612f25565b60405161029d91906152b0565b60405180910390f35b6102c060048036036102bb91908101906148bb565b613145565b005b6102dc60048036036102d79190810190614a0e565b6135ba565b005b6102f860048036036102f391908101906148e4565b613a2c565b6040516103059190615316565b60405180910390f35b610328600480360361032391908101906148bb565b6141fd565b6040516103359190615316565b60405180910390f35b610358600480360361035391908101906148bb565b614333565b6040516103659190615316565b60405180910390f35b60006040518060400160405280600881526020017f56657269666965720000000000000000000000000000000000000000000000008152506000809054906101000a900473ffffffffffffffffffffffffffffffffffffffff1673ffffffffffffffffffffffffffffffffffffffff1663ffb28d9c33836040518363ffffffff1660e01b8152600401610402929190615227565b60206040518083038186803b15801561041a57600080fd5b505afa15801561042e573d6000803e3d6000fd5b505050506040513d601f19601f8201168201806040525061045291908101906149e5565b610491576040517f08c379a000000000000000000000000000000000000000000000000000000000815260040161048890615451565b60405180910390fd5b826040518060400160405280600781526020017f5375626a656374000000000000000000000000000000000000000000000000008152506000809054906101000a900473ffffffffffffffffffffffffffffffffffffffff1673ffffffffffffffffffffffffffffffffffffffff1663ffb28d9c83836040518363ffffffff1660e01b8152600401610524929190615280565b60206040518083038186803b15801561053c57600080fd5b505afa158015610550573d6000803e3d6000fd5b505050506040513d601f19601f8201168201806040525061057491908101906149e5565b6105b3576040517f08c379a00000000000000000000000000000000000000000000000000000000081526004016105aa90615331565b60405180910390fd5b6000600660008773ffffffffffffffffffffffffffffffffffffffff1673ffffffffffffffffffffffffffffffffffffffff16815260200190815260200160002060003373ffffffffffffffffffffffffffffffffffffffff1673ffffffffffffffffffffffffffffffffffffffff16815260200190815260200160002060009054906101000a900460ff1690507f1b36648f15922015b9bfffa0549b1e3307b20c7db35be187806ce95ed3210b0b33826040516106729291906151fe565b60405180910390a180945050505050919050565b6060600b60003373ffffffffffffffffffffffffffffffffffffffff1673ffffffffffffffffffffffffffffffffffffffff16815260200190815260200160002080548060200260200160405190810160405280929190818152602001828054801561074757602002820191906000526020600020905b8160009054906101000a900473ffffffffffffffffffffffffffffffffffffffff1673ffffffffffffffffffffffffffffffffffffffff16815260200190600101908083116106fd575b5050505050905090565b6040518060400160405280600681526020017f49737375657200000000000000000000000000000000000000000000000000008152506000809054906101000a900473ffffffffffffffffffffffffffffffffffffffff1673ffffffffffffffffffffffffffffffffffffffff1663ffb28d9c33836040518363ffffffff1660e01b81526004016107e3929190615227565b60206040518083038186803b1580156107fb57600080fd5b505afa15801561080f573d6000803e3d6000fd5b505050506040513d601f19601f8201168201806040525061083391908101906149e5565b610872576040517f08c379a000000000000000000000000000000000000000000000000000000000815260040161086990615451565b60405180910390fd5b816040518060400160405280600781526020017f5375626a656374000000000000000000000000000000000000000000000000008152506000809054906101000a900473ffffffffffffffffffffffffffffffffffffffff1673ffffffffffffffffffffffffffffffffffffffff1663ffb28d9c83836040518363ffffffff1660e01b8152600401610905929190615280565b60206040518083038186803b15801561091d57600080fd5b505afa158015610931573d6000803e3d6000fd5b505050506040513d601f19601f8201168201806040525061095591908101906149e5565b610994576040517f08c379a000000000000000000000000000000000000000000000000000000000815260040161098b90615331565b60405180910390fd5b600960008573ffffffffffffffffffffffffffffffffffffffff1673ffffffffffffffffffffffffffffffffffffffff16815260200190815260200160002060003373ffffffffffffffffffffffffffffffffffffffff1673ffffffffffffffffffffffffffffffffffffffff16815260200190815260200160002060009054906101000a900460ff16610a5d576040517f08c379a0000000000000000000000000000000000000000000000000000000008152600401610a5490615371565b60405180910390fd5b600960003373ffffffffffffffffffffffffffffffffffffffff1673ffffffffffffffffffffffffffffffffffffffff16815260200190815260200160002060008573ffffffffffffffffffffffffffffffffffffffff1673ffffffffffffffffffffffffffffffffffffffff16815260200190815260200160002060009054906101000a900460ff1615610b27576040517f08c379a0000000000000000000000000000000000000000000000000000000008152600401610b1e90615431565b60405180910390fd5b6001600960003373ffffffffffffffffffffffffffffffffffffffff1673ffffffffffffffffffffffffffffffffffffffff16815260200190815260200160002060008673ffffffffffffffffffffffffffffffffffffffff1673ffffffffffffffffffffffffffffffffffffffff16815260200190815260200160002060006101000a81548160ff0219169083151502179055507ff9f37fde2b0558fd0030314283604b8c62963d46b8fc16cedaff313d4156e6d83385604051610bed9291906151d5565b60405180910390a150505050565b6040518060400160405280600781526020017f5375626a656374000000000000000000000000000000000000000000000000008152506000809054906101000a900473ffffffffffffffffffffffffffffffffffffffff1673ffffffffffffffffffffffffffffffffffffffff1663ffb28d9c33836040518363ffffffff1660e01b8152600401610c8d929190615227565b60206040518083038186803b158015610ca557600080fd5b505afa158015610cb9573d6000803e3d6000fd5b505050506040513d601f19601f82011682018060405250610cdd91908101906149e5565b610d1c576040517f08c379a0000000000000000000000000000000000000000000000000000000008152600401610d1390615451565b60405180910390fd5b816040518060400160405280600681526020017f49737375657200000000000000000000000000000000000000000000000000008152506000809054906101000a900473ffffffffffffffffffffffffffffffffffffffff1673ffffffffffffffffffffffffffffffffffffffff1663ffb28d9c83836040518363ffffffff1660e01b8152600401610daf929190615280565b60206040518083038186803b158015610dc757600080fd5b505afa158015610ddb573d6000803e3d6000fd5b505050506040513d601f19601f82011682018060405250610dff91908101906149e5565b610e3e576040517f08c379a0000000000000000000000000000000000000000000000000000000008152600401610e3590615331565b60405180910390fd5b600960003373ffffffffffffffffffffffffffffffffffffffff1673ffffffffffffffffffffffffffffffffffffffff16815260200190815260200160002060008573ffffffffffffffffffffffffffffffffffffffff1673ffffffffffffffffffffffffffffffffffffffff16815260200190815260200160002060009054906101000a900460ff1615610f08576040517f08c379a0000000000000000000000000000000000000000000000000000000008152600401610eff90615391565b60405180910390fd5b6001600960003373ffffffffffffffffffffffffffffffffffffffff1673ffffffffffffffffffffffffffffffffffffffff16815260200190815260200160002060008673ffffffffffffffffffffffffffffffffffffffff1673ffffffffffffffffffffffffffffffffffffffff16815260200190815260200160002060006101000a81548160ff0219169083151502179055506001600960008673ffffffffffffffffffffffffffffffffffffffff1673ffffffffffffffffffffffffffffffffffffffff16815260200190815260200160002060003373ffffffffffffffffffffffffffffffffffffffff1673ffffffffffffffffffffffffffffffffffffffff16815260200190815260200160002060006101000a81548160ff021916908315150217905550600a60003373ffffffffffffffffffffffffffffffffffffffff1673ffffffffffffffffffffffffffffffffffffffff1681526020019081526020016000208490806001815401808255809150509060018203906000526020600020016000909192909190916101000a81548173ffffffffffffffffffffffffffffffffffffffff021916908373ffffffffffffffffffffffffffffffffffffffff16021790555050600a60008573ffffffffffffffffffffffffffffffffffffffff1673ffffffffffffffffffffffffffffffffffffffff1681526020019081526020016000203390806001815401808255809150509060018203906000526020600020016000909192909190916101000a81548173ffffffffffffffffffffffffffffffffffffffff021916908373ffffffffffffffffffffffffffffffffffffffff160217905550507f96dc08c3299c77635bd20fc8e5b7a7459559a916cac4e43146327f032258ce7f33856040516111a99291906151d5565b60405180910390a150505050565b6040518060400160405280600781526020017f5375626a656374000000000000000000000000000000000000000000000000008152506000809054906101000a900473ffffffffffffffffffffffffffffffffffffffff1673ffffffffffffffffffffffffffffffffffffffff1663ffb28d9c33836040518363ffffffff1660e01b8152600401611249929190615227565b60206040518083038186803b15801561126157600080fd5b505afa158015611275573d6000803e3d6000fd5b505050506040513d601f19601f8201168201806040525061129991908101906149e5565b6112d8576040517f08c379a00000000000000000000000000000000000000000000000000000000081526004016112cf90615451565b60405180910390fd5b816040518060400160405280600881526020017f56657269666965720000000000000000000000000000000000000000000000008152506000809054906101000a900473ffffffffffffffffffffffffffffffffffffffff1673ffffffffffffffffffffffffffffffffffffffff1663ffb28d9c83836040518363ffffffff1660e01b815260040161136b929190615280565b60206040518083038186803b15801561138357600080fd5b505afa158015611397573d6000803e3d6000fd5b505050506040513d601f19601f820116820180604052506113bb91908101906149e5565b6113fa576040517f08c379a00000000000000000000000000000000000000000000000000000000081526004016113f190615331565b60405180910390fd5b600660003373ffffffffffffffffffffffffffffffffffffffff1673ffffffffffffffffffffffffffffffffffffffff16815260200190815260200160002060008573ffffffffffffffffffffffffffffffffffffffff1673ffffffffffffffffffffffffffffffffffffffff16815260200190815260200160002060009054906101000a900460ff16156114c4576040517f08c379a00000000000000000000000000000000000000000000000000000000081526004016114bb906153d1565b60405180910390fd5b6001600660003373ffffffffffffffffffffffffffffffffffffffff1673ffffffffffffffffffffffffffffffffffffffff16815260200190815260200160002060008673ffffffffffffffffffffffffffffffffffffffff1673ffffffffffffffffffffffffffffffffffffffff16815260200190815260200160002060006101000a81548160ff0219169083151502179055506001600660008673ffffffffffffffffffffffffffffffffffffffff1673ffffffffffffffffffffffffffffffffffffffff16815260200190815260200160002060003373ffffffffffffffffffffffffffffffffffffffff1673ffffffffffffffffffffffffffffffffffffffff16815260200190815260200160002060006101000a81548160ff021916908315150217905550600b60003373ffffffffffffffffffffffffffffffffffffffff1673ffffffffffffffffffffffffffffffffffffffff1681526020019081526020016000208490806001815401808255809150509060018203906000526020600020016000909192909190916101000a81548173ffffffffffffffffffffffffffffffffffffffff021916908373ffffffffffffffffffffffffffffffffffffffff16021790555050600b60008573ffffffffffffffffffffffffffffffffffffffff1673ffffffffffffffffffffffffffffffffffffffff1681526020019081526020016000203390806001815401808255809150509060018203906000526020600020016000909192909190916101000a81548173ffffffffffffffffffffffffffffffffffffffff021916908373ffffffffffffffffffffffffffffffffffffffff160217905550507f34f8ed94d18e0ecab9377b0c6d84904a7895036a4ea08efe5e18a0e63bc8df0633856040516117659291906151d5565b60405180910390a150505050565b60606040518060400160405280600881526020017f56657269666965720000000000000000000000000000000000000000000000008152506000809054906101000a900473ffffffffffffffffffffffffffffffffffffffff1673ffffffffffffffffffffffffffffffffffffffff1663ffb28d9c33836040518363ffffffff1660e01b8152600401611807929190615227565b60206040518083038186803b15801561181f57600080fd5b505afa158015611833573d6000803e3d6000fd5b505050506040513d601f19601f8201168201806040525061185791908101906149e5565b611896576040517f08c379a000000000000000000000000000000000000000000000000000000000815260040161188d90615451565b60405180910390fd5b826040518060400160405280600781526020017f5375626a656374000000000000000000000000000000000000000000000000008152506000809054906101000a900473ffffffffffffffffffffffffffffffffffffffff1673ffffffffffffffffffffffffffffffffffffffff1663ffb28d9c83836040518363ffffffff1660e01b8152600401611929929190615280565b60206040518083038186803b15801561194157600080fd5b505afa158015611955573d6000803e3d6000fd5b505050506040513d601f19601f8201168201806040525061197991908101906149e5565b6119b8576040517f08c379a00000000000000000000000000000000000000000000000000000000081526004016119af90615331565b60405180910390fd5b600660008673ffffffffffffffffffffffffffffffffffffffff1673ffffffffffffffffffffffffffffffffffffffff16815260200190815260200160002060003373ffffffffffffffffffffffffffffffffffffffff1673ffffffffffffffffffffffffffffffffffffffff16815260200190815260200160002060009054906101000a900460ff16611a81576040517f08c379a0000000000000000000000000000000000000000000000000000000008152600401611a7890615411565b60405180910390fd5b6060600460008773ffffffffffffffffffffffffffffffffffffffff1673ffffffffffffffffffffffffffffffffffffffff168152602001908152602001600020805480602002602001604051908101604052809291908181526020018280548015611b0c57602002820191906000526020600020905b815481526020019060010190808311611af8575b5050505050905060608151604051908082528060200260200182016040528015611b5057816020015b611b3d61464b565b815260200190600190039081611b355790505b509050600080905060008090505b835181101561202657600760008a73ffffffffffffffffffffffffffffffffffffffff1673ffffffffffffffffffffffffffffffffffffffff1681526020019081526020016000206000858381518110611bb457fe5b6020026020010151815260200190815260200160002060009054906101000a900460ff16156120195760026000858381518110611bed57fe5b6020026020010151815260200190815260200160002060405180610120016040529081600082015481526020016001820160009054906101000a900473ffffffffffffffffffffffffffffffffffffffff1673ffffffffffffffffffffffffffffffffffffffff1673ffffffffffffffffffffffffffffffffffffffff1681526020016002820160009054906101000a900473ffffffffffffffffffffffffffffffffffffffff1673ffffffffffffffffffffffffffffffffffffffff1673ffffffffffffffffffffffffffffffffffffffff168152602001600382018054600181600116156101000203166002900480601f016020809104026020016040519081016040528092919081815260200182805460018160011615610100020316600290048015611d5e5780601f10611d3357610100808354040283529160200191611d5e565b820191906000526020600020905b815481529060010190602001808311611d4157829003601f168201915b5050505050815260200160048201548152602001600582018054600181600116156101000203166002900480601f016020809104026020016040519081016040528092919081815260200182805460018160011615610100020316600290048015611e0a5780601f10611ddf57610100808354040283529160200191611e0a565b820191906000526020600020905b815481529060010190602001808311611ded57829003601f168201915b50505050508152602001600682018054600181600116156101000203166002900480601f016020809104026020016040519081016040528092919081815260200182805460018160011615610100020316600290048015611eac5780601f10611e8157610100808354040283529160200191611eac565b820191906000526020600020905b815481529060010190602001808311611e8f57829003601f168201915b50505050508152602001600782018054600181600116156101000203166002900480601f016020809104026020016040519081016040528092919081815260200182805460018160011615610100020316600290048015611f4e5780601f10611f2357610100808354040283529160200191611f4e565b820191906000526020600020905b815481529060010190602001808311611f3157829003601f168201915b50505050508152602001600882018054600181600116156101000203166002900480601f016020809104026020016040519081016040528092919081815260200182805460018160011615610100020316600290048015611ff05780601f10611fc557610100808354040283529160200191611ff0565b820191906000526020600020905b815481529060010190602001808311611fd357829003601f168201915b50505050508152505083838151811061200557fe5b602002602001018190525081806001019250505b8080600101915050611b5e565b50819650505050505050919050565b60006003600083815260200190815260200160002060009054906101000a900460ff169050919050565b6040518060400160405280600781526020017f5375626a656374000000000000000000000000000000000000000000000000008152506000809054906101000a900473ffffffffffffffffffffffffffffffffffffffff1673ffffffffffffffffffffffffffffffffffffffff1663ffb28d9c33836040518363ffffffff1660e01b81526004016120f1929190615227565b60206040518083038186803b15801561210957600080fd5b505afa15801561211d573d6000803e3d6000fd5b505050506040513d601f19601f8201168201806040525061214191908101906149e5565b612180576040517f08c379a000000000000000000000000000000000000000000000000000000000815260040161217790615451565b60405180910390fd5b816040518060400160405280600881526020017f56657269666965720000000000000000000000000000000000000000000000008152506000809054906101000a900473ffffffffffffffffffffffffffffffffffffffff1673ffffffffffffffffffffffffffffffffffffffff1663ffb28d9c83836040518363ffffffff1660e01b8152600401612213929190615280565b60206040518083038186803b15801561222b57600080fd5b505afa15801561223f573d6000803e3d6000fd5b505050506040513d601f19601f8201168201806040525061226391908101906149e5565b6122a2576040517f08c379a000000000000000000000000000000000000000000000000000000000815260040161229990615331565b60405180910390fd5b600660003373ffffffffffffffffffffffffffffffffffffffff1673ffffffffffffffffffffffffffffffffffffffff16815260200190815260200160002060008573ffffffffffffffffffffffffffffffffffffffff1673ffffffffffffffffffffffffffffffffffffffff16815260200190815260200160002060009054906101000a900460ff1661236b576040517f08c379a000000000000000000000000000000000000000000000000000000000815260040161236290615491565b60405180910390fd5b6000600660003373ffffffffffffffffffffffffffffffffffffffff1673ffffffffffffffffffffffffffffffffffffffff16815260200190815260200160002060008673ffffffffffffffffffffffffffffffffffffffff1673ffffffffffffffffffffffffffffffffffffffff16815260200190815260200160002060006101000a81548160ff0219169083151502179055506000600660008673ffffffffffffffffffffffffffffffffffffffff1673ffffffffffffffffffffffffffffffffffffffff16815260200190815260200160002060003373ffffffffffffffffffffffffffffffffffffffff1673ffffffffffffffffffffffffffffffffffffffff16815260200190815260200160002060006101000a81548160ff0219169083151502179055507f289964cdef3f075e8131b06a8076db8ba749d4ee310ce86cc6da75ca465623c733856040516124c69291906151d5565b60405180910390a150505050565b6060600a60003373ffffffffffffffffffffffffffffffffffffffff1673ffffffffffffffffffffffffffffffffffffffff16815260200190815260200160002080548060200260200160405190810160405280929190818152602001828054801561259557602002820191906000526020600020905b8160009054906101000a900473ffffffffffffffffffffffffffffffffffffffff1673ffffffffffffffffffffffffffffffffffffffff168152602001906001019080831161254b575b5050505050905090565b60606040518060400160405280600781526020017f5375626a656374000000000000000000000000000000000000000000000000008152506000809054906101000a900473ffffffffffffffffffffffffffffffffffffffff1673ffffffffffffffffffffffffffffffffffffffff1663ffb28d9c33836040518363ffffffff1660e01b8152600401612633929190615227565b60206040518083038186803b15801561264b57600080fd5b505afa15801561265f573d6000803e3d6000fd5b505050506040513d601f19601f8201168201806040525061268391908101906149e5565b6126c2576040517f08c379a00000000000000000000000000000000000000000000000000000000081526004016126b990615451565b60405180910390fd5b6060600460003373ffffffffffffffffffffffffffffffffffffffff1673ffffffffffffffffffffffffffffffffffffffff16815260200190815260200160002080548060200260200160405190810160405280929190818152602001828054801561274d57602002820191906000526020600020905b815481526020019060010190808311612739575b50505050509050606081516040519080825280602002602001820160405280156127865781602001602082028038833980820191505090505b50905060008090505b825181101561284857600760003373ffffffffffffffffffffffffffffffffffffffff1673ffffffffffffffffffffffffffffffffffffffff16815260200190815260200160002060008483815181106127e557fe5b6020026020010151815260200190815260200160002060009054906101000a900460ff161561283b5782818151811061281a57fe5b602002602001015182828151811061282e57fe5b6020026020010181815250505b808060010191505061278f565b5080935050505090565b60606040518060400160405280600681526020017f49737375657200000000000000000000000000000000000000000000000000008152506000809054906101000a900473ffffffffffffffffffffffffffffffffffffffff1673ffffffffffffffffffffffffffffffffffffffff1663ffb28d9c33836040518363ffffffff1660e01b81526004016128e6929190615227565b60206040518083038186803b1580156128fe57600080fd5b505afa158015612912573d6000803e3d6000fd5b505050506040513d601f19601f8201168201806040525061293691908101906149e5565b612975576040517f08c379a000000000000000000000000000000000000000000000000000000000815260040161296c90615451565b60405180910390fd5b6060600560003373ffffffffffffffffffffffffffffffffffffffff1673ffffffffffffffffffffffffffffffffffffffff168152602001908152602001600020805480602002602001604051908101604052809291908181526020018280548015612a0057602002820191906000526020600020905b8154815260200190600101908083116129ec575b5050505050905060608151604051908082528060200260200182016040528015612a4457816020015b612a3161464b565b815260200190600190039081612a295790505b509050600080905060008090505b8351811015612f1a57600860003373ffffffffffffffffffffffffffffffffffffffff1673ffffffffffffffffffffffffffffffffffffffff1681526020019081526020016000206000858381518110612aa857fe5b6020026020010151815260200190815260200160002060009054906101000a900460ff1615612f0d5760026000858381518110612ae157fe5b6020026020010151815260200190815260200160002060405180610120016040529081600082015481526020016001820160009054906101000a900473ffffffffffffffffffffffffffffffffffffffff1673ffffffffffffffffffffffffffffffffffffffff1673ffffffffffffffffffffffffffffffffffffffff1681526020016002820160009054906101000a900473ffffffffffffffffffffffffffffffffffffffff1673ffffffffffffffffffffffffffffffffffffffff1673ffffffffffffffffffffffffffffffffffffffff168152602001600382018054600181600116156101000203166002900480601f016020809104026020016040519081016040528092919081815260200182805460018160011615610100020316600290048015612c525780601f10612c2757610100808354040283529160200191612c52565b820191906000526020600020905b815481529060010190602001808311612c3557829003601f168201915b5050505050815260200160048201548152602001600582018054600181600116156101000203166002900480601f016020809104026020016040519081016040528092919081815260200182805460018160011615610100020316600290048015612cfe5780601f10612cd357610100808354040283529160200191612cfe565b820191906000526020600020905b815481529060010190602001808311612ce157829003601f168201915b50505050508152602001600682018054600181600116156101000203166002900480601f016020809104026020016040519081016040528092919081815260200182805460018160011615610100020316600290048015612da05780601f10612d7557610100808354040283529160200191612da0565b820191906000526020600020905b815481529060010190602001808311612d8357829003601f168201915b50505050508152602001600782018054600181600116156101000203166002900480601f016020809104026020016040519081016040528092919081815260200182805460018160011615610100020316600290048015612e425780601f10612e1757610100808354040283529160200191612e42565b820191906000526020600020905b815481529060010190602001808311612e2557829003601f168201915b50505050508152602001600882018054600181600116156101000203166002900480601f016020809104026020016040519081016040528092919081815260200182805460018160011615610100020316600290048015612ee45780601f10612eb957610100808354040283529160200191612ee4565b820191906000526020600020905b815481529060010190602001808311612ec757829003601f168201915b505050505081525050838381518110612ef957fe5b602002602001018190525081806001019250505b8080600101915050612a52565b508194505050505090565b606080600a60003373ffffffffffffffffffffffffffffffffffffffff1673ffffffffffffffffffffffffffffffffffffffff168152602001908152602001600020805480602002602001604051908101604052809291908181526020018280548015612fe757602002820191906000526020600020905b8160009054906101000a900473ffffffffffffffffffffffffffffffffffffffff1673ffffffffffffffffffffffffffffffffffffffff1681526020019060010190808311612f9d575b50505050509050606081516040519080825280602002602001820160405280156130205781602001602082028038833980820191505090505b50905060008090505b825181101561313c57600960003373ffffffffffffffffffffffffffffffffffffffff1673ffffffffffffffffffffffffffffffffffffffff168152602001908152602001600020600084838151811061307f57fe5b602002602001015173ffffffffffffffffffffffffffffffffffffffff1673ffffffffffffffffffffffffffffffffffffffff16815260200190815260200160002060009054906101000a900460ff161561312f578281815181106130e057fe5b60200260200101518282815181106130f457fe5b602002602001019073ffffffffffffffffffffffffffffffffffffffff16908173ffffffffffffffffffffffffffffffffffffffff16815250505b8080600101915050613029565b50809250505090565b6040518060400160405280600681526020017f49737375657200000000000000000000000000000000000000000000000000008152506000809054906101000a900473ffffffffffffffffffffffffffffffffffffffff1673ffffffffffffffffffffffffffffffffffffffff1663ffb28d9c33836040518363ffffffff1660e01b81526004016131d7929190615227565b60206040518083038186803b1580156131ef57600080fd5b505afa158015613203573d6000803e3d6000fd5b505050506040513d601f19601f8201168201806040525061322791908101906149e5565b613266576040517f08c379a000000000000000000000000000000000000000000000000000000000815260040161325d90615451565b60405180910390fd5b816040518060400160405280600781526020017f5375626a656374000000000000000000000000000000000000000000000000008152506000809054906101000a900473ffffffffffffffffffffffffffffffffffffffff1673ffffffffffffffffffffffffffffffffffffffff1663ffb28d9c83836040518363ffffffff1660e01b81526004016132f9929190615280565b60206040518083038186803b15801561331157600080fd5b505afa158015613325573d6000803e3d6000fd5b505050506040513d601f19601f8201168201806040525061334991908101906149e5565b613388576040517f08c379a000000000000000000000000000000000000000000000000000000000815260040161337f90615331565b60405180910390fd5b600960008573ffffffffffffffffffffffffffffffffffffffff1673ffffffffffffffffffffffffffffffffffffffff16815260200190815260200160002060003373ffffffffffffffffffffffffffffffffffffffff1673ffffffffffffffffffffffffffffffffffffffff16815260200190815260200160002060009054906101000a900460ff16613451576040517f08c379a000000000000000000000000000000000000000000000000000000000815260040161344890615471565b60405180910390fd5b6000600960003373ffffffffffffffffffffffffffffffffffffffff1673ffffffffffffffffffffffffffffffffffffffff16815260200190815260200160002060008673ffffffffffffffffffffffffffffffffffffffff1673ffffffffffffffffffffffffffffffffffffffff16815260200190815260200160002060006101000a81548160ff0219169083151502179055506000600960008673ffffffffffffffffffffffffffffffffffffffff1673ffffffffffffffffffffffffffffffffffffffff16815260200190815260200160002060003373ffffffffffffffffffffffffffffffffffffffff1673ffffffffffffffffffffffffffffffffffffffff16815260200190815260200160002060006101000a81548160ff0219169083151502179055507f3c44ce647de06c73eb5744c9395edea226f4b767db4b643bd11b5e632e33009233856040516135ac9291906151d5565b60405180910390a150505050565b6040518060400160405280600681526020017f49737375657200000000000000000000000000000000000000000000000000008152506000809054906101000a900473ffffffffffffffffffffffffffffffffffffffff1673ffffffffffffffffffffffffffffffffffffffff1663ffb28d9c33836040518363ffffffff1660e01b815260040161364c929190615227565b60206040518083038186803b15801561366457600080fd5b505afa158015613678573d6000803e3d6000fd5b505050506040513d601f19601f8201168201806040525061369c91908101906149e5565b6136db576040517f08c379a00000000000000000000000000000000000000000000000000000000081526004016136d290615451565b60405180910390fd5b813373ffffffffffffffffffffffffffffffffffffffff166002600083815260200190815260200160002060020160009054906101000a900473ffffffffffffffffffffffffffffffffffffffff1673ffffffffffffffffffffffffffffffffffffffff1614613780576040517f08c379a0000000000000000000000000000000000000000000000000000000008152600401613777906153f1565b60405180910390fd5b82600154811061378f57600080fd5b6003600085815260200190815260200160002060009054906101000a900460ff166137ef576040517f08c379a00000000000000000000000000000000000000000000000000000000081526004016137e690615351565b60405180910390fd5b60006002600086815260200190815260200160002060010160009054906101000a900473ffffffffffffffffffffffffffffffffffffffff16905060006003600087815260200190815260200160002060006101000a81548160ff0219169083151502179055506000600760008373ffffffffffffffffffffffffffffffffffffffff1673ffffffffffffffffffffffffffffffffffffffff168152602001908152602001600020600087815260200190815260200160002060006101000a81548160ff0219169083151502179055506000600860003373ffffffffffffffffffffffffffffffffffffffff1673ffffffffffffffffffffffffffffffffffffffff168152602001908152602001600020600087815260200190815260200160002060006101000a81548160ff021916908315150217905550600260008681526020019081526020016000206000808201600090556001820160006101000a81549073ffffffffffffffffffffffffffffffffffffffff02191690556002820160006101000a81549073ffffffffffffffffffffffffffffffffffffffff02191690556003820160006139a291906146c3565b60048201600090556005820160006139ba91906146c3565b6006820160006139ca91906146c3565b6007820160006139da91906146c3565b6008820160006139ea91906146c3565b50507fe72d680134b83b91d9f2abafcc3c5b2dfdf12328c4d679e62001676c04a866cb3386604051613a1d929190615257565b60405180910390a15050505050565b60006040518060400160405280600681526020017f49737375657200000000000000000000000000000000000000000000000000008152506000809054906101000a900473ffffffffffffffffffffffffffffffffffffffff1673ffffffffffffffffffffffffffffffffffffffff1663ffb28d9c33836040518363ffffffff1660e01b8152600401613ac0929190615227565b60206040518083038186803b158015613ad857600080fd5b505afa158015613aec573d6000803e3d6000fd5b505050506040513d601f19601f82011682018060405250613b1091908101906149e5565b613b4f576040517f08c379a0000000000000000000000000000000000000000000000000000000008152600401613b4690615451565b60405180910390fd5b876040518060400160405280600781526020017f5375626a656374000000000000000000000000000000000000000000000000008152506000809054906101000a900473ffffffffffffffffffffffffffffffffffffffff1673ffffffffffffffffffffffffffffffffffffffff1663ffb28d9c83836040518363ffffffff1660e01b8152600401613be2929190615280565b60206040518083038186803b158015613bfa57600080fd5b505afa158015613c0e573d6000803e3d6000fd5b505050506040513d601f19601f82011682018060405250613c3291908101906149e5565b613c71576040517f08c379a0000000000000000000000000000000000000000000000000000000008152600401613c6890615331565b60405180910390fd5b600960008b73ffffffffffffffffffffffffffffffffffffffff1673ffffffffffffffffffffffffffffffffffffffff16815260200190815260200160002060003373ffffffffffffffffffffffffffffffffffffffff1673ffffffffffffffffffffffffffffffffffffffff16815260200190815260200160002060009054906101000a900460ff16613d3a576040517f08c379a0000000000000000000000000000000000000000000000000000000008152600401613d3190615471565b60405180910390fd5b600960003373ffffffffffffffffffffffffffffffffffffffff1673ffffffffffffffffffffffffffffffffffffffff16815260200190815260200160002060008b73ffffffffffffffffffffffffffffffffffffffff1673ffffffffffffffffffffffffffffffffffffffff16815260200190815260200160002060009054906101000a900460ff16613e03576040517f08c379a0000000000000000000000000000000000000000000000000000000008152600401613dfa906153b1565b60405180910390fd5b6000600160008154809291906001019190505590506000429050613e2561470b565b6040518061012001604052808481526020018e73ffffffffffffffffffffffffffffffffffffffff1681526020013373ffffffffffffffffffffffffffffffffffffffff1681526020018d81526020018381526020018c81526020018b81526020018a815260200189815250905080600260008581526020019081526020016000206000820151816000015560208201518160010160006101000a81548173ffffffffffffffffffffffffffffffffffffffff021916908373ffffffffffffffffffffffffffffffffffffffff16021790555060408201518160020160006101000a81548173ffffffffffffffffffffffffffffffffffffffff021916908373ffffffffffffffffffffffffffffffffffffffff1602179055506060820151816003019080519060200190613f5b929190614783565b506080820151816004015560a0820151816005019080519060200190613f82929190614783565b5060c0820151816006019080519060200190613f9f929190614783565b5060e0820151816007019080519060200190613fbc929190614783565b50610100820151816008019080519060200190613fda929190614783565b5090505060016003600085815260200190815260200160002060006101000a81548160ff021916908315150217905550600460008e73ffffffffffffffffffffffffffffffffffffffff1673ffffffffffffffffffffffffffffffffffffffff1681526020019081526020016000208390806001815401808255809150509060018203906000526020600020016000909192909190915055506001600760008f73ffffffffffffffffffffffffffffffffffffffff1673ffffffffffffffffffffffffffffffffffffffff168152602001908152602001600020600085815260200190815260200160002060006101000a81548160ff021916908315150217905550600560003373ffffffffffffffffffffffffffffffffffffffff1673ffffffffffffffffffffffffffffffffffffffff1681526020019081526020016000208390806001815401808255809150509060018203906000526020600020016000909192909190915055506001600860003373ffffffffffffffffffffffffffffffffffffffff1673ffffffffffffffffffffffffffffffffffffffff168152602001908152602001600020600085815260200190815260200160002060006101000a81548160ff0219169083151502179055507f52775ded20614b213cad95910a18378999957eaf600abebde11f2a055710a62683338f6040516141e1939291906154b1565b60405180910390a1600196505050505050509695505050505050565b6000600960008373ffffffffffffffffffffffffffffffffffffffff1673ffffffffffffffffffffffffffffffffffffffff16815260200190815260200160002060003373ffffffffffffffffffffffffffffffffffffffff1673ffffffffffffffffffffffffffffffffffffffff16815260200190815260200160002060009054906101000a900460ff16801561431b5750600960003373ffffffffffffffffffffffffffffffffffffffff1673ffffffffffffffffffffffffffffffffffffffff16815260200190815260200160002060008373ffffffffffffffffffffffffffffffffffffffff1673ffffffffffffffffffffffffffffffffffffffff16815260200190815260200160002060009054906101000a900460ff165b15614329576001905061432e565b600090505b919050565b60006040518060400160405280600781526020017f5375626a656374000000000000000000000000000000000000000000000000008152506000809054906101000a900473ffffffffffffffffffffffffffffffffffffffff1673ffffffffffffffffffffffffffffffffffffffff1663ffb28d9c33836040518363ffffffff1660e01b81526004016143c7929190615227565b60206040518083038186803b1580156143df57600080fd5b505afa1580156143f3573d6000803e3d6000fd5b505050506040513d601f19601f8201168201806040525061441791908101906149e5565b614456576040517f08c379a000000000000000000000000000000000000000000000000000000000815260040161444d90615451565b60405180910390fd5b826040518060400160405280600881526020017f56657269666965720000000000000000000000000000000000000000000000008152506000809054906101000a900473ffffffffffffffffffffffffffffffffffffffff1673ffffffffffffffffffffffffffffffffffffffff1663ffb28d9c83836040518363ffffffff1660e01b81526004016144e9929190615280565b60206040518083038186803b15801561450157600080fd5b505afa158015614515573d6000803e3d6000fd5b505050506040513d601f19601f8201168201806040525061453991908101906149e5565b614578576040517f08c379a000000000000000000000000000000000000000000000000000000000815260040161456f90615331565b60405180910390fd5b6000600660003373ffffffffffffffffffffffffffffffffffffffff1673ffffffffffffffffffffffffffffffffffffffff16815260200190815260200160002060008773ffffffffffffffffffffffffffffffffffffffff1673ffffffffffffffffffffffffffffffffffffffff16815260200190815260200160002060009054906101000a900460ff1690507f2e0f9c96c7436db86ca516bc00ca3e40fe4e7c0fef4c020dbd770fcba42f57e033826040516146379291906151fe565b60405180910390a180945050505050919050565b60405180610120016040528060008152602001600073ffffffffffffffffffffffffffffffffffffffff168152602001600073ffffffffffffffffffffffffffffffffffffffff1681526020016060815260200160008152602001606081526020016060815260200160608152602001606081525090565b50805460018160011615610100020316600290046000825580601f106146e95750614708565b601f0160209004906000526020600020908101906147079190614803565b5b50565b60405180610120016040528060008152602001600073ffffffffffffffffffffffffffffffffffffffff168152602001600073ffffffffffffffffffffffffffffffffffffffff1681526020016060815260200160008152602001606081526020016060815260200160608152602001606081525090565b828054600181600116156101000203166002900490600052602060002090601f016020900481019282601f106147c457805160ff19168380011785556147f2565b828001600101855582156147f2579182015b828111156147f15782518255916020019190600101906147d6565b5b5090506147ff9190614803565b5090565b61482591905b80821115614821576000816000905550600101614809565b5090565b90565b600081359050614837816156f5565b92915050565b60008151905061484c8161570c565b92915050565b600082601f83011261486357600080fd5b813561487661487182615515565b6154e8565b9150808252602083016020830185838301111561489257600080fd5b61489d8382846156a2565b50505092915050565b6000813590506148b581615723565b92915050565b6000602082840312156148cd57600080fd5b60006148db84828501614828565b91505092915050565b60008060008060008060c087890312156148fd57600080fd5b600061490b89828a01614828565b965050602087013567ffffffffffffffff81111561492857600080fd5b61493489828a01614852565b955050604087013567ffffffffffffffff81111561495157600080fd5b61495d89828a01614852565b945050606087013567ffffffffffffffff81111561497a57600080fd5b61498689828a01614852565b935050608087013567ffffffffffffffff8111156149a357600080fd5b6149af89828a01614852565b92505060a087013567ffffffffffffffff8111156149cc57600080fd5b6149d889828a01614852565b9150509295509295509295565b6000602082840312156149f757600080fd5b6000614a058482850161483d565b91505092915050565b600060208284031215614a2057600080fd5b6000614a2e848285016148a6565b91505092915050565b6000614a438383614a8a565b60208301905092915050565b6000614a5b83836150d6565b905092915050565b6000614a6f83836151b7565b60208301905092915050565b614a848161566c565b82525050565b614a9381615624565b82525050565b614aa281615624565b82525050565b6000614ab382615571565b614abd81856155cf565b9350614ac883615541565b8060005b83811015614af9578151614ae08882614a37565b9750614aeb836155a8565b925050600181019050614acc565b5085935050505092915050565b6000614b118261557c565b614b1b81856155e0565b935083602082028501614b2d85615551565b8060005b85811015614b695784840389528151614b4a8582614a4f565b9450614b55836155b5565b925060208a01995050600181019050614b31565b50829750879550505050505092915050565b6000614b8682615587565b614b9081856155f1565b9350614b9b83615561565b8060005b83811015614bcc578151614bb38882614a63565b9750614bbe836155c2565b925050600181019050614b9f565b5085935050505092915050565b614be281615636565b82525050565b6000614bf38261559d565b614bfd8185615613565b9350614c0d8185602086016156b1565b614c16816156e4565b840191505092915050565b6000614c2c82615592565b614c368185615602565b9350614c468185602086016156b1565b614c4f816156e4565b840191505092915050565b6000614c67603983615613565b91507f5468697320616374696f6e2063616e206f6e6c7920626520706572666f726d6560008301527f64206279207573657220696e206f7572206e6574776f726b2e000000000000006020830152604082019050919050565b6000614ccd602983615613565b91507f5468652063657274696669636174652068617320616c7265616479206265656e60008301527f207265766f6b65642e00000000000000000000000000000000000000000000006020830152604082019050919050565b6000614d33601f83615613565b91507f5375626a65637420686173206e6f74206d616465206120726571756573742e006000830152602082019050919050565b6000614d73602683615613565b91507f596f75206861766520616c72656164792072657175657374656420666f72206160008301527f20636572742e00000000000000000000000000000000000000000000000000006020830152604082019050919050565b6000614dd9601d83615613565b91507f53747564656e7420686173206e6f74206265656e20617070726f76652e0000006000830152602082019050919050565b6000614e19602783615613565b91507f56657269666965722068617320616c7265616479206265656e20676976656e2060008301527f6163636573732e000000000000000000000000000000000000000000000000006020830152604082019050919050565b6000614e7f603c83615613565b91507f5468697320616374696f6e2063616e206f6e6c7920626520706572666f726d6560008301527f6420627920746865206365727469666963617465206973737565722e000000006020830152604082019050919050565b6000614ee5603883615613565b91507f596f752068617665206e6f2076696577696e672061636365737320666f72207460008301527f6865207375626a656374206365727469666963617465732e00000000000000006020830152604082019050919050565b6000614f4b602283615613565b91507f5375626a6563742068617320616c7265616479206265656e20617070726f766560008301527f642e0000000000000000000000000000000000000000000000000000000000006020830152604082019050919050565b6000614fb1603683615613565b91507f5468697320616374696f6e2063616e206f6e6c7920626520706572666f726d6560008301527f6420627920617574686f72697a656420726f6c65732e000000000000000000006020830152604082019050919050565b6000615017602783615613565b91507f5375626a65637420686173206e6f74207265717565737420666f722061206e6560008301527f7720636572742e000000000000000000000000000000000000000000000000006020830152604082019050919050565b600061507d602883615613565b91507f56657269666965722068617320616c7265616479206265656e2064656e69656460008301527f206163636573732e0000000000000000000000000000000000000000000000006020830152604082019050919050565b6000610120830160008301516150ef60008601826151b7565b5060208301516151026020860182614a8a565b5060408301516151156040860182614a8a565b506060830151848203606086015261512d8282614c21565b915050608083015161514260808601826151b7565b5060a083015184820360a086015261515a8282614c21565b91505060c083015184820360c08601526151748282614c21565b91505060e083015184820360e086015261518e8282614c21565b9150506101008301518482036101008601526151aa8282614c21565b9150508091505092915050565b6151c081615662565b82525050565b6151cf81615662565b82525050565b60006040820190506151ea6000830185614a7b565b6151f76020830184614a99565b9392505050565b60006040820190506152136000830185614a7b565b6152206020830184614bd9565b9392505050565b600060408201905061523c6000830185614a7b565b818103602083015261524e8184614be8565b90509392505050565b600060408201905061526c6000830185614a7b565b61527960208301846151c6565b9392505050565b60006040820190506152956000830185614a99565b81810360208301526152a78184614be8565b90509392505050565b600060208201905081810360008301526152ca8184614aa8565b905092915050565b600060208201905081810360008301526152ec8184614b06565b905092915050565b6000602082019050818103600083015261530e8184614b7b565b905092915050565b600060208201905061532b6000830184614bd9565b92915050565b6000602082019050818103600083015261534a81614c5a565b9050919050565b6000602082019050818103600083015261536a81614cc0565b9050919050565b6000602082019050818103600083015261538a81614d26565b9050919050565b600060208201905081810360008301526153aa81614d66565b9050919050565b600060208201905081810360008301526153ca81614dcc565b9050919050565b600060208201905081810360008301526153ea81614e0c565b9050919050565b6000602082019050818103600083015261540a81614e72565b9050919050565b6000602082019050818103600083015261542a81614ed8565b9050919050565b6000602082019050818103600083015261544a81614f3e565b9050919050565b6000602082019050818103600083015261546a81614fa4565b9050919050565b6000602082019050818103600083015261548a8161500a565b9050919050565b600060208201905081810360008301526154aa81615070565b9050919050565b60006060820190506154c660008301866151c6565b6154d36020830185614a7b565b6154e06040830184614a99565b949350505050565b6000604051905081810181811067ffffffffffffffff8211171561550b57600080fd5b8060405250919050565b600067ffffffffffffffff82111561552c57600080fd5b601f19601f8301169050602081019050919050565b6000819050602082019050919050565b6000819050602082019050919050565b6000819050602082019050919050565b600081519050919050565b600081519050919050565b600081519050919050565b600081519050919050565b600081519050919050565b6000602082019050919050565b6000602082019050919050565b6000602082019050919050565b600082825260208201905092915050565b600082825260208201905092915050565b600082825260208201905092915050565b600082825260208201905092915050565b600082825260208201905092915050565b600061562f82615642565b9050919050565b60008115159050919050565b600073ffffffffffffffffffffffffffffffffffffffff82169050919050565b6000819050919050565b60006156778261567e565b9050919050565b600061568982615690565b9050919050565b600061569b82615642565b9050919050565b82818337600083830152505050565b60005b838110156156cf5780820151818401526020810190506156b4565b838111156156de576000848401525b50505050565b6000601f19601f8301169050919050565b6156fe81615624565b811461570957600080fd5b50565b61571581615636565b811461572057600080fd5b50565b61572c81615662565b811461573757600080fd5b5056fea365627a7a723158205e4d032fc9b0cbf5b761e87f861d5d6fa45f767bb7f161cb255d4fcd4f9234d26c6578706572696d656e74616cf564736f6c63430005100040",
  "source": "pragma solidity >=0.5.0;\nimport \"./CertificateNetwork.sol\";\npragma experimental ABIEncoderV2;\n\ncontract Certificate {\n    CertificateNetwork certNetwork;\n    uint256 internal totalCert; // Total Counter Added CertNo + track certId\n\n    mapping(uint256 => Cert) private certsMap; // all created certs\n    mapping(uint256 => bool) private certExistMap; // T - cert is valid , F - cert is revoked, got record means created before\n    mapping(address => uint256[]) private subjectToCertListMap; // map subject to issued certs(by certId) by issuers\n    mapping(address => uint256[]) private issuerToCertListMap; // map issuer to issued certs(by certId)\n\n    mapping(address => mapping(address => bool)) private subjectToVerifierMap; // S>(V>bool), map subject to all approved verifiers to view all certs\n    mapping(address => mapping(uint256 => bool)) private subjectToCertMap;\n    mapping(address => mapping(uint256 => bool)) private issuerToCertMap;\n    mapping(address => mapping(address => bool)) private requestMap;\n\n    mapping(address => address[]) private reqListMap;\n    mapping(address => address[]) private grantListMap;\n\n    // Events\n    event IssuedCertificate(\n        uint256 certId,\n        address issuerAddr,\n        address subjectAddr\n    );\n    event RevokeCertificate(address issuer, uint256 certId);\n    event RequestCertificate(address subjectAddr, address issuerAddr);\n    event AcceptSubjectRequest(address issuerAddr, address subjectAddr);\n    event RejectSubjectRequest(address issuerAddr, address subjectAddr);\n    event GiveAccessViewing(address subjectAddr, address verifierAddr);\n    event DenyAccessViewing(address subjectAddr, address verifierAddr);\n    event ViewSubjectCerts(address verifierAddr, address subjectAddr);\n    event ViewVerifierStatus(address subjectAddr, bool status);\n    event ViewSubjectStatus(address verifierAddr, bool status);\n\n    // Structs\n    struct Cert {\n        uint256 certId; //Get CertId\n        address owner; // Subject address\n        address issuerAddr; // Issuer address\n        string issuerName; // (NUS,NTU,Coursera,LinkedIn)\n        uint256 creationDate; // cert creation date\n        string nric; // s9673333A\n        string serialNo; //https://www.ibm.com/docs/en/ibm-mq/7.5?topic=certificates-what-is-in-digital-certificate\n        string title; // cert title\n        string completionDate; // date which subject completed the cert requirements\n        // remove variables:\n        // string studName; // subject name\n        // string rollNumber; //unique identification number that can be assigned to a SUBJECT during admission.\n        // string details; // modules taken, etc.\n    }\n\n    constructor(CertificateNetwork cn) public {\n        certNetwork = cn;\n        totalCert = 1;\n    }\n\n    // Modifiers\n\n    // Used for functions with specific roles\n    modifier onlyValidRoles(string memory role) {\n        require(\n            certNetwork.checkUserExist(msg.sender, role),\n            \"This action can only be performed by authorized roles.\"\n        );\n        _;\n    }\n\n    // Used to check if a user exist, i.e. issue cert to subject, check if that subject exist in our system.\n    modifier userExist(address addr, string memory role) {\n        require(\n            certNetwork.checkUserExist(addr, role),\n            \"This action can only be performed by user in our network.\"\n        );\n        _;\n    }\n\n    // Used this for determining valid cert\n    modifier validCertId(uint256 certId) {\n        require(certId < totalCert);\n        _;\n    }\n    modifier onlyCertOwner(uint256 certId) {\n        require(\n            certsMap[certId].owner == msg.sender,\n            \"This action can only be performed by the certificate owner.\"\n        );\n        _;\n    }\n    modifier onlyCertIssuer(uint256 certId) {\n        require(\n            certsMap[certId].issuerAddr == msg.sender,\n            \"This action can only be performed by the certificate issuer.\"\n        );\n        _;\n    }\n\n    // TODO: JAOKUEAN\n    // Request cert from issuer. (SUBJECT -> ISSUER)\n    // Issue: subject can spam request for each issuer without being a subject\n    // Assumptions:\n    // 1. Subject know school block addr\n    // 2. Subject belongs to the school and is legitamite.\n    // 3. Subject only needs to request from the sch once for a sch to send all the subjects cert.\n    function requestCert(address issuerAddr)\n        public\n        onlyValidRoles(\"Subject\")\n        userExist(issuerAddr, \"Issuer\")\n    {\n        require(\n            !requestMap[msg.sender][issuerAddr],\n            \"You have already requested for a cert.\"\n        );\n\n        requestMap[msg.sender][issuerAddr] = true; // subject request\n        requestMap[issuerAddr][msg.sender] = true; // issuer to approve\n\n        \n        reqListMap[msg.sender].push(issuerAddr);\n        reqListMap[issuerAddr].push(msg.sender);\n\n        emit RequestCertificate(msg.sender, issuerAddr);\n    }\n\n    // Approve student request before you can issue cert\n    function acceptRequest(address subjectAddr)\n        public\n        onlyValidRoles(\"Issuer\")\n        userExist(subjectAddr, \"Subject\")\n    {\n        require(\n            requestMap[subjectAddr][msg.sender],\n            \"Subject has not made a request.\"\n        );\n        require(\n            !requestMap[msg.sender][subjectAddr],\n            \"Subject has already been approved.\"\n        );\n        requestMap[msg.sender][subjectAddr] = true;\n\n        emit AcceptSubjectRequest(msg.sender, subjectAddr);\n    }\n\n    function rejectRequest(address subjectAddr)\n        public\n        onlyValidRoles(\"Issuer\")\n        userExist(subjectAddr, \"Subject\")\n    {\n        require(\n            requestMap[subjectAddr][msg.sender],\n            \"Subject has not request for a new cert.\"\n        );\n\n        requestMap[msg.sender][subjectAddr] = false;\n        requestMap[subjectAddr][msg.sender] = false;\n        emit RejectSubjectRequest(msg.sender, subjectAddr);\n    }\n\n    // TODO: Xie Ran\n    // Grant access to a verifier to viewing all subject certs.(SUBJECT -> VERIFIER)\n    function grantVerifier(address verifierAddr)\n        public\n        onlyValidRoles(\"Subject\")\n        userExist(verifierAddr, \"Verifier\")\n    {\n        require(\n            !subjectToVerifierMap[msg.sender][verifierAddr],\n            \"Verifier has already been given access.\"\n        );\n\n        subjectToVerifierMap[msg.sender][verifierAddr] = true;\n        subjectToVerifierMap[verifierAddr][msg.sender] = true;\n\n        grantListMap[msg.sender].push(verifierAddr);\n        grantListMap[verifierAddr].push(msg.sender);\n\n        emit GiveAccessViewing(msg.sender, verifierAddr);\n    }\n\n    // TODO:Xie Ran\n    // Deny access to a verifier to viewing all subject certs.(SUBJECT -> VERIFIER)\n    function denyVerifier(address verifierAddr)\n        public\n        onlyValidRoles(\"Subject\")\n        userExist(verifierAddr, \"Verifier\")\n    {\n        require(\n            subjectToVerifierMap[msg.sender][verifierAddr],\n            \"Verifier has already been denied access.\"\n        );\n\n        subjectToVerifierMap[msg.sender][verifierAddr] = false;\n        subjectToVerifierMap[verifierAddr][msg.sender] = false;\n\n        emit DenyAccessViewing(msg.sender, verifierAddr);\n    }\n\n    // TODO: ShiKai\n    // address owner; // Subject address\n    // address issuerAddr; // Issuer address\n    // string issuerName; // (NUS,NTU,Coursera,LinkedIn)\n    // string creationDate; // cert creation date\n    // string nric; // s9673333A\n    // string matricNo; //subject admin no, e.g A0200100X\n    // string title; // cert title\n    // string completionDate; // date which subject completed the cert requirements\n    function issueCertificate(\n        address subjectAddr,\n        string memory _issuerName,\n        string memory _nric,\n        string memory _serialNo,\n        string memory _title,\n        string memory _completionDate\n    )\n        public\n        onlyValidRoles(\"Issuer\")\n        userExist(subjectAddr, \"Subject\")\n        returns (bool Status)\n    {\n        require(\n            requestMap[subjectAddr][msg.sender],\n            \"Subject has not request for a new cert.\"\n        );\n        require(\n            requestMap[msg.sender][subjectAddr],\n            \"Student has not been approve.\"\n        );\n\n        uint256 newCertId = totalCert++; // new cert id before transfer to subject\n        uint256 _creationDate = block.timestamp;\n\n        Cert memory newCert = Cert(\n            newCertId,\n            subjectAddr,\n            msg.sender,\n            _issuerName,\n            _creationDate,\n            _nric,\n            _serialNo,\n            _title,\n            _completionDate\n        );\n\n        //TODO: Check for duplicate cert details?\n        certsMap[newCertId] = newCert; // add to cert mapping\n        certExistMap[newCertId] = true; // for cert exist modifier\n\n        subjectToCertListMap[subjectAddr].push(newCertId); // add to subject list of certs\n        subjectToCertMap[subjectAddr][newCertId] = true;\n\n        issuerToCertListMap[msg.sender].push(newCertId); // add to issuer list of certs\n        issuerToCertMap[msg.sender][newCertId] = true;\n\n        emit IssuedCertificate(newCertId, msg.sender, subjectAddr); // Log event\n\n        return true;\n    }\n\n    // TODO: JK\n    // Delete cert in case of wrong issue or revoked.\n    // Assumption:\n    // 1. we do not delete the cert block, but set the existence to false to indicate it was deleted\n    // Question - Do we keep the certExist or just erase from existence?\n    function revokeCert(uint256 certId)\n        public\n        onlyValidRoles(\"Issuer\")\n        onlyCertIssuer(certId)\n        validCertId(certId)\n    {\n        require(\n            certExistMap[certId],\n            \"The certificate has already been revoked.\"\n        );\n\n        address subjectAddr = certsMap[certId].owner; // get owner of cert\n        certExistMap[certId] = false; // for cert exist modifier\n        subjectToCertMap[subjectAddr][certId] = false; // remove mapping\n        issuerToCertMap[msg.sender][certId] = false; // remove mapping\n\n        delete certsMap[certId]; // Remove from mapping, cert does not exist anymore\n\n        emit RevokeCertificate(msg.sender, certId);\n    }\n\n    // Alternate code to retrieve all certs from a subject\n    // Verifiers > Subject\n    // return all viewable certIDs\n    // can be extended to retrieve all struct info.\n    function getCertListVerifiers(address subjectAddr)\n        public\n        view\n        onlyValidRoles(\"Verifier\")\n        userExist(subjectAddr, \"Subject\")\n        returns (Cert[] memory)\n    {\n        require(\n            subjectToVerifierMap[subjectAddr][msg.sender],\n            \"You have no viewing access for the subject certificates.\"\n        );\n        uint256[] memory certList = subjectToCertListMap[subjectAddr];\n        Cert[] memory newList = new Cert[](certList.length);\n        uint256 y = 0;\n        for (uint256 i = 0; i < certList.length; i++) {\n            if (subjectToCertMap[subjectAddr][certList[i]]) {\n                // Get all viewable certs\n                newList[y] = certsMap[certList[i]];\n                y ++;\n                // newList.push(certsMap[certList[i]]) // Push entire cert struct\n            }\n        }\n        return newList;\n    }\n\n    function getCertListSubjects()\n        public\n        view\n        onlyValidRoles(\"Subject\")\n        returns (uint256[] memory)\n    {\n        uint256[] memory certList = subjectToCertListMap[msg.sender];\n        uint256[] memory newList = new uint256[](certList.length);\n        for (uint256 i = 0; i < certList.length; i++) {\n            if (subjectToCertMap[msg.sender][certList[i]]) {\n                // Get all viewable certs\n                newList[i] = certList[i];\n                // newList.push(certsMap[certList[i]]) // Push entire cert struct\n            }\n        }\n        return newList;\n    }\n\n    function getCertListIssuers()\n        public\n        view\n        onlyValidRoles(\"Issuer\")\n        returns (Cert[] memory)\n    {\n        uint256[] memory certList = issuerToCertListMap[msg.sender];\n        Cert[] memory newList = new Cert[](certList.length);\n        uint256 y = 0;\n        for (uint256 i = 0; i < certList.length; i++) {\n            if (issuerToCertMap[msg.sender][certList[i]]) {\n                // Get all viewable certs\n                // newList[i] = certList[i];\n                newList[y] = certsMap[certList[i]];\n                y ++;\n            }\n        }\n        return newList;\n    }\n\n    // Getters and Setters\n\n    //getters by XR:\n    //for a subject to check the viewing rights of a verifier\n    function checkVerifier(address verifier)\n        public\n        onlyValidRoles(\"Subject\")\n        userExist(verifier, \"Verifier\")\n        returns (bool)\n    {\n        bool status = subjectToVerifierMap[msg.sender][verifier];\n        emit ViewVerifierStatus(msg.sender, status);\n        return status;\n    }\n\n    //Frontend[subject]: loop thr all verifier addresses to display the list of verifiers approved by the subject.\n\n    //for a verifier to check whether he/she can view a subject's certs\n    function checkSubject(address subject)\n        public\n        onlyValidRoles(\"Verifier\")\n        userExist(subject, \"Subject\")\n        returns (bool)\n    {\n        bool status = subjectToVerifierMap[subject][msg.sender];\n        emit ViewSubjectStatus(msg.sender, status);\n        return status;\n    }\n\n    //Frontend[verifier]: loop thr all subject addresses to display the list of subjects viewable by the verifier.\n\n    //function to check a request from a subject\n    function checkRequest(address issuerAddr)\n        public\n        view\n        returns (bool)\n    {\n        if (\n            requestMap[issuerAddr][msg.sender] &&\n            requestMap[msg.sender][issuerAddr]\n        ) {\n            return true;\n        }\n        return false;\n    }\n\n    // function for subject/issuer to see all request to issuer/subject\n    function getApprovedReqList() public view returns (address[] memory) {\n        address[] memory reqList = reqListMap[msg.sender];\n        address[] memory newList = new address[](reqList.length);\n\n        for (uint256 i = 0; i < reqList.length; i++) {\n            // check if issuer approve subject and student make req to issuer\n            if (requestMap[msg.sender][reqList[i]]) {\n                // Get all viewable certs\n                newList[i] = reqList[i];\n            }\n        }\n        return newList;\n    }\n\n    // Subject request to Issuer list\n    // Issuer request from Subject List\n    function getReqList() public view returns (address[] memory) {\n        return reqListMap[msg.sender];\n    }\n\n    // function for subject/issuer to see all request to issuer/subject\n    function getGrantList() public view returns (address[] memory) {\n        // address[] memory grantList = grantListMap[msg.sender];\n        // address[] memory newList = new address[](grantList.length);\n\n        // for (uint256 i = 0; i < grantList.length; i++) {\n        //     // check if issuer approve subject and student make req to issuer\n        //     if (subjectToVerifierMap[msg.sender][grantList[i]]) {\n        //         // Get all viewable certs\n        //         newList[i] = grantList[i];\n        //     }\n        // }\n        return grantListMap[msg.sender];\n    }\n\n    function checkCertExist(uint256 certId) public view returns (bool) {\n        return certExistMap[certId];\n    }\n\n    // For testing gasCost for any inefficiency\n    function GasCost(function() internal returns (string memory) fun)\n        internal\n        returns (uint256)\n    {\n        uint256 u0 = gasleft();\n        string memory sm = fun();\n        uint256 u1 = gasleft();\n        uint256 diff = u0 - u1;\n        return diff;\n    }\n\n    //TODO: getGrantList with actual grant\n}\n",
  "sourcePath": "/Users/stellaang/Desktop/NUS/Y3S2/IS4302/Project/IS4302_Project/contracts/Certificate.sol",
  "compiler": {
    "name": "solc",
    "version": "0.5.16+commit.9c3226ce.Emscripten.clang"
  },
  "schemaVersion": "3.4.4",
  "updatedAt": "2022-04-06T05:12:53.056Z",
  "networkType": "ethereum",
  "devdoc": {
    "methods": {}
  },
  "userdoc": {
    "methods": {}
  }
}