{
  "contractName": "Certificate",
  "abi": [
    {
      "inputs": [
        {
          "internalType": "contract CertificateNetwork",
          "name": "cn",
          "type": "address"
        }
      ],
      "payable": false,
      "stateMutability": "nonpayable",
      "type": "constructor"
    },
    {
      "anonymous": false,
      "inputs": [
        {
          "indexed": false,
          "internalType": "address",
          "name": "issuerAddr",
          "type": "address"
        },
        {
          "indexed": false,
          "internalType": "address",
          "name": "subjectAddr",
          "type": "address"
        }
      ],
      "name": "AcceptSubjectRequest",
      "type": "event"
    },
    {
      "anonymous": false,
      "inputs": [
        {
          "indexed": false,
          "internalType": "address",
          "name": "subjectAddr",
          "type": "address"
        },
        {
          "indexed": false,
          "internalType": "address",
          "name": "verifierAddr",
          "type": "address"
        }
      ],
      "name": "DenyAccessViewing",
      "type": "event"
    },
    {
      "anonymous": false,
      "inputs": [
        {
          "indexed": false,
          "internalType": "address",
          "name": "subjectAddr",
          "type": "address"
        },
        {
          "indexed": false,
          "internalType": "address",
          "name": "verifierAddr",
          "type": "address"
        }
      ],
      "name": "GiveAccessViewing",
      "type": "event"
    },
    {
      "anonymous": false,
      "inputs": [
        {
          "indexed": false,
          "internalType": "uint256",
          "name": "certId",
          "type": "uint256"
        },
        {
          "indexed": false,
          "internalType": "address",
          "name": "issuerAddr",
          "type": "address"
        },
        {
          "indexed": false,
          "internalType": "address",
          "name": "subjectAddr",
          "type": "address"
        }
      ],
      "name": "IssuedCertificate",
      "type": "event"
    },
    {
      "anonymous": false,
      "inputs": [
        {
          "indexed": false,
          "internalType": "address",
          "name": "issuerAddr",
          "type": "address"
        },
        {
          "indexed": false,
          "internalType": "address",
          "name": "subjectAddr",
          "type": "address"
        }
      ],
      "name": "RejectSubjectRequest",
      "type": "event"
    },
    {
      "anonymous": false,
      "inputs": [
        {
          "indexed": false,
          "internalType": "address",
          "name": "subjectAddr",
          "type": "address"
        },
        {
          "indexed": false,
          "internalType": "address",
          "name": "issuerAddr",
          "type": "address"
        }
      ],
      "name": "RequestCertificate",
      "type": "event"
    },
    {
      "anonymous": false,
      "inputs": [
        {
          "indexed": false,
          "internalType": "address",
          "name": "issuer",
          "type": "address"
        },
        {
          "indexed": false,
          "internalType": "uint256",
          "name": "certId",
          "type": "uint256"
        }
      ],
      "name": "RevokeCertificate",
      "type": "event"
    },
    {
      "anonymous": false,
      "inputs": [
        {
          "indexed": false,
          "internalType": "address",
          "name": "verifierAddr",
          "type": "address"
        },
        {
          "indexed": false,
          "internalType": "address",
          "name": "subjectAddr",
          "type": "address"
        }
      ],
      "name": "ViewSubjectCerts",
      "type": "event"
    },
    {
      "anonymous": false,
      "inputs": [
        {
          "indexed": false,
          "internalType": "address",
          "name": "verifierAddr",
          "type": "address"
        },
        {
          "indexed": false,
          "internalType": "bool",
          "name": "status",
          "type": "bool"
        }
      ],
      "name": "ViewSubjectStatus",
      "type": "event"
    },
    {
      "anonymous": false,
      "inputs": [
        {
          "indexed": false,
          "internalType": "address",
          "name": "subjectAddr",
          "type": "address"
        },
        {
          "indexed": false,
          "internalType": "bool",
          "name": "status",
          "type": "bool"
        }
      ],
      "name": "ViewVerifierStatus",
      "type": "event"
    },
    {
      "constant": false,
      "inputs": [
        {
          "internalType": "address",
          "name": "issuerAddr",
          "type": "address"
        }
      ],
      "name": "requestCert",
      "outputs": [],
      "payable": false,
      "stateMutability": "nonpayable",
      "type": "function"
    },
    {
      "constant": false,
      "inputs": [
        {
          "internalType": "address",
          "name": "subjectAddr",
          "type": "address"
        }
      ],
      "name": "acceptRequest",
      "outputs": [],
      "payable": false,
      "stateMutability": "nonpayable",
      "type": "function"
    },
    {
      "constant": false,
      "inputs": [
        {
          "internalType": "address",
          "name": "subjectAddr",
          "type": "address"
        }
      ],
      "name": "rejectRequest",
      "outputs": [],
      "payable": false,
      "stateMutability": "nonpayable",
      "type": "function"
    },
    {
      "constant": false,
      "inputs": [
        {
          "internalType": "address",
          "name": "verifierAddr",
          "type": "address"
        }
      ],
      "name": "grantVerifier",
      "outputs": [],
      "payable": false,
      "stateMutability": "nonpayable",
      "type": "function"
    },
    {
      "constant": false,
      "inputs": [
        {
          "internalType": "address",
          "name": "verifierAddr",
          "type": "address"
        }
      ],
      "name": "denyVerifier",
      "outputs": [],
      "payable": false,
      "stateMutability": "nonpayable",
      "type": "function"
    },
    {
      "constant": false,
      "inputs": [
        {
          "internalType": "address",
          "name": "subjectAddr",
          "type": "address"
        },
        {
          "internalType": "string",
          "name": "_issuerName",
          "type": "string"
        },
        {
          "internalType": "string",
          "name": "_nric",
          "type": "string"
        },
        {
          "internalType": "string",
          "name": "_matricNo",
          "type": "string"
        },
        {
          "internalType": "string",
          "name": "_title",
          "type": "string"
        },
        {
          "internalType": "string",
          "name": "_completionDate",
          "type": "string"
        }
      ],
      "name": "issueCertificate",
      "outputs": [
        {
          "internalType": "bool",
          "name": "Status",
          "type": "bool"
        }
      ],
      "payable": false,
      "stateMutability": "nonpayable",
      "type": "function"
    },
    {
      "constant": false,
      "inputs": [
        {
          "internalType": "uint256",
          "name": "certId",
          "type": "uint256"
        }
      ],
      "name": "revokeCert",
      "outputs": [],
      "payable": false,
      "stateMutability": "nonpayable",
      "type": "function"
    },
    {
      "constant": true,
      "inputs": [
        {
          "internalType": "address",
          "name": "subjectAddr",
          "type": "address"
        }
      ],
      "name": "getCertListVerifiers",
      "outputs": [
        {
          "internalType": "uint256[]",
          "name": "",
          "type": "uint256[]"
        }
      ],
      "payable": false,
      "stateMutability": "view",
      "type": "function"
    },
    {
      "constant": true,
      "inputs": [],
      "name": "getCertListSubjects",
      "outputs": [
        {
          "internalType": "uint256[]",
          "name": "",
          "type": "uint256[]"
        }
      ],
      "payable": false,
      "stateMutability": "view",
      "type": "function"
    },
    {
      "constant": true,
      "inputs": [],
      "name": "getCertListIssuers",
      "outputs": [
        {
          "internalType": "uint256[]",
          "name": "",
          "type": "uint256[]"
        }
      ],
      "payable": false,
      "stateMutability": "view",
      "type": "function"
    },
    {
      "constant": false,
      "inputs": [
        {
          "internalType": "address",
          "name": "verifier",
          "type": "address"
        }
      ],
      "name": "checkVerifier",
      "outputs": [
        {
          "internalType": "bool",
          "name": "",
          "type": "bool"
        }
      ],
      "payable": false,
      "stateMutability": "nonpayable",
      "type": "function"
    },
    {
      "constant": false,
      "inputs": [
        {
          "internalType": "address",
          "name": "subject",
          "type": "address"
        }
      ],
      "name": "checkSubject",
      "outputs": [
        {
          "internalType": "bool",
          "name": "",
          "type": "bool"
        }
      ],
      "payable": false,
      "stateMutability": "nonpayable",
      "type": "function"
    },
    {
      "constant": true,
      "inputs": [
        {
          "internalType": "address",
          "name": "issuerAddr",
          "type": "address"
        }
      ],
      "name": "checkRequest",
      "outputs": [
        {
          "internalType": "bool",
          "name": "",
          "type": "bool"
        }
      ],
      "payable": false,
      "stateMutability": "view",
      "type": "function"
    },
    {
      "constant": true,
      "inputs": [],
      "name": "getApprovedReqList",
      "outputs": [
        {
          "internalType": "address[]",
          "name": "",
          "type": "address[]"
        }
      ],
      "payable": false,
      "stateMutability": "view",
      "type": "function"
    },
    {
      "constant": true,
      "inputs": [],
      "name": "getReqList",
      "outputs": [
        {
          "internalType": "address[]",
          "name": "",
          "type": "address[]"
        }
      ],
      "payable": false,
      "stateMutability": "view",
      "type": "function"
    },
    {
      "constant": true,
      "inputs": [],
      "name": "getGrantList",
      "outputs": [
        {
          "internalType": "address[]",
          "name": "",
          "type": "address[]"
        }
      ],
      "payable": false,
      "stateMutability": "view",
      "type": "function"
    },
    {
      "constant": true,
      "inputs": [
        {
          "internalType": "uint256",
          "name": "certId",
          "type": "uint256"
        }
      ],
      "name": "checkCertExist",
      "outputs": [
        {
          "internalType": "bool",
          "name": "",
          "type": "bool"
        }
      ],
      "payable": false,
      "stateMutability": "view",
      "type": "function"
    }
  ],
  "bytecode": "0x60806040523480156200001157600080fd5b5060405162005db538038062005db5833981810160405260208110156200003757600080fd5b8101908080519060200190929190505050806000806101000a81548173ffffffffffffffffffffffffffffffffffffffff021916908373ffffffffffffffffffffffffffffffffffffffff1602179055506001808190555050615d1580620000a06000396000f3fe608060405234801561001057600080fd5b506004361061010b5760003560e01c8063a3022797116100a2578063ca07b4b411610071578063ca07b4b414610536578063dbcbc2721461057a578063de8c98fd146105a8578063f855b366146108f7578063fdc704d7146109535761010b565b8063a3022797146103ba578063a3fb15ee14610419578063c41937fd14610478578063c601cd12146104d75761010b565b8063749b26d5116100de578063749b26d5146102535780637af261cc1461029757806393d843551461033057806395716f30146103765761010b565b806307e75d661461011057806314e5735f1461016c5780632b8cc346146101cb5780635f889fe91461020f575b600080fd5b6101526004803603602081101561012657600080fd5b81019080803573ffffffffffffffffffffffffffffffffffffffff1690602001909291905050506109af565b604051808215151515815260200191505060405180910390f35b610174610e5d565b6040518080602001828103825283818151815260200191508051906020019060200280838360005b838110156101b757808201518184015260208101905061019c565b505050509050019250505060405180910390f35b61020d600480360360208110156101e157600080fd5b81019080803573ffffffffffffffffffffffffffffffffffffffff169060200190929190505050610f28565b005b6102516004803603602081101561022557600080fd5b81019080803573ffffffffffffffffffffffffffffffffffffffff1690602001909291905050506115d9565b005b6102956004803603602081101561026957600080fd5b81019080803573ffffffffffffffffffffffffffffffffffffffff169060200190929190505050611d69565b005b6102d9600480360360208110156102ad57600080fd5b81019080803573ffffffffffffffffffffffffffffffffffffffff1690602001909291905050506124f9565b6040518080602001828103825283818151815260200191508051906020019060200280838360005b8381101561031c578082015181840152602081019050610301565b505050509050019250505060405180910390f35b61035c6004803603602081101561034657600080fd5b8101908080359060200190929190505050612b11565b604051808215151515815260200191505060405180910390f35b6103b86004803603602081101561038c57600080fd5b81019080803573ffffffffffffffffffffffffffffffffffffffff169060200190929190505050612b3b565b005b6103c2613184565b6040518080602001828103825283818151815260200191508051906020019060200280838360005b838110156104055780820151818401526020810190506103ea565b505050509050019250505060405180910390f35b61042161324f565b6040518080602001828103825283818151815260200191508051906020019060200280838360005b83811015610464578082015181840152602081019050610449565b505050509050019250505060405180910390f35b6104806135b2565b6040518080602001828103825283818151815260200191508051906020019060200280838360005b838110156104c35780820151818401526020810190506104a8565b505050509050019250505060405180910390f35b6104df613915565b6040518080602001828103825283818151815260200191508051906020019060200280838360005b83811015610522578082015181840152602081019050610507565b505050509050019250505060405180910390f35b6105786004803603602081101561054c57600080fd5b81019080803573ffffffffffffffffffffffffffffffffffffffff169060200190929190505050613b35565b005b6105a66004803603602081101561059057600080fd5b81019080803590602001909291905050506140e9565b005b6108dd600480360360c08110156105be57600080fd5b81019080803573ffffffffffffffffffffffffffffffffffffffff169060200190929190803590602001906401000000008111156105fb57600080fd5b82018360208201111561060d57600080fd5b8035906020019184600183028401116401000000008311171561062f57600080fd5b91908080601f016020809104026020016040519081016040528093929190818152602001838380828437600081840152601f19601f8201169050808301925050505050505091929192908035906020019064010000000081111561069257600080fd5b8201836020820111156106a457600080fd5b803590602001918460018302840111640100000000831117156106c657600080fd5b91908080601f016020809104026020016040519081016040528093929190818152602001838380828437600081840152601f19601f8201169050808301925050505050505091929192908035906020019064010000000081111561072957600080fd5b82018360208201111561073b57600080fd5b8035906020019184600183028401116401000000008311171561075d57600080fd5b91908080601f016020809104026020016040519081016040528093929190818152602001838380828437600081840152601f19601f820116905080830192505050505050509192919290803590602001906401000000008111156107c057600080fd5b8201836020820111156107d257600080fd5b803590602001918460018302840111640100000000831117156107f457600080fd5b91908080601f016020809104026020016040519081016040528093929190818152602001838380828437600081840152601f19601f8201169050808301925050505050505091929192908035906020019064010000000081111561085757600080fd5b82018360208201111561086957600080fd5b8035906020019184600183028401116401000000008311171561088b57600080fd5b91908080601f016020809104026020016040519081016040528093929190818152602001838380828437600081840152601f19601f820116905080830192505050505050509192919290505050614661565b604051808215151515815260200191505060405180910390f35b6109396004803603602081101561090d57600080fd5b81019080803573ffffffffffffffffffffffffffffffffffffffff16906020019092919050505061502e565b604051808215151515815260200191505060405180910390f35b6109956004803603602081101561096957600080fd5b81019080803573ffffffffffffffffffffffffffffffffffffffff16906020019092919050505061550a565b604051808215151515815260200191505060405180910390f35b60006040518060400160405280600881526020017f56657269666965720000000000000000000000000000000000000000000000008152506000809054906101000a900473ffffffffffffffffffffffffffffffffffffffff1673ffffffffffffffffffffffffffffffffffffffff1663ffb28d9c33836040518363ffffffff1660e01b8152600401808373ffffffffffffffffffffffffffffffffffffffff1673ffffffffffffffffffffffffffffffffffffffff16815260200180602001828103825283818151815260200191508051906020019080838360005b83811015610aa7578082015181840152602081019050610a8c565b50505050905090810190601f168015610ad45780820380516001836020036101000a031916815260200191505b50935050505060206040518083038186803b158015610af257600080fd5b505afa158015610b06573d6000803e3d6000fd5b505050506040513d6020811015610b1c57600080fd5b8101908080519060200190929190505050610b82576040517f08c379a0000000000000000000000000000000000000000000000000000000008152600401808060200182810382526036815260200180615c5c6036913960400191505060405180910390fd5b826040518060400160405280600781526020017f5375626a656374000000000000000000000000000000000000000000000000008152506000809054906101000a900473ffffffffffffffffffffffffffffffffffffffff1673ffffffffffffffffffffffffffffffffffffffff1663ffb28d9c83836040518363ffffffff1660e01b8152600401808373ffffffffffffffffffffffffffffffffffffffff1673ffffffffffffffffffffffffffffffffffffffff16815260200180602001828103825283818151815260200191508051906020019080838360005b83811015610c79578082015181840152602081019050610c5e565b50505050905090810190601f168015610ca65780820380516001836020036101000a031916815260200191505b50935050505060206040518083038186803b158015610cc457600080fd5b505afa158015610cd8573d6000803e3d6000fd5b505050506040513d6020811015610cee57600080fd5b8101908080519060200190929190505050610d54576040517f08c379a0000000000000000000000000000000000000000000000000000000008152600401808060200182810382526039815260200180615b176039913960400191505060405180910390fd5b6000600660008773ffffffffffffffffffffffffffffffffffffffff1673ffffffffffffffffffffffffffffffffffffffff16815260200190815260200160002060003373ffffffffffffffffffffffffffffffffffffffff1673ffffffffffffffffffffffffffffffffffffffff16815260200190815260200160002060009054906101000a900460ff1690507f1b36648f15922015b9bfffa0549b1e3307b20c7db35be187806ce95ed3210b0b3382604051808373ffffffffffffffffffffffffffffffffffffffff1673ffffffffffffffffffffffffffffffffffffffff168152602001821515151581526020019250505060405180910390a180945050505050919050565b6060600b60003373ffffffffffffffffffffffffffffffffffffffff1673ffffffffffffffffffffffffffffffffffffffff168152602001908152602001600020805480602002602001604051908101604052809291908181526020018280548015610f1e57602002820191906000526020600020905b8160009054906101000a900473ffffffffffffffffffffffffffffffffffffffff1673ffffffffffffffffffffffffffffffffffffffff1681526020019060010190808311610ed4575b5050505050905090565b6040518060400160405280600681526020017f49737375657200000000000000000000000000000000000000000000000000008152506000809054906101000a900473ffffffffffffffffffffffffffffffffffffffff1673ffffffffffffffffffffffffffffffffffffffff1663ffb28d9c33836040518363ffffffff1660e01b8152600401808373ffffffffffffffffffffffffffffffffffffffff1673ffffffffffffffffffffffffffffffffffffffff16815260200180602001828103825283818151815260200191508051906020019080838360005b8381101561101e578082015181840152602081019050611003565b50505050905090810190601f16801561104b5780820380516001836020036101000a031916815260200191505b50935050505060206040518083038186803b15801561106957600080fd5b505afa15801561107d573d6000803e3d6000fd5b505050506040513d602081101561109357600080fd5b81019080805190602001909291905050506110f9576040517f08c379a0000000000000000000000000000000000000000000000000000000008152600401808060200182810382526036815260200180615c5c6036913960400191505060405180910390fd5b816040518060400160405280600781526020017f5375626a656374000000000000000000000000000000000000000000000000008152506000809054906101000a900473ffffffffffffffffffffffffffffffffffffffff1673ffffffffffffffffffffffffffffffffffffffff1663ffb28d9c83836040518363ffffffff1660e01b8152600401808373ffffffffffffffffffffffffffffffffffffffff1673ffffffffffffffffffffffffffffffffffffffff16815260200180602001828103825283818151815260200191508051906020019080838360005b838110156111f05780820151818401526020810190506111d5565b50505050905090810190601f16801561121d5780820380516001836020036101000a031916815260200191505b50935050505060206040518083038186803b15801561123b57600080fd5b505afa15801561124f573d6000803e3d6000fd5b505050506040513d602081101561126557600080fd5b81019080805190602001909291905050506112cb576040517f08c379a0000000000000000000000000000000000000000000000000000000008152600401808060200182810382526039815260200180615b176039913960400191505060405180910390fd5b600960008573ffffffffffffffffffffffffffffffffffffffff1673ffffffffffffffffffffffffffffffffffffffff16815260200190815260200160002060003373ffffffffffffffffffffffffffffffffffffffff1673ffffffffffffffffffffffffffffffffffffffff16815260200190815260200160002060009054906101000a900460ff166113c7576040517f08c379a000000000000000000000000000000000000000000000000000000000815260040180806020018281038252601f8152602001807f5375626a65637420686173206e6f74206d616465206120726571756573742e0081525060200191505060405180910390fd5b600960003373ffffffffffffffffffffffffffffffffffffffff1673ffffffffffffffffffffffffffffffffffffffff16815260200190815260200160002060008573ffffffffffffffffffffffffffffffffffffffff1673ffffffffffffffffffffffffffffffffffffffff16815260200190815260200160002060009054906101000a900460ff16156114a7576040517f08c379a0000000000000000000000000000000000000000000000000000000008152600401808060200182810382526022815260200180615c3a6022913960400191505060405180910390fd5b6001600960003373ffffffffffffffffffffffffffffffffffffffff1673ffffffffffffffffffffffffffffffffffffffff16815260200190815260200160002060008673ffffffffffffffffffffffffffffffffffffffff1673ffffffffffffffffffffffffffffffffffffffff16815260200190815260200160002060006101000a81548160ff0219169083151502179055507ff9f37fde2b0558fd0030314283604b8c62963d46b8fc16cedaff313d4156e6d83385604051808373ffffffffffffffffffffffffffffffffffffffff1673ffffffffffffffffffffffffffffffffffffffff1681526020018273ffffffffffffffffffffffffffffffffffffffff1673ffffffffffffffffffffffffffffffffffffffff1681526020019250505060405180910390a150505050565b6040518060400160405280600781526020017f5375626a656374000000000000000000000000000000000000000000000000008152506000809054906101000a900473ffffffffffffffffffffffffffffffffffffffff1673ffffffffffffffffffffffffffffffffffffffff1663ffb28d9c33836040518363ffffffff1660e01b8152600401808373ffffffffffffffffffffffffffffffffffffffff1673ffffffffffffffffffffffffffffffffffffffff16815260200180602001828103825283818151815260200191508051906020019080838360005b838110156116cf5780820151818401526020810190506116b4565b50505050905090810190601f1680156116fc5780820380516001836020036101000a031916815260200191505b50935050505060206040518083038186803b15801561171a57600080fd5b505afa15801561172e573d6000803e3d6000fd5b505050506040513d602081101561174457600080fd5b81019080805190602001909291905050506117aa576040517f08c379a0000000000000000000000000000000000000000000000000000000008152600401808060200182810382526036815260200180615c5c6036913960400191505060405180910390fd5b816040518060400160405280600681526020017f49737375657200000000000000000000000000000000000000000000000000008152506000809054906101000a900473ffffffffffffffffffffffffffffffffffffffff1673ffffffffffffffffffffffffffffffffffffffff1663ffb28d9c83836040518363ffffffff1660e01b8152600401808373ffffffffffffffffffffffffffffffffffffffff1673ffffffffffffffffffffffffffffffffffffffff16815260200180602001828103825283818151815260200191508051906020019080838360005b838110156118a1578082015181840152602081019050611886565b50505050905090810190601f1680156118ce5780820380516001836020036101000a031916815260200191505b50935050505060206040518083038186803b1580156118ec57600080fd5b505afa158015611900573d6000803e3d6000fd5b505050506040513d602081101561191657600080fd5b810190808051906020019092919050505061197c576040517f08c379a0000000000000000000000000000000000000000000000000000000008152600401808060200182810382526039815260200180615b176039913960400191505060405180910390fd5b600960003373ffffffffffffffffffffffffffffffffffffffff1673ffffffffffffffffffffffffffffffffffffffff16815260200190815260200160002060008573ffffffffffffffffffffffffffffffffffffffff1673ffffffffffffffffffffffffffffffffffffffff16815260200190815260200160002060009054906101000a900460ff1615611a5c576040517f08c379a0000000000000000000000000000000000000000000000000000000008152600401808060200182810382526026815260200180615b796026913960400191505060405180910390fd5b6001600960003373ffffffffffffffffffffffffffffffffffffffff1673ffffffffffffffffffffffffffffffffffffffff16815260200190815260200160002060008673ffffffffffffffffffffffffffffffffffffffff1673ffffffffffffffffffffffffffffffffffffffff16815260200190815260200160002060006101000a81548160ff0219169083151502179055506000600960008673ffffffffffffffffffffffffffffffffffffffff1673ffffffffffffffffffffffffffffffffffffffff16815260200190815260200160002060003373ffffffffffffffffffffffffffffffffffffffff1673ffffffffffffffffffffffffffffffffffffffff16815260200190815260200160002060006101000a81548160ff021916908315150217905550600a60003373ffffffffffffffffffffffffffffffffffffffff1673ffffffffffffffffffffffffffffffffffffffff1681526020019081526020016000208490806001815401808255809150509060018203906000526020600020016000909192909190916101000a81548173ffffffffffffffffffffffffffffffffffffffff021916908373ffffffffffffffffffffffffffffffffffffffff16021790555050600a60008573ffffffffffffffffffffffffffffffffffffffff1673ffffffffffffffffffffffffffffffffffffffff1681526020019081526020016000203390806001815401808255809150509060018203906000526020600020016000909192909190916101000a81548173ffffffffffffffffffffffffffffffffffffffff021916908373ffffffffffffffffffffffffffffffffffffffff160217905550507f96dc08c3299c77635bd20fc8e5b7a7459559a916cac4e43146327f032258ce7f3385604051808373ffffffffffffffffffffffffffffffffffffffff1673ffffffffffffffffffffffffffffffffffffffff1681526020018273ffffffffffffffffffffffffffffffffffffffff1673ffffffffffffffffffffffffffffffffffffffff1681526020019250505060405180910390a150505050565b6040518060400160405280600781526020017f5375626a656374000000000000000000000000000000000000000000000000008152506000809054906101000a900473ffffffffffffffffffffffffffffffffffffffff1673ffffffffffffffffffffffffffffffffffffffff1663ffb28d9c33836040518363ffffffff1660e01b8152600401808373ffffffffffffffffffffffffffffffffffffffff1673ffffffffffffffffffffffffffffffffffffffff16815260200180602001828103825283818151815260200191508051906020019080838360005b83811015611e5f578082015181840152602081019050611e44565b50505050905090810190601f168015611e8c5780820380516001836020036101000a031916815260200191505b50935050505060206040518083038186803b158015611eaa57600080fd5b505afa158015611ebe573d6000803e3d6000fd5b505050506040513d6020811015611ed457600080fd5b8101908080519060200190929190505050611f3a576040517f08c379a0000000000000000000000000000000000000000000000000000000008152600401808060200182810382526036815260200180615c5c6036913960400191505060405180910390fd5b816040518060400160405280600881526020017f56657269666965720000000000000000000000000000000000000000000000008152506000809054906101000a900473ffffffffffffffffffffffffffffffffffffffff1673ffffffffffffffffffffffffffffffffffffffff1663ffb28d9c83836040518363ffffffff1660e01b8152600401808373ffffffffffffffffffffffffffffffffffffffff1673ffffffffffffffffffffffffffffffffffffffff16815260200180602001828103825283818151815260200191508051906020019080838360005b83811015612031578082015181840152602081019050612016565b50505050905090810190601f16801561205e5780820380516001836020036101000a031916815260200191505b50935050505060206040518083038186803b15801561207c57600080fd5b505afa158015612090573d6000803e3d6000fd5b505050506040513d60208110156120a657600080fd5b810190808051906020019092919050505061210c576040517f08c379a0000000000000000000000000000000000000000000000000000000008152600401808060200182810382526039815260200180615b176039913960400191505060405180910390fd5b600660003373ffffffffffffffffffffffffffffffffffffffff1673ffffffffffffffffffffffffffffffffffffffff16815260200190815260200160002060008573ffffffffffffffffffffffffffffffffffffffff1673ffffffffffffffffffffffffffffffffffffffff16815260200190815260200160002060009054906101000a900460ff16156121ec576040517f08c379a0000000000000000000000000000000000000000000000000000000008152600401808060200182810382526027815260200180615b9f6027913960400191505060405180910390fd5b6001600660003373ffffffffffffffffffffffffffffffffffffffff1673ffffffffffffffffffffffffffffffffffffffff16815260200190815260200160002060008673ffffffffffffffffffffffffffffffffffffffff1673ffffffffffffffffffffffffffffffffffffffff16815260200190815260200160002060006101000a81548160ff0219169083151502179055506001600660008673ffffffffffffffffffffffffffffffffffffffff1673ffffffffffffffffffffffffffffffffffffffff16815260200190815260200160002060003373ffffffffffffffffffffffffffffffffffffffff1673ffffffffffffffffffffffffffffffffffffffff16815260200190815260200160002060006101000a81548160ff021916908315150217905550600b60003373ffffffffffffffffffffffffffffffffffffffff1673ffffffffffffffffffffffffffffffffffffffff1681526020019081526020016000208490806001815401808255809150509060018203906000526020600020016000909192909190916101000a81548173ffffffffffffffffffffffffffffffffffffffff021916908373ffffffffffffffffffffffffffffffffffffffff16021790555050600b60008573ffffffffffffffffffffffffffffffffffffffff1673ffffffffffffffffffffffffffffffffffffffff1681526020019081526020016000203390806001815401808255809150509060018203906000526020600020016000909192909190916101000a81548173ffffffffffffffffffffffffffffffffffffffff021916908373ffffffffffffffffffffffffffffffffffffffff160217905550507f34f8ed94d18e0ecab9377b0c6d84904a7895036a4ea08efe5e18a0e63bc8df063385604051808373ffffffffffffffffffffffffffffffffffffffff1673ffffffffffffffffffffffffffffffffffffffff1681526020018273ffffffffffffffffffffffffffffffffffffffff1673ffffffffffffffffffffffffffffffffffffffff1681526020019250505060405180910390a150505050565b60606040518060400160405280600881526020017f56657269666965720000000000000000000000000000000000000000000000008152506000809054906101000a900473ffffffffffffffffffffffffffffffffffffffff1673ffffffffffffffffffffffffffffffffffffffff1663ffb28d9c33836040518363ffffffff1660e01b8152600401808373ffffffffffffffffffffffffffffffffffffffff1673ffffffffffffffffffffffffffffffffffffffff16815260200180602001828103825283818151815260200191508051906020019080838360005b838110156125f15780820151818401526020810190506125d6565b50505050905090810190601f16801561261e5780820380516001836020036101000a031916815260200191505b50935050505060206040518083038186803b15801561263c57600080fd5b505afa158015612650573d6000803e3d6000fd5b505050506040513d602081101561266657600080fd5b81019080805190602001909291905050506126cc576040517f08c379a0000000000000000000000000000000000000000000000000000000008152600401808060200182810382526036815260200180615c5c6036913960400191505060405180910390fd5b826040518060400160405280600781526020017f5375626a656374000000000000000000000000000000000000000000000000008152506000809054906101000a900473ffffffffffffffffffffffffffffffffffffffff1673ffffffffffffffffffffffffffffffffffffffff1663ffb28d9c83836040518363ffffffff1660e01b8152600401808373ffffffffffffffffffffffffffffffffffffffff1673ffffffffffffffffffffffffffffffffffffffff16815260200180602001828103825283818151815260200191508051906020019080838360005b838110156127c35780820151818401526020810190506127a8565b50505050905090810190601f1680156127f05780820380516001836020036101000a031916815260200191505b50935050505060206040518083038186803b15801561280e57600080fd5b505afa158015612822573d6000803e3d6000fd5b505050506040513d602081101561283857600080fd5b810190808051906020019092919050505061289e576040517f08c379a0000000000000000000000000000000000000000000000000000000008152600401808060200182810382526039815260200180615b176039913960400191505060405180910390fd5b600660008673ffffffffffffffffffffffffffffffffffffffff1673ffffffffffffffffffffffffffffffffffffffff16815260200190815260200160002060003373ffffffffffffffffffffffffffffffffffffffff1673ffffffffffffffffffffffffffffffffffffffff16815260200190815260200160002060009054906101000a900460ff1661297d576040517f08c379a0000000000000000000000000000000000000000000000000000000008152600401808060200182810382526038815260200180615c026038913960400191505060405180910390fd5b6060600460008773ffffffffffffffffffffffffffffffffffffffff1673ffffffffffffffffffffffffffffffffffffffff168152602001908152602001600020805480602002602001604051908101604052809291908181526020018280548015612a0857602002820191906000526020600020905b8154815260200190600101908083116129f4575b5050505050905060608151604051908082528060200260200182016040528015612a415781602001602082028038833980820191505090505b50905060008090505b8251811015612b0357600760008973ffffffffffffffffffffffffffffffffffffffff1673ffffffffffffffffffffffffffffffffffffffff1681526020019081526020016000206000848381518110612aa057fe5b6020026020010151815260200190815260200160002060009054906101000a900460ff1615612af657828181518110612ad557fe5b6020026020010151828281518110612ae957fe5b6020026020010181815250505b8080600101915050612a4a565b508095505050505050919050565b60006003600083815260200190815260200160002060009054906101000a900460ff169050919050565b6040518060400160405280600781526020017f5375626a656374000000000000000000000000000000000000000000000000008152506000809054906101000a900473ffffffffffffffffffffffffffffffffffffffff1673ffffffffffffffffffffffffffffffffffffffff1663ffb28d9c33836040518363ffffffff1660e01b8152600401808373ffffffffffffffffffffffffffffffffffffffff1673ffffffffffffffffffffffffffffffffffffffff16815260200180602001828103825283818151815260200191508051906020019080838360005b83811015612c31578082015181840152602081019050612c16565b50505050905090810190601f168015612c5e5780820380516001836020036101000a031916815260200191505b50935050505060206040518083038186803b158015612c7c57600080fd5b505afa158015612c90573d6000803e3d6000fd5b505050506040513d6020811015612ca657600080fd5b8101908080519060200190929190505050612d0c576040517f08c379a0000000000000000000000000000000000000000000000000000000008152600401808060200182810382526036815260200180615c5c6036913960400191505060405180910390fd5b816040518060400160405280600881526020017f56657269666965720000000000000000000000000000000000000000000000008152506000809054906101000a900473ffffffffffffffffffffffffffffffffffffffff1673ffffffffffffffffffffffffffffffffffffffff1663ffb28d9c83836040518363ffffffff1660e01b8152600401808373ffffffffffffffffffffffffffffffffffffffff1673ffffffffffffffffffffffffffffffffffffffff16815260200180602001828103825283818151815260200191508051906020019080838360005b83811015612e03578082015181840152602081019050612de8565b50505050905090810190601f168015612e305780820380516001836020036101000a031916815260200191505b50935050505060206040518083038186803b158015612e4e57600080fd5b505afa158015612e62573d6000803e3d6000fd5b505050506040513d6020811015612e7857600080fd5b8101908080519060200190929190505050612ede576040517f08c379a0000000000000000000000000000000000000000000000000000000008152600401808060200182810382526039815260200180615b176039913960400191505060405180910390fd5b600660003373ffffffffffffffffffffffffffffffffffffffff1673ffffffffffffffffffffffffffffffffffffffff16815260200190815260200160002060008573ffffffffffffffffffffffffffffffffffffffff1673ffffffffffffffffffffffffffffffffffffffff16815260200190815260200160002060009054906101000a900460ff16612fbd576040517f08c379a0000000000000000000000000000000000000000000000000000000008152600401808060200182810382526028815260200180615cb96028913960400191505060405180910390fd5b6000600660003373ffffffffffffffffffffffffffffffffffffffff1673ffffffffffffffffffffffffffffffffffffffff16815260200190815260200160002060008673ffffffffffffffffffffffffffffffffffffffff1673ffffffffffffffffffffffffffffffffffffffff16815260200190815260200160002060006101000a81548160ff0219169083151502179055506000600660008673ffffffffffffffffffffffffffffffffffffffff1673ffffffffffffffffffffffffffffffffffffffff16815260200190815260200160002060003373ffffffffffffffffffffffffffffffffffffffff1673ffffffffffffffffffffffffffffffffffffffff16815260200190815260200160002060006101000a81548160ff0219169083151502179055507f289964cdef3f075e8131b06a8076db8ba749d4ee310ce86cc6da75ca465623c73385604051808373ffffffffffffffffffffffffffffffffffffffff1673ffffffffffffffffffffffffffffffffffffffff1681526020018273ffffffffffffffffffffffffffffffffffffffff1673ffffffffffffffffffffffffffffffffffffffff1681526020019250505060405180910390a150505050565b6060600a60003373ffffffffffffffffffffffffffffffffffffffff1673ffffffffffffffffffffffffffffffffffffffff16815260200190815260200160002080548060200260200160405190810160405280929190818152602001828054801561324557602002820191906000526020600020905b8160009054906101000a900473ffffffffffffffffffffffffffffffffffffffff1673ffffffffffffffffffffffffffffffffffffffff16815260200190600101908083116131fb575b5050505050905090565b60606040518060400160405280600781526020017f5375626a656374000000000000000000000000000000000000000000000000008152506000809054906101000a900473ffffffffffffffffffffffffffffffffffffffff1673ffffffffffffffffffffffffffffffffffffffff1663ffb28d9c33836040518363ffffffff1660e01b8152600401808373ffffffffffffffffffffffffffffffffffffffff1673ffffffffffffffffffffffffffffffffffffffff16815260200180602001828103825283818151815260200191508051906020019080838360005b8381101561334757808201518184015260208101905061332c565b50505050905090810190601f1680156133745780820380516001836020036101000a031916815260200191505b50935050505060206040518083038186803b15801561339257600080fd5b505afa1580156133a6573d6000803e3d6000fd5b505050506040513d60208110156133bc57600080fd5b8101908080519060200190929190505050613422576040517f08c379a0000000000000000000000000000000000000000000000000000000008152600401808060200182810382526036815260200180615c5c6036913960400191505060405180910390fd5b6060600460003373ffffffffffffffffffffffffffffffffffffffff1673ffffffffffffffffffffffffffffffffffffffff1681526020019081526020016000208054806020026020016040519081016040528092919081815260200182805480156134ad57602002820191906000526020600020905b815481526020019060010190808311613499575b50505050509050606081516040519080825280602002602001820160405280156134e65781602001602082028038833980820191505090505b50905060008090505b82518110156135a857600760003373ffffffffffffffffffffffffffffffffffffffff1673ffffffffffffffffffffffffffffffffffffffff168152602001908152602001600020600084838151811061354557fe5b6020026020010151815260200190815260200160002060009054906101000a900460ff161561359b5782818151811061357a57fe5b602002602001015182828151811061358e57fe5b6020026020010181815250505b80806001019150506134ef565b5080935050505090565b60606040518060400160405280600681526020017f49737375657200000000000000000000000000000000000000000000000000008152506000809054906101000a900473ffffffffffffffffffffffffffffffffffffffff1673ffffffffffffffffffffffffffffffffffffffff1663ffb28d9c33836040518363ffffffff1660e01b8152600401808373ffffffffffffffffffffffffffffffffffffffff1673ffffffffffffffffffffffffffffffffffffffff16815260200180602001828103825283818151815260200191508051906020019080838360005b838110156136aa57808201518184015260208101905061368f565b50505050905090810190601f1680156136d75780820380516001836020036101000a031916815260200191505b50935050505060206040518083038186803b1580156136f557600080fd5b505afa158015613709573d6000803e3d6000fd5b505050506040513d602081101561371f57600080fd5b8101908080519060200190929190505050613785576040517f08c379a0000000000000000000000000000000000000000000000000000000008152600401808060200182810382526036815260200180615c5c6036913960400191505060405180910390fd5b6060600560003373ffffffffffffffffffffffffffffffffffffffff1673ffffffffffffffffffffffffffffffffffffffff16815260200190815260200160002080548060200260200160405190810160405280929190818152602001828054801561381057602002820191906000526020600020905b8154815260200190600101908083116137fc575b50505050509050606081516040519080825280602002602001820160405280156138495781602001602082028038833980820191505090505b50905060008090505b825181101561390b57600860003373ffffffffffffffffffffffffffffffffffffffff1673ffffffffffffffffffffffffffffffffffffffff16815260200190815260200160002060008483815181106138a857fe5b6020026020010151815260200190815260200160002060009054906101000a900460ff16156138fe578281815181106138dd57fe5b60200260200101518282815181106138f157fe5b6020026020010181815250505b8080600101915050613852565b5080935050505090565b606080600a60003373ffffffffffffffffffffffffffffffffffffffff1673ffffffffffffffffffffffffffffffffffffffff1681526020019081526020016000208054806020026020016040519081016040528092919081815260200182805480156139d757602002820191906000526020600020905b8160009054906101000a900473ffffffffffffffffffffffffffffffffffffffff1673ffffffffffffffffffffffffffffffffffffffff168152602001906001019080831161398d575b5050505050905060608151604051908082528060200260200182016040528015613a105781602001602082028038833980820191505090505b50905060008090505b8251811015613b2c57600960003373ffffffffffffffffffffffffffffffffffffffff1673ffffffffffffffffffffffffffffffffffffffff1681526020019081526020016000206000848381518110613a6f57fe5b602002602001015173ffffffffffffffffffffffffffffffffffffffff1673ffffffffffffffffffffffffffffffffffffffff16815260200190815260200160002060009054906101000a900460ff1615613b1f57828181518110613ad057fe5b6020026020010151828281518110613ae457fe5b602002602001019073ffffffffffffffffffffffffffffffffffffffff16908173ffffffffffffffffffffffffffffffffffffffff16815250505b8080600101915050613a19565b50809250505090565b6040518060400160405280600681526020017f49737375657200000000000000000000000000000000000000000000000000008152506000809054906101000a900473ffffffffffffffffffffffffffffffffffffffff1673ffffffffffffffffffffffffffffffffffffffff1663ffb28d9c33836040518363ffffffff1660e01b8152600401808373ffffffffffffffffffffffffffffffffffffffff1673ffffffffffffffffffffffffffffffffffffffff16815260200180602001828103825283818151815260200191508051906020019080838360005b83811015613c2b578082015181840152602081019050613c10565b50505050905090810190601f168015613c585780820380516001836020036101000a031916815260200191505b50935050505060206040518083038186803b158015613c7657600080fd5b505afa158015613c8a573d6000803e3d6000fd5b505050506040513d6020811015613ca057600080fd5b8101908080519060200190929190505050613d06576040517f08c379a0000000000000000000000000000000000000000000000000000000008152600401808060200182810382526036815260200180615c5c6036913960400191505060405180910390fd5b816040518060400160405280600781526020017f5375626a656374000000000000000000000000000000000000000000000000008152506000809054906101000a900473ffffffffffffffffffffffffffffffffffffffff1673ffffffffffffffffffffffffffffffffffffffff1663ffb28d9c83836040518363ffffffff1660e01b8152600401808373ffffffffffffffffffffffffffffffffffffffff1673ffffffffffffffffffffffffffffffffffffffff16815260200180602001828103825283818151815260200191508051906020019080838360005b83811015613dfd578082015181840152602081019050613de2565b50505050905090810190601f168015613e2a5780820380516001836020036101000a031916815260200191505b50935050505060206040518083038186803b158015613e4857600080fd5b505afa158015613e5c573d6000803e3d6000fd5b505050506040513d6020811015613e7257600080fd5b8101908080519060200190929190505050613ed8576040517f08c379a0000000000000000000000000000000000000000000000000000000008152600401808060200182810382526039815260200180615b176039913960400191505060405180910390fd5b600960008573ffffffffffffffffffffffffffffffffffffffff1673ffffffffffffffffffffffffffffffffffffffff16815260200190815260200160002060003373ffffffffffffffffffffffffffffffffffffffff1673ffffffffffffffffffffffffffffffffffffffff16815260200190815260200160002060009054906101000a900460ff16613fb7576040517f08c379a0000000000000000000000000000000000000000000000000000000008152600401808060200182810382526027815260200180615c926027913960400191505060405180910390fd5b6000600960003373ffffffffffffffffffffffffffffffffffffffff1673ffffffffffffffffffffffffffffffffffffffff16815260200190815260200160002060008673ffffffffffffffffffffffffffffffffffffffff1673ffffffffffffffffffffffffffffffffffffffff16815260200190815260200160002060006101000a81548160ff0219169083151502179055507f3c44ce647de06c73eb5744c9395edea226f4b767db4b643bd11b5e632e3300923385604051808373ffffffffffffffffffffffffffffffffffffffff1673ffffffffffffffffffffffffffffffffffffffff1681526020018273ffffffffffffffffffffffffffffffffffffffff1673ffffffffffffffffffffffffffffffffffffffff1681526020019250505060405180910390a150505050565b6040518060400160405280600681526020017f49737375657200000000000000000000000000000000000000000000000000008152506000809054906101000a900473ffffffffffffffffffffffffffffffffffffffff1673ffffffffffffffffffffffffffffffffffffffff1663ffb28d9c33836040518363ffffffff1660e01b8152600401808373ffffffffffffffffffffffffffffffffffffffff1673ffffffffffffffffffffffffffffffffffffffff16815260200180602001828103825283818151815260200191508051906020019080838360005b838110156141df5780820151818401526020810190506141c4565b50505050905090810190601f16801561420c5780820380516001836020036101000a031916815260200191505b50935050505060206040518083038186803b15801561422a57600080fd5b505afa15801561423e573d6000803e3d6000fd5b505050506040513d602081101561425457600080fd5b81019080805190602001909291905050506142ba576040517f08c379a0000000000000000000000000000000000000000000000000000000008152600401808060200182810382526036815260200180615c5c6036913960400191505060405180910390fd5b813373ffffffffffffffffffffffffffffffffffffffff166002600083815260200190815260200160002060010160009054906101000a900473ffffffffffffffffffffffffffffffffffffffff1673ffffffffffffffffffffffffffffffffffffffff1614614375576040517f08c379a000000000000000000000000000000000000000000000000000000000815260040180806020018281038252603c815260200180615bc6603c913960400191505060405180910390fd5b82600154811061438457600080fd5b6003600085815260200190815260200160002060009054906101000a900460ff166143fa576040517f08c379a0000000000000000000000000000000000000000000000000000000008152600401808060200182810382526029815260200180615b506029913960400191505060405180910390fd5b60006002600086815260200190815260200160002060000160009054906101000a900473ffffffffffffffffffffffffffffffffffffffff16905060006003600087815260200190815260200160002060006101000a81548160ff0219169083151502179055506000600760008373ffffffffffffffffffffffffffffffffffffffff1673ffffffffffffffffffffffffffffffffffffffff168152602001908152602001600020600087815260200190815260200160002060006101000a81548160ff0219169083151502179055506000600860003373ffffffffffffffffffffffffffffffffffffffff1673ffffffffffffffffffffffffffffffffffffffff168152602001908152602001600020600087815260200190815260200160002060006101000a81548160ff02191690831515021790555060026000868152602001908152602001600020600080820160006101000a81549073ffffffffffffffffffffffffffffffffffffffff02191690556001820160006101000a81549073ffffffffffffffffffffffffffffffffffffffff02191690556002820160006145a591906159b8565b60038201600090556004820160006145bd91906159b8565b6005820160006145cd91906159b8565b6006820160006145dd91906159b8565b6007820160006145ed91906159b8565b50507fe72d680134b83b91d9f2abafcc3c5b2dfdf12328c4d679e62001676c04a866cb3386604051808373ffffffffffffffffffffffffffffffffffffffff1673ffffffffffffffffffffffffffffffffffffffff1681526020018281526020019250505060405180910390a15050505050565b60006040518060400160405280600681526020017f49737375657200000000000000000000000000000000000000000000000000008152506000809054906101000a900473ffffffffffffffffffffffffffffffffffffffff1673ffffffffffffffffffffffffffffffffffffffff1663ffb28d9c33836040518363ffffffff1660e01b8152600401808373ffffffffffffffffffffffffffffffffffffffff1673ffffffffffffffffffffffffffffffffffffffff16815260200180602001828103825283818151815260200191508051906020019080838360005b8381101561475957808201518184015260208101905061473e565b50505050905090810190601f1680156147865780820380516001836020036101000a031916815260200191505b50935050505060206040518083038186803b1580156147a457600080fd5b505afa1580156147b8573d6000803e3d6000fd5b505050506040513d60208110156147ce57600080fd5b8101908080519060200190929190505050614834576040517f08c379a0000000000000000000000000000000000000000000000000000000008152600401808060200182810382526036815260200180615c5c6036913960400191505060405180910390fd5b876040518060400160405280600781526020017f5375626a656374000000000000000000000000000000000000000000000000008152506000809054906101000a900473ffffffffffffffffffffffffffffffffffffffff1673ffffffffffffffffffffffffffffffffffffffff1663ffb28d9c83836040518363ffffffff1660e01b8152600401808373ffffffffffffffffffffffffffffffffffffffff1673ffffffffffffffffffffffffffffffffffffffff16815260200180602001828103825283818151815260200191508051906020019080838360005b8381101561492b578082015181840152602081019050614910565b50505050905090810190601f1680156149585780820380516001836020036101000a031916815260200191505b50935050505060206040518083038186803b15801561497657600080fd5b505afa15801561498a573d6000803e3d6000fd5b505050506040513d60208110156149a057600080fd5b8101908080519060200190929190505050614a06576040517f08c379a0000000000000000000000000000000000000000000000000000000008152600401808060200182810382526039815260200180615b176039913960400191505060405180910390fd5b600960008b73ffffffffffffffffffffffffffffffffffffffff1673ffffffffffffffffffffffffffffffffffffffff16815260200190815260200160002060003373ffffffffffffffffffffffffffffffffffffffff1673ffffffffffffffffffffffffffffffffffffffff16815260200190815260200160002060009054906101000a900460ff16614ae5576040517f08c379a0000000000000000000000000000000000000000000000000000000008152600401808060200182810382526027815260200180615c926027913960400191505060405180910390fd5b600960003373ffffffffffffffffffffffffffffffffffffffff1673ffffffffffffffffffffffffffffffffffffffff16815260200190815260200160002060008b73ffffffffffffffffffffffffffffffffffffffff1673ffffffffffffffffffffffffffffffffffffffff16815260200190815260200160002060009054906101000a900460ff16614be1576040517f08c379a000000000000000000000000000000000000000000000000000000000815260040180806020018281038252601d8152602001807f53747564656e7420686173206e6f74206265656e20617070726f76652e00000081525060200191505060405180910390fd5b6000600160008154809291906001019190505590506000429050614c03615a00565b6040518061010001604052808e73ffffffffffffffffffffffffffffffffffffffff1681526020013373ffffffffffffffffffffffffffffffffffffffff1681526020018d81526020018381526020018c81526020018b81526020018a8152602001898152509050806002600085815260200190815260200160002060008201518160000160006101000a81548173ffffffffffffffffffffffffffffffffffffffff021916908373ffffffffffffffffffffffffffffffffffffffff16021790555060208201518160010160006101000a81548173ffffffffffffffffffffffffffffffffffffffff021916908373ffffffffffffffffffffffffffffffffffffffff1602179055506040820151816002019080519060200190614d29929190615a71565b50606082015181600301556080820151816004019080519060200190614d50929190615a71565b5060a0820151816005019080519060200190614d6d929190615a71565b5060c0820151816006019080519060200190614d8a929190615a71565b5060e0820151816007019080519060200190614da7929190615a71565b5090505060016003600085815260200190815260200160002060006101000a81548160ff021916908315150217905550600460008e73ffffffffffffffffffffffffffffffffffffffff1673ffffffffffffffffffffffffffffffffffffffff1681526020019081526020016000208390806001815401808255809150509060018203906000526020600020016000909192909190915055506001600760008f73ffffffffffffffffffffffffffffffffffffffff1673ffffffffffffffffffffffffffffffffffffffff168152602001908152602001600020600085815260200190815260200160002060006101000a81548160ff021916908315150217905550600560003373ffffffffffffffffffffffffffffffffffffffff1673ffffffffffffffffffffffffffffffffffffffff1681526020019081526020016000208390806001815401808255809150509060018203906000526020600020016000909192909190915055506001600860003373ffffffffffffffffffffffffffffffffffffffff1673ffffffffffffffffffffffffffffffffffffffff168152602001908152602001600020600085815260200190815260200160002060006101000a81548160ff0219169083151502179055507f52775ded20614b213cad95910a18378999957eaf600abebde11f2a055710a62683338f604051808481526020018373ffffffffffffffffffffffffffffffffffffffff1673ffffffffffffffffffffffffffffffffffffffff1681526020018273ffffffffffffffffffffffffffffffffffffffff1673ffffffffffffffffffffffffffffffffffffffff168152602001935050505060405180910390a1600196505050505050509695505050505050565b60006040518060400160405280600781526020017f5375626a656374000000000000000000000000000000000000000000000000008152506000809054906101000a900473ffffffffffffffffffffffffffffffffffffffff1673ffffffffffffffffffffffffffffffffffffffff1663ffb28d9c33836040518363ffffffff1660e01b8152600401808373ffffffffffffffffffffffffffffffffffffffff1673ffffffffffffffffffffffffffffffffffffffff16815260200180602001828103825283818151815260200191508051906020019080838360005b8381101561512657808201518184015260208101905061510b565b50505050905090810190601f1680156151535780820380516001836020036101000a031916815260200191505b50935050505060206040518083038186803b15801561517157600080fd5b505afa158015615185573d6000803e3d6000fd5b505050506040513d602081101561519b57600080fd5b8101908080519060200190929190505050615201576040517f08c379a0000000000000000000000000000000000000000000000000000000008152600401808060200182810382526036815260200180615c5c6036913960400191505060405180910390fd5b826040518060400160405280600681526020017f49737375657200000000000000000000000000000000000000000000000000008152506000809054906101000a900473ffffffffffffffffffffffffffffffffffffffff1673ffffffffffffffffffffffffffffffffffffffff1663ffb28d9c83836040518363ffffffff1660e01b8152600401808373ffffffffffffffffffffffffffffffffffffffff1673ffffffffffffffffffffffffffffffffffffffff16815260200180602001828103825283818151815260200191508051906020019080838360005b838110156152f85780820151818401526020810190506152dd565b50505050905090810190601f1680156153255780820380516001836020036101000a031916815260200191505b50935050505060206040518083038186803b15801561534357600080fd5b505afa158015615357573d6000803e3d6000fd5b505050506040513d602081101561536d57600080fd5b81019080805190602001909291905050506153d3576040517f08c379a0000000000000000000000000000000000000000000000000000000008152600401808060200182810382526039815260200180615b176039913960400191505060405180910390fd5b600960008673ffffffffffffffffffffffffffffffffffffffff1673ffffffffffffffffffffffffffffffffffffffff16815260200190815260200160002060003373ffffffffffffffffffffffffffffffffffffffff1673ffffffffffffffffffffffffffffffffffffffff16815260200190815260200160002060009054906101000a900460ff1680156154ef5750600960003373ffffffffffffffffffffffffffffffffffffffff1673ffffffffffffffffffffffffffffffffffffffff16815260200190815260200160002060008673ffffffffffffffffffffffffffffffffffffffff1673ffffffffffffffffffffffffffffffffffffffff16815260200190815260200160002060009054906101000a900460ff165b156154fd5760019350615502565b600093505b505050919050565b60006040518060400160405280600781526020017f5375626a656374000000000000000000000000000000000000000000000000008152506000809054906101000a900473ffffffffffffffffffffffffffffffffffffffff1673ffffffffffffffffffffffffffffffffffffffff1663ffb28d9c33836040518363ffffffff1660e01b8152600401808373ffffffffffffffffffffffffffffffffffffffff1673ffffffffffffffffffffffffffffffffffffffff16815260200180602001828103825283818151815260200191508051906020019080838360005b838110156156025780820151818401526020810190506155e7565b50505050905090810190601f16801561562f5780820380516001836020036101000a031916815260200191505b50935050505060206040518083038186803b15801561564d57600080fd5b505afa158015615661573d6000803e3d6000fd5b505050506040513d602081101561567757600080fd5b81019080805190602001909291905050506156dd576040517f08c379a0000000000000000000000000000000000000000000000000000000008152600401808060200182810382526036815260200180615c5c6036913960400191505060405180910390fd5b826040518060400160405280600881526020017f56657269666965720000000000000000000000000000000000000000000000008152506000809054906101000a900473ffffffffffffffffffffffffffffffffffffffff1673ffffffffffffffffffffffffffffffffffffffff1663ffb28d9c83836040518363ffffffff1660e01b8152600401808373ffffffffffffffffffffffffffffffffffffffff1673ffffffffffffffffffffffffffffffffffffffff16815260200180602001828103825283818151815260200191508051906020019080838360005b838110156157d45780820151818401526020810190506157b9565b50505050905090810190601f1680156158015780820380516001836020036101000a031916815260200191505b50935050505060206040518083038186803b15801561581f57600080fd5b505afa158015615833573d6000803e3d6000fd5b505050506040513d602081101561584957600080fd5b81019080805190602001909291905050506158af576040517f08c379a0000000000000000000000000000000000000000000000000000000008152600401808060200182810382526039815260200180615b176039913960400191505060405180910390fd5b6000600660003373ffffffffffffffffffffffffffffffffffffffff1673ffffffffffffffffffffffffffffffffffffffff16815260200190815260200160002060008773ffffffffffffffffffffffffffffffffffffffff1673ffffffffffffffffffffffffffffffffffffffff16815260200190815260200160002060009054906101000a900460ff1690507f2e0f9c96c7436db86ca516bc00ca3e40fe4e7c0fef4c020dbd770fcba42f57e03382604051808373ffffffffffffffffffffffffffffffffffffffff1673ffffffffffffffffffffffffffffffffffffffff168152602001821515151581526020019250505060405180910390a180945050505050919050565b50805460018160011615610100020316600290046000825580601f106159de57506159fd565b601f0160209004906000526020600020908101906159fc9190615af1565b5b50565b604051806101000160405280600073ffffffffffffffffffffffffffffffffffffffff168152602001600073ffffffffffffffffffffffffffffffffffffffff1681526020016060815260200160008152602001606081526020016060815260200160608152602001606081525090565b828054600181600116156101000203166002900490600052602060002090601f016020900481019282601f10615ab257805160ff1916838001178555615ae0565b82800160010185558215615ae0579182015b82811115615adf578251825591602001919060010190615ac4565b5b509050615aed9190615af1565b5090565b615b1391905b80821115615b0f576000816000905550600101615af7565b5090565b9056fe5468697320616374696f6e2063616e206f6e6c7920626520706572666f726d6564206279207573657220696e206f7572206e6574776f726b2e5468652063657274696669636174652068617320616c7265616479206265656e207265766f6b65642e596f75206861766520616c72656164792072657175657374656420666f72206120636572742e56657269666965722068617320616c7265616479206265656e20676976656e206163636573732e5468697320616374696f6e2063616e206f6e6c7920626520706572666f726d656420627920746865206365727469666963617465206973737565722e596f752068617665206e6f2076696577696e672061636365737320666f7220746865207375626a656374206365727469666963617465732e5375626a6563742068617320616c7265616479206265656e20617070726f7665642e5468697320616374696f6e2063616e206f6e6c7920626520706572666f726d656420627920617574686f72697a656420726f6c65732e5375626a65637420686173206e6f74207265717565737420666f722061206e657720636572742e56657269666965722068617320616c7265616479206265656e2064656e696564206163636573732ea265627a7a723158209e3b1cdba9dd12f3d2d82daf594c61c401a4aa46e2e98fcae51bb1a9dd2a5c9f64736f6c63430005100032",
  "source": "pragma solidity >=0.5.0;\nimport \"./CertificateNetwork.sol\";\n\ncontract Certificate {\n    CertificateNetwork certNetwork;\n    uint256 internal totalCert; // Total Counter Added CertNo + track certId\n\n    mapping(uint256 => Cert) private certsMap; // all created certs\n    mapping(uint256 => bool) private certExistMap; // T - cert is valid , F - cert is revoked, got record means created before\n    mapping(address => uint256[]) private subjectToCertListMap; // map subject to issued certs(by certId) by issuers\n    mapping(address => uint256[]) private issuerToCertListMap; // map issuer to issued certs(by certId)\n\n    mapping(address => mapping(address => bool)) private subjectToVerifierMap; // S>(V>bool), map subject to all approved verifiers to view all certs\n    mapping(address => mapping(uint256 => bool)) private subjectToCertMap;\n    mapping(address => mapping(uint256 => bool)) private issuerToCertMap;\n    mapping(address => mapping(address => bool)) private requestMap;\n\n    mapping(address => address[]) private reqListMap;\n    mapping(address => address[]) private grantListMap;\n\n    // Events\n    event IssuedCertificate(\n        uint256 certId,\n        address issuerAddr,\n        address subjectAddr\n    );\n    event RevokeCertificate(address issuer, uint256 certId);\n    event RequestCertificate(address subjectAddr, address issuerAddr);\n    event AcceptSubjectRequest(address issuerAddr, address subjectAddr);\n    event RejectSubjectRequest(address issuerAddr, address subjectAddr);\n    event GiveAccessViewing(address subjectAddr, address verifierAddr);\n    event DenyAccessViewing(address subjectAddr, address verifierAddr);\n    event ViewSubjectCerts(address verifierAddr, address subjectAddr);\n    event ViewVerifierStatus(address subjectAddr, bool status);\n    event ViewSubjectStatus(address verifierAddr, bool status);\n\n    // Structs\n    struct Cert {\n        address owner; // Subject address\n        address issuerAddr; // Issuer address\n        string issuerName; // (NUS,NTU,Coursera,LinkedIn)\n        uint256 creationDate; // cert creation date\n        string nric; // s9673333A\n        string matricNo; //subject admin no, e.g A0200100X, Question- same as rollNumber?\n        string title; // cert title\n        string completionDate; // date which subject completed the cert requirements\n        // remove variables:\n        // string studName; // subject name\n        // string rollNumber; //unique identification number that can be assigned to a SUBJECT during admission.\n        // string details; // modules taken, etc.\n    }\n\n    constructor(CertificateNetwork cn) public {\n        certNetwork = cn;\n        totalCert = 1;\n    }\n\n    // Modifiers\n\n    // Used for functions with specific roles\n    modifier onlyValidRoles(string memory role) {\n        require(\n            certNetwork.checkUserExist(msg.sender, role),\n            \"This action can only be performed by authorized roles.\"\n        );\n        _;\n    }\n\n    // Used to check if a user exist, i.e. issue cert to subject, check if that subject exist in our system.\n    modifier userExist(address addr, string memory role) {\n        require(\n            certNetwork.checkUserExist(addr, role),\n            \"This action can only be performed by user in our network.\"\n        );\n        _;\n    }\n\n    // Used this for determining valid cert\n    modifier validCertId(uint256 certId) {\n        require(certId < totalCert);\n        _;\n    }\n    modifier onlyCertOwner(uint256 certId) {\n        require(\n            certsMap[certId].owner == msg.sender,\n            \"This action can only be performed by the certificate owner.\"\n        );\n        _;\n    }\n    modifier onlyCertIssuer(uint256 certId) {\n        require(\n            certsMap[certId].issuerAddr == msg.sender,\n            \"This action can only be performed by the certificate issuer.\"\n        );\n        _;\n    }\n\n    // TODO: JAOKUEAN\n    // Request cert from issuer. (SUBJECT -> ISSUER)\n    // Issue: subject can spam request for each issuer without being a subject\n    // Assumptions:\n    // 1. Subject know school block addr\n    // 2. Subject belongs to the school and is legitamite.\n    // 3. Subject only needs to request from the sch once for a sch to send all the subjects cert.\n    function requestCert(address issuerAddr)\n        public\n        onlyValidRoles(\"Subject\")\n        userExist(issuerAddr, \"Issuer\")\n    {\n        require(\n            !requestMap[msg.sender][issuerAddr],\n            \"You have already requested for a cert.\"\n        );\n\n        requestMap[msg.sender][issuerAddr] = true; // subject request\n        requestMap[issuerAddr][msg.sender] = false; // issuer to approve\n\n        reqListMap[msg.sender].push(issuerAddr);\n        reqListMap[issuerAddr].push(msg.sender);\n\n        emit RequestCertificate(msg.sender, issuerAddr);\n    }\n\n    // Approve student request before you can issue cert\n    function acceptRequest(address subjectAddr)\n        public\n        onlyValidRoles(\"Issuer\")\n        userExist(subjectAddr, \"Subject\")\n    {\n        require(\n            requestMap[subjectAddr][msg.sender],\n            \"Subject has not made a request.\"\n        );\n        require(\n            !requestMap[msg.sender][subjectAddr],\n            \"Subject has already been approved.\"\n        );\n        requestMap[msg.sender][subjectAddr] = true;\n\n        emit AcceptSubjectRequest(msg.sender, subjectAddr);\n    }\n\n    function rejectRequest(address subjectAddr)\n        public\n        onlyValidRoles(\"Issuer\")\n        userExist(subjectAddr, \"Subject\")\n    {\n        require(\n            requestMap[subjectAddr][msg.sender],\n            \"Subject has not request for a new cert.\"\n        );\n        requestMap[msg.sender][subjectAddr] = false;\n        emit RejectSubjectRequest(msg.sender, subjectAddr);\n    }\n\n    // TODO: Xie Ran\n    // Grant access to a verifier to viewing all subject certs.(SUBJECT -> VERIFIER)\n    function grantVerifier(address verifierAddr)\n        public\n        onlyValidRoles(\"Subject\")\n        userExist(verifierAddr, \"Verifier\")\n    {\n        require(\n            !subjectToVerifierMap[msg.sender][verifierAddr],\n            \"Verifier has already been given access.\"\n        );\n\n        subjectToVerifierMap[msg.sender][verifierAddr] = true;\n        subjectToVerifierMap[verifierAddr][msg.sender] = true;\n\n        grantListMap[msg.sender].push(verifierAddr);\n        grantListMap[verifierAddr].push(msg.sender);\n\n        emit GiveAccessViewing(msg.sender, verifierAddr);\n    }\n\n    // TODO:Xie Ran\n    // Deny access to a verifier to viewing all subject certs.(SUBJECT -> VERIFIER)\n    function denyVerifier(address verifierAddr)\n        public\n        onlyValidRoles(\"Subject\")\n        userExist(verifierAddr, \"Verifier\")\n    {\n        require(\n            subjectToVerifierMap[msg.sender][verifierAddr],\n            \"Verifier has already been denied access.\"\n        );\n\n        subjectToVerifierMap[msg.sender][verifierAddr] = false;\n        subjectToVerifierMap[verifierAddr][msg.sender] = false;\n\n        emit DenyAccessViewing(msg.sender, verifierAddr);\n    }\n\n    // TODO: ShiKai\n    // address owner; // Subject address\n    // address issuerAddr; // Issuer address\n    // string issuerName; // (NUS,NTU,Coursera,LinkedIn)\n    // string creationDate; // cert creation date\n    // string nric; // s9673333A\n    // string matricNo; //subject admin no, e.g A0200100X\n    // string title; // cert title\n    // string completionDate; // date which subject completed the cert requirements\n    function issueCertificate(\n        address subjectAddr,\n        string memory _issuerName,\n        string memory _nric,\n        string memory _matricNo,\n        string memory _title,\n        string memory _completionDate\n    )\n        public\n        onlyValidRoles(\"Issuer\")\n        userExist(subjectAddr, \"Subject\")\n        returns (bool Status)\n    {\n        require(\n            requestMap[subjectAddr][msg.sender],\n            \"Subject has not request for a new cert.\"\n        );\n        require(\n            requestMap[msg.sender][subjectAddr],\n            \"Student has not been approve.\"\n        );\n\n        uint256 newCertId = totalCert++; // new cert id before transfer to subject\n        uint256 _creationDate = block.timestamp;\n\n        Cert memory newCert = Cert(\n            subjectAddr,\n            msg.sender,\n            _issuerName,\n            _creationDate,\n            _nric,\n            _matricNo,\n            _title,\n            _completionDate\n        );\n\n        //TODO: Check for duplicate cert details?\n        certsMap[newCertId] = newCert; // add to cert mapping\n        certExistMap[newCertId] = true; // for cert exist modifier\n\n        subjectToCertListMap[subjectAddr].push(newCertId); // add to subject list of certs\n        subjectToCertMap[subjectAddr][newCertId] = true;\n\n        issuerToCertListMap[msg.sender].push(newCertId); // add to issuer list of certs\n        issuerToCertMap[msg.sender][newCertId] = true;\n\n        emit IssuedCertificate(newCertId, msg.sender, subjectAddr); // Log event\n\n        return true;\n    }\n\n    // TODO: JK\n    // Delete cert in case of wrong issue or revoked.\n    // Assumption:\n    // 1. we do not delete the cert block, but set the existence to false to indicate it was deleted\n    // Question - Do we keep the certExist or just erase from existence?\n    function revokeCert(uint256 certId)\n        public\n        onlyValidRoles(\"Issuer\")\n        onlyCertIssuer(certId)\n        validCertId(certId)\n    {\n        require(\n            certExistMap[certId],\n            \"The certificate has already been revoked.\"\n        );\n\n        address subjectAddr = certsMap[certId].owner; // get owner of cert\n        certExistMap[certId] = false; // for cert exist modifier\n        subjectToCertMap[subjectAddr][certId] = false; // remove mapping\n        issuerToCertMap[msg.sender][certId] = false; // remove mapping\n\n        delete certsMap[certId]; // Remove from mapping, cert does not exist anymore\n\n        emit RevokeCertificate(msg.sender, certId);\n    }\n\n    // Alternate code to retrieve all certs from a subject\n    // Verifiers > Subject\n    // return all viewable certIDs\n    // can be extended to retrieve all struct info.\n    function getCertListVerifiers(address subjectAddr)\n        public\n        view\n        onlyValidRoles(\"Verifier\")\n        userExist(subjectAddr, \"Subject\")\n        returns (uint256[] memory)\n    {\n        require(\n            subjectToVerifierMap[subjectAddr][msg.sender],\n            \"You have no viewing access for the subject certificates.\"\n        );\n        uint256[] memory certList = subjectToCertListMap[subjectAddr];\n        uint256[] memory newList = new uint256[](certList.length);\n        for (uint256 i = 0; i < certList.length; i++) {\n            if (subjectToCertMap[subjectAddr][certList[i]]) {\n                // Get all viewable certs\n                newList[i] = certList[i];\n                // newList.push(certsMap[certList[i]]) // Push entire cert struct\n            }\n        }\n        return newList;\n    }\n\n    function getCertListSubjects()\n        public\n        view\n        onlyValidRoles(\"Subject\")\n        returns (uint256[] memory)\n    {\n        uint256[] memory certList = subjectToCertListMap[msg.sender];\n        uint256[] memory newList = new uint256[](certList.length);\n        for (uint256 i = 0; i < certList.length; i++) {\n            if (subjectToCertMap[msg.sender][certList[i]]) {\n                // Get all viewable certs\n                newList[i] = certList[i];\n                // newList.push(certsMap[certList[i]]) // Push entire cert struct\n            }\n        }\n        return newList;\n    }\n\n    function getCertListIssuers()\n        public\n        view\n        onlyValidRoles(\"Issuer\")\n        returns (uint256[] memory)\n    {\n        uint256[] memory certList = issuerToCertListMap[msg.sender];\n        uint256[] memory newList = new uint256[](certList.length);\n\n        for (uint256 i = 0; i < certList.length; i++) {\n            if (issuerToCertMap[msg.sender][certList[i]]) {\n                // Get all viewable certs\n                newList[i] = certList[i];\n                // newList.push(certsMap[certList[i]]) // Push entire cert struct\n            }\n        }\n        return newList;\n    }\n\n    // Getters and Setters\n\n    //getters by XR:\n    //for a subject to check the viewing rights of a verifier\n    function checkVerifier(address verifier)\n        public\n        onlyValidRoles(\"Subject\")\n        userExist(verifier, \"Verifier\")\n        returns (bool)\n    {\n        bool status = subjectToVerifierMap[msg.sender][verifier];\n        emit ViewVerifierStatus(msg.sender, status);\n        return status;\n    }\n\n    //Frontend[subject]: loop thr all verifier addresses to display the list of verifiers approved by the subject.\n\n    //for a verifier to check whether he/she can view a subject's certs\n    function checkSubject(address subject)\n        public\n        onlyValidRoles(\"Verifier\")\n        userExist(subject, \"Subject\")\n        returns (bool)\n    {\n        bool status = subjectToVerifierMap[subject][msg.sender];\n        emit ViewSubjectStatus(msg.sender, status);\n        return status;\n    }\n\n    //Frontend[verifier]: loop thr all subject addresses to display the list of subjects viewable by the verifier.\n\n    //function to check a request from a subject\n    function checkRequest(address issuerAddr)\n        public\n        view\n        onlyValidRoles(\"Subject\")\n        userExist(issuerAddr, \"Issuer\")\n        returns (bool)\n    {\n        if (\n            requestMap[issuerAddr][msg.sender] &&\n            requestMap[msg.sender][issuerAddr]\n        ) {\n            return true;\n        }\n        return false;\n    }\n\n    // function for subject/issuer to see all request to issuer/subject\n    function getApprovedReqList() public view returns (address[] memory) {\n        address[] memory reqList = reqListMap[msg.sender];\n        address[] memory newList = new address[](reqList.length);\n\n        for (uint256 i = 0; i < reqList.length; i++) {\n            // check if issuer approve subject and student make req to issuer\n            if (requestMap[msg.sender][reqList[i]]) {\n                // Get all viewable certs\n                newList[i] = reqList[i];\n            }\n        }\n        return newList;\n    }\n\n    // Subject request to Issuer list\n    // Issuer request from Subject List\n    function getReqList() public view returns (address[] memory) {\n        return reqListMap[msg.sender];\n    }\n\n    // function for subject/issuer to see all request to issuer/subject\n    function getGrantList() public view returns (address[] memory) {\n        // address[] memory grantList = grantListMap[msg.sender];\n        // address[] memory newList = new address[](grantList.length);\n\n        // for (uint256 i = 0; i < grantList.length; i++) {\n        //     // check if issuer approve subject and student make req to issuer\n        //     if (subjectToVerifierMap[msg.sender][grantList[i]]) {\n        //         // Get all viewable certs\n        //         newList[i] = grantList[i];\n        //     }\n        // }\n        return grantListMap[msg.sender];\n    }\n\n    function checkCertExist(uint256 certId) public view returns (bool) {\n        return certExistMap[certId];\n    }\n\n    // For testing gasCost for any inefficiency\n    function GasCost(function() internal returns (string memory) fun)\n        internal\n        returns (uint256)\n    {\n        uint256 u0 = gasleft();\n        string memory sm = fun();\n        uint256 u1 = gasleft();\n        uint256 diff = u0 - u1;\n        return diff;\n    }\n\n    //TODO: getGrantList with actual grant\n}\n",
  "sourcePath": "/Users/yeerouhew/Downloads/IS4302/IS4302_GrpProject/contracts/Certificate.sol",
  "compiler": {
    "name": "solc",
    "version": "0.5.16+commit.9c3226ce.Emscripten.clang"
  },
  "schemaVersion": "3.4.4",
  "updatedAt": "2022-04-01T11:28:55.849Z",
  "networkType": "ethereum",
  "devdoc": {
    "methods": {}
  },
  "userdoc": {
    "methods": {}
  }
}