{
  "contractName": "CertificateStore",
  "abi": [
    {
      "inputs": [
        {
          "internalType": "contract CertificateNetwork",
          "name": "cn",
          "type": "address"
        }
      ],
      "payable": false,
      "stateMutability": "nonpayable",
      "type": "constructor"
    },
    {
      "anonymous": false,
      "inputs": [
        {
          "indexed": false,
          "internalType": "address",
          "name": "issuerAddr",
          "type": "address"
        },
        {
          "indexed": false,
          "internalType": "address",
          "name": "subjectAddr",
          "type": "address"
        }
      ],
      "name": "AcceptSubjectRequest",
      "type": "event"
    },
    {
      "anonymous": false,
      "inputs": [
        {
          "indexed": false,
          "internalType": "uint256",
          "name": "certId",
          "type": "uint256"
        },
        {
          "indexed": false,
          "internalType": "address",
          "name": "issuerAddr",
          "type": "address"
        },
        {
          "indexed": false,
          "internalType": "address",
          "name": "subjectAddr",
          "type": "address"
        }
      ],
      "name": "IssuedCertificate",
      "type": "event"
    },
    {
      "anonymous": false,
      "inputs": [
        {
          "indexed": false,
          "internalType": "address",
          "name": "issuerAddr",
          "type": "address"
        },
        {
          "indexed": false,
          "internalType": "address",
          "name": "subjectAddr",
          "type": "address"
        }
      ],
      "name": "RejectSubjectRequest",
      "type": "event"
    },
    {
      "anonymous": false,
      "inputs": [
        {
          "indexed": false,
          "internalType": "address",
          "name": "subjectAddr",
          "type": "address"
        },
        {
          "indexed": false,
          "internalType": "address",
          "name": "issuerAddr",
          "type": "address"
        }
      ],
      "name": "RequestCertificate",
      "type": "event"
    },
    {
      "anonymous": false,
      "inputs": [
        {
          "indexed": false,
          "internalType": "address",
          "name": "issuer",
          "type": "address"
        },
        {
          "indexed": false,
          "internalType": "uint256",
          "name": "certId",
          "type": "uint256"
        }
      ],
      "name": "RevokeCertificate",
      "type": "event"
    },
    {
      "anonymous": false,
      "inputs": [
        {
          "indexed": false,
          "internalType": "address",
          "name": "subjectAddr",
          "type": "address"
        },
        {
          "indexed": false,
          "internalType": "address",
          "name": "verifierAddr",
          "type": "address"
        }
      ],
      "name": "VerifierDenied",
      "type": "event"
    },
    {
      "anonymous": false,
      "inputs": [
        {
          "indexed": false,
          "internalType": "address",
          "name": "subjectAddr",
          "type": "address"
        },
        {
          "indexed": false,
          "internalType": "address",
          "name": "verifierAddr",
          "type": "address"
        }
      ],
      "name": "VerifierGranted",
      "type": "event"
    },
    {
      "constant": false,
      "inputs": [
        {
          "internalType": "address",
          "name": "issuerAddr",
          "type": "address"
        }
      ],
      "name": "requestCert",
      "outputs": [],
      "payable": false,
      "stateMutability": "nonpayable",
      "type": "function"
    },
    {
      "constant": false,
      "inputs": [
        {
          "internalType": "address",
          "name": "subjectAddr",
          "type": "address"
        }
      ],
      "name": "rejectRequest",
      "outputs": [],
      "payable": false,
      "stateMutability": "nonpayable",
      "type": "function"
    },
    {
      "constant": true,
      "inputs": [],
      "name": "getApprovedReqList",
      "outputs": [
        {
          "internalType": "address[]",
          "name": "",
          "type": "address[]"
        }
      ],
      "payable": false,
      "stateMutability": "view",
      "type": "function"
    },
    {
      "constant": true,
      "inputs": [],
      "name": "getRejectedReqList",
      "outputs": [
        {
          "internalType": "address[]",
          "name": "",
          "type": "address[]"
        }
      ],
      "payable": false,
      "stateMutability": "view",
      "type": "function"
    },
    {
      "constant": true,
      "inputs": [],
      "name": "getReqHist",
      "outputs": [
        {
          "internalType": "address[]",
          "name": "",
          "type": "address[]"
        }
      ],
      "payable": false,
      "stateMutability": "view",
      "type": "function"
    },
    {
      "constant": true,
      "inputs": [
        {
          "internalType": "address",
          "name": "addr",
          "type": "address"
        }
      ],
      "name": "checkRequest",
      "outputs": [
        {
          "internalType": "bool",
          "name": "",
          "type": "bool"
        }
      ],
      "payable": false,
      "stateMutability": "view",
      "type": "function"
    },
    {
      "constant": true,
      "inputs": [
        {
          "internalType": "address",
          "name": "issuerAddr",
          "type": "address"
        },
        {
          "internalType": "address",
          "name": "subjectAddr",
          "type": "address"
        }
      ],
      "name": "getRequestStatus",
      "outputs": [
        {
          "internalType": "bool",
          "name": "",
          "type": "bool"
        }
      ],
      "payable": false,
      "stateMutability": "view",
      "type": "function"
    },
    {
      "constant": true,
      "inputs": [
        {
          "internalType": "address",
          "name": "issuerAddr",
          "type": "address"
        },
        {
          "internalType": "address",
          "name": "subjectAddr",
          "type": "address"
        }
      ],
      "name": "getIssueStatus",
      "outputs": [
        {
          "internalType": "bool",
          "name": "",
          "type": "bool"
        }
      ],
      "payable": false,
      "stateMutability": "view",
      "type": "function"
    },
    {
      "constant": true,
      "inputs": [
        {
          "internalType": "address",
          "name": "verifierAddr",
          "type": "address"
        },
        {
          "internalType": "address",
          "name": "subjectAddr",
          "type": "address"
        }
      ],
      "name": "getAccessStatus",
      "outputs": [
        {
          "internalType": "bool",
          "name": "",
          "type": "bool"
        }
      ],
      "payable": false,
      "stateMutability": "view",
      "type": "function"
    },
    {
      "constant": false,
      "inputs": [
        {
          "internalType": "address",
          "name": "verifierAddr",
          "type": "address"
        }
      ],
      "name": "grantVerifier",
      "outputs": [],
      "payable": false,
      "stateMutability": "nonpayable",
      "type": "function"
    },
    {
      "constant": false,
      "inputs": [
        {
          "internalType": "address",
          "name": "verifierAddr",
          "type": "address"
        }
      ],
      "name": "denyVerifier",
      "outputs": [],
      "payable": false,
      "stateMutability": "nonpayable",
      "type": "function"
    },
    {
      "constant": true,
      "inputs": [
        {
          "internalType": "address",
          "name": "add",
          "type": "address"
        }
      ],
      "name": "checkGrantStatus",
      "outputs": [
        {
          "internalType": "bool",
          "name": "",
          "type": "bool"
        }
      ],
      "payable": false,
      "stateMutability": "view",
      "type": "function"
    },
    {
      "constant": true,
      "inputs": [],
      "name": "getGrantList",
      "outputs": [
        {
          "internalType": "address[]",
          "name": "",
          "type": "address[]"
        }
      ],
      "payable": false,
      "stateMutability": "view",
      "type": "function"
    },
    {
      "constant": true,
      "inputs": [],
      "name": "getDenyList",
      "outputs": [
        {
          "internalType": "address[]",
          "name": "",
          "type": "address[]"
        }
      ],
      "payable": false,
      "stateMutability": "view",
      "type": "function"
    },
    {
      "constant": true,
      "inputs": [],
      "name": "getGrantHist",
      "outputs": [
        {
          "internalType": "address[]",
          "name": "",
          "type": "address[]"
        }
      ],
      "payable": false,
      "stateMutability": "view",
      "type": "function"
    }
  ],
  "bytecode": "0x60806040523480156200001157600080fd5b506040516200518938038062005189833981810160405262000037919081019062000095565b806000806101000a81548173ffffffffffffffffffffffffffffffffffffffff021916908373ffffffffffffffffffffffffffffffffffffffff1602179055505062000123565b6000815190506200008f8162000109565b92915050565b600060208284031215620000a857600080fd5b6000620000b8848285016200007e565b91505092915050565b6000620000ce82620000e9565b9050919050565b6000620000e282620000c1565b9050919050565b600073ffffffffffffffffffffffffffffffffffffffff82169050919050565b6200011481620000d5565b81146200012057600080fd5b50565b61505680620001336000396000f3fe608060405234801561001057600080fd5b50600436106100f55760003560e01c8063ba5ffe7211610097578063d1329f0e11610066578063d1329f0e14610284578063f30b8fce146102a2578063f777d0ac146102c0578063f855b366146102de576100f5565b8063ba5ffe72146101fc578063c601cd121461021a578063ca07b4b414610238578063d0ae435614610254576100f5565b8063749b26d5116100d3578063749b26d514610164578063951535991461018057806395716f30146101b05780639cb596e5146101cc576100f5565b806314e5735f146100fa5780632137d240146101185780635f889fe914610148575b600080fd5b61010261030e565b60405161010f9190614d17565b60405180910390f35b610132600480360361012d919081019061450d565b610827565b60405161013f9190614d39565b60405180910390f35b610162600480360361015d919081019061450d565b610af7565b005b61017e6004803603610179919081019061450d565b6111d7565b005b61019a60048036036101959190810190614536565b6118b7565b6040516101a79190614d39565b60405180910390f35b6101ca60048036036101c5919081019061450d565b611b93565b005b6101e660048036036101e19190810190614536565b612008565b6040516101f39190614d39565b60405180910390f35b6102046122e4565b6040516102119190614d17565b60405180910390f35b610222612549565b60405161022f9190614d17565b60405180910390f35b610252600480360361024d919081019061450d565b612a62565b005b61026e60048036036102699190810190614536565b612fa0565b60405161027b9190614d39565b60405180910390f35b61028c61327c565b6040516102999190614d17565b60405180910390f35b6102aa613794565b6040516102b79190614d17565b60405180910390f35b6102c86139f9565b6040516102d59190614d17565b60405180910390f35b6102f860048036036102f3919081019061450d565b613f14565b6040516103059190614d39565b60405180910390f35b60606000809054906101000a900473ffffffffffffffffffffffffffffffffffffffff1673ffffffffffffffffffffffffffffffffffffffff1663ffb28d9c336040518263ffffffff1660e01b815260040161036a9190614c8b565b60206040518083038186803b15801561038257600080fd5b505afa158015610396573d6000803e3d6000fd5b505050506040513d601f19601f820116820180604052506103ba9190810190614572565b8061046b57506000809054906101000a900473ffffffffffffffffffffffffffffffffffffffff1673ffffffffffffffffffffffffffffffffffffffff1663ffb28d9c336040518263ffffffff1660e01b815260040161041a9190614c5d565b60206040518083038186803b15801561043257600080fd5b505afa158015610446573d6000803e3d6000fd5b505050506040513d601f19601f8201168201806040525061046a9190810190614572565b5b6104aa576040517f08c379a00000000000000000000000000000000000000000000000000000000081526004016104a190614df4565b60405180910390fd5b6060600460003373ffffffffffffffffffffffffffffffffffffffff1673ffffffffffffffffffffffffffffffffffffffff16815260200190815260200160002080548060200260200160405190810160405280929190818152602001828054801561056b57602002820191906000526020600020905b8160009054906101000a900473ffffffffffffffffffffffffffffffffffffffff1673ffffffffffffffffffffffffffffffffffffffff1681526020019060010190808311610521575b50505050509050606081516040519080825280602002602001820160405280156105a45781602001602082028038833980820191505090505b509050600080905060008090505b835181101561077257600560003373ffffffffffffffffffffffffffffffffffffffff1673ffffffffffffffffffffffffffffffffffffffff168152602001908152602001600020600085838151811061060857fe5b602002602001015173ffffffffffffffffffffffffffffffffffffffff1673ffffffffffffffffffffffffffffffffffffffff16815260200190815260200160002060009054906101000a900460ff1680156106fd57506005600085838151811061066f57fe5b602002602001015173ffffffffffffffffffffffffffffffffffffffff1673ffffffffffffffffffffffffffffffffffffffff16815260200190815260200160002060003373ffffffffffffffffffffffffffffffffffffffff1673ffffffffffffffffffffffffffffffffffffffff16815260200190815260200160002060009054906101000a900460ff165b156107655783818151811061070e57fe5b602002602001015183838151811061072257fe5b602002602001019073ffffffffffffffffffffffffffffffffffffffff16908173ffffffffffffffffffffffffffffffffffffffff168152505081806001019250505b80806001019150506105b2565b506060816040519080825280602002602001820160405280156107a45781602001602082028038833980820191505090505b50905060008090505b8281101561081c578381815181106107c157fe5b60200260200101518282815181106107d557fe5b602002602001019073ffffffffffffffffffffffffffffffffffffffff16908173ffffffffffffffffffffffffffffffffffffffff168152505080806001019150506107ad565b508094505050505090565b60008060009054906101000a900473ffffffffffffffffffffffffffffffffffffffff1673ffffffffffffffffffffffffffffffffffffffff1663ffb28d9c336040518263ffffffff1660e01b81526004016108839190614c8b565b60206040518083038186803b15801561089b57600080fd5b505afa1580156108af573d6000803e3d6000fd5b505050506040513d601f19601f820116820180604052506108d39190810190614572565b8061098457506000809054906101000a900473ffffffffffffffffffffffffffffffffffffffff1673ffffffffffffffffffffffffffffffffffffffff1663ffb28d9c336040518263ffffffff1660e01b81526004016109339190614c5d565b60206040518083038186803b15801561094b57600080fd5b505afa15801561095f573d6000803e3d6000fd5b505050506040513d601f19601f820116820180604052506109839190810190614572565b5b6109c3576040517f08c379a00000000000000000000000000000000000000000000000000000000081526004016109ba90614df4565b60405180910390fd5b600560003373ffffffffffffffffffffffffffffffffffffffff1673ffffffffffffffffffffffffffffffffffffffff16815260200190815260200160002060008373ffffffffffffffffffffffffffffffffffffffff1673ffffffffffffffffffffffffffffffffffffffff16815260200190815260200160002060009054906101000a900460ff168015610adf5750600560008373ffffffffffffffffffffffffffffffffffffffff1673ffffffffffffffffffffffffffffffffffffffff16815260200190815260200160002060003373ffffffffffffffffffffffffffffffffffffffff1673ffffffffffffffffffffffffffffffffffffffff16815260200190815260200160002060009054906101000a900460ff165b15610aed5760019050610af2565b600090505b919050565b6040518060400160405280600781526020017f5375626a656374000000000000000000000000000000000000000000000000008152506000809054906101000a900473ffffffffffffffffffffffffffffffffffffffff1673ffffffffffffffffffffffffffffffffffffffff1663ffb28d9c33836040518363ffffffff1660e01b8152600401610b89929190614c2d565b60206040518083038186803b158015610ba157600080fd5b505afa158015610bb5573d6000803e3d6000fd5b505050506040513d601f19601f82011682018060405250610bd99190810190614572565b610c18576040517f08c379a0000000000000000000000000000000000000000000000000000000008152600401610c0f90614df4565b60405180910390fd5b816040518060400160405280600681526020017f49737375657200000000000000000000000000000000000000000000000000008152506000809054906101000a900473ffffffffffffffffffffffffffffffffffffffff1673ffffffffffffffffffffffffffffffffffffffff1663ffb28d9c83836040518363ffffffff1660e01b8152600401610cab929190614ce7565b60206040518083038186803b158015610cc357600080fd5b505afa158015610cd7573d6000803e3d6000fd5b505050506040513d601f19601f82011682018060405250610cfb9190810190614572565b610d3a576040517f08c379a0000000000000000000000000000000000000000000000000000000008152600401610d3190614dd4565b60405180910390fd5b600260003373ffffffffffffffffffffffffffffffffffffffff1673ffffffffffffffffffffffffffffffffffffffff16815260200190815260200160002060008573ffffffffffffffffffffffffffffffffffffffff1673ffffffffffffffffffffffffffffffffffffffff16815260200190815260200160002060009054906101000a900460ff1615610e04576040517f08c379a0000000000000000000000000000000000000000000000000000000008152600401610dfb90614d74565b60405180910390fd5b6001600260003373ffffffffffffffffffffffffffffffffffffffff1673ffffffffffffffffffffffffffffffffffffffff16815260200190815260200160002060008673ffffffffffffffffffffffffffffffffffffffff1673ffffffffffffffffffffffffffffffffffffffff16815260200190815260200160002060006101000a81548160ff0219169083151502179055506001600260008673ffffffffffffffffffffffffffffffffffffffff1673ffffffffffffffffffffffffffffffffffffffff16815260200190815260200160002060003373ffffffffffffffffffffffffffffffffffffffff1673ffffffffffffffffffffffffffffffffffffffff16815260200190815260200160002060006101000a81548160ff021916908315150217905550600360003373ffffffffffffffffffffffffffffffffffffffff1673ffffffffffffffffffffffffffffffffffffffff16815260200190815260200160002060008573ffffffffffffffffffffffffffffffffffffffff1673ffffffffffffffffffffffffffffffffffffffff16815260200190815260200160002060009054906101000a900460ff1661110357600160003373ffffffffffffffffffffffffffffffffffffffff1673ffffffffffffffffffffffffffffffffffffffff1681526020019081526020016000208490806001815401808255809150509060018203906000526020600020016000909192909190916101000a81548173ffffffffffffffffffffffffffffffffffffffff021916908373ffffffffffffffffffffffffffffffffffffffff16021790555050600160008573ffffffffffffffffffffffffffffffffffffffff1673ffffffffffffffffffffffffffffffffffffffff1681526020019081526020016000203390806001815401808255809150509060018203906000526020600020016000909192909190916101000a81548173ffffffffffffffffffffffffffffffffffffffff021916908373ffffffffffffffffffffffffffffffffffffffff160217905550505b6001600360003373ffffffffffffffffffffffffffffffffffffffff1673ffffffffffffffffffffffffffffffffffffffff16815260200190815260200160002060008673ffffffffffffffffffffffffffffffffffffffff1673ffffffffffffffffffffffffffffffffffffffff16815260200190815260200160002060006101000a81548160ff0219169083151502179055507f96dc08c3299c77635bd20fc8e5b7a7459559a916cac4e43146327f032258ce7f33856040516111c9929190614c04565b60405180910390a150505050565b6040518060400160405280600781526020017f5375626a656374000000000000000000000000000000000000000000000000008152506000809054906101000a900473ffffffffffffffffffffffffffffffffffffffff1673ffffffffffffffffffffffffffffffffffffffff1663ffb28d9c33836040518363ffffffff1660e01b8152600401611269929190614c2d565b60206040518083038186803b15801561128157600080fd5b505afa158015611295573d6000803e3d6000fd5b505050506040513d601f19601f820116820180604052506112b99190810190614572565b6112f8576040517f08c379a00000000000000000000000000000000000000000000000000000000081526004016112ef90614df4565b60405180910390fd5b816040518060400160405280600881526020017f56657269666965720000000000000000000000000000000000000000000000008152506000809054906101000a900473ffffffffffffffffffffffffffffffffffffffff1673ffffffffffffffffffffffffffffffffffffffff1663ffb28d9c83836040518363ffffffff1660e01b815260040161138b929190614ce7565b60206040518083038186803b1580156113a357600080fd5b505afa1580156113b7573d6000803e3d6000fd5b505050506040513d601f19601f820116820180604052506113db9190810190614572565b61141a576040517f08c379a000000000000000000000000000000000000000000000000000000000815260040161141190614dd4565b60405180910390fd5b600560003373ffffffffffffffffffffffffffffffffffffffff1673ffffffffffffffffffffffffffffffffffffffff16815260200190815260200160002060008573ffffffffffffffffffffffffffffffffffffffff1673ffffffffffffffffffffffffffffffffffffffff16815260200190815260200160002060009054906101000a900460ff16156114e4576040517f08c379a00000000000000000000000000000000000000000000000000000000081526004016114db90614d94565b60405180910390fd5b6001600560003373ffffffffffffffffffffffffffffffffffffffff1673ffffffffffffffffffffffffffffffffffffffff16815260200190815260200160002060008673ffffffffffffffffffffffffffffffffffffffff1673ffffffffffffffffffffffffffffffffffffffff16815260200190815260200160002060006101000a81548160ff0219169083151502179055506001600560008673ffffffffffffffffffffffffffffffffffffffff1673ffffffffffffffffffffffffffffffffffffffff16815260200190815260200160002060003373ffffffffffffffffffffffffffffffffffffffff1673ffffffffffffffffffffffffffffffffffffffff16815260200190815260200160002060006101000a81548160ff021916908315150217905550600660003373ffffffffffffffffffffffffffffffffffffffff1673ffffffffffffffffffffffffffffffffffffffff16815260200190815260200160002060008573ffffffffffffffffffffffffffffffffffffffff1673ffffffffffffffffffffffffffffffffffffffff16815260200190815260200160002060009054906101000a900460ff166117e357600460003373ffffffffffffffffffffffffffffffffffffffff1673ffffffffffffffffffffffffffffffffffffffff1681526020019081526020016000208490806001815401808255809150509060018203906000526020600020016000909192909190916101000a81548173ffffffffffffffffffffffffffffffffffffffff021916908373ffffffffffffffffffffffffffffffffffffffff16021790555050600460008573ffffffffffffffffffffffffffffffffffffffff1673ffffffffffffffffffffffffffffffffffffffff1681526020019081526020016000203390806001815401808255809150509060018203906000526020600020016000909192909190916101000a81548173ffffffffffffffffffffffffffffffffffffffff021916908373ffffffffffffffffffffffffffffffffffffffff160217905550505b6001600660003373ffffffffffffffffffffffffffffffffffffffff1673ffffffffffffffffffffffffffffffffffffffff16815260200190815260200160002060008673ffffffffffffffffffffffffffffffffffffffff1673ffffffffffffffffffffffffffffffffffffffff16815260200190815260200160002060006101000a81548160ff0219169083151502179055507f8a0c75501cc08717088881dbadc4eac47b178e3a240aa7ec195c0f61bc31868e33856040516118a9929190614c04565b60405180910390a150505050565b6000826040518060400160405280600881526020017f56657269666965720000000000000000000000000000000000000000000000008152506000809054906101000a900473ffffffffffffffffffffffffffffffffffffffff1673ffffffffffffffffffffffffffffffffffffffff1663ffb28d9c83836040518363ffffffff1660e01b815260040161194c929190614ce7565b60206040518083038186803b15801561196457600080fd5b505afa158015611978573d6000803e3d6000fd5b505050506040513d601f19601f8201168201806040525061199c9190810190614572565b6119db576040517f08c379a00000000000000000000000000000000000000000000000000000000081526004016119d290614dd4565b60405180910390fd5b836040518060400160405280600781526020017f5375626a656374000000000000000000000000000000000000000000000000008152506000809054906101000a900473ffffffffffffffffffffffffffffffffffffffff1673ffffffffffffffffffffffffffffffffffffffff1663ffb28d9c83836040518363ffffffff1660e01b8152600401611a6e929190614ce7565b60206040518083038186803b158015611a8657600080fd5b505afa158015611a9a573d6000803e3d6000fd5b505050506040513d601f19601f82011682018060405250611abe9190810190614572565b611afd576040517f08c379a0000000000000000000000000000000000000000000000000000000008152600401611af490614dd4565b60405180910390fd5b600560008773ffffffffffffffffffffffffffffffffffffffff1673ffffffffffffffffffffffffffffffffffffffff16815260200190815260200160002060008873ffffffffffffffffffffffffffffffffffffffff1673ffffffffffffffffffffffffffffffffffffffff16815260200190815260200160002060009054906101000a900460ff1694505050505092915050565b6040518060400160405280600781526020017f5375626a656374000000000000000000000000000000000000000000000000008152506000809054906101000a900473ffffffffffffffffffffffffffffffffffffffff1673ffffffffffffffffffffffffffffffffffffffff1663ffb28d9c33836040518363ffffffff1660e01b8152600401611c25929190614c2d565b60206040518083038186803b158015611c3d57600080fd5b505afa158015611c51573d6000803e3d6000fd5b505050506040513d601f19601f82011682018060405250611c759190810190614572565b611cb4576040517f08c379a0000000000000000000000000000000000000000000000000000000008152600401611cab90614df4565b60405180910390fd5b816040518060400160405280600881526020017f56657269666965720000000000000000000000000000000000000000000000008152506000809054906101000a900473ffffffffffffffffffffffffffffffffffffffff1673ffffffffffffffffffffffffffffffffffffffff1663ffb28d9c83836040518363ffffffff1660e01b8152600401611d47929190614ce7565b60206040518083038186803b158015611d5f57600080fd5b505afa158015611d73573d6000803e3d6000fd5b505050506040513d601f19601f82011682018060405250611d979190810190614572565b611dd6576040517f08c379a0000000000000000000000000000000000000000000000000000000008152600401611dcd90614dd4565b60405180910390fd5b600560003373ffffffffffffffffffffffffffffffffffffffff1673ffffffffffffffffffffffffffffffffffffffff16815260200190815260200160002060008573ffffffffffffffffffffffffffffffffffffffff1673ffffffffffffffffffffffffffffffffffffffff16815260200190815260200160002060009054906101000a900460ff16611e9f576040517f08c379a0000000000000000000000000000000000000000000000000000000008152600401611e9690614e34565b60405180910390fd5b6000600560008673ffffffffffffffffffffffffffffffffffffffff1673ffffffffffffffffffffffffffffffffffffffff16815260200190815260200160002060003373ffffffffffffffffffffffffffffffffffffffff1673ffffffffffffffffffffffffffffffffffffffff16815260200190815260200160002060006101000a81548160ff0219169083151502179055506000600560003373ffffffffffffffffffffffffffffffffffffffff1673ffffffffffffffffffffffffffffffffffffffff16815260200190815260200160002060008673ffffffffffffffffffffffffffffffffffffffff1673ffffffffffffffffffffffffffffffffffffffff16815260200190815260200160002060006101000a81548160ff0219169083151502179055507f20fb312ef4e635871e9228308c7d9119e618c46d2912d356d19296bd765751b13385604051611ffa929190614c04565b60405180910390a150505050565b6000826040518060400160405280600681526020017f49737375657200000000000000000000000000000000000000000000000000008152506000809054906101000a900473ffffffffffffffffffffffffffffffffffffffff1673ffffffffffffffffffffffffffffffffffffffff1663ffb28d9c83836040518363ffffffff1660e01b815260040161209d929190614ce7565b60206040518083038186803b1580156120b557600080fd5b505afa1580156120c9573d6000803e3d6000fd5b505050506040513d601f19601f820116820180604052506120ed9190810190614572565b61212c576040517f08c379a000000000000000000000000000000000000000000000000000000000815260040161212390614dd4565b60405180910390fd5b836040518060400160405280600781526020017f5375626a656374000000000000000000000000000000000000000000000000008152506000809054906101000a900473ffffffffffffffffffffffffffffffffffffffff1673ffffffffffffffffffffffffffffffffffffffff1663ffb28d9c83836040518363ffffffff1660e01b81526004016121bf929190614ce7565b60206040518083038186803b1580156121d757600080fd5b505afa1580156121eb573d6000803e3d6000fd5b505050506040513d601f19601f8201168201806040525061220f9190810190614572565b61224e576040517f08c379a000000000000000000000000000000000000000000000000000000000815260040161224590614dd4565b60405180910390fd5b600260008873ffffffffffffffffffffffffffffffffffffffff1673ffffffffffffffffffffffffffffffffffffffff16815260200190815260200160002060008773ffffffffffffffffffffffffffffffffffffffff1673ffffffffffffffffffffffffffffffffffffffff16815260200190815260200160002060009054906101000a900460ff1694505050505092915050565b60606000809054906101000a900473ffffffffffffffffffffffffffffffffffffffff1673ffffffffffffffffffffffffffffffffffffffff1663ffb28d9c336040518263ffffffff1660e01b81526004016123409190614c8b565b60206040518083038186803b15801561235857600080fd5b505afa15801561236c573d6000803e3d6000fd5b505050506040513d601f19601f820116820180604052506123909190810190614572565b8061244157506000809054906101000a900473ffffffffffffffffffffffffffffffffffffffff1673ffffffffffffffffffffffffffffffffffffffff1663ffb28d9c336040518263ffffffff1660e01b81526004016123f09190614c5d565b60206040518083038186803b15801561240857600080fd5b505afa15801561241c573d6000803e3d6000fd5b505050506040513d601f19601f820116820180604052506124409190810190614572565b5b612480576040517f08c379a000000000000000000000000000000000000000000000000000000000815260040161247790614df4565b60405180910390fd5b600460003373ffffffffffffffffffffffffffffffffffffffff1673ffffffffffffffffffffffffffffffffffffffff16815260200190815260200160002080548060200260200160405190810160405280929190818152602001828054801561253f57602002820191906000526020600020905b8160009054906101000a900473ffffffffffffffffffffffffffffffffffffffff1673ffffffffffffffffffffffffffffffffffffffff16815260200190600101908083116124f5575b5050505050905090565b60606000809054906101000a900473ffffffffffffffffffffffffffffffffffffffff1673ffffffffffffffffffffffffffffffffffffffff1663ffb28d9c336040518263ffffffff1660e01b81526004016125a59190614c8b565b60206040518083038186803b1580156125bd57600080fd5b505afa1580156125d1573d6000803e3d6000fd5b505050506040513d601f19601f820116820180604052506125f59190810190614572565b806126a657506000809054906101000a900473ffffffffffffffffffffffffffffffffffffffff1673ffffffffffffffffffffffffffffffffffffffff1663ffb28d9c336040518263ffffffff1660e01b81526004016126559190614cb9565b60206040518083038186803b15801561266d57600080fd5b505afa158015612681573d6000803e3d6000fd5b505050506040513d601f19601f820116820180604052506126a59190810190614572565b5b6126e5576040517f08c379a00000000000000000000000000000000000000000000000000000000081526004016126dc90614df4565b60405180910390fd5b6060600160003373ffffffffffffffffffffffffffffffffffffffff1673ffffffffffffffffffffffffffffffffffffffff1681526020019081526020016000208054806020026020016040519081016040528092919081815260200182805480156127a657602002820191906000526020600020905b8160009054906101000a900473ffffffffffffffffffffffffffffffffffffffff1673ffffffffffffffffffffffffffffffffffffffff168152602001906001019080831161275c575b50505050509050606081516040519080825280602002602001820160405280156127df5781602001602082028038833980820191505090505b509050600080905060008090505b83518110156129ad57600260003373ffffffffffffffffffffffffffffffffffffffff1673ffffffffffffffffffffffffffffffffffffffff168152602001908152602001600020600085838151811061284357fe5b602002602001015173ffffffffffffffffffffffffffffffffffffffff1673ffffffffffffffffffffffffffffffffffffffff16815260200190815260200160002060009054906101000a900460ff1680156129385750600260008583815181106128aa57fe5b602002602001015173ffffffffffffffffffffffffffffffffffffffff1673ffffffffffffffffffffffffffffffffffffffff16815260200190815260200160002060003373ffffffffffffffffffffffffffffffffffffffff1673ffffffffffffffffffffffffffffffffffffffff16815260200190815260200160002060009054906101000a900460ff165b156129a05783818151811061294957fe5b602002602001015183838151811061295d57fe5b602002602001019073ffffffffffffffffffffffffffffffffffffffff16908173ffffffffffffffffffffffffffffffffffffffff168152505081806001019250505b80806001019150506127ed565b506060816040519080825280602002602001820160405280156129df5781602001602082028038833980820191505090505b50905060008090505b82811015612a57578381815181106129fc57fe5b6020026020010151828281518110612a1057fe5b602002602001019073ffffffffffffffffffffffffffffffffffffffff16908173ffffffffffffffffffffffffffffffffffffffff168152505080806001019150506129e8565b508094505050505090565b6040518060400160405280600681526020017f49737375657200000000000000000000000000000000000000000000000000008152506000809054906101000a900473ffffffffffffffffffffffffffffffffffffffff1673ffffffffffffffffffffffffffffffffffffffff1663ffb28d9c33836040518363ffffffff1660e01b8152600401612af4929190614c2d565b60206040518083038186803b158015612b0c57600080fd5b505afa158015612b20573d6000803e3d6000fd5b505050506040513d601f19601f82011682018060405250612b449190810190614572565b612b83576040517f08c379a0000000000000000000000000000000000000000000000000000000008152600401612b7a90614df4565b60405180910390fd5b816040518060400160405280600781526020017f5375626a656374000000000000000000000000000000000000000000000000008152506000809054906101000a900473ffffffffffffffffffffffffffffffffffffffff1673ffffffffffffffffffffffffffffffffffffffff1663ffb28d9c83836040518363ffffffff1660e01b8152600401612c16929190614ce7565b60206040518083038186803b158015612c2e57600080fd5b505afa158015612c42573d6000803e3d6000fd5b505050506040513d601f19601f82011682018060405250612c669190810190614572565b612ca5576040517f08c379a0000000000000000000000000000000000000000000000000000000008152600401612c9c90614dd4565b60405180910390fd5b600260008573ffffffffffffffffffffffffffffffffffffffff1673ffffffffffffffffffffffffffffffffffffffff16815260200190815260200160002060003373ffffffffffffffffffffffffffffffffffffffff1673ffffffffffffffffffffffffffffffffffffffff16815260200190815260200160002060009054906101000a900460ff16612d6e576040517f08c379a0000000000000000000000000000000000000000000000000000000008152600401612d6590614e54565b60405180910390fd5b600260003373ffffffffffffffffffffffffffffffffffffffff1673ffffffffffffffffffffffffffffffffffffffff16815260200190815260200160002060008573ffffffffffffffffffffffffffffffffffffffff1673ffffffffffffffffffffffffffffffffffffffff16815260200190815260200160002060009054906101000a900460ff16612e37576040517f08c379a0000000000000000000000000000000000000000000000000000000008152600401612e2e90614e14565b60405180910390fd5b6000600260003373ffffffffffffffffffffffffffffffffffffffff1673ffffffffffffffffffffffffffffffffffffffff16815260200190815260200160002060008673ffffffffffffffffffffffffffffffffffffffff1673ffffffffffffffffffffffffffffffffffffffff16815260200190815260200160002060006101000a81548160ff0219169083151502179055506000600260008673ffffffffffffffffffffffffffffffffffffffff1673ffffffffffffffffffffffffffffffffffffffff16815260200190815260200160002060003373ffffffffffffffffffffffffffffffffffffffff1673ffffffffffffffffffffffffffffffffffffffff16815260200190815260200160002060006101000a81548160ff0219169083151502179055507f3c44ce647de06c73eb5744c9395edea226f4b767db4b643bd11b5e632e3300923385604051612f92929190614c04565b60405180910390a150505050565b6000826040518060400160405280600681526020017f49737375657200000000000000000000000000000000000000000000000000008152506000809054906101000a900473ffffffffffffffffffffffffffffffffffffffff1673ffffffffffffffffffffffffffffffffffffffff1663ffb28d9c83836040518363ffffffff1660e01b8152600401613035929190614ce7565b60206040518083038186803b15801561304d57600080fd5b505afa158015613061573d6000803e3d6000fd5b505050506040513d601f19601f820116820180604052506130859190810190614572565b6130c4576040517f08c379a00000000000000000000000000000000000000000000000000000000081526004016130bb90614dd4565b60405180910390fd5b836040518060400160405280600781526020017f5375626a656374000000000000000000000000000000000000000000000000008152506000809054906101000a900473ffffffffffffffffffffffffffffffffffffffff1673ffffffffffffffffffffffffffffffffffffffff1663ffb28d9c83836040518363ffffffff1660e01b8152600401613157929190614ce7565b60206040518083038186803b15801561316f57600080fd5b505afa158015613183573d6000803e3d6000fd5b505050506040513d601f19601f820116820180604052506131a79190810190614572565b6131e6576040517f08c379a00000000000000000000000000000000000000000000000000000000081526004016131dd90614dd4565b60405180910390fd5b600260008773ffffffffffffffffffffffffffffffffffffffff1673ffffffffffffffffffffffffffffffffffffffff16815260200190815260200160002060008873ffffffffffffffffffffffffffffffffffffffff1673ffffffffffffffffffffffffffffffffffffffff16815260200190815260200160002060009054906101000a900460ff1694505050505092915050565b60606000809054906101000a900473ffffffffffffffffffffffffffffffffffffffff1673ffffffffffffffffffffffffffffffffffffffff1663ffb28d9c336040518263ffffffff1660e01b81526004016132d89190614c8b565b60206040518083038186803b1580156132f057600080fd5b505afa158015613304573d6000803e3d6000fd5b505050506040513d601f19601f820116820180604052506133289190810190614572565b806133d957506000809054906101000a900473ffffffffffffffffffffffffffffffffffffffff1673ffffffffffffffffffffffffffffffffffffffff1663ffb28d9c336040518263ffffffff1660e01b81526004016133889190614c5d565b60206040518083038186803b1580156133a057600080fd5b505afa1580156133b4573d6000803e3d6000fd5b505050506040513d601f19601f820116820180604052506133d89190810190614572565b5b613418576040517f08c379a000000000000000000000000000000000000000000000000000000000815260040161340f90614df4565b60405180910390fd5b6060600460003373ffffffffffffffffffffffffffffffffffffffff1673ffffffffffffffffffffffffffffffffffffffff1681526020019081526020016000208054806020026020016040519081016040528092919081815260200182805480156134d957602002820191906000526020600020905b8160009054906101000a900473ffffffffffffffffffffffffffffffffffffffff1673ffffffffffffffffffffffffffffffffffffffff168152602001906001019080831161348f575b50505050509050606081516040519080825280602002602001820160405280156135125781602001602082028038833980820191505090505b509050600080905060008090505b83518110156136df57600560003373ffffffffffffffffffffffffffffffffffffffff1673ffffffffffffffffffffffffffffffffffffffff168152602001908152602001600020600085838151811061357657fe5b602002602001015173ffffffffffffffffffffffffffffffffffffffff1673ffffffffffffffffffffffffffffffffffffffff16815260200190815260200160002060009054906101000a900460ff16801561366b5750600560008583815181106135dd57fe5b602002602001015173ffffffffffffffffffffffffffffffffffffffff1673ffffffffffffffffffffffffffffffffffffffff16815260200190815260200160002060003373ffffffffffffffffffffffffffffffffffffffff1673ffffffffffffffffffffffffffffffffffffffff16815260200190815260200160002060009054906101000a900460ff165b6136d25783818151811061367b57fe5b602002602001015183838151811061368f57fe5b602002602001019073ffffffffffffffffffffffffffffffffffffffff16908173ffffffffffffffffffffffffffffffffffffffff168152505081806001019250505b8080600101915050613520565b506060816040519080825280602002602001820160405280156137115781602001602082028038833980820191505090505b50905060008090505b828110156137895783818151811061372e57fe5b602002602001015182828151811061374257fe5b602002602001019073ffffffffffffffffffffffffffffffffffffffff16908173ffffffffffffffffffffffffffffffffffffffff1681525050808060010191505061371a565b508094505050505090565b60606000809054906101000a900473ffffffffffffffffffffffffffffffffffffffff1673ffffffffffffffffffffffffffffffffffffffff1663ffb28d9c336040518263ffffffff1660e01b81526004016137f09190614c8b565b60206040518083038186803b15801561380857600080fd5b505afa15801561381c573d6000803e3d6000fd5b505050506040513d601f19601f820116820180604052506138409190810190614572565b806138f157506000809054906101000a900473ffffffffffffffffffffffffffffffffffffffff1673ffffffffffffffffffffffffffffffffffffffff1663ffb28d9c336040518263ffffffff1660e01b81526004016138a09190614cb9565b60206040518083038186803b1580156138b857600080fd5b505afa1580156138cc573d6000803e3d6000fd5b505050506040513d601f19601f820116820180604052506138f09190810190614572565b5b613930576040517f08c379a000000000000000000000000000000000000000000000000000000000815260040161392790614df4565b60405180910390fd5b600160003373ffffffffffffffffffffffffffffffffffffffff1673ffffffffffffffffffffffffffffffffffffffff1681526020019081526020016000208054806020026020016040519081016040528092919081815260200182805480156139ef57602002820191906000526020600020905b8160009054906101000a900473ffffffffffffffffffffffffffffffffffffffff1673ffffffffffffffffffffffffffffffffffffffff16815260200190600101908083116139a5575b5050505050905090565b60606000809054906101000a900473ffffffffffffffffffffffffffffffffffffffff1673ffffffffffffffffffffffffffffffffffffffff1663ffb28d9c336040518263ffffffff1660e01b8152600401613a559190614c8b565b60206040518083038186803b158015613a6d57600080fd5b505afa158015613a81573d6000803e3d6000fd5b505050506040513d601f19601f82011682018060405250613aa59190810190614572565b80613b5657506000809054906101000a900473ffffffffffffffffffffffffffffffffffffffff1673ffffffffffffffffffffffffffffffffffffffff1663ffb28d9c336040518263ffffffff1660e01b8152600401613b059190614cb9565b60206040518083038186803b158015613b1d57600080fd5b505afa158015613b31573d6000803e3d6000fd5b505050506040513d601f19601f82011682018060405250613b559190810190614572565b5b613b95576040517f08c379a0000000000000000000000000000000000000000000000000000000008152600401613b8c90614df4565b60405180910390fd5b6060600160003373ffffffffffffffffffffffffffffffffffffffff1673ffffffffffffffffffffffffffffffffffffffff168152602001908152602001600020805480602002602001604051908101604052809291908181526020018280548015613c5657602002820191906000526020600020905b8160009054906101000a900473ffffffffffffffffffffffffffffffffffffffff1673ffffffffffffffffffffffffffffffffffffffff1681526020019060010190808311613c0c575b5050505050905060608151604051908082528060200260200182016040528015613c8f5781602001602082028038833980820191505090505b509050600080905060008090505b8351811015613e5f57600260003373ffffffffffffffffffffffffffffffffffffffff1673ffffffffffffffffffffffffffffffffffffffff1681526020019081526020016000206000858381518110613cf357fe5b602002602001015173ffffffffffffffffffffffffffffffffffffffff1673ffffffffffffffffffffffffffffffffffffffff16815260200190815260200160002060009054906101000a900460ff16158015613dea575060026000858381518110613d5b57fe5b602002602001015173ffffffffffffffffffffffffffffffffffffffff1673ffffffffffffffffffffffffffffffffffffffff16815260200190815260200160002060003373ffffffffffffffffffffffffffffffffffffffff1673ffffffffffffffffffffffffffffffffffffffff16815260200190815260200160002060009054906101000a900460ff16155b15613e5257838181518110613dfb57fe5b6020026020010151838381518110613e0f57fe5b602002602001019073ffffffffffffffffffffffffffffffffffffffff16908173ffffffffffffffffffffffffffffffffffffffff168152505081806001019250505b8080600101915050613c9d565b50606081604051908082528060200260200182016040528015613e915781602001602082028038833980820191505090505b50905060008090505b82811015613f0957838181518110613eae57fe5b6020026020010151828281518110613ec257fe5b602002602001019073ffffffffffffffffffffffffffffffffffffffff16908173ffffffffffffffffffffffffffffffffffffffff16815250508080600101915050613e9a565b508094505050505090565b60008060009054906101000a900473ffffffffffffffffffffffffffffffffffffffff1673ffffffffffffffffffffffffffffffffffffffff1663ffb28d9c336040518263ffffffff1660e01b8152600401613f709190614c8b565b60206040518083038186803b158015613f8857600080fd5b505afa158015613f9c573d6000803e3d6000fd5b505050506040513d601f19601f82011682018060405250613fc09190810190614572565b8061407157506000809054906101000a900473ffffffffffffffffffffffffffffffffffffffff1673ffffffffffffffffffffffffffffffffffffffff1663ffb28d9c336040518263ffffffff1660e01b81526004016140209190614cb9565b60206040518083038186803b15801561403857600080fd5b505afa15801561404c573d6000803e3d6000fd5b505050506040513d601f19601f820116820180604052506140709190810190614572565b5b6140b0576040517f08c379a00000000000000000000000000000000000000000000000000000000081526004016140a790614df4565b60405180910390fd5b6040516020016140bf90614bbf565b604051602081830303815290604052805190602001206000809054906101000a900473ffffffffffffffffffffffffffffffffffffffff1673ffffffffffffffffffffffffffffffffffffffff166327820851846040518263ffffffff1660e01b815260040161412f9190614be9565b60006040518083038186803b15801561414757600080fd5b505afa15801561415b573d6000803e3d6000fd5b505050506040513d6000823e3d601f19601f82011682018060405250614184919081019061459b565b6040516020016141949190614ba8565b6040516020818303038152906040528051906020012014806142ad57506040516020016141c090614bd4565b604051602081830303815290604052805190602001206000809054906101000a900473ffffffffffffffffffffffffffffffffffffffff1673ffffffffffffffffffffffffffffffffffffffff166327820851846040518263ffffffff1660e01b81526004016142309190614be9565b60006040518083038186803b15801561424857600080fd5b505afa15801561425c573d6000803e3d6000fd5b505050506040513d6000823e3d601f19601f82011682018060405250614285919081019061459b565b6040516020016142959190614ba8565b60405160208183030381529060405280519060200120145b6142ec576040517f08c379a00000000000000000000000000000000000000000000000000000000081526004016142e390614d54565b60405180910390fd5b8173ffffffffffffffffffffffffffffffffffffffff163373ffffffffffffffffffffffffffffffffffffffff16141561435b576040517f08c379a000000000000000000000000000000000000000000000000000000000815260040161435290614db4565b60405180910390fd5b600260008373ffffffffffffffffffffffffffffffffffffffff1673ffffffffffffffffffffffffffffffffffffffff16815260200190815260200160002060003373ffffffffffffffffffffffffffffffffffffffff1673ffffffffffffffffffffffffffffffffffffffff16815260200190815260200160002060009054906101000a900460ff1680156144775750600260003373ffffffffffffffffffffffffffffffffffffffff1673ffffffffffffffffffffffffffffffffffffffff16815260200190815260200160002060008373ffffffffffffffffffffffffffffffffffffffff1673ffffffffffffffffffffffffffffffffffffffff16815260200190815260200160002060009054906101000a900460ff165b15614485576001905061448a565b600090505b919050565b60008135905061449e81614fe5565b92915050565b6000815190506144b381614ffc565b92915050565b600082601f8301126144ca57600080fd5b81516144dd6144d882614ea1565b614e74565b915080825260208301602083018583830111156144f957600080fd5b614504838284614fa1565b50505092915050565b60006020828403121561451f57600080fd5b600061452d8482850161448f565b91505092915050565b6000806040838503121561454957600080fd5b60006145578582860161448f565b92505060206145688582860161448f565b9150509250929050565b60006020828403121561458457600080fd5b6000614592848285016144a4565b91505092915050565b6000602082840312156145ad57600080fd5b600082015167ffffffffffffffff8111156145c757600080fd5b6145d3848285016144b9565b91505092915050565b60006145e88383614603565b60208301905092915050565b6145fd81614f6b565b82525050565b61460c81614f2d565b82525050565b61461b81614f2d565b82525050565b600061462c82614edd565b6146368185614f00565b935061464183614ecd565b8060005b8381101561467257815161465988826145dc565b975061466483614ef3565b925050600181019050614645565b5085935050505092915050565b61468881614f3f565b82525050565b600061469982614ee8565b6146a38185614f11565b93506146b3818560208601614fa1565b6146bc81614fd4565b840191505092915050565b60006146d282614ee8565b6146dc8185614f22565b93506146ec818560208601614fa1565b80840191505092915050565b6000614705600883614f11565b91507f56657269666965720000000000000000000000000000000000000000000000006000830152602082019050919050565b6000614745603083614f11565b91507f55736572206164647265737320776974682073706563696669656420726f6c6560008301527f20646f6573206e6f742065786973742e000000000000000000000000000000006020830152604082019050919050565b60006147ab602683614f11565b91507f596f75206861766520616c72656164792072657175657374656420666f72206160008301527f20636572742e00000000000000000000000000000000000000000000000000006020830152604082019050919050565b6000614811602783614f11565b91507f56657269666965722068617320616c7265616479206265656e20676976656e2060008301527f6163636573732e000000000000000000000000000000000000000000000000006020830152604082019050919050565b6000614877600783614f11565b91507f5375626a656374000000000000000000000000000000000000000000000000006000830152602082019050919050565b60006148b7600783614f22565b91507f5375626a656374000000000000000000000000000000000000000000000000006000830152600782019050919050565b60006148f7602f83614f11565b91507f416374696f6e2063616e6e6f7420626520706572666f726d6564206f6e20746860008301527f652073616d6520616464726573732e00000000000000000000000000000000006020830152604082019050919050565b600061495d603083614f11565b91507f54686520616374696f6e2063616e206f6e6c7920626520706572666f726d656460008301527f206f6e2076616c69642075736572732e000000000000000000000000000000006020830152604082019050919050565b60006149c3600683614f11565b91507f49737375657200000000000000000000000000000000000000000000000000006000830152602082019050919050565b6000614a03600683614f22565b91507f49737375657200000000000000000000000000000000000000000000000000006000830152600682019050919050565b6000614a43603683614f11565b91507f5468697320616374696f6e2063616e206f6e6c7920626520706572666f726d6560008301527f6420627920617574686f72697a656420726f6c65732e000000000000000000006020830152604082019050919050565b6000614aa9602683614f11565b91507f54686520616374696f6e2068617320616c7265616479206265656e207065726660008301527f6f726d65642e00000000000000000000000000000000000000000000000000006020830152604082019050919050565b6000614b0f601f83614f11565b91507f566572696669657220616c726561647920686173206e6f206163636573732e006000830152602082019050919050565b6000614b4f602183614f11565b91507f5375626a65637420686173206e6f74206d61646520616e79207265717565737460008301527f2e000000000000000000000000000000000000000000000000000000000000006020830152604082019050919050565b6000614bb482846146c7565b915081905092915050565b6000614bca826148aa565b9150819050919050565b6000614bdf826149f6565b9150819050919050565b6000602082019050614bfe6000830184614612565b92915050565b6000604082019050614c1960008301856145f4565b614c266020830184614612565b9392505050565b6000604082019050614c4260008301856145f4565b8181036020830152614c54818461468e565b90509392505050565b6000604082019050614c7260008301846145f4565b8181036020830152614c83816146f8565b905092915050565b6000604082019050614ca060008301846145f4565b8181036020830152614cb18161486a565b905092915050565b6000604082019050614cce60008301846145f4565b8181036020830152614cdf816149b6565b905092915050565b6000604082019050614cfc6000830185614612565b8181036020830152614d0e818461468e565b90509392505050565b60006020820190508181036000830152614d318184614621565b905092915050565b6000602082019050614d4e600083018461467f565b92915050565b60006020820190508181036000830152614d6d81614738565b9050919050565b60006020820190508181036000830152614d8d8161479e565b9050919050565b60006020820190508181036000830152614dad81614804565b9050919050565b60006020820190508181036000830152614dcd816148ea565b9050919050565b60006020820190508181036000830152614ded81614950565b9050919050565b60006020820190508181036000830152614e0d81614a36565b9050919050565b60006020820190508181036000830152614e2d81614a9c565b9050919050565b60006020820190508181036000830152614e4d81614b02565b9050919050565b60006020820190508181036000830152614e6d81614b42565b9050919050565b6000604051905081810181811067ffffffffffffffff82111715614e9757600080fd5b8060405250919050565b600067ffffffffffffffff821115614eb857600080fd5b601f19601f8301169050602081019050919050565b6000819050602082019050919050565b600081519050919050565b600081519050919050565b6000602082019050919050565b600082825260208201905092915050565b600082825260208201905092915050565b600081905092915050565b6000614f3882614f4b565b9050919050565b60008115159050919050565b600073ffffffffffffffffffffffffffffffffffffffff82169050919050565b6000614f7682614f7d565b9050919050565b6000614f8882614f8f565b9050919050565b6000614f9a82614f4b565b9050919050565b60005b83811015614fbf578082015181840152602081019050614fa4565b83811115614fce576000848401525b50505050565b6000601f19601f8301169050919050565b614fee81614f2d565b8114614ff957600080fd5b50565b61500581614f3f565b811461501057600080fd5b5056fea365627a7a723158208b1dfd350472f95bcd3bb034c765bec1d65659ec1e5fc56a337a06495d9f6d926c6578706572696d656e74616cf564736f6c63430005100040",
  "source": "pragma solidity >=0.5.0;\r\npragma experimental ABIEncoderV2;\r\n\r\nimport \"./CertificateNetwork.sol\";\r\n\r\ncontract CertificateStore {\r\n    CertificateNetwork certNetwork;\r\n\r\n    // S>I: Student can make many request\r\n    // I>S: Issuer can receive many request\r\n    mapping(address => address[]) private reqHistMap; // History of Unique Requests\r\n\r\n    // Request map for S <=> I.T > Issue Pass F > Wont issue\r\n    mapping(address => mapping(address => bool)) private requestMap;\r\n\r\n    // Check if S request to I before (S>I)\r\n    mapping(address => mapping(address => bool)) private requestExistMap;\r\n\r\n    // S>V: Student can grant multiple Verifier to view their cert.\r\n    // V>S: Verifier can view multiple subject Cert\r\n    mapping(address => address[]) private grantHistMap; // History of Unique Grants\r\n\r\n    // Grant map for S <=> V.\r\n    mapping(address => mapping(address => bool)) private grantMap;\r\n\r\n    // Check if S has granted V before (S>V)\r\n    mapping(address => mapping(address => bool)) private grantExistMap;\r\n\r\n    // Events\r\n    event IssuedCertificate(\r\n        uint256 certId,\r\n        address issuerAddr,\r\n        address subjectAddr\r\n    );\r\n    event RevokeCertificate(address issuer, uint256 certId);\r\n    event RequestCertificate(address subjectAddr, address issuerAddr);\r\n    event AcceptSubjectRequest(address issuerAddr, address subjectAddr);\r\n    event RejectSubjectRequest(address issuerAddr, address subjectAddr);\r\n    event VerifierGranted(address subjectAddr, address verifierAddr);\r\n    event VerifierDenied(address subjectAddr, address verifierAddr);\r\n\r\n    constructor(CertificateNetwork cn) public {\r\n        certNetwork = cn;\r\n    }\r\n\r\n    modifier onlyValidRoles(string memory role) {\r\n        require(\r\n            certNetwork.checkUserExist(msg.sender, role),\r\n            \"This action can only be performed by authorized roles.\"\r\n        );\r\n        _;\r\n    }\r\n\r\n    modifier userExist(address addr, string memory role) {\r\n        require(\r\n            certNetwork.checkUserExist(addr, role),\r\n            \"The action can only be performed on valid users.\"\r\n        );\r\n        _;\r\n    }\r\n    modifier onlyIssuerSubject() {\r\n        require(\r\n            certNetwork.checkUserExist(msg.sender, \"Subject\") ||\r\n                certNetwork.checkUserExist(msg.sender, \"Issuer\"),\r\n            \"This action can only be performed by authorized roles.\"\r\n        );\r\n        _;\r\n    }\r\n\r\n    //test later\r\n    modifier onlyVerifierSubject() {\r\n        require(\r\n            certNetwork.checkUserExist(msg.sender, \"Subject\") ||\r\n                certNetwork.checkUserExist(msg.sender, \"Verifier\"),\r\n            \"This action can only be performed by authorized roles.\"\r\n        );\r\n        _;\r\n    }\r\n\r\n    // Request cert from issuer. (SUBJECT -> ISSUER)\r\n    // Issue: subject can spam request for each issuer without being a subject\r\n    // Assumptions:\r\n    // 1. Subject know school block addr\r\n    // 2. Subject belongs to the school and is legitamite.\r\n    // 3. Subject only needs to request from the sch once for a sch to send all the subjects cert.\r\n    function requestCert(address issuerAddr)\r\n        public\r\n        onlyValidRoles(\"Subject\")\r\n        userExist(issuerAddr, \"Issuer\")\r\n    {\r\n        require(\r\n            !requestMap[msg.sender][issuerAddr],\r\n            \"You have already requested for a cert.\"\r\n        );\r\n\r\n        requestMap[msg.sender][issuerAddr] = true; // subject request\r\n        requestMap[issuerAddr][msg.sender] = true; // issuer to approve\r\n\r\n        // add only new unique request\r\n        if (!requestExistMap[msg.sender][issuerAddr]) {\r\n            reqHistMap[msg.sender].push(issuerAddr);\r\n            reqHistMap[issuerAddr].push(msg.sender);\r\n        }\r\n\r\n        // Record user requested before\r\n        requestExistMap[msg.sender][issuerAddr] = true;\r\n        emit RequestCertificate(msg.sender, issuerAddr);\r\n    }\r\n\r\n    function rejectRequest(address subjectAddr)\r\n        public\r\n        onlyValidRoles(\"Issuer\")\r\n        userExist(subjectAddr, \"Subject\")\r\n    {\r\n        require(\r\n            requestMap[subjectAddr][msg.sender],\r\n            \"Subject has not made any request.\"\r\n        ); // S>I\r\n        require(\r\n            requestMap[msg.sender][subjectAddr],\r\n            \"The action has already been performed.\"\r\n        ); // I>S\r\n\r\n        requestMap[msg.sender][subjectAddr] = false;\r\n        requestMap[subjectAddr][msg.sender] = false;\r\n        emit RejectSubjectRequest(msg.sender, subjectAddr);\r\n    }\r\n\r\n    function getApprovedReqList()\r\n        public\r\n        view\r\n        onlyIssuerSubject\r\n        returns (address[] memory)\r\n    {\r\n        address[] memory reqHist = reqHistMap[msg.sender];\r\n        address[] memory tempList = new address[](reqHist.length);\r\n        uint256 y = 0;\r\n        for (uint256 i = 0; i < reqHist.length; i++) {\r\n            // check if issuer approve subject and student make req to issuer\r\n            if (\r\n                requestMap[msg.sender][reqHist[i]] &&\r\n                requestMap[reqHist[i]][msg.sender]\r\n            ) {\r\n                tempList[y] = reqHist[i];\r\n                y++;\r\n            }\r\n        }\r\n        address[] memory newList = new address[](y);\r\n        for (uint256 i = 0; i < y; i++) {\r\n            newList[i] = tempList[i];\r\n        }\r\n        return newList;\r\n    }\r\n\r\n    function getRejectedReqList()\r\n        public\r\n        view\r\n        onlyIssuerSubject\r\n        returns (address[] memory)\r\n    {\r\n        address[] memory reqHist = reqHistMap[msg.sender];\r\n        address[] memory tempList = new address[](reqHist.length);\r\n        uint256 y = 0;\r\n        for (uint256 i = 0; i < reqHist.length; i++) {\r\n            // check if issuer approve subject and student make req to issuer\r\n            if (\r\n                !requestMap[msg.sender][reqHist[i]] &&\r\n                !requestMap[reqHist[i]][msg.sender]\r\n            ) {\r\n                tempList[y] = reqHist[i];\r\n                y++;\r\n            }\r\n        }\r\n        address[] memory newList = new address[](y);\r\n        for (uint256 i = 0; i < y; i++) {\r\n            newList[i] = tempList[i];\r\n        }\r\n        return newList;\r\n    }\r\n\r\n    // Get all unique request history regardless of approve/deny\r\n    function getReqHist()\r\n        public\r\n        view\r\n        onlyIssuerSubject\r\n        returns (address[] memory)\r\n    {\r\n        return reqHistMap[msg.sender];\r\n    }\r\n\r\n    function checkRequest(address addr)\r\n        public\r\n        view\r\n        onlyIssuerSubject\r\n        returns (bool)\r\n    {\r\n        require(\r\n            keccak256(abi.encodePacked(certNetwork.getUserRole(addr))) ==\r\n                keccak256(abi.encodePacked(\"Subject\")) ||\r\n                keccak256(abi.encodePacked(certNetwork.getUserRole(addr))) ==\r\n                keccak256(abi.encodePacked(\"Issuer\")),\r\n            \"User address with specified role does not exist.\"\r\n        );\r\n        require(\r\n            !(msg.sender == addr),\r\n            \"Action cannot be performed on the same address.\"\r\n        );\r\n        if (requestMap[addr][msg.sender] && requestMap[msg.sender][addr]) {\r\n            return true;\r\n        }\r\n        return false;\r\n    }\r\n\r\n    // for I>S, check user requested\r\n    function getRequestStatus(address issuerAddr, address subjectAddr)\r\n        public\r\n        view\r\n        userExist(issuerAddr, \"Issuer\")\r\n        userExist(subjectAddr, \"Subject\")\r\n        returns (bool)\r\n    {\r\n        return requestMap[subjectAddr][issuerAddr];\r\n    }\r\n\r\n    // for I>S, check if issuer have deny before\r\n    function getIssueStatus(address issuerAddr, address subjectAddr)\r\n        public\r\n        view\r\n        userExist(issuerAddr, \"Issuer\")\r\n        userExist(subjectAddr, \"Subject\")\r\n        returns (bool)\r\n    {\r\n        return requestMap[issuerAddr][subjectAddr];\r\n    }\r\n\r\n    //Xie Ran's tests covering the following methods\r\n    //Between Subjects and Verifiers\r\n\r\n    // for V>S, check grant list\r\n    function getAccessStatus(address verifierAddr, address subjectAddr)\r\n        public\r\n        view\r\n        userExist(verifierAddr, \"Verifier\")\r\n        userExist(subjectAddr, \"Subject\")\r\n        returns (bool)\r\n    {\r\n        return grantMap[subjectAddr][verifierAddr];\r\n    }\r\n\r\n    // Grant access to a verifier to viewing all subject certs.(SUBJECT -> VERIFIER)\r\n    function grantVerifier(address verifierAddr)\r\n        public\r\n        onlyValidRoles(\"Subject\")\r\n        userExist(verifierAddr, \"Verifier\")\r\n    {\r\n        require(\r\n            !grantMap[msg.sender][verifierAddr],\r\n            \"Verifier has already been given access.\"\r\n        );\r\n\r\n        // record grant: S<=>V\r\n        grantMap[msg.sender][verifierAddr] = true;\r\n        grantMap[verifierAddr][msg.sender] = true;\r\n\r\n        // record uniqiue grant history\r\n        if (!grantExistMap[msg.sender][verifierAddr]) {\r\n            grantHistMap[msg.sender].push(verifierAddr);\r\n            grantHistMap[verifierAddr].push(msg.sender);\r\n        }\r\n        grantExistMap[msg.sender][verifierAddr] = true;\r\n        emit VerifierGranted(msg.sender, verifierAddr);\r\n    }\r\n\r\n    // Deny access to a verifier to viewing all subject certs.(SUBJECT -> VERIFIER)\r\n    function denyVerifier(address verifierAddr)\r\n        public\r\n        onlyValidRoles(\"Subject\")\r\n        userExist(verifierAddr, \"Verifier\")\r\n    {\r\n        require(\r\n            grantMap[msg.sender][verifierAddr],\r\n            \"Verifier already has no access.\"\r\n        );\r\n\r\n        grantMap[verifierAddr][msg.sender] = false; // remove access for verifier\r\n        grantMap[msg.sender][verifierAddr] = false; // remove access given by S>V\r\n\r\n        emit VerifierDenied(msg.sender, verifierAddr);\r\n    }\r\n\r\n    // S>V: Subject can view the status of a verifier\r\n    // V>S: Verifier can view the status of a subject\r\n    function checkGrantStatus(address add)\r\n        public\r\n        view\r\n        onlyVerifierSubject\r\n        returns (bool)\r\n    {\r\n        if (grantMap[msg.sender][add] && grantMap[add][msg.sender]) {\r\n            return true;\r\n        }\r\n        return false;\r\n    }\r\n\r\n    // S>V: Subject can view verifier they given access to.\r\n    // V>S: Verifier can view subject they given access from.\r\n    // this list updates automatically\r\n    function getGrantList()\r\n        public\r\n        view\r\n        onlyVerifierSubject\r\n        returns (address[] memory)\r\n    {\r\n        address[] memory grantList = grantHistMap[msg.sender];\r\n        address[] memory tempList = new address[](grantList.length);\r\n        uint256 y = 0;\r\n        for (uint256 i = 0; i < grantList.length; i++) {\r\n            if (\r\n                grantMap[msg.sender][grantList[i]] &&\r\n                grantMap[grantList[i]][msg.sender]\r\n            ) {\r\n                tempList[y] = grantList[i];\r\n                y++;\r\n            }\r\n        }\r\n        address[] memory newList = new address[](y);\r\n        for (uint256 i = 0; i < y; i++) {\r\n            newList[i] = tempList[i];\r\n        }\r\n        return newList;\r\n    }\r\n\r\n    // S>V: Subject can view verifier they have denied access to.\r\n    // V>S: Verifier can view subject they have been denied access to.\r\n    // this list updates automatically\r\n    function getDenyList()\r\n        public\r\n        view\r\n        onlyVerifierSubject\r\n        returns (address[] memory)\r\n    {\r\n        address[] memory grantList = grantHistMap[msg.sender];\r\n        address[] memory tempList = new address[](grantList.length);\r\n        uint256 y = 0;\r\n        for (uint256 i = 0; i < grantList.length; i++) {\r\n            if (\r\n                !(grantMap[msg.sender][grantList[i]] &&\r\n                    grantMap[grantList[i]][msg.sender])\r\n            ) {\r\n                tempList[y] = grantList[i];\r\n                y++;\r\n            }\r\n        }\r\n        address[] memory newList = new address[](y);\r\n        for (uint256 i = 0; i < y; i++) {\r\n            newList[i] = tempList[i];\r\n        }\r\n        return newList;\r\n    }\r\n\r\n    // Get all unique grant history regardless of approve/deny\r\n    function getGrantHist()\r\n        public\r\n        view\r\n        onlyVerifierSubject\r\n        returns (address[] memory)\r\n    {\r\n        return grantHistMap[msg.sender];\r\n    }\r\n}\r\n",
  "sourcePath": "C:\\Users\\jiaqi\\Documents\\Y4S2\\project\\contracts\\CertificateStore.sol",
  "compiler": {
    "name": "solc",
    "version": "0.5.16+commit.9c3226ce.Emscripten.clang"
  },
  "schemaVersion": "3.4.4",
  "updatedAt": "2022-04-12T09:44:06.355Z",
  "networkType": "ethereum",
  "devdoc": {
    "methods": {}
  },
  "userdoc": {
    "methods": {}
  }
}