{
  "contractName": "Certificate",
  "abi": [
    {
      "inputs": [
        {
          "internalType": "contract CertificateNetwork",
          "name": "cn",
          "type": "address"
        }
      ],
      "payable": false,
      "stateMutability": "nonpayable",
      "type": "constructor"
    },
    {
      "anonymous": false,
      "inputs": [
        {
          "indexed": false,
          "internalType": "uint256",
          "name": "certId",
          "type": "uint256"
        },
        {
          "indexed": false,
          "internalType": "address",
          "name": "issuerAddr",
          "type": "address"
        },
        {
          "indexed": false,
          "internalType": "address",
          "name": "subjectAddr",
          "type": "address"
        }
      ],
      "name": "IssuedCertificate",
      "type": "event"
    },
    {
      "anonymous": false,
      "inputs": [
        {
          "indexed": false,
          "internalType": "address",
          "name": "subjectAddr",
          "type": "address"
        },
        {
          "indexed": false,
          "internalType": "address",
          "name": "issuerAddr",
          "type": "address"
        }
      ],
      "name": "RequestCertificate",
      "type": "event"
    },
    {
      "anonymous": false,
      "inputs": [
        {
          "indexed": false,
          "internalType": "address",
          "name": "issuer",
          "type": "address"
        },
        {
          "indexed": false,
          "internalType": "uint256",
          "name": "certId",
          "type": "uint256"
        }
      ],
      "name": "RevokeCertificate",
      "type": "event"
    },
    {
      "anonymous": false,
      "inputs": [
        {
          "indexed": false,
          "internalType": "address",
          "name": "subjectAddr",
          "type": "address"
        },
        {
          "indexed": false,
          "internalType": "address",
          "name": "verifierAddr",
          "type": "address"
        }
      ],
      "name": "denyAccessViewing",
      "type": "event"
    },
    {
      "anonymous": false,
      "inputs": [
        {
          "indexed": false,
          "internalType": "address",
          "name": "subjectAddr",
          "type": "address"
        },
        {
          "indexed": false,
          "internalType": "address",
          "name": "verifierAddr",
          "type": "address"
        }
      ],
      "name": "giveAccessViewing",
      "type": "event"
    },
    {
      "anonymous": false,
      "inputs": [
        {
          "indexed": false,
          "internalType": "address",
          "name": "verifierAddr",
          "type": "address"
        },
        {
          "indexed": false,
          "internalType": "address",
          "name": "subjectAddr",
          "type": "address"
        }
      ],
      "name": "viewSubjectCerts",
      "type": "event"
    },
    {
      "anonymous": false,
      "inputs": [
        {
          "indexed": false,
          "internalType": "address",
          "name": "verifierAddr",
          "type": "address"
        },
        {
          "indexed": false,
          "internalType": "bool",
          "name": "status",
          "type": "bool"
        }
      ],
      "name": "viewSubjectStatus",
      "type": "event"
    },
    {
      "anonymous": false,
      "inputs": [
        {
          "indexed": false,
          "internalType": "address",
          "name": "subjectAddr",
          "type": "address"
        },
        {
          "indexed": false,
          "internalType": "bool",
          "name": "status",
          "type": "bool"
        }
      ],
      "name": "viewVerifierStatus",
      "type": "event"
    },
    {
      "constant": false,
      "inputs": [
        {
          "internalType": "address",
          "name": "issuerAddr",
          "type": "address"
        }
      ],
      "name": "requestCert",
      "outputs": [],
      "payable": false,
      "stateMutability": "nonpayable",
      "type": "function"
    },
    {
      "constant": false,
      "inputs": [
        {
          "internalType": "address",
          "name": "verifierAddr",
          "type": "address"
        }
      ],
      "name": "grantVerifier",
      "outputs": [],
      "payable": false,
      "stateMutability": "nonpayable",
      "type": "function"
    },
    {
      "constant": false,
      "inputs": [
        {
          "internalType": "address",
          "name": "verifierAddr",
          "type": "address"
        }
      ],
      "name": "denyVerifier",
      "outputs": [],
      "payable": false,
      "stateMutability": "nonpayable",
      "type": "function"
    },
    {
      "constant": false,
      "inputs": [
        {
          "internalType": "address",
          "name": "subjectAddr",
          "type": "address"
        },
        {
          "internalType": "string",
          "name": "_issuerName",
          "type": "string"
        },
        {
          "internalType": "string",
          "name": "_nric",
          "type": "string"
        },
        {
          "internalType": "string",
          "name": "_matricNo",
          "type": "string"
        },
        {
          "internalType": "string",
          "name": "_title",
          "type": "string"
        },
        {
          "internalType": "string",
          "name": "_completionDate",
          "type": "string"
        }
      ],
      "name": "issueCertificate",
      "outputs": [
        {
          "internalType": "bool",
          "name": "Status",
          "type": "bool"
        }
      ],
      "payable": false,
      "stateMutability": "nonpayable",
      "type": "function"
    },
    {
      "constant": false,
      "inputs": [
        {
          "internalType": "uint256",
          "name": "certId",
          "type": "uint256"
        }
      ],
      "name": "revokeCert",
      "outputs": [],
      "payable": false,
      "stateMutability": "nonpayable",
      "type": "function"
    },
    {
      "constant": true,
      "inputs": [
        {
          "internalType": "address",
          "name": "subjectAddr",
          "type": "address"
        }
      ],
      "name": "getCertListVerifiers",
      "outputs": [
        {
          "internalType": "uint256[]",
          "name": "",
          "type": "uint256[]"
        }
      ],
      "payable": false,
      "stateMutability": "view",
      "type": "function"
    },
    {
      "constant": true,
      "inputs": [
        {
          "internalType": "address",
          "name": "subjectAddr",
          "type": "address"
        }
      ],
      "name": "getCertListSubjects",
      "outputs": [
        {
          "internalType": "uint256[]",
          "name": "",
          "type": "uint256[]"
        }
      ],
      "payable": false,
      "stateMutability": "view",
      "type": "function"
    },
    {
      "constant": true,
      "inputs": [
        {
          "internalType": "address",
          "name": "issuerAddr",
          "type": "address"
        }
      ],
      "name": "getCertListIssuers",
      "outputs": [
        {
          "internalType": "uint256[]",
          "name": "",
          "type": "uint256[]"
        }
      ],
      "payable": false,
      "stateMutability": "view",
      "type": "function"
    },
    {
      "constant": false,
      "inputs": [
        {
          "internalType": "address",
          "name": "verifier",
          "type": "address"
        }
      ],
      "name": "checkVerifier",
      "outputs": [
        {
          "internalType": "bool",
          "name": "",
          "type": "bool"
        }
      ],
      "payable": false,
      "stateMutability": "nonpayable",
      "type": "function"
    },
    {
      "constant": false,
      "inputs": [
        {
          "internalType": "address",
          "name": "subject",
          "type": "address"
        }
      ],
      "name": "checkSubject",
      "outputs": [
        {
          "internalType": "bool",
          "name": "",
          "type": "bool"
        }
      ],
      "payable": false,
      "stateMutability": "nonpayable",
      "type": "function"
    }
  ],
  "bytecode": "0x608060405234801561001057600080fd5b50604051620043cb380380620043cb8339818101604052602081101561003557600080fd5b8101908080519060200190929190505050806000806101000a81548173ffffffffffffffffffffffffffffffffffffffff021916908373ffffffffffffffffffffffffffffffffffffffff160217905550600180819055505061432d806200009e6000396000f3fe608060405234801561001057600080fd5b506004361061009e5760003560e01c80638531d090116100665780638531d090146102b957806395716f3014610352578063dbcbc27214610396578063de8c98fd146103c4578063fdc704d7146107135761009e565b806307e75d66146100a35780631d861eda146100ff5780635f889fe914610198578063749b26d5146101dc5780637af261cc14610220575b600080fd5b6100e5600480360360208110156100b957600080fd5b81019080803573ffffffffffffffffffffffffffffffffffffffff16906020019092919050505061076f565b604051808215151515815260200191505060405180910390f35b6101416004803603602081101561011557600080fd5b81019080803573ffffffffffffffffffffffffffffffffffffffff169060200190929190505050610c1d565b6040518080602001828103825283818151815260200191508051906020019060200280838360005b83811015610184578082015181840152602081019050610169565b505050509050019250505060405180910390f35b6101da600480360360208110156101ae57600080fd5b81019080803573ffffffffffffffffffffffffffffffffffffffff1690602001909291905050506110b2565b005b61021e600480360360208110156101f257600080fd5b81019080803573ffffffffffffffffffffffffffffffffffffffff169060200190929190505050611667565b005b6102626004803603602081101561023657600080fd5b81019080803573ffffffffffffffffffffffffffffffffffffffff169060200190929190505050611c1c565b6040518080602001828103825283818151815260200191508051906020019060200280838360005b838110156102a557808201518184015260208101905061028a565b505050509050019250505060405180910390f35b6102fb600480360360208110156102cf57600080fd5b81019080803573ffffffffffffffffffffffffffffffffffffffff169060200190929190505050612253565b6040518080602001828103825283818151815260200191508051906020019060200280838360005b8381101561033e578082015181840152602081019050610323565b505050509050019250505060405180910390f35b6103946004803603602081101561036857600080fd5b81019080803573ffffffffffffffffffffffffffffffffffffffff1690602001909291905050506126e8565b005b6103c2600480360360208110156103ac57600080fd5b8101908080359060200190929190505050612c9c565b005b6106f9600480360360c08110156103da57600080fd5b81019080803573ffffffffffffffffffffffffffffffffffffffff1690602001909291908035906020019064010000000081111561041757600080fd5b82018360208201111561042957600080fd5b8035906020019184600183028401116401000000008311171561044b57600080fd5b91908080601f016020809104026020016040519081016040528093929190818152602001838380828437600081840152601f19601f820116905080830192505050505050509192919290803590602001906401000000008111156104ae57600080fd5b8201836020820111156104c057600080fd5b803590602001918460018302840111640100000000831117156104e257600080fd5b91908080601f016020809104026020016040519081016040528093929190818152602001838380828437600081840152601f19601f8201169050808301925050505050505091929192908035906020019064010000000081111561054557600080fd5b82018360208201111561055757600080fd5b8035906020019184600183028401116401000000008311171561057957600080fd5b91908080601f016020809104026020016040519081016040528093929190818152602001838380828437600081840152601f19601f820116905080830192505050505050509192919290803590602001906401000000008111156105dc57600080fd5b8201836020820111156105ee57600080fd5b8035906020019184600183028401116401000000008311171561061057600080fd5b91908080601f016020809104026020016040519081016040528093929190818152602001838380828437600081840152601f19601f8201169050808301925050505050505091929192908035906020019064010000000081111561067357600080fd5b82018360208201111561068557600080fd5b803590602001918460018302840111640100000000831117156106a757600080fd5b91908080601f016020809104026020016040519081016040528093929190818152602001838380828437600081840152601f19601f820116905080830192505050505050509192919290505050613214565b604051808215151515815260200191505060405180910390f35b6107556004803603602081101561072957600080fd5b81019080803573ffffffffffffffffffffffffffffffffffffffff169060200190929190505050613ae5565b604051808215151515815260200191505060405180910390f35b60006040518060400160405280600881526020017f56657269666965720000000000000000000000000000000000000000000000008152506000809054906101000a900473ffffffffffffffffffffffffffffffffffffffff1673ffffffffffffffffffffffffffffffffffffffff1663ffb28d9c33836040518363ffffffff1660e01b8152600401808373ffffffffffffffffffffffffffffffffffffffff1673ffffffffffffffffffffffffffffffffffffffff16815260200180602001828103825283818151815260200191508051906020019080838360005b8381101561086757808201518184015260208101905061084c565b50505050905090810190601f1680156108945780820380516001836020036101000a031916815260200191505b50935050505060206040518083038186803b1580156108b257600080fd5b505afa1580156108c6573d6000803e3d6000fd5b505050506040513d60208110156108dc57600080fd5b8101908080519060200190929190505050610942576040517f08c379a00000000000000000000000000000000000000000000000000000000081526004018080602001828103825260368152602001806142746036913960400191505060405180910390fd5b826040518060400160405280600781526020017f5375626a656374000000000000000000000000000000000000000000000000008152506000809054906101000a900473ffffffffffffffffffffffffffffffffffffffff1673ffffffffffffffffffffffffffffffffffffffff1663ffb28d9c83836040518363ffffffff1660e01b8152600401808373ffffffffffffffffffffffffffffffffffffffff1673ffffffffffffffffffffffffffffffffffffffff16815260200180602001828103825283818151815260200191508051906020019080838360005b83811015610a39578082015181840152602081019050610a1e565b50505050905090810190601f168015610a665780820380516001836020036101000a031916815260200191505b50935050505060206040518083038186803b158015610a8457600080fd5b505afa158015610a98573d6000803e3d6000fd5b505050506040513d6020811015610aae57600080fd5b8101908080519060200190929190505050610b14576040517f08c379a00000000000000000000000000000000000000000000000000000000081526004018080602001828103825260398152602001806141216039913960400191505060405180910390fd5b6000600660008773ffffffffffffffffffffffffffffffffffffffff1673ffffffffffffffffffffffffffffffffffffffff16815260200190815260200160002060003373ffffffffffffffffffffffffffffffffffffffff1673ffffffffffffffffffffffffffffffffffffffff16815260200190815260200160002060009054906101000a900460ff1690507f71bd881f856885b552116920ef12a6d9a340de75eb6fc5c4f4ce5d5a5d23a00c3382604051808373ffffffffffffffffffffffffffffffffffffffff1673ffffffffffffffffffffffffffffffffffffffff168152602001821515151581526020019250505060405180910390a180945050505050919050565b6060816040518060400160405280600681526020017f49737375657200000000000000000000000000000000000000000000000000008152506000809054906101000a900473ffffffffffffffffffffffffffffffffffffffff1673ffffffffffffffffffffffffffffffffffffffff1663ffb28d9c83836040518363ffffffff1660e01b8152600401808373ffffffffffffffffffffffffffffffffffffffff1673ffffffffffffffffffffffffffffffffffffffff16815260200180602001828103825283818151815260200191508051906020019080838360005b83811015610d16578082015181840152602081019050610cfb565b50505050905090810190601f168015610d435780820380516001836020036101000a031916815260200191505b50935050505060206040518083038186803b158015610d6157600080fd5b505afa158015610d75573d6000803e3d6000fd5b505050506040513d6020811015610d8b57600080fd5b8101908080519060200190929190505050610df1576040517f08c379a00000000000000000000000000000000000000000000000000000000081526004018080602001828103825260398152602001806141216039913960400191505060405180910390fd5b60026000600560008773ffffffffffffffffffffffffffffffffffffffff1673ffffffffffffffffffffffffffffffffffffffff168152602001908152602001600020600081548110610e4057fe5b9060005260206000200154815260200190815260200160002060010160009054906101000a900473ffffffffffffffffffffffffffffffffffffffff1673ffffffffffffffffffffffffffffffffffffffff168473ffffffffffffffffffffffffffffffffffffffff1614610f00576040517f08c379a000000000000000000000000000000000000000000000000000000000815260040180806020018281038252603081526020018061420c6030913960400191505060405180910390fd5b6060600560008673ffffffffffffffffffffffffffffffffffffffff1673ffffffffffffffffffffffffffffffffffffffff168152602001908152602001600020805480602002602001604051908101604052809291908181526020018280548015610f8b57602002820191906000526020600020905b815481526020019060010190808311610f77575b5050505050905060608151604051908082528060200260200182016040528015610fc45781602001602082028038833980820191505090505b50905060008090505b82518110156110a557600860008873ffffffffffffffffffffffffffffffffffffffff1673ffffffffffffffffffffffffffffffffffffffff168152602001908152602001600020600084838151811061102357fe5b6020026020010151815260200190815260200160002060009054906101000a900460ff161561107d5782818151811061105857fe5b602002602001015182828151811061106c57fe5b602002602001018181525050611098565b600082828151811061108b57fe5b6020026020010181815250505b8080600101915050610fcd565b5080945050505050919050565b6040518060400160405280600781526020017f5375626a656374000000000000000000000000000000000000000000000000008152506000809054906101000a900473ffffffffffffffffffffffffffffffffffffffff1673ffffffffffffffffffffffffffffffffffffffff1663ffb28d9c33836040518363ffffffff1660e01b8152600401808373ffffffffffffffffffffffffffffffffffffffff1673ffffffffffffffffffffffffffffffffffffffff16815260200180602001828103825283818151815260200191508051906020019080838360005b838110156111a857808201518184015260208101905061118d565b50505050905090810190601f1680156111d55780820380516001836020036101000a031916815260200191505b50935050505060206040518083038186803b1580156111f357600080fd5b505afa158015611207573d6000803e3d6000fd5b505050506040513d602081101561121d57600080fd5b8101908080519060200190929190505050611283576040517f08c379a00000000000000000000000000000000000000000000000000000000081526004018080602001828103825260368152602001806142746036913960400191505060405180910390fd5b816040518060400160405280600681526020017f49737375657200000000000000000000000000000000000000000000000000008152506000809054906101000a900473ffffffffffffffffffffffffffffffffffffffff1673ffffffffffffffffffffffffffffffffffffffff1663ffb28d9c83836040518363ffffffff1660e01b8152600401808373ffffffffffffffffffffffffffffffffffffffff1673ffffffffffffffffffffffffffffffffffffffff16815260200180602001828103825283818151815260200191508051906020019080838360005b8381101561137a57808201518184015260208101905061135f565b50505050905090810190601f1680156113a75780820380516001836020036101000a031916815260200191505b50935050505060206040518083038186803b1580156113c557600080fd5b505afa1580156113d9573d6000803e3d6000fd5b505050506040513d60208110156113ef57600080fd5b8101908080519060200190929190505050611455576040517f08c379a00000000000000000000000000000000000000000000000000000000081526004018080602001828103825260398152602001806141216039913960400191505060405180910390fd5b600960003373ffffffffffffffffffffffffffffffffffffffff1673ffffffffffffffffffffffffffffffffffffffff16815260200190815260200160002060008573ffffffffffffffffffffffffffffffffffffffff1673ffffffffffffffffffffffffffffffffffffffff16815260200190815260200160002060009054906101000a900460ff1615611535576040517f08c379a00000000000000000000000000000000000000000000000000000000081526004018080602001828103825260268152602001806141836026913960400191505060405180910390fd5b6001600960003373ffffffffffffffffffffffffffffffffffffffff1673ffffffffffffffffffffffffffffffffffffffff16815260200190815260200160002060008673ffffffffffffffffffffffffffffffffffffffff1673ffffffffffffffffffffffffffffffffffffffff16815260200190815260200160002060006101000a81548160ff0219169083151502179055507f96dc08c3299c77635bd20fc8e5b7a7459559a916cac4e43146327f032258ce7f3385604051808373ffffffffffffffffffffffffffffffffffffffff1673ffffffffffffffffffffffffffffffffffffffff1681526020018273ffffffffffffffffffffffffffffffffffffffff1673ffffffffffffffffffffffffffffffffffffffff1681526020019250505060405180910390a150505050565b6040518060400160405280600781526020017f5375626a656374000000000000000000000000000000000000000000000000008152506000809054906101000a900473ffffffffffffffffffffffffffffffffffffffff1673ffffffffffffffffffffffffffffffffffffffff1663ffb28d9c33836040518363ffffffff1660e01b8152600401808373ffffffffffffffffffffffffffffffffffffffff1673ffffffffffffffffffffffffffffffffffffffff16815260200180602001828103825283818151815260200191508051906020019080838360005b8381101561175d578082015181840152602081019050611742565b50505050905090810190601f16801561178a5780820380516001836020036101000a031916815260200191505b50935050505060206040518083038186803b1580156117a857600080fd5b505afa1580156117bc573d6000803e3d6000fd5b505050506040513d60208110156117d257600080fd5b8101908080519060200190929190505050611838576040517f08c379a00000000000000000000000000000000000000000000000000000000081526004018080602001828103825260368152602001806142746036913960400191505060405180910390fd5b816040518060400160405280600881526020017f56657269666965720000000000000000000000000000000000000000000000008152506000809054906101000a900473ffffffffffffffffffffffffffffffffffffffff1673ffffffffffffffffffffffffffffffffffffffff1663ffb28d9c83836040518363ffffffff1660e01b8152600401808373ffffffffffffffffffffffffffffffffffffffff1673ffffffffffffffffffffffffffffffffffffffff16815260200180602001828103825283818151815260200191508051906020019080838360005b8381101561192f578082015181840152602081019050611914565b50505050905090810190601f16801561195c5780820380516001836020036101000a031916815260200191505b50935050505060206040518083038186803b15801561197a57600080fd5b505afa15801561198e573d6000803e3d6000fd5b505050506040513d60208110156119a457600080fd5b8101908080519060200190929190505050611a0a576040517f08c379a00000000000000000000000000000000000000000000000000000000081526004018080602001828103825260398152602001806141216039913960400191505060405180910390fd5b600660003373ffffffffffffffffffffffffffffffffffffffff1673ffffffffffffffffffffffffffffffffffffffff16815260200190815260200160002060008573ffffffffffffffffffffffffffffffffffffffff1673ffffffffffffffffffffffffffffffffffffffff16815260200190815260200160002060009054906101000a900460ff1615611aea576040517f08c379a00000000000000000000000000000000000000000000000000000000081526004018080602001828103825260278152602001806141a96027913960400191505060405180910390fd5b6001600660003373ffffffffffffffffffffffffffffffffffffffff1673ffffffffffffffffffffffffffffffffffffffff16815260200190815260200160002060008673ffffffffffffffffffffffffffffffffffffffff1673ffffffffffffffffffffffffffffffffffffffff16815260200190815260200160002060006101000a81548160ff0219169083151502179055507f556206e9dcdc7190505689c5241021c0959f664f7da3efcf31ac0aa463ff946a3385604051808373ffffffffffffffffffffffffffffffffffffffff1673ffffffffffffffffffffffffffffffffffffffff1681526020018273ffffffffffffffffffffffffffffffffffffffff1673ffffffffffffffffffffffffffffffffffffffff1681526020019250505060405180910390a150505050565b60606040518060400160405280600881526020017f56657269666965720000000000000000000000000000000000000000000000008152506000809054906101000a900473ffffffffffffffffffffffffffffffffffffffff1673ffffffffffffffffffffffffffffffffffffffff1663ffb28d9c33836040518363ffffffff1660e01b8152600401808373ffffffffffffffffffffffffffffffffffffffff1673ffffffffffffffffffffffffffffffffffffffff16815260200180602001828103825283818151815260200191508051906020019080838360005b83811015611d14578082015181840152602081019050611cf9565b50505050905090810190601f168015611d415780820380516001836020036101000a031916815260200191505b50935050505060206040518083038186803b158015611d5f57600080fd5b505afa158015611d73573d6000803e3d6000fd5b505050506040513d6020811015611d8957600080fd5b8101908080519060200190929190505050611def576040517f08c379a00000000000000000000000000000000000000000000000000000000081526004018080602001828103825260368152602001806142746036913960400191505060405180910390fd5b826040518060400160405280600781526020017f5375626a656374000000000000000000000000000000000000000000000000008152506000809054906101000a900473ffffffffffffffffffffffffffffffffffffffff1673ffffffffffffffffffffffffffffffffffffffff1663ffb28d9c83836040518363ffffffff1660e01b8152600401808373ffffffffffffffffffffffffffffffffffffffff1673ffffffffffffffffffffffffffffffffffffffff16815260200180602001828103825283818151815260200191508051906020019080838360005b83811015611ee6578082015181840152602081019050611ecb565b50505050905090810190601f168015611f135780820380516001836020036101000a031916815260200191505b50935050505060206040518083038186803b158015611f3157600080fd5b505afa158015611f45573d6000803e3d6000fd5b505050506040513d6020811015611f5b57600080fd5b8101908080519060200190929190505050611fc1576040517f08c379a00000000000000000000000000000000000000000000000000000000081526004018080602001828103825260398152602001806141216039913960400191505060405180910390fd5b600660008673ffffffffffffffffffffffffffffffffffffffff1673ffffffffffffffffffffffffffffffffffffffff16815260200190815260200160002060003373ffffffffffffffffffffffffffffffffffffffff1673ffffffffffffffffffffffffffffffffffffffff16815260200190815260200160002060009054906101000a900460ff166120a0576040517f08c379a000000000000000000000000000000000000000000000000000000000815260040180806020018281038252603881526020018061423c6038913960400191505060405180910390fd5b6060600460008773ffffffffffffffffffffffffffffffffffffffff1673ffffffffffffffffffffffffffffffffffffffff16815260200190815260200160002080548060200260200160405190810160405280929190818152602001828054801561212b57602002820191906000526020600020905b815481526020019060010190808311612117575b50505050509050606081516040519080825280602002602001820160405280156121645781602001602082028038833980820191505090505b50905060008090505b825181101561224557600760008973ffffffffffffffffffffffffffffffffffffffff1673ffffffffffffffffffffffffffffffffffffffff16815260200190815260200160002060008483815181106121c357fe5b6020026020010151815260200190815260200160002060009054906101000a900460ff161561221d578281815181106121f857fe5b602002602001015182828151811061220c57fe5b602002602001018181525050612238565b600082828151811061222b57fe5b6020026020010181815250505b808060010191505061216d565b508095505050505050919050565b6060816040518060400160405280600781526020017f5375626a656374000000000000000000000000000000000000000000000000008152506000809054906101000a900473ffffffffffffffffffffffffffffffffffffffff1673ffffffffffffffffffffffffffffffffffffffff1663ffb28d9c83836040518363ffffffff1660e01b8152600401808373ffffffffffffffffffffffffffffffffffffffff1673ffffffffffffffffffffffffffffffffffffffff16815260200180602001828103825283818151815260200191508051906020019080838360005b8381101561234c578082015181840152602081019050612331565b50505050905090810190601f1680156123795780820380516001836020036101000a031916815260200191505b50935050505060206040518083038186803b15801561239757600080fd5b505afa1580156123ab573d6000803e3d6000fd5b505050506040513d60208110156123c157600080fd5b8101908080519060200190929190505050612427576040517f08c379a00000000000000000000000000000000000000000000000000000000081526004018080602001828103825260398152602001806141216039913960400191505060405180910390fd5b60026000600460008773ffffffffffffffffffffffffffffffffffffffff1673ffffffffffffffffffffffffffffffffffffffff16815260200190815260200160002060008154811061247657fe5b9060005260206000200154815260200190815260200160002060000160009054906101000a900473ffffffffffffffffffffffffffffffffffffffff1673ffffffffffffffffffffffffffffffffffffffff168473ffffffffffffffffffffffffffffffffffffffff1614612536576040517f08c379a000000000000000000000000000000000000000000000000000000000815260040180806020018281038252602f8152602001806140f2602f913960400191505060405180910390fd5b6060600460008673ffffffffffffffffffffffffffffffffffffffff1673ffffffffffffffffffffffffffffffffffffffff1681526020019081526020016000208054806020026020016040519081016040528092919081815260200182805480156125c157602002820191906000526020600020905b8154815260200190600101908083116125ad575b50505050509050606081516040519080825280602002602001820160405280156125fa5781602001602082028038833980820191505090505b50905060008090505b82518110156126db57600760008873ffffffffffffffffffffffffffffffffffffffff1673ffffffffffffffffffffffffffffffffffffffff168152602001908152602001600020600084838151811061265957fe5b6020026020010151815260200190815260200160002060009054906101000a900460ff16156126b35782818151811061268e57fe5b60200260200101518282815181106126a257fe5b6020026020010181815250506126ce565b60008282815181106126c157fe5b6020026020010181815250505b8080600101915050612603565b5080945050505050919050565b6040518060400160405280600781526020017f5375626a656374000000000000000000000000000000000000000000000000008152506000809054906101000a900473ffffffffffffffffffffffffffffffffffffffff1673ffffffffffffffffffffffffffffffffffffffff1663ffb28d9c33836040518363ffffffff1660e01b8152600401808373ffffffffffffffffffffffffffffffffffffffff1673ffffffffffffffffffffffffffffffffffffffff16815260200180602001828103825283818151815260200191508051906020019080838360005b838110156127de5780820151818401526020810190506127c3565b50505050905090810190601f16801561280b5780820380516001836020036101000a031916815260200191505b50935050505060206040518083038186803b15801561282957600080fd5b505afa15801561283d573d6000803e3d6000fd5b505050506040513d602081101561285357600080fd5b81019080805190602001909291905050506128b9576040517f08c379a00000000000000000000000000000000000000000000000000000000081526004018080602001828103825260368152602001806142746036913960400191505060405180910390fd5b816040518060400160405280600881526020017f56657269666965720000000000000000000000000000000000000000000000008152506000809054906101000a900473ffffffffffffffffffffffffffffffffffffffff1673ffffffffffffffffffffffffffffffffffffffff1663ffb28d9c83836040518363ffffffff1660e01b8152600401808373ffffffffffffffffffffffffffffffffffffffff1673ffffffffffffffffffffffffffffffffffffffff16815260200180602001828103825283818151815260200191508051906020019080838360005b838110156129b0578082015181840152602081019050612995565b50505050905090810190601f1680156129dd5780820380516001836020036101000a031916815260200191505b50935050505060206040518083038186803b1580156129fb57600080fd5b505afa158015612a0f573d6000803e3d6000fd5b505050506040513d6020811015612a2557600080fd5b8101908080519060200190929190505050612a8b576040517f08c379a00000000000000000000000000000000000000000000000000000000081526004018080602001828103825260398152602001806141216039913960400191505060405180910390fd5b600660003373ffffffffffffffffffffffffffffffffffffffff1673ffffffffffffffffffffffffffffffffffffffff16815260200190815260200160002060008573ffffffffffffffffffffffffffffffffffffffff1673ffffffffffffffffffffffffffffffffffffffff16815260200190815260200160002060009054906101000a900460ff16612b6a576040517f08c379a00000000000000000000000000000000000000000000000000000000081526004018080602001828103825260288152602001806142d16028913960400191505060405180910390fd5b6000600660003373ffffffffffffffffffffffffffffffffffffffff1673ffffffffffffffffffffffffffffffffffffffff16815260200190815260200160002060008673ffffffffffffffffffffffffffffffffffffffff1673ffffffffffffffffffffffffffffffffffffffff16815260200190815260200160002060006101000a81548160ff0219169083151502179055507f48973a6c98e1e8f49a0265a92d6e92314356fb27df866ed09e5cd93567ca11273385604051808373ffffffffffffffffffffffffffffffffffffffff1673ffffffffffffffffffffffffffffffffffffffff1681526020018273ffffffffffffffffffffffffffffffffffffffff1673ffffffffffffffffffffffffffffffffffffffff1681526020019250505060405180910390a150505050565b6040518060400160405280600681526020017f49737375657200000000000000000000000000000000000000000000000000008152506000809054906101000a900473ffffffffffffffffffffffffffffffffffffffff1673ffffffffffffffffffffffffffffffffffffffff1663ffb28d9c33836040518363ffffffff1660e01b8152600401808373ffffffffffffffffffffffffffffffffffffffff1673ffffffffffffffffffffffffffffffffffffffff16815260200180602001828103825283818151815260200191508051906020019080838360005b83811015612d92578082015181840152602081019050612d77565b50505050905090810190601f168015612dbf5780820380516001836020036101000a031916815260200191505b50935050505060206040518083038186803b158015612ddd57600080fd5b505afa158015612df1573d6000803e3d6000fd5b505050506040513d6020811015612e0757600080fd5b8101908080519060200190929190505050612e6d576040517f08c379a00000000000000000000000000000000000000000000000000000000081526004018080602001828103825260368152602001806142746036913960400191505060405180910390fd5b813373ffffffffffffffffffffffffffffffffffffffff166002600083815260200190815260200160002060010160009054906101000a900473ffffffffffffffffffffffffffffffffffffffff1673ffffffffffffffffffffffffffffffffffffffff1614612f28576040517f08c379a000000000000000000000000000000000000000000000000000000000815260040180806020018281038252603c8152602001806141d0603c913960400191505060405180910390fd5b826001548110612f3757600080fd5b6003600085815260200190815260200160002060009054906101000a900460ff16612fad576040517f08c379a000000000000000000000000000000000000000000000000000000000815260040180806020018281038252602981526020018061415a6029913960400191505060405180910390fd5b60006002600086815260200190815260200160002060000160009054906101000a900473ffffffffffffffffffffffffffffffffffffffff16905060006003600087815260200190815260200160002060006101000a81548160ff0219169083151502179055506000600760008373ffffffffffffffffffffffffffffffffffffffff1673ffffffffffffffffffffffffffffffffffffffff168152602001908152602001600020600087815260200190815260200160002060006101000a81548160ff0219169083151502179055506000600860008373ffffffffffffffffffffffffffffffffffffffff1673ffffffffffffffffffffffffffffffffffffffff168152602001908152602001600020600087815260200190815260200160002060006101000a81548160ff02191690831515021790555060026000868152602001908152602001600020600080820160006101000a81549073ffffffffffffffffffffffffffffffffffffffff02191690556001820160006101000a81549073ffffffffffffffffffffffffffffffffffffffff02191690556002820160006131589190613f93565b60038201600090556004820160006131709190613f93565b6005820160006131809190613f93565b6006820160006131909190613f93565b6007820160006131a09190613f93565b50507fe72d680134b83b91d9f2abafcc3c5b2dfdf12328c4d679e62001676c04a866cb3386604051808373ffffffffffffffffffffffffffffffffffffffff1673ffffffffffffffffffffffffffffffffffffffff1681526020018281526020019250505060405180910390a15050505050565b60006040518060400160405280600681526020017f49737375657200000000000000000000000000000000000000000000000000008152506000809054906101000a900473ffffffffffffffffffffffffffffffffffffffff1673ffffffffffffffffffffffffffffffffffffffff1663ffb28d9c33836040518363ffffffff1660e01b8152600401808373ffffffffffffffffffffffffffffffffffffffff1673ffffffffffffffffffffffffffffffffffffffff16815260200180602001828103825283818151815260200191508051906020019080838360005b8381101561330c5780820151818401526020810190506132f1565b50505050905090810190601f1680156133395780820380516001836020036101000a031916815260200191505b50935050505060206040518083038186803b15801561335757600080fd5b505afa15801561336b573d6000803e3d6000fd5b505050506040513d602081101561338157600080fd5b81019080805190602001909291905050506133e7576040517f08c379a00000000000000000000000000000000000000000000000000000000081526004018080602001828103825260368152602001806142746036913960400191505060405180910390fd5b876040518060400160405280600781526020017f5375626a656374000000000000000000000000000000000000000000000000008152506000809054906101000a900473ffffffffffffffffffffffffffffffffffffffff1673ffffffffffffffffffffffffffffffffffffffff1663ffb28d9c83836040518363ffffffff1660e01b8152600401808373ffffffffffffffffffffffffffffffffffffffff1673ffffffffffffffffffffffffffffffffffffffff16815260200180602001828103825283818151815260200191508051906020019080838360005b838110156134de5780820151818401526020810190506134c3565b50505050905090810190601f16801561350b5780820380516001836020036101000a031916815260200191505b50935050505060206040518083038186803b15801561352957600080fd5b505afa15801561353d573d6000803e3d6000fd5b505050506040513d602081101561355357600080fd5b81019080805190602001909291905050506135b9576040517f08c379a00000000000000000000000000000000000000000000000000000000081526004018080602001828103825260398152602001806141216039913960400191505060405180910390fd5b600960008b73ffffffffffffffffffffffffffffffffffffffff1673ffffffffffffffffffffffffffffffffffffffff16815260200190815260200160002060003373ffffffffffffffffffffffffffffffffffffffff1673ffffffffffffffffffffffffffffffffffffffff16815260200190815260200160002060009054906101000a900460ff16613698576040517f08c379a00000000000000000000000000000000000000000000000000000000081526004018080602001828103825260278152602001806142aa6027913960400191505060405180910390fd5b60006001600081548092919060010191905055905060004290506136ba613fdb565b6040518061010001604052808e73ffffffffffffffffffffffffffffffffffffffff1681526020013373ffffffffffffffffffffffffffffffffffffffff1681526020018d81526020018381526020018c81526020018b81526020018a8152602001898152509050806002600085815260200190815260200160002060008201518160000160006101000a81548173ffffffffffffffffffffffffffffffffffffffff021916908373ffffffffffffffffffffffffffffffffffffffff16021790555060208201518160010160006101000a81548173ffffffffffffffffffffffffffffffffffffffff021916908373ffffffffffffffffffffffffffffffffffffffff16021790555060408201518160020190805190602001906137e092919061404c565b5060608201518160030155608082015181600401908051906020019061380792919061404c565b5060a082015181600501908051906020019061382492919061404c565b5060c082015181600601908051906020019061384192919061404c565b5060e082015181600701908051906020019061385e92919061404c565b5090505060016003600085815260200190815260200160002060006101000a81548160ff021916908315150217905550600460008e73ffffffffffffffffffffffffffffffffffffffff1673ffffffffffffffffffffffffffffffffffffffff1681526020019081526020016000208390806001815401808255809150509060018203906000526020600020016000909192909190915055506001600760008f73ffffffffffffffffffffffffffffffffffffffff1673ffffffffffffffffffffffffffffffffffffffff168152602001908152602001600020600085815260200190815260200160002060006101000a81548160ff021916908315150217905550600560003373ffffffffffffffffffffffffffffffffffffffff1673ffffffffffffffffffffffffffffffffffffffff1681526020019081526020016000208390806001815401808255809150509060018203906000526020600020016000909192909190915055506001600860003373ffffffffffffffffffffffffffffffffffffffff1673ffffffffffffffffffffffffffffffffffffffff168152602001908152602001600020600085815260200190815260200160002060006101000a81548160ff0219169083151502179055507f52775ded20614b213cad95910a18378999957eaf600abebde11f2a055710a62683338f604051808481526020018373ffffffffffffffffffffffffffffffffffffffff1673ffffffffffffffffffffffffffffffffffffffff1681526020018273ffffffffffffffffffffffffffffffffffffffff1673ffffffffffffffffffffffffffffffffffffffff168152602001935050505060405180910390a1600196505050505050509695505050505050565b60006040518060400160405280600781526020017f5375626a656374000000000000000000000000000000000000000000000000008152506000809054906101000a900473ffffffffffffffffffffffffffffffffffffffff1673ffffffffffffffffffffffffffffffffffffffff1663ffb28d9c33836040518363ffffffff1660e01b8152600401808373ffffffffffffffffffffffffffffffffffffffff1673ffffffffffffffffffffffffffffffffffffffff16815260200180602001828103825283818151815260200191508051906020019080838360005b83811015613bdd578082015181840152602081019050613bc2565b50505050905090810190601f168015613c0a5780820380516001836020036101000a031916815260200191505b50935050505060206040518083038186803b158015613c2857600080fd5b505afa158015613c3c573d6000803e3d6000fd5b505050506040513d6020811015613c5257600080fd5b8101908080519060200190929190505050613cb8576040517f08c379a00000000000000000000000000000000000000000000000000000000081526004018080602001828103825260368152602001806142746036913960400191505060405180910390fd5b826040518060400160405280600881526020017f56657269666965720000000000000000000000000000000000000000000000008152506000809054906101000a900473ffffffffffffffffffffffffffffffffffffffff1673ffffffffffffffffffffffffffffffffffffffff1663ffb28d9c83836040518363ffffffff1660e01b8152600401808373ffffffffffffffffffffffffffffffffffffffff1673ffffffffffffffffffffffffffffffffffffffff16815260200180602001828103825283818151815260200191508051906020019080838360005b83811015613daf578082015181840152602081019050613d94565b50505050905090810190601f168015613ddc5780820380516001836020036101000a031916815260200191505b50935050505060206040518083038186803b158015613dfa57600080fd5b505afa158015613e0e573d6000803e3d6000fd5b505050506040513d6020811015613e2457600080fd5b8101908080519060200190929190505050613e8a576040517f08c379a00000000000000000000000000000000000000000000000000000000081526004018080602001828103825260398152602001806141216039913960400191505060405180910390fd5b6000600660003373ffffffffffffffffffffffffffffffffffffffff1673ffffffffffffffffffffffffffffffffffffffff16815260200190815260200160002060008773ffffffffffffffffffffffffffffffffffffffff1673ffffffffffffffffffffffffffffffffffffffff16815260200190815260200160002060009054906101000a900460ff1690507fa7fd8cf89b56c70ba09532a67d2104b53f0b6341dc00b63f5591aa10ec562db83382604051808373ffffffffffffffffffffffffffffffffffffffff1673ffffffffffffffffffffffffffffffffffffffff168152602001821515151581526020019250505060405180910390a180945050505050919050565b50805460018160011615610100020316600290046000825580601f10613fb95750613fd8565b601f016020900490600052602060002090810190613fd791906140cc565b5b50565b604051806101000160405280600073ffffffffffffffffffffffffffffffffffffffff168152602001600073ffffffffffffffffffffffffffffffffffffffff1681526020016060815260200160008152602001606081526020016060815260200160608152602001606081525090565b828054600181600116156101000203166002900490600052602060002090601f016020900481019282601f1061408d57805160ff19168380011785556140bb565b828001600101855582156140bb579182015b828111156140ba57825182559160200191906001019061409f565b5b5090506140c891906140cc565b5090565b6140ee91905b808211156140ea5760008160009055506001016140d2565b5090565b9056fe4f6e6c79206365727469666963617465206f776e65722063616e20706572666f726d207468697320616374696f6e2e5468697320616374696f6e2063616e206f6e6c7920626520706572666f726d6564206279207573657220696e206f7572206e6574776f726b2e5468652063657274696669636174652068617320616c7265616479206265656e207265766f6b65642e596f75206861766520616c72656164792072657175657374656420666f72206120636572742e56657269666965722068617320616c7265616479206265656e20676976656e206163636573732e5468697320616374696f6e2063616e206f6e6c7920626520706572666f726d656420627920746865206365727469666963617465206973737565722e4f6e6c79206365727469666963617465206973737565722063616e20706572666f726d207468697320616374696f6e2e596f752068617665206e6f2076696577696e672061636365737320666f7220746865207375626a656374206365727469666963617465732e5468697320616374696f6e2063616e206f6e6c7920626520706572666f726d656420627920617574686f72697a656420726f6c65732e5375626a65637420686173206e6f74207265717565737420666f722061206e657720636572742e56657269666965722068617320616c7265616479206265656e2064656e696564206163636573732ea265627a7a72315820d012fd06b082aa53fcb1af76f6a902b03616ce61af96d0153ae7a0f89b8577ae64736f6c63430005100032",
  "source": "pragma solidity >=0.5.0;\nimport \"./CertificateNetwork.sol\";\n\ncontract Certificate {\n    CertificateNetwork certNetwork;\n    uint256 internal totalCert; // Total Counter Added CertNo + track certId\n\n    mapping(uint256 => Cert) private certsMap; // all created certs\n    mapping(uint256 => bool) private certExistMap; // T - cert is valid , F - cert is revoked, got record means created before\n    mapping(address => uint256[]) private subjectToCertListMap; // map subject to issued certs(by certId) by issuers\n    mapping(address => uint256[]) private issuerToCertListMap; // map issuer to issued certs(by certId)\n\n    mapping(address => mapping(address => bool)) private subjectToVerifierMap; // S>(V>bool), map subject to all approved verifiers to view all certs\n    mapping(address => mapping(uint256 => bool)) private subjectToCertMap;\n    mapping(address => mapping(uint256 => bool)) private issuerToCertMap;\n    mapping(address => mapping(address => bool)) private requestMap;\n\n    // TODO: JK,SK,XR -> feel free to add any mappings desirable\n    //\n    //mapping(address => mapping(address => bool)) private verifierToSubjectMap;\n    //V>(S>bool), map verifier to all subjects he/she can view certs\n    //mapping(address => uint256) private verifierToCertMap;\n\n    // Events\n    event IssuedCertificate(\n        uint256 certId,\n        address issuerAddr,\n        address subjectAddr\n    );\n    event RevokeCertificate(address issuer, uint256 certId);\n    event RequestCertificate(address subjectAddr, address issuerAddr);\n    event giveAccessViewing(address subjectAddr, address verifierAddr);\n    event denyAccessViewing(address subjectAddr, address verifierAddr);\n    event viewSubjectCerts(address verifierAddr, address subjectAddr);\n    event viewVerifierStatus(address subjectAddr, bool status);\n    event viewSubjectStatus(address verifierAddr, bool status);\n\n    // Structs\n    struct Cert {\n        address owner; // Subject address\n        address issuerAddr; // Issuer address\n        string issuerName; // (NUS,NTU,Coursera,LinkedIn)\n        uint256 creationDate; // cert creation date\n        string nric; // s9673333A\n        string matricNo; //subject admin no, e.g A0200100X, Question- same as rollNumber?\n        string title; // cert title\n        string completionDate; // date which subject completed the cert requirements\n        // remove variables:\n        // string studName; // subject name\n        // string rollNumber; //unique identification number that can be assigned to a SUBJECT during admission.\n        // string details; // modules taken, etc.\n    }\n\n    constructor(CertificateNetwork cn) public {\n        certNetwork = cn;\n        totalCert = 1;\n    }\n\n    // Modifiers\n\n    // Used for functions with specific roles\n    modifier onlyValidRoles(string memory role) {\n        require(\n            certNetwork.checkUserExist(msg.sender, role),\n            \"This action can only be performed by authorized roles.\"\n        );\n        _;\n    }\n\n    // Used to check if a user exist, i.e. issue cert to subject, check if that subject exist in our system.\n    modifier userExist(address addr, string memory role) {\n        require(\n            certNetwork.checkUserExist(addr, role),\n            \"This action can only be performed by user in our network.\"\n        );\n        _;\n    }\n\n    // Used this for determining valid cert\n    modifier validCertId(uint256 certId) {\n        require(certId < totalCert);\n        _;\n    }\n    modifier onlyCertOwner(uint256 certId) {\n        require(\n            certsMap[certId].owner == msg.sender,\n            \"This action can only be performed by the certificate owner.\"\n        );\n        _;\n    }\n    modifier onlyCertIssuer(uint256 certId) {\n        require(\n            certsMap[certId].issuerAddr == msg.sender,\n            \"This action can only be performed by the certificate issuer.\"\n        );\n        _;\n    }\n\n    // TODO: JAOKUEAN\n    // Request cert from issuer. (SUBJECT -> ISSUER)\n    // Issue: subject can spam request for each issuer without being a subject\n    // Assumptions:\n    // 1. Subject know school block addr\n    // 2. Subject belongs to the school and is legitamite.\n    // 3. Subject only needs to request from the sch once for a sch to send all the subjects cert.\n    function requestCert(address issuerAddr)\n        public\n        onlyValidRoles(\"Subject\")\n        userExist(issuerAddr, \"Issuer\")\n    {\n        require(\n            !requestMap[msg.sender][issuerAddr],\n            \"You have already requested for a cert.\"\n        );\n\n        requestMap[msg.sender][issuerAddr] = true;\n\n        emit RequestCertificate(msg.sender, issuerAddr); // Question: do we need date?\n    }\n\n    // TODO: Xie Ran\n    // Grant access to a verifier to viewing all subject certs.(SUBJECT -> VERIFIER)\n    function grantVerifier(address verifierAddr)\n        public\n        onlyValidRoles(\"Subject\")\n        userExist(verifierAddr, \"Verifier\")\n    {\n        require(\n            !subjectToVerifierMap[msg.sender][verifierAddr],\n            \"Verifier has already been given access.\"\n        );\n\n        subjectToVerifierMap[msg.sender][verifierAddr] = true;\n\n        emit giveAccessViewing(msg.sender, verifierAddr);\n    }\n\n    // TODO:Xie Ran\n    // Deny access to a verifier to viewing all subject certs.(SUBJECT -> VERIFIER)\n    function denyVerifier(address verifierAddr)\n        public\n        onlyValidRoles(\"Subject\")\n        userExist(verifierAddr, \"Verifier\")\n    {\n        require(\n            subjectToVerifierMap[msg.sender][verifierAddr],\n            \"Verifier has already been denied access.\"\n        );\n\n        subjectToVerifierMap[msg.sender][verifierAddr] = false;\n\n        emit denyAccessViewing(msg.sender, verifierAddr);\n    }\n\n    // TODO: ShiKai\n    // address owner; // Subject address\n    // address issuerAddr; // Issuer address\n    // string issuerName; // (NUS,NTU,Coursera,LinkedIn)\n    // string creationDate; // cert creation date\n    // string nric; // s9673333A\n    // string matricNo; //subject admin no, e.g A0200100X\n    // string title; // cert title\n    // string completionDate; // date which subject completed the cert requirements\n    function issueCertificate(\n        address subjectAddr,\n        string memory _issuerName,\n        string memory _nric,\n        string memory _matricNo,\n        string memory _title,\n        string memory _completionDate\n    )\n        public\n        onlyValidRoles(\"Issuer\")\n        userExist(subjectAddr, \"Subject\")\n        returns (bool Status)\n    {\n        require(\n            requestMap[subjectAddr][msg.sender],\n            \"Subject has not request for a new cert.\"\n        );\n\n        uint256 newCertId = totalCert++; // new cert id before transfer to subject\n        uint256 _creationDate = block.timestamp;\n\n        Cert memory newCert = Cert(\n            subjectAddr,\n            msg.sender,\n            _issuerName,\n            _creationDate,\n            _nric,\n            _matricNo,\n            _title,\n            _completionDate\n        );\n\n        //TODO: Check for duplicate cert details?\n        certsMap[newCertId] = newCert; // add to cert mapping\n        certExistMap[newCertId] = true; // for cert exist modifier\n        subjectToCertListMap[subjectAddr].push(newCertId); // add to subject list of certs\n        subjectToCertMap[subjectAddr][newCertId] = true;\n        issuerToCertListMap[msg.sender].push(newCertId); // add to issuer list of certs\n        issuerToCertMap[msg.sender][newCertId] = true;\n\n        emit IssuedCertificate(newCertId, msg.sender, subjectAddr); // Log event\n\n        return true;\n    }\n\n    // TODO: JK\n    // Delete cert in case of wrong issue or revoked.\n    // Assumption:\n    // 1. we do not delete the cert block, but set the existence to false to indicate it was deleted\n    // Question - Do we keep the certExist or just erase from existence?\n    function revokeCert(uint256 certId)\n        public\n        onlyValidRoles(\"Issuer\")\n        onlyCertIssuer(certId)\n        validCertId(certId)\n    {\n        require(\n            certExistMap[certId],\n            \"The certificate has already been revoked.\"\n        );\n\n        address subjectAddr = certsMap[certId].owner; // get owner of cert\n        certExistMap[certId] = false; // for cert exist modifier\n        subjectToCertMap[subjectAddr][certId] = false; // remove mapping\n        issuerToCertMap[subjectAddr][certId] = false; // remove mapping\n\n        delete certsMap[certId]; // Remove from mapping, cert does not exist anymore\n\n        emit RevokeCertificate(msg.sender, certId);\n    }\n\n    // Alternate code to retrieve all certs from a subject\n    // Verifiers > Subject\n    // return all viewable certIDs\n    // can be extended to retrieve all struct info.\n    function getCertListVerifiers(address subjectAddr)\n        public\n        view\n        onlyValidRoles(\"Verifier\")\n        userExist(subjectAddr, \"Subject\")\n        returns (uint256[] memory)\n    {\n        require(\n            subjectToVerifierMap[subjectAddr][msg.sender],\n            \"You have no viewing access for the subject certificates.\"\n        );\n        uint256[] memory certList = subjectToCertListMap[subjectAddr];\n        uint256[] memory newList = new uint256[](certList.length);\n\n        for (uint256 i = 0; i < certList.length; i++) {\n            if (subjectToCertMap[subjectAddr][certList[i]]) {\n                // Get all viewable certs\n                newList[i] = certList[i];\n                // newList.push(certsMap[certList[i]]) // Push entire cert struct\n            } else {\n                newList[i] = 0;\n            }\n        }\n        //TODO: return emptyList if no data\n        return newList;\n    }\n\n    function getCertListSubjects(address subjectAddr)\n        public\n        view\n        userExist(subjectAddr, \"Subject\")\n        returns (uint256[] memory)\n    {\n        // Redundant require since we already retriving from list belonging to addr.\n        require(\n            subjectAddr == certsMap[subjectToCertListMap[subjectAddr][0]].owner,\n            \"Only certificate owner can perform this action.\"\n        );\n\n        uint256[] memory certList = subjectToCertListMap[subjectAddr];\n        uint256[] memory newList = new uint256[](certList.length);\n\n        for (uint256 i = 0; i < certList.length; i++) {\n            if (subjectToCertMap[subjectAddr][certList[i]]) {\n                // Get all viewable certs\n                newList[i] = certList[i];\n                // newList.push(certsMap[certList[i]]) // Push entire cert struct\n            } else {\n                newList[i] = 0;\n            }\n        }\n        //TODO: return emptyList if no data\n        return newList;\n    }\n\n    function getCertListIssuers(address issuerAddr)\n        public\n        view\n        userExist(issuerAddr, \"Issuer\")\n        returns (uint256[] memory)\n    {\n        // Redundant require since we already retriving from list belonging to addr.\n        require(\n            issuerAddr ==\n                certsMap[issuerToCertListMap[issuerAddr][0]].issuerAddr,\n            \"Only certificate issuer can perform this action.\"\n        );\n\n        uint256[] memory certList = issuerToCertListMap[issuerAddr];\n        uint256[] memory newList = new uint256[](certList.length);\n\n        for (uint256 i = 0; i < certList.length; i++) {\n            if (issuerToCertMap[issuerAddr][certList[i]]) {\n                // Get all viewable certs\n                newList[i] = certList[i];\n                // newList.push(certsMap[certList[i]]) // Push entire cert struct\n            } else {\n                newList[i] = 0;\n            }\n        }\n\n        //TODO: return emptyList if no data\n        return newList;\n    }\n\n    // TODO: SK -> Getter and setter for all the cert attributes.\n    // @notice Function for verifier to view certs of a student\n    // @dev Checks for approval of viewing right of validator then returns all certs of student\n    // @param student address of student\n    // function getAllCerts(address subjectAddr)\n    //     public\n    //     userExist(subjectAddr, \"Subject\")\n    //     returns (uint256[] memory)\n    // {\n    //     address verifierList = studentToVerifierMap[student];\n    //     bool granted = false;\n    //     for (uint256 i = 0; i < verifierList.length; i++) {\n    //         if (verifierList[i] == msg.sender) {\n    //             granted = true;\n    //             break;\n    //         }\n    //     }\n    //     require(granted, \"Not granted access to view\");\n    //     return studentToCertMap[student];\n    // }\n\n    // Getters and Setters\n\n    //getters by XR:\n    //for a subject to check the viewing rights of a verifier\n    function checkVerifier(address verifier)\n        public\n        onlyValidRoles(\"Subject\")\n        userExist(verifier, \"Verifier\")\n        returns (bool)\n    {\n        bool status = subjectToVerifierMap[msg.sender][verifier];\n        emit viewVerifierStatus(msg.sender, status);\n        return status;\n    }\n\n    //Frontend[subject]: loop thr all verifier addresses to display the list of verifiers approved by the subject.\n\n    //for a verifier to check whether he/she can view a subject's certs\n    function checkSubject(address subject)\n        public\n        onlyValidRoles(\"Verifier\")\n        userExist(subject, \"Subject\")\n        returns (bool)\n    {\n        bool status = subjectToVerifierMap[subject][msg.sender];\n        emit viewSubjectStatus(msg.sender, status);\n        return status;\n    }\n\n    //Frontend[verifier]: loop thr all subject addresses to display the list of subjects viewable by the verifier.\n\n    //function for verifier to get the list of cert addresses under a subject\n    //only authorised verifiers can get this list to prevent privacy issues.\n    //THIS IS NOT FOR A SUBJECT TO VIEW HIS/HER OWN CERTS, IT'S FOR VERIFIERS ONLY.\n    // function getSubjectCerts(address subject)\n    //     public\n    //     onlyValidRoles(\"Verifier\")\n    //     userExist(subject, \"Subject\")\n    //     returns (uint256[] memory)\n    // {\n    //     require(\n    //         subjectToVerifierMap[subject][msg.sender],\n    //         \"You are not authorised to view this subject's certificates.\"\n    //     );\n\n    //     emit viewSubjectCerts(msg.sender, subject);\n    //     return subjectToCertMap[subject]; //may need to change if jk modifies the mapping\n    // }\n\n    //Frontend[verifier]: display all certs under the subject for the verifier.\n\n    // For testing gasCost for any inefficiency\n    function GasCost(function() internal returns (string memory) fun)\n        internal\n        returns (uint256)\n    {\n        uint256 u0 = gasleft();\n        string memory sm = fun();\n        uint256 u1 = gasleft();\n        uint256 diff = u0 - u1;\n        return diff;\n    }\n    //TODO: getOwnCerts() function for subjects to view his/her own certs.\n    //TODO: checkRequest(subjectAddr) function to check all request from a subject\n    //TODO: checkGrantList(subjectAddr) function to check all grants for subject\n    //TODO: checkGrantList(verifierAddr) function to check all grants for verifier\n}\n",
  "sourcePath": "/Users/stellaang/Desktop/NUS/Y3S2/IS4302/Project/IS4302_Project/contracts/Certificate.sol",
  "compiler": {
    "name": "solc",
    "version": "0.5.16+commit.9c3226ce.Emscripten.clang"
  },
  "schemaVersion": "3.4.4",
  "updatedAt": "2022-03-29T07:00:11.823Z",
  "networkType": "ethereum",
  "devdoc": {
    "methods": {}
  },
  "userdoc": {
    "methods": {}
  }
}